:020000040000FA
:060000000216C4020A18FA
:03001300020A3AA4
:03002B0002145567
:03003300020C625A
:03003B00020A8F27
:0300530002094D52
:03005B000211C7C8
:030063000211E89F
:03006B00020C087C
:03007B00020C393B
:100083000209AC010020FD0002012C050000000163
:10009300A21CAE1C0000B41CC01C00000000C61C47
:1000A300EA1CF01CF61C0000000000000000010127
:1000B3000204081020408001FFFF090D0101040123
:1000C300FEFF0000000000000006FFFFFFFFFFFF30
:1000D3000101010400C419000000E8030000FFFF50
:1000E300901AE803000064006400B801A0BB0D008F
:1000F300A0BB0D00020200F8FF0705021E04010564
:100103001E02051E020A0A01010808010310270244
:10011300803E0102FEFFE8030A050001FFFF010A1A
:100123001401E0C503423F1A51123FF304B53F00E7
:1001330000803E010105030101FF0F10FEFF933B09
:1001430000000000053A00000000FF000000FF006F
:10015300C082C083E9FA5407F8748A28F582E4342C
:100163001DF583E0F87900EAC4540F5403600814C2
:10017300600914600D8012E5808002E590587007D5
:100183008007E5A0586002790102025AC082C08349
:100193001202EC600814601214601C802BEA6005E4
:1001A300EB42808023E85280801EEA6005EB429098
:1001B3008016E852908011EBC39420500BEA60053F
:1001C300EB42A08003E852A002025AC082C083120D
:1001D30002EC600814602C146050807BE852F374C6
:1001E300016A601274026A601574046A7003EB4258
:1001F3008FEB42FD806153F7DFE8528F80F343F7C3
:100203002080F6E852F474016A601274026A601581
:1002130074046A7003EB42F6EB42FE803A53F7BF75
:10022300E852F680F343F74080F6EBC3942050275F
:10023300E852F574016A601274026A601574046A04
:100243007003EB42F7EB42FF800D53F77FE852F761
:1002530080F343F78080F6D083D08222C082C083AC
:100263001202EC600814602B14604E806CE852F3A9
:1002730052FD74016A600F74026A600F74046A703D
:1002830058EB428F805353F7DF800343F720E85244
:100293008F8046E852F452FE74016A600F74026A5A
:1002A300600F74046A7032EB42F6802D53F7BF80FF
:1002B3000343F740E852F68020EBC39420501AE83A
:1002C30044E0F852F552FF74016A601074026A60E8
:1002D3001374046A7003EB42F702025A53F77FE880
:1002E30052F780F543F78080F6E95407FC748A2CB3
:1002F300F582E4341DF583E0FBF4F8E9C4540F54AC
:100303000322C082C0831202EC60081460121460DE
:100313001C802DEA6005EB42FD8025E852FD80201C
:10032300EA6005EB42FE8018E852FE8013EBC394AB
:1003330020500DEA6005EB42FF800574E04852FF50
:1003430002025AC082C0831202EC600814601514C2
:1003530060228034EA6005EB42808003E85280EB40
:1003630042FD8024EA6005EB42908003E85290EB63
:1003730042FE8014EBC39420500EEA6005EB42A0CA
:100383008003E852A0EB42FF02025AE9C4540F541F
:10039300036007146013146020227801E8F4FBEA79
:1003A300602014602114601522740F59C394045003
:1003B30004780280E7780480E3780880DFE58C58CE
:1003C3006004EB528C22E8428C221216D4601D1278
:1003D30016E37005191919801A121565701F121585
:1003E3003DC37003E667331919194007181818221B
:1003F30008080874FFF618F618F618F62212153DC9
:100403006017121789702192F01217927019501702
:1004130020F014080808090909E7F61819E7F6187F
:1004230019E7F61819E7F62212179260E6E86970E1
:100433001F0808E62480F608E436F618547FB47FD4
:100443000CE654806007F6E418F618F62218182212
:10045300E9C6CC08C6CD08C6CE08C6CFC0E0E8C002
:10046300E0EAC0E0EBC0E009E9F809E7FA09E7FBD5
:10047300E6F918E6F8C3EC98ED99EE9AEBC2E7F5C6
:10048300F0EFC2E795F0500E600CEBCFFBEACEFA2B
:10049300E9CDF9E8CCF8EAA2E7D2E7FAEB33FB13AC
:1004A300F5F0EEA2E7D2E7FEEF33FFC5F013A2E7C4
:1004B30030E601B313C5F0C3C0E0C0F07F00C39BB7
:1004C300FB605E9418600F401D14601AD0E023F99E
:1004D300D0E0F80205AE8AF0E9486003D2F0E4AF59
:1004E300F0FAF9F8803BEB30E40D89F0EA6003D2CF
:1004F300F0E4AFF0F9CAF8EB30E30D88F0EF6002F7
:10050300D2F0AFF0E4CAC9F8EB54076014FBC3EAB6
:1005130013FAE913F9E813F8EF135002D2E0FFDB03
:10052300EDD0E0C0E030E739C3E49FFFF5F0EC988D
:10053300FC42F0ED99FD42F0EE9AFE42F0D0E0F974
:10054300D0E0F8E5F0607AE923F9EE20E742D8023B
:100553008067C3EF33FFEC33FCED33FDEE33FE80F6
:10056300EAEC28FCED39FDEE3AFED0E023F9D0E0C9
:10057300F84002801BC3EE13FEED13FDEC13FCEFFA
:10058300135002D2E0FF08B800067F7F74FF802E6D
:10059300EF3350178CF020F00260100CBC000C0DF0
:1005A300BD00080EBE000408E860DFE933E813FF6E
:1005B300EE2313FE4F4D4C8008E95480FFE4FEFD0B
:1005C300FCEE33EF33F47004FCFD7E80D0E0FBD00F
:1005D300E0FAD0E0F8D0E0CFC618CEC618CDC618E2
:1005E300CCC6F9221216D47004181818221216E376
:1005F300700D74FFF61819F61819F61819F622E794
:10060300548066F6121792700F12178970F014F661
:1006130008F608F608F680D1121789700CF608F66A
:1006230008768008E6447F80EC121540700C1215A2
:100633006860BFE65480F6E480BB12156870051944
:10064300191980A5E869700C763F18768018F6189A
:10065300F6E8F922E6CDC0E018ECC0E0E633CD338E
:10066300CDD313F6E719FCE7191933CC33C3947FC1
:10067300400ECD9D502408E65480F6E418F6800F12
:10068300F4043D14501408E6447FF6187680E41809
:10069300F618F6D0E0FCD0E0FD22CCD313CCFD1845
:1006A300E4C6CBC0E018E4C6CAC0E00808ED08C63B
:1006B30033E613F618E433C675F003C3CA97CA09C1
:1006C300CB97CB199C40047D08802EBD0003020705
:1006D3009016B6FF050606081618C3CA33CACB33ED
:1006E300CB33CA27CA09CB37CB193CC37D08803E1D
:1006F300187D0820E75CC633C6CA33CACB33CB3375
:10070300DDF1D5F0EB30E77BCA97CA09CB974ACB2B
:10071300199C406F4B7025E620E0218066187D0808
:10072300C3CA97CA09CB97CB199CD3C633C6CA335E
:10073300CACB33CB3350C9DDE7D5F0E1D3E4C636BA
:10074300C608C636C608C636C608C636C61818183A
:100753008031C3CA97CA09CB97CB199CB34097C6BC
:1007630033C6CA33CACB33CB33DD34D5F02EC6A25E
:10077300E0C640C8CA27CA09CB37194A70BECB3C6A
:10078300B480B90808E63308E633601F181818D098
:10079300E0FAD0E0FBD0E0FCD0E0FD22187D08CAEF
:1007A30027CA09CB37CB193CD3808013F618E4B69C
:1007B3007F11F618B6FF0EF618C60470D208087635
:1007C3008080CAF618F618F680C5001216D4604F5A
:1007D3001216E36012E7548066F612156570111263
:1007E3001789703B090909F4F618F618F618F6226A
:1007F30012153D701512179208080860EAE6447F47
:10080300F618768018E4F618F6221217926016127C
:1008130017897012E4F608F608F608E65480F6091C
:10082300090918181822EAC0E0EBC0E0ECC0E0EDBB
:10083300C0E0E687F0A4FBACF008E687F0A42CFC4C
:10084300E435F0FA1809E687F0A42C4B6002740132
:10085300CA35F0FCE433FB09E687F0D2F7A42CCBCE
:1008630035F0FC1908E687F0A42BCC35F0FBE43314
:10087300FD0819E687F0D2E7A42C4ACB35F0CD3436
:1008830000FC09E687F0D2E7A42DCC35F0FDE43374
:10089300FA0918E687F0D2F7A42CCD35F0CA340054
:1008A300FC08E687F0D2E7D2F7A42ACC35F07A7EAB
:1008B30020E70B0ACB33CBCD33CDCC33CC33CB3387
:1008C30050147004ED30E00ED2F1E4CD3DCDCC3CBC
:1008D300CC3B5005DA05C2F1EB547FC63308E6334F
:1008E30092F0FBE73309E733C39A502D2B70190CB1
:1008F3000D4C4D70151806E608C333700D20F10A30
:10090300A2F013F6E418800B4024E4F630F00276EC
:100913008018F618F618F68024D33B14501074FF91
:10092300A2F013F6187680E418F618F6800FA2F0FA
:1009330013F618E63303F618ECF618EDF6D0E0FDDF
:10094300D0E0FCD0E0FBD0E0FA22C0E074F1120E5C
:100953005EA2AFE433F509D2AF85A708AFA1EF5587
:1009630008FE74105E600612199675A1EF74085E96
:10097300600812199C75A1F78024EFA2E092F0E5BC
:1009830008A2E082F05017906198E0F890049CE090
:10099300C398A2D265D0335002E8F075A1FEE509F1
:1009A300A2E092AF7F02020EBDC0E074F2120E5EAF
:1009B300A2AFE433FED2AF9061A4E0F8759B00E5EB
:1009C3009158540860087591F71219E48023E59152
:1009D30058541060087591EF1219EA8014E591A23A
:1009E300E092F0E8A2E082F05007E0C2E0F0121BD0
:1009F300349061A3E0F8E5E9585404600E121B0A31
:100A030075E9FB906193E0A2E640F2EEA2E092AFBB
:100A13007F01020EBDC0E074F2120E5EA2AFE4339A
:100A2300FED2AF9061A5E0F8E5BF585404600675A7
:100A3300BFFB121B4C80D4C0E0C0D0E8C0E0E9C0CB
:100A4300E0C082C083A8C1E8C0E0900409E0F87464
:100A53008828F582E43403F583D0E0F0900408E0BD
:100A6300F8A3E0687006E59590040BF0900409E0A4
:100A730004F0C394804002E4F0A374C6F0D083D0A2
:100A830082D0E0F9D0E0F8D0D0D0E032C0E0C0D0DE
:100A9300E8C0E0E9C0E0C082C08390048CE0F8A322
:100AA300E0687008539AFBA374018022C2E99004A2
:100AB3008CE0F8740128F0740C28F582E43404F512
:100AC30083E0F5C190048CE0C394804002E4F0809D
:100AD300AC120B1F30F039120B648034120B1F2041
:100AE300F01430E72B74FFFCFBFA747F8022E4FCE4
:100AF300FBFA7480801AB48008BC00F2BB00EF805C
:100B03000F50EBF9E4C39AFAE49BFBE49CFCE499F1
:100B1300C6CC18C6CB18C6CA18C6F922E4C9C6087B
:100B2300CAC608CBC6D3330308CCC63392F0C394EA
:100B33007F402E94184019C9B90704CACBCC225060
:100B430025C309CA33CACB33CBCC33CC33D9F42234
:100B5300F4600DC9CCC313CB13CBCA13CAD9F6CCDB
:100B630022E4FCFBFA2214FCFBFA22C3E498F8E427
:100B730099F9120BAF8026C3E49AFAE49BFBE920B0
:100B8300E7E9120BAFE498F8E499F922C3E498F883
:100B9300E499F9120BAFE498F8E499F9C3E49AFAEB
:100BA300E49BFB22EB20E7CFE920E7E0B90010BB91
:100BB3000008E88AF084F8AAF022E4FBC8FA22EBE2
:100BC30070227B10C833C8C933C9335007C39AC3D3
:100BD300DBF280069A50012ADBEAC833F4C8C93332
:100BE300F4C9FA2275F008E4C833C8C933C933C954
:100BF3009AC99B5004C92AC93BD5F0ECFBC833F40E
:100C0300C8E4C9FA22C0E074F2120E5EA2AFE43364
:100C1300FED2AF90062DE05589600FE589FA790081
:100C2300121DF290062DE0F45289C2C5EEA2E092A5
:100C3300AF7F01020EBDC0E074F2120E5EA2AFE4FC
:100C430033FED2AF90062EE0558A600FE58AFA791B
:100C530001121DF290062EE0F4528AC2EB80CDC041
:100C6300E074F2120E5EA2AFE433FED2AF90062F11
:100C7300E0558B600FE58BFA7902121DF290062F77
:100C8300E0F4528BC2E880A4080808EAC0E0EBC095
:100C9300E086F0E7A4FA180986F0E7A42AFA18090F
:100CA30086F0E7A42AFA180986F0E7A42AFA198637
:100CB300F0E7A4FBE5F02AFA190886F0E7A42BFB7A
:100CC300E5F03AFA190886F0E7A42BFBE5F03AFAC7
:100CD30018180986F0E7A4C5F02BFBE43AFA1908C3
:100CE300E7C5F0C6A426F6E5F03BFBE43AFA18861E
:100CF300F0E7A4F6E5F00826F6E43B08F6E43A0844
:100D0300F6D0E0FBD0E0FA22080808E630E711123B
:100D130015A1120D23080808C64480C61818182206
:100D2300181818E9799EC608CAC608CBC608CCC6E7
:100D3300C370207996CACBCC7019798ECBCC701343
:100D43007986CC700EF9802ACA33CACB33CBCC3325
:100D5300CC331930E7F2CCCBCA3350147004EA30E9
:100D6300E00DE4CA3ACACB3BCBCC3CCC500209C31E
:100D7300E913C6CC182313C6CB18C6CA18C6F92262
:100D8300E4CFC0E0E4CEC0E0E4CDC0E0E4CCC0E01A
:100D930075F020E626F608E633F608E633F608E6AD
:100DA30033F6181818EC33FCED33FDEE33FEEF3356
:100DB300FFC3EC9709ED9709EE9709EF97191919F6
:100DC300400FFFEC97FC09ED97FD09EE97FE19190B
:100DD30006D5F0BFECF709EDF709EEF709EFF719C0
:100DE3001919D0E0FCD0E0FDD0E0FED0E0FF2225D1
:100DF30018C582C0E0E51934FFC583C0E0E518C318
:100E0300958224F810AF0885831985821880088598
:100E13008319858218D2AFCEF0A3E520F0A378081A
:100E2300E608F0A3DEFAEFF0A3E58124FAF8E6087A
:100E3300F0A3E608F0A3E608F0A30808E608F0A389
:100E4300E608F0A315811581D0E0FED0E0F8158106
:100E530015811581E8C0E0EEC0E022C0D02518C599
:100E630082C0E0E51934FFC583C0E0E518C395826D
:100E730024F310AF088583198582188008858319A8
:100E8300858218D2AFC8F0A3E9F0A3EAF0A3EBF090
:100E9300A37908E709F0A3D8FAECF0A3EDF0A3EEE9
:100EA300F0A3EFF0A3D0E0F0A3D0E0F0A3D0E0F004
:100EB300A3E520F0A3E5F0F0A3228519838518822A
:100EC300E0C0E0A3E0F9A3E0FAA3E0FBA37808E025
:100ED300F608A3DFFAE0FCA3E0FDA3E0FEA3E0FF36
:100EE300A3E0C0E0A3E0C0E0A3E0F5D0A3E0F520D9
:100EF300A3E0A3F5F010AF08858319858218800855
:100F0300858319858218D2AFD082D083D0E0F8D000
:100F1300E0321215A4181818120D8312167319193A
:100F23001922121673191919080808E61818182037
:100F3300E7E0120D831215A418181822090909E70E
:100F430019191920E7DC080808E618181820E70320
:100F5300020D831215A4181818120D831215A41864
:100F6300181812167319191922121774B9000302EB
:100F73000FABE4900331782E791B8002F0A3D8FCE9
:100F8300D9FA7A5E7B1D90008678CE79018015E4CC
:100F930093A3AD82AE838A828B83F0A3AA82AB83B1
:100FA3008D828E83D8E9D9E77582FA7583C7740772
:100FB3001213CC75827275833774001213CCE473E9
:100FC3001E75F0108E1A8F1B85821F85831E851850
:100FD30082851983E0CEA3E0CF851F82851E83EB34
:100FE300C9EAC8EDCBECCAC3E833C8E933C9EA336D
:100FF300CAEB33CBC3EA9EF51DEB9FF51CB350043C
:10100300AB1CAA1DEC33CCED33CDD5F0DAAE1AAF61
:101013001B221216D4601C1216E36017121792706B
:10102300071217897001D322C0D01217897006D016
:10103300D0B322C32233D0D0501430E0F6C3E796A6
:101043000809E7960809E7960809E796B32220E01E
:10105300D5E6970809E6970809E6970809E697B3DE
:1010630022D083D082ECC0E0EDC0E0E493A3FCE4A3
:1010730093A3FDED4C600D121188EC24FFFCED34BD
:10108300FFFD80EFE493A3FCE493A3FDED4C600D1F
:1010930012128FEC24FFFCED34FFFD80EFD0E0FD56
:1010A300D0E0FCE493A3C0E0E493C0E0221216D4A2
:1010B300601B1216E36016121792700712178960ED
:1010C3000CB322C0D01217897005D0D022C32233AB
:1010D300D0D0501330E0EBC3E7960809E796080930
:1010E300E7960809E7962220E0E4E6970809E697E1
:1010F3000809E6970809E69722D083D082E9C0E081
:10110300E493A3C386F0C5F095F0F908E493A386AE
:10111300F0C5F095F0700BE493A3C3994005E9047F
:101123008002A3E475F002A42582F582E5F03583FD
:10113300F583D0E0F9E493A3C0E0E493C0E0228513
:101143001983851882E0A3FEE0A3F5207808E0A3C5
:10115300F608DFFAE0A3FFE0A3C0E0E0A3C0E0E00D
:10116300A3C0E0E0A3C0E0E0A3C0E010AF08858225
:10117300188583198008858218858319D2AFD08397
:10118300D0820213D2C0E0C3E4939608740193960D
:1011930018400FE493667008087401936618700092
:1011A3007019A3A3C3E49396087401939618A3A399
:1011B300400DD0E0D0E0D0E00210A0A3A3A3A3A3EE
:1011C300A3D0E022C0E074F2120E5EC2D9901DA734
:1011D300E0C39400A2D265D0334005E0F91220E6C3
:1011E3007F01020EBDC0E074F2120E5EC2DC901DE0
:1011F300A9E0F9C39400A2D265D03340031220E6DC
:1012030080DE7404800474028000CCC0E0EDC0E092
:10121300E518C39CCCAD1950011D10AF068C188D79
:101223001980068C188D19D2AF12134ED0E0FDD061
:10123300E0FC2274028000CCC0E0EDC0E0E518C3FE
:101243009CCCAD1950011D10AF068C188D1980066A
:101253008C188D19D2AF12130AD0E0FDD0E0FC2216
:101263001216D460251216E360201217927003023F
:101273001789080808E76670101819E766700A18D6
:1012830019E76670041819E76622F422C0E0C0F07B
:1012930088F0E4936670080874019366187000A8D8
:1012A300F0A3A3700BD0F0D0E0D0E0D0E00210A008
:1012B300A3A3D0F0D0E022D083D082CCC0E0E493CB
:1012C300A3600612136F1470FAE493A3600612145A
:1012D300D21470FAD0E0FCE493A3C0E0E493C0E03E
:1012E30022C008C3E096F50808A3E096420808A3C5
:1012F300E096420808A3E0964208A2D265D033E5FF
:10130300087001D3D00822CAC0E0E493A3C582CCFD
:10131300C582C583CDC583F0A3C582CCC582C583F1
:10132300CDC583DAE5D0E0CA22A2E792D65002F413
:101333000430F70663F0FF05F0B3400384800384B1
:10134300F40430D60563F0FF05F022CAC0E0E0A341
:10135300C582CCC582C583CDC583F0A3C582CCC568
:1013630082C583CDC583DAE6D0E0CA22C0E0E49328
:10137300A3D39C5010E493A3C39C400AD0E0D0E0D5
:10138300D0E00212D7A3A3A3D0E022700908080873
:10139300226016181818C6C333C608C633C608C653
:1013A30033C608C633C6D5E0EA22C008C3E096F5C3
:1013B3000808A3E096420808A3E096420808A3E0C1
:1013C3009645087001D3D00822C09FF59FE473D0DF
:1013D3009F22D083D082C09FE493C0E0740193C066
:1013E300E0740293F59F227404800A7403800674E8
:1013F3000280027401C0E0F404121420D0E012173A
:101403001F2200C0D0251810AF08F518500C05197D
:101413008008F51850020519D2AFD0D0222518F54F
:101423008210AF08F518400C15198008F518400212
:101433001519D2AF85198322BB0102E722C082C0EE
:101443008389828A83BB0003E08002E493D083D044
:101453008222C0E0C0D0E8C0E0A8A8D2AFC2C7E8EB
:10146300A2E792AFD0E0F8D0D0D0E03260170808FE
:1014730008C6A2E713C618C613C618C613C618C6ED
:1014830013C6D5E0E9226016080808C6C313C618B8
:10149300C613C618C613C618C613C6D5E0EA22C3B8
:1014A300E0C696F608A3E0C696F608A3E0C696F64D
:1014B30008A3E0C696F6222518F8E43519F9222583
:1014C30018FAE43519FB222518FCE43519FD22C06E
:1014D300E0E493A36C7009D0E0D0E0D0E00212D72F
:1014E300A3A3D0E022251810AF08F518400C151956
:1014F3008008F51840021519D2AF22E7667010086C
:1015030009E766700A0809E76670040809E76622B6
:10151300C3E09608A3E09608A3E09608A3E096A28A
:10152300D265D03322E066701008A3E066700A0823
:10153300A3E066700408A3E06622191919E70947B6
:10154300097009E727097005E733F4220922C3E08C
:1015530096F008A3E096F008A3E096F008A3E096BF
:10156300F022181818E60846087009E626087005E0
:10157300E633F4220822C3E4939608740193960891
:1015830074029396087403939622C3E697F60809A8
:10159300E697F60809E697F60809E697F62218187B
:1015A30018E4C396F608E496F608E496F608E4967B
:1015B300F622E056F008A3E056F008A3E056F00840
:1015C300A3E056F022E667F60809E667F60809E69F
:1015D30067F60809E667F622E493F608740193F6C2
:1015E30008740293F608740393F622E657F6080983
:1015F300E657F60809E657F60809E657F622E627FE
:10160300F60809E637F60809E637F60809E637F675
:1016130022E026F608A3E036F608A3E036F608A390
:10162300E036F622E026F008A3E036F008A3E03621
:10163300F008A3E036F022E647F60809E647F60885
:1016430009E647F60809E647F622700422600D18FA
:10165300C6C333C608C633C6D5E0F41822E056F62F
:1016630008A3E056F608A3E056F608A3E056F622D0
:10167300E4C397F709E497F709E497F709E497F7C1
:1016830022600D08C6A2E713C618C613C6D5E0F339
:1016930022C6F4C608C6F4C608C6F4C608C6F4C60D
:1016A30022C3E09608A3E09608A3E09608A3E09679
:1016B30022C3E7960809E7960809E7960809E7961B
:1016C3002275D00075813F75183175190300020F1B
:1016D3006CE6084608C3134608336002E633F42277
:1016E300E7094709C3134709336002E733F422606C
:1016F3000C08C6C313C618C613C6D5E0F422E6F019
:1017030008A3E6F008A3E6F008A3E6F022E0F60853
:10171300A3E0F608A3E0F608A3E0F622CAC0E0E6D9
:10172300F0A308DAFAD0E0FA22E0FCA3E0FDA3E09C
:10173300FEA3E0FF22EAF0A3EBF0A3ECF0A3EDF0AD
:1017430022E0FAA3E0FBA3E0FCA3E0FD22E8F0A380
:10175300E9F0A3EAF0A3EBF022ECF0A3EDF0A3EEA3
:10176300F0A3EFF022E0F8A3E0F9A3E0FAA3E0FB93
:1017730022E5C754F84401F5C77901222518F582FB
:10178300E43519F58322E72719471947194722E654
:101793002618461846184622C2AF75D69F02000087
:1017A300221213D55EE2051213D5B2E3051213D547
:1017B30068E4051213D567E5051213D59AE60512F9
:1017C30013D59CBA071213D51DBB071213D558BCEA
:1017D300071213D5DCD6071213D5EDD6071213D58E
:1017E3008BD7071213D596D7071213D5F97F00129B
:1017F30013D5EDFF021213D5F4D8071213D504D96C
:10180300071213D519D9071213D57FD9071213D588
:10181300DAD3071213D55DD4071213D5C3D4071235
:1018230013D5FCC5071213D537C6071213D592C6B5
:10183300071213D5EAC6071213D570C7071213D5BB
:10184300ACC7071213D5E9FF061213D5F9FF061229
:1018530013D5EEC3071213D534C4071213D5C7FF2C
:10186300041213D52CBD071213D576BD071213D559
:101873000CBE071213D592BE071213D5C3BE0712AF
:1018830013D5DBBE071213D54FBF071213D565BFA0
:10189300071213D578BF071213D582BF071213D5CA
:1018A30093D1051213D544D6051213D559D7051272
:1018B30013D585D7051213D514D8051213D5DBDA42
:1018C300051213D50080061213D56380061213D5B3
:1018D3001381061213D5DE81061213D53383061244
:1018E30013D51384061213D51085061213D5E88673
:1018F300061213D50F87061213D59B87061213D52D
:10190300F588061213D56B89061213D5A989061219
:1019130013D5BB89061213D56D78001213D53B7A04
:10192300001213D5667B001213D5297D001213D53F
:101933001BF9061213D547F9061213D5B8FB061285
:1019430013D5F8FB061213D538FC061213D54CFC3D
:10195300061213D565FC061213D556FD061213D5D0
:10196300FBFD061213D50FFE061213D5A5CC0712E5
:1019730013D5C9CC071213D5E2CC071213D514CD56
:10198300071213D544CD071213D571CD071213D502
:10199300D3CD071213D5E2CD071213D5ECCD071221
:1019A30013D5F9CD071213D506B8071213D526B8E8
:1019B300071213D565B8071213D580B8071213D5CC
:1019C3009FB8071213D505B9071213D50EB907121D
:1019D30013D56BB9071213D58FB9071213D550BAA4
:1019E300071213D55DBA071213D56EBA071213D5B2
:1019F30089D9071213D5A1D9071213D5CDD9071247
:101A030013D5EC8E071213D54690071213D55490B5
:101A1300071213D56790071213D57C90071213D5BD
:101A23009190071213D5A490071213D5189107129A
:101A330013D57D91071213D51F92071213D5E39285
:101A4300071213D5F392071213D50293071213D576
:101A53005BD8071213D57FD8071213D5A7D807125F
:101A630013D5CFD8071213D5CBC1071213D5F2C1A3
:101A7300071213D510C2071213D583C2071213D549
:101A830033B5071213D54CB5071213D558B5071242
:101A930013D56CB5071213D58AB5071213D594B5B0
:101AA300071213D59EB5071213D5B1B5071213D577
:101AB30037B6071213D5ACB6071213D5DBB6071228
:101AC30013D529B7071213D578B7071213D593B7D0
:101AD300071213D59DB7071213D5AEB7071213D547
:101AE300F1B7071213D547DB071213D5D8930612A4
:101AF30013D50294061213D51F94061213D53294EC
:101B0300061213D54894061213D5A694061213D5BC
:101B1300DE94061213D5D298061213D5179A06121D
:101B230013D54A9A061213D5AD9A061213D5179CEC
:101B3300061213D53F9C061213D5549C061213D5D7
:101B4300649C061213D5A89C061213D5039D061296
:101B530013D5139D061213D59AD0071213D5B4D0FB
:101B6300071213D5DCD0071213D5F5D0071213D5FE
:101B730019D1071213D537D1071213D54ED1071236
:101B830013D57CD1071213D597D1071213D592DB46
:101B9300071213D51FA8071213D52FA8071213D5A1
:101BA30036A9071213D56AA9071213D58CA90712F0
:101BB30013D5AFA9071213D5CDA9071213D507AAB9
:101BC300071213D56CAA071213D5AEAA071213D5A1
:101BD300EDAA071213D51EAB071213D555AB071287
:101BE30013D59EF7021213D59AF8021213D5B8F83B
:101BF300021213D5DFF8021213D5A4FA021213D579
:101C0300D2FA021213D587FB021213D54EFC02122D
:101C130013D55DFD021213D58FFE021213D50C9C52
:101C2300071213D5619C071213D5DB9C071213D53A
:101C3300EE9C071213D5159D071213D5A89D071205
:101C430013D5829E071213D5439D061213D56E9D9D
:101C5300061213D5399E061213D5769E061213D596
:101C6300079F061213D597A2061213D5AAA406122C
:101C730013D509BA041213D543BA041213D543BCBE
:101C8300041213D588BE041213D575C1041213D5DB
:101C9300E7C1041213D584C2041213D59AC20412E5
:101CA30013D54DC3041213D589C3041213D5A0C38E
:101CB300041213D5CCC3041213D5CFC3041213D506
:101CC30028C4041213D57BC4041213D533C50412DC
:101CD30013D570C6041213D5FDC8041213D516CB41
:101CE300041213D549CB041213D5A9CB041213D56F
:101CF300FBCB041213D57ECC041213D512CD0412E0
:101D030013D528CF041213D5C7D0041213D501D28B
:101D1300041213D5A0D3041213D5C1D3041213D5BF
:101D2300DCD5071213D5E1D5071213D5FBD507125E
:101D330013D53DD6071213D56BD6071213D585D607
:101D4300071213D59ED6071213D5C2D6071213D581
:101D530077EE061213D5CBEE061213D59BEF0612C0
:101D630013D5C8EF061213D5F5EF061213D547F0B6
:101D7300061213D571F0061213D595F0061213D57A
:101D8300BDF0061213D5FDF0061213D587F1061226
:101D930013D5B8F1061213D5DFF1061213D525F2C8
:101DA300061213D543F2061213D567F2061213D5A2
:101DB30087F2061213D5BDF2061213D51CF30612D1
:101DC30013D58BF3061213D5B5C4061213D5EFC47E
:101DD300061213D52AC6061213D542C7061213D507
:101DE30049CB061213D5C9F3061213D57DF4061297
:101DF30013D5D3D2071213D544D3071213D5A6D3C1
:101E0300071213D57DDD061213D58EDE061213D508
:101E13009FDF061213D5EDE0061213D543E1061238
:101E230013D581E1061213D58FE1061213D520E3F2
:101E3300061213D5CBFC051213D52DFD051213D5B0
:101E430029FF051213D50080071213D5418007120D
:101E530013D57780071213D59E81071213D53A83C2
:101E6300071213D5DA83071213D5F884071213D593
:101E73003288071213D5B288071213D5DAC90712AD
:101E830013D517CA071213D54BCA071213D55ECA47
:101E9300071213D5ADAB071213D5C0AC071213D578
:101EA30082AD071213D52DAE071213D559AE071203
:101EB30013D5D0AE071213D542CB071213D562CB7D
:101EC300071213D575CC071213D578CC071213D587
:101ED30054CF071213D58ACF071213D5A4CF0712F5
:101EE30013D5E6CF071213D5F6CF071213D590D02B
:101EF300071213D5DEB6061213D5E8B6061213D5AC
:101F030022B7061213D58BB7061213D5A8B706123C
:101F130013D54AB8061213D553B8061213D598B879
:101F2300061213D5C1B8061213D5CEB8061213D5AF
:101F33003FB9061213D5CAB9061213D518BA061239
:101F430013D556BA061213D5BBBA061213D5DEBA89
:101F5300061213D555BB061213D5ACBB061213D507
:101F6300E7BB061213D51CBC061213D52EBC0612F2
:101F730013D540BC061213D55FBC061213D568BC3B
:101F8300061213D523BD061213D56FBD061213D542
:101F9300ADBD061213D503CE071213D543CF0712D7
:101FA30013D595BF071213D5CBBF071213D513C093
:101FB300071213D56CC1071213D50EDA071213D506
:101FC3007795051213D59B96051213D5D596051251
:101FD30013D57F98051213D5A998051213D51E9B07
:101FE300051213D55E9B051213D5F49C051213D568
:101FF300919D051213D5E39D051213D5869E0512F7
:1020030013D5BE9E051213D5009F051213D56FA0DD
:10201300051213D5BDA1051213D5EEA3051213D5D1
:102023001CA4051213D543A4051213D54CA4051201
:1020330013D59CA4051213D52EA5051213D55DA89F
:10204300051213D5E0A8051213D55CDC071213D5CE
:1020530072DC071213D51FA0071213D535A0071280
:1020630013D5D9A0071213D518A1071213D535A17B
:10207300071213D566A1071213D5B3A1071213D5FF
:10208300E6A1071213D521A2071213D516A407122E
:1020930013D5B0D7061213D5D6D9061213D508DB3C
:1020A300061213D520DB061213D5E189071213D5C7
:1020B3001C8B071213D5AE8C071213D5D9BD06128C
:1020C30013D5DDBE061213D5F9BF061213D514C1FD
:1020D300061213D5EAC1061213D523FE061213D531
:1020E30099FE061213D55BEF041213D529F00412DF
:1020F30013D536F0041213D5DFF0041213D53EF1D5
:10210300041213D5D9F2041213D551F3041213D5C3
:102113000CF5041213D538F5041213D540F7041245
:1021230013D568F7041213D5CDF7041213D528F885
:10213300041213D579F9041213D5CCF9041213D56B
:1021430048FA041213D5D2E8061213D5F9E8061299
:1021530013D54DEB061213D574EB061213D5C9EB49
:10216300061213D5FBEC061213D577ED061213D521
:10217300DCD4071213D53BD5071213D579D5071233
:1021830013D5BAD5071213D5E5B7051213D54EB833
:10219300051213D599B8051213D5D4B8051213D562
:1021A30049BB051213D563BF051213D583C10512AD
:1021B30013D591C2051213D56BC3051213D570CB7A
:1021C300061213D5AACB061213D5E3CC061213D5E8
:1021D30089CE061213D5B6CE061213D559CF0612E1
:1021E30013D5BCCF061213D5F3D0061213D5AED731
:1021F300071213D5F8D7071213D5CED1061213D56C
:102203002BD2061213D509D3061213D5FAD306120D
:1022130013D526D4061213D502D5061213D51ED50F
:10222300061213D5B7D5061213D540D6061213D509
:10223300C0FE031213D5CFFE031213D52FFF0312D3
:1022430013D5E67F001213D583F3031213D5EEF3F0
:10225300031213D5ECF4031213D502F6031213D5AC
:1022630088F6031213D561F7031213D541F803124D
:1022730013D563F9031213D57CFA031213D505FDA5
:10228300031213D5463E001213D5523E001213D546
:10229300B43E001213D5BE3E001213D5513F0012B7
:1022A30013D58D3F001213D54D40001213D55A405C
:1022B300001213D5BD40001213D55241001213D59D
:1022C3008841001213D50542001213D5A54300120D
:1022D30013D57945001213D55A46001213D5A447D6
:1022E300001213D5064A001213D56B4B001213D5F7
:1022F300004C001213D5334D001213D5274E001294
:1023030013D5604F001213D5F653001213D5E354BF
:10231300001213D57B55001213D5A055001213D507
:10232300CC55001213D56456001213D57A560012F9
:1023330013D59C56001213D50257001213D52157FB
:10234300001213D54A57001213D56A58001213D539
:102353004059001213D5B55A001213D5D65A00129C
:1023630013D5575B001213D5FD5B001213D5455CE3
:10237300001213D5B65C001213D5425D001213D5BB
:10238300A65D001213D5065E001213D5B55E0012CA
:1023930013D5215F001213D5545F001213D5D25FFA
:1023A300001213D52E61001213D59E61001213D5AE
:1023B3003062001213D59363001213D51A6400120E
:1023C30013D57F64001213D5AD66001213D5396897
:1023D300001213D54968001213D57D68001213D576
:1023E300EB68001213D52669001213D58869001211
:1023F30013D51D6A001213D5F86B001213D5C36DE4
:10240300001213D5CD6E001213D5CA72001213D564
:102413009773001213D5AF74001213D559760012B7
:1024230013D5FAF1011213D5B1F2011213D5B8F392
:10243300011213D536F4011213D578F5011213D511
:1024430099F5011213D551F6011213D5FCF60112B9
:1024530013D5DCFA011213D5F8FC011213D55FFE74
:10246300011213D5D6DB071213D5BDD6031213D52C
:1024730018D7031213D5A2D7031213D513D90312F6
:1024830013D5EBD9031213D5D4DA031213D5EBDA30
:10249300031213D53DDB031213D5A1DB031213D5AE
:1024A300E2DB031213D5F5DB031213D54BDC031266
:1024B30013D5A4DC031213D5BCDC031213D56CDFD4
:1024C300031213D501E0031213D52BE0031213D526
:1024D30074E0031213D564E2031213D5CEE20312A0
:1024E30013D5A2E3031213D5E5E3031213D5FFE3D8
:1024F300031213D546E4031213D566E4031213D56E
:1025030010E5031213D50EE6031213D568E6031282
:1025130013D5B9E6031213D5C4E7031213D568EA3A
:10252300031213D595EA031213D5FEEA031213D54A
:1025330023EB031213D59DEB031213D566EC0312A1
:1025430013D5A3EC031213D505ED031213D5C6ED72
:10255300031213D5C9ED031213D5D3ED031213D50B
:10256300DDED031213D5F0ED031213D56CEE031258
:1025730013D595EE031213D5A8EE031213D5D4EE9B
:10258300031213D5FBEE031213D51FEF031213D55A
:102593005AEF031213D5CCEF031213D5F4EF031242
:1025A30013D535F0031213D56AF0031213D58AF04D
:1025B300031213D5C7F0031213D5FEF0031213D57C
:1025C30008F2031213D53BF3031213D551F303128D
:1025D30013D5E7DA071213D5FFDA071213D5CAD1D9
:1025E300071213D5DEAF061213D52DB0061213D57D
:1025F300CDB1061213D588B3061213D5CAB306128A
:1026030013D5B3B4061213D5BDB5061213D5DFB572
:10261300061213D529B6061213D5AAB6061213D578
:102623002ED8021213D551D8021213D544D902124F
:1026330013D58DD9021213D5E5D9021213D541DA78
:10264300021213D58DDA021213D503DB021213D54E
:102653008FDB021213D504DC021213D547DC0212FE
:1026630013D518E0021213D567E2021213D5A1E2C3
:10267300021213D525E3021213D556E6021213D51F
:10268300968C061213D55BE8021213D563E9021286
:1026930013D579EA021213D5EFEA021213D5B6EB7A
:1026A300021213D51FEC021213D522EC021213D51A
:1026B300F6EC021213D532EE021213D5F2EF021228
:1026C30013D5EDF1021213D5F8F2021213D594F3D8
:1026D300021213D5DFF4021213D5E5F5021213D556
:1026E30048F6021213D5E5F6021213D5008005123F
:1026F30013D5A080051213D50A81051213D5B18114
:10270300051213D51082051213D5BC82051213D5F9
:102713006585051213D58B86051213D57CDF05124B
:1027230013D5EC88051213D59189051213D5348A74
:10273300051213D5938A051213D54C8B051213D5A5
:10274300CB8C051213D5888E051213D5099005126B
:1027530013D56391051213D57392051213D51993EB
:10276300051213D53894051213D5DAD4041213D5F0
:1027730052D5041213D59AD5041213D5DED50412FB
:1027830013D527D6041213D571D6041213D5A6D6A2
:10279300041213D524D7041213D57ED7041213D5EC
:1027A300D7D8041213D556D9041213D56DDA0412EF
:1027B30013D58FDA041213D59BDB041213D5ACDBCC
:1027C300041213D5C4DB041213D5E4DC041213D5AD
:1027D30001DD041213D5D4DD041213D5F8DD041280
:1027E30013D50FDE041213D530DE041213D552DED7
:1027F300041213D544DF041213D59CDF041213D53E
:1028030012E1041213D570E1041213D58FE10412FF
:1028130013D5C1E2041213D53EE3041213D5ABE37F
:10282300041213D5EBE3041213D54DE4041213D5AC
:10283300FDE4041213D5CFE6041213D5BAE704124C
:1028430013D5B4E8041213D5BAE9041213D5D6EAA2
:10285300041213D5E4EA041213D5BDEB041213D505
:102863005DEC041213D5A1EC041213D5B6EC0412DB
:1028730013D5C7ED041213D56AEE041213D5C2EEB5
:10288300041213D5F8AE071213D5A0B0071213D54F
:102893005DB1071213D5B2B1071213D523A40712E2
:1028A30013D541A4071213D585A4071213D5ABA4DE
:1028B300071213D5D1A4071213D5E9A4071213D510
:1028C30001A5071213D519A5071213D57CA5071265
:1028D30013D5BEA5071213D5E0A6071213D5E9A693
:1028E300071213D5F2A6071213D5FBA6071213D5A9
:1028F30005A7071213D526A7071213D5B2970712F8
:1029030013D5929B071213D5A09B071213D5A59B32
:10291300071213D567C8071213D586DA071213D522
:10292300D4FF011213D53BFE041213D57CDC07122E
:1029330013D50080021213D55780021213D5C3801A
:10294300021213D54F81021213D50582021213D539
:102953004D82021213D56682021213D589820212A6
:1029630013D5AB82021213D5E982021213D5388331
:10297300021213D56383021213D5C183021213D536
:102983006884021213D51085021213D58C850212A6
:1029930013D55986021213D5A086021213D5EC86DD
:1029A300021213D57487021213D5AD87021213D501
:1029B3000388021213D51F88021213D54E88021200
:1029C30013D55A8A021213D5888B021213D5B48BEE
:1029D300021213D5E88B021213D5098C021213D5F8
:1029E300188C021213D5238C021213D5D28C021227
:1029F30013D5428D021213D5CD8D021213D5D58D69
:102A0300021213D5428E021213D57E8E021213D5F3
:102A1300448F021213D51790021213D56C90021231
:102A230013D50B91021213D56591021213D5AA91F6
:102A3300021213D54394021213D58695021213D5AD
:102A43007098021213D55499021213D5389A0212B0
:102A530013D5499A021213D5BB9A021213D5529B6E
:102A6300021213D5B79B021213D5A79C021213D5DA
:102A7300CC9C021213D5EA9C021213D5069D0212B6
:102A830013D5799D021213D5889D021213D5109E7A
:102A9300021213D50D9F021213D51A9F021213D5DA
:102AA300239F021213D505A1021213D527A20212E6
:102AB30013D537A2021213D565A3021213D5E4A3CB
:102AC300021213D5FFA4021213D53BA5021213D58C
:102AD30015A7021213D5D2AA021213D5E6AA02121F
:102AE30013D5F0AA021213D5FAAA021213D504AB16
:102AF300021213D51DAB021213D527AB021213D545
:102B030094AB021213D59FAB021213D5C7AB0212BB
:102B130013D5D2AB021213D537AC021213D542AC84
:102B2300021213D566AC021213D58AAC021213D566
:102B3300FCAC021213D545AD021213D561AD0212DE
:102B430013D5D2AD021213D51EAE021213D567AE42
:102B5300021213D5A5AE021213D526AF021213D556
:102B6300CDAF021213D59CB1021213D501B20212DA
:102B730013D52FB3021213D555B3021213D59DB437
:102B8300021213D5D7B7021213D5D5B9021213D532
:102B9300A0BB021213D539BC021213D53ABE0212DE
:102BA30013D5EFBE021213D528BF021213D58EBF61
:102BB300021213D598BF021213D5C1C1021213D545
:102BC30000C3021213D557C3021213D502C4021253
:102BD30013D5B2C5021213D5FFC6021213D51FC7F0
:102BE300021213D574C7021213D575C8021213D576
:102BF3009DC8021213D5FCC8021213D5F4C90212E0
:102C030013D56BCA021213D57ECB021213D5ECCBAC
:102C1300021213D5EBCC021213D545CF021213D5F2
:102C23006ECF021213D5D4D0021213D556D202128C
:102C330013D5ADD2021213D55BD3021213D500D430
:102C4300021213D559D4021213D517D5021213D574
:102C5300A9D5021213D508D6021213D54AD60212E9
:102C630013D57BD6021213D5D2D7021213D5008007
:102C7300031213D53280031213D56B80031213D5BD
:102C83002982031213D5FF82031213D55E83031225
:102C930013D57484031213D5C084031213D54E873E
:102CA300031213D5288A031213D56F8B031213D57E
:102CB300078C031213D5138C031213D55C8C0312E8
:102CC30013D59E8D031213D5948E031213D5BE8E86
:102CD300031213D5148F031213D56D8F031213D55B
:102CE300E08F031213D51692031213D59893031290
:102CF30013D58394031213D5CD95031213D50598D9
:102D0300031213D5029B031213D5119B031213D580
:102D1300A59B031213D5509C031213D5939C031246
:102D230013D5DC9C031213D52C9D031213D5909D50
:102D3300031213D5029E031213D51E9E031213D53D
:102D43004D9E031213D58C9E031213D5879F031236
:102D530013D536A0031213D5B3A2031213D5E5A3DB
:102D6300031213D5BDA4031213D53FA5031213D524
:102D730074A9031213D5A3A9031213D5FEA9031231
:102D830013D531AA031213D5A9AA031213D5DCAAAA
:102D9300031213D53DAB031213D58DAB031213D519
:102DA3005AAC031213D513AD031213D5D7AD0312C7
:102DB30013D551B0031213D5B3B1031213D504B312
:102DC300031213D528B4031213D52BB4031213D54E
:102DD3005AB4031213D552B6031213D511B7031203
:102DE30013D540B7031213D55EB8031213D526B912
:102DF300031213D5E4BA031213D516BB031213D56A
:102E030058BB031213D557BC031213D5CABC031204
:102E130013D5F3BE031213D552BF031213D5A6BFA6
:102E2300031213D5D5C1031213D5B8C2031213D598
:102E330074C3031213D588C3031213D59CC303129F
:102E430013D5C9C3031213D5F9C3031213D5B4C5DC
:102E5300031213D5C6C6031213D51BC7031213D50A
:102E630064C7031213D58BC7031213D553C80312B8
:102E730013D5F9C8031213D57FCA031213D5C6CAD3
:102E8300031213D538CB031213D58DCC031213D5EC
:102E930036CD031213D56ACD031213D582CD031297
:102EA30013D525CE031213D5A1D0031213D549D2BE
:102EB300031213D567D2031213D585D2031213D588
:102EC30051D3031213D59FD6031213D5768401125F
:102ED30013D5AE84011213D5AE89011213D5F4892B
:102EE300011213D52A8B011213D58F8B011213D51F
:102EF300048D011213D50E90011213D537910112CF
:102F030013D54A9B011213D5DA9B011213D5C49E24
:102F1300011213D5D19F011213D534A0011213D579
:102F23007CA1011213D5EAA3011213D57CA50112CA
:102F330013D509A6011213D528A7011213D5B5A7D6
:102F4300011213D5BFA7011213D5E7A7011213D599
:102F530087A8011213D572A9011213D53FAA011232
:102F630013D55CAA011213D585AA011213D5B2AAEF
:102F7300011213D5F9AC011213D5C8AD011213D543
:102F830007AE011213D589AE011213D52AAF011270
:102F930013D55CAF011213D5A3AF011213D5D6AF6E
:102FA300011213D51AB0011213D569B0011213D54A
:102FB3006EB0011213D5CAB0011213D50EB10112AE
:102FC30013D5E8B1011213D54DB2011213D5B3B223
:102FD300011213D52EB3011213D596B6011213D5D0
:102FE30099B7011213D517B9011213D52DBC0112CC
:102FF30013D5CFBC011213D518BF011213D5D3BFFC
:10300300011213D512C0011213D5EAC1011213D54F
:1030130007C2011213D510C2011213D519C201122E
:1030230013D524C2011213D543C2011213D5E7C32A
:10303300011213D544C4011213D54EC4011213D582
:1030430058C4011213D5B7C4011213D501C5011217
:1030530013D502C6011213D559C6011213D56AC777
:10306300011213D5B3C7011213D56DC8011213D5BD
:1030730084C9011213D559CA011213D5A0CB011269
:1030830013D5A4CC011213D59DCD011213D5B5CD03
:10309300011213D5ECCD011213D5F6CD011213D5C0
:1030A30000CE011213D50BCE011213D529CE011276
:1030B30013D571CE011213D5CFCE011213D5F6CE8F
:1030C300011213D508CF011213D5BDCF011213D5A9
:1030D300F6CF011213D518D1011213D56BD10112FA
:1030E30013D551D2011213D578D2011213D5E8D2D8
:1030F300011213D564D3011213D5C0D4011213D511
:10310300E7D5011213D5A9D6011213D577D701122A
:1031130013D535D8011213D51DD9011213D5C7D92B
:10312300011213D52FDA011213D5E4DA011213D5E4
:1031330040DB011213D598DB011213D55EDC0112BB
:1031430013D581DC011213D53CDD011213D55EDDED
:10315300011213D5BFDD011213D5EFDF011213D511
:10316300E8E0011213D594E1011213D5B5E301127E
:1031730013D5FEE3011213D549E4011213D5A5E4D7
:10318300011213D503E5011213D527E5011213D557
:103193004BE5011213D580E5011213D5A8E5011201
:1031A30013D5EDE5011213D541E6011213D59AE6C5
:1031B300011213D594E7011213D532E9011213D585
:1031C30077E9011213D5A0E9011213D529EA0112F7
:1031D30013D59CEA011213D5AAEA011213D5CEEA3C
:1031E300011213D524EB011213D53FEB011213D5B2
:1031F300FAEB011213D526EC011213D569EC011277
:1032030013D5CCEC011213D5DAEE011213D506EF68
:10321300011213D5C1EF011213D5A5F0011213D575
:1032230039F1011213D54BF2051213D583F20512AE
:1032330013D5A4F2051213D5E6F2051213D54AF3FA
:10324300051213D554F3051213D564F3051213D5E0
:103253009BF3051213D544F7051213D50CF9051288
:1032630013D5F0FA051213D592FB051213D51CFCE6
:10327300051213D55080041213D5F980041213D507
:10328300D881041213D5E482041213D504830412E3
:1032930013D52684041213D5D685041213D5438679
:1032A300041213D51487041213D51A88041213D5E4
:1032B3009288041213D5CD88041213D526890412DB
:1032C30013D56189041213D5AA89041213D53E8A32
:1032D300041213D5D48A041213D5A98B041213D55F
:1032E3007C8C041213D50A8D041213D5308D04126D
:1032F30013D55D8D041213D58E8D041213D55B8EF9
:10330300041213D56B8E041213D5BE8E041213D57B
:10331300CB8E041213D5D88E041213D5E18E04126A
:1033230013D5458F041213D5A38F041213D5EE8F33
:10333300041213D50990041213D53090041213D537
:103343004D90041213D55990041213D5EA91041227
:1033530013D50392041213D57F92041213D59292BC
:10336300041213D5A292041213D54693041213D553
:10337300B294041213D5C595041213D5659604129D
:1033830013D56F96041213D5EE96041213D5FF9638
:10339300041213D53E97041213D56C97041213D558
:1033A3003998041213D59098041213D5C9980412AE
:1033B30013D51F99041213D53D99041213D58B9974
:1033C300041213D5569A041213D5A49A041213D5D2
:1033D300F19A041213D5749B041213D59E9B041205
:1033E30013D5D49B041213D5E39B041213D5429C2B
:1033F300041213D5BA9C041213D5FB9C041213D5E3
:103403004B9D041213D5769D041213D5909D04127F
:1034130013D5AA9D041213D57F9E041213D5899E3A
:10342300041213D5C49E041213D5D49E041213D5CB
:10343300259F041213D5399F041213D55BA00412E0
:1034430013D570A0041213D503A1041213D577A1C9
:10345300041213D51CA2041213D527A2041213D5E8
:103463008AA3041213D5A6A3041213D5F2A304123C
:1034730013D560A4041213D592A4041213D5ACA4DB
:10348300041213D50CA5041213D5ABA5041213D53E
:10349300F6A5041213D549A8041213D5E1A8041202
:1034A30013D558A9041213D5B5AB041213D5CDAB5C
:1034B300041213D5D0AB041213D5DCAB041213D50D
:1034C300F0AB041213D5F8AB041213D52FAC0412CE
:1034D30013D523AD041213D5ADAD041213D52FAEFE
:1034E300041213D5AFAE041213D586AF041213D54D
:1034F300A8AF041213D541B0041213D59EB0041221
:1035030013D5A1B0041213D510B1041213D55CB2B4
:10351300041213D56FB3041213D5FAB3041213D5DF
:103523000DB5041213D5D4B5041213D505B6041280
:1035330013D52BB6041213D534B6041213D563B6C0
:10354300041213D513B7041213D5C3B7041213D53A
:1035530036B8041213D5D9B8041213D54CB90412D2
:1035630013D58BB9041213D5D4B9041213D54B8CCC
:10357300061213D5B58B061213D5268A061213D558
:103583001AB6051213D59FB4051213D59DB30512B0
:1035930013D55EB1051213D508B1051213D54BAF80
:1035A300051213D5C2AC051213D53CAC051213D5C5
:1035B300F8AA051213D5A8DE051213D5A8DD051246
:1035C30013D5B4A9051213D52DA9051213D5C9DC3A
:1035D300051213D567E8061213D524B3071213D5C2
:1035E300FCB2071213D58FB2071213D52FB20712ED
:1035F30013D5BAD0051213D5E0CF051213D516CFC4
:10360300051213D585CD051213D54ECD051213D54D
:1036130020CD051213D5D4CC051213D53DCC0512FC
:1036230013D5ADCB051213D587CB051213D53CCBE0
:10363300051213D506CB051213D589CA051213D566
:1036430024CA051213D5D3C9051213D5FBC8051215
:1036530013D56BC8051213D51FC8051213D59AC706
:10366300051213D555C7051213D539C7051213D53E
:10367300E1C5051213D5C8E7061213D5B3C5051264
:1036830013D506E4061213D52BE3061213D535DC46
:10369300071213D51ADC071213D57A92061213D523
:1036A3001C91061213D5B390061213D54A90061235
:1036B30013D580C5051213D504C5051213D58995F5
:1036C300071213D57A94071213D52A8F061213D52E
:1036D300B493071213D53B93071213D500F20512C7
:1036E30013D5A7F1051213D56C8E061213D572F1FB
:1036F300051213D50F87051213D53DF1051213D506
:1037030009F1051213D59CF0051213D584F00512A7
:1037130013D55FF0051213D538ED051213D50BEB56
:10372300051213D512E9051213D59EE8051213D518
:103733004FE8051213D509E8051213D5ABE70512B7
:1037430013D5A4AC061213D512AC061213D5B38D40
:10375300061213D527AB061213D5AFA9061213D53C
:103763006AA7061213D5A5A6061213D5CBE6020047
:10377300000080FB8F0001002A1B87000100F91D58
:1037830035000400BD1D25000200C11D26000200F6
:10379300C31D27000200C51D28000100CF1D2900FD
:1037A3000100D01D84000400D11D86000100D51D39
:1037B3002A000100D61D2B000100D71D2C0001009B
:1037C300DB1D2D000800121B2E000100DC1D2F0045
:1037D3000100DD1D30000100DE1D31000100DF1D91
:1037E300320001001A1B330001001B1B34000100CF
:1037F300E01D360001001C1B38000100E11D3900EB
:103803000100DA1D83000200F71D63000100271B7E
:1038130064000100D81D65000100D91D6D00010081
:10382300281B710008000A1B66000100F61D4300F7
:103833000100E71D44000200E81D45000100EA1DE8
:1038430046000200EB1D470008001F1B4800010053
:10385300ED1D4B000100EE1D04000100FA1DA10047
:103863000100FD1D37000100FC1D88000100FB1D48
:103873003C0001001D1B3D000100E21D4900020048
:10388300EF1D67000100291B4D000200F11D4E00D2
:103893000100F31D4F000200F41D3E000100E61D70
:1038A30051000100E31D52000100E41D530001001B
:1038B300E51D540001001E1B000000000000000174
:1038C3003636010100010201000103010001040178
:1038D300060605020000070100340801000F090471
:1038E30001010D0100FF0E0800001702000019017D
:1038F30000FF1A0100011B0100FE1C0100081D024C
:1039030000001F010001200100012102000023012A
:10391300000F2402000026010001270100082802ED
:1039230000FF2A0100072B0102402C0100002D019A
:1039330000012E0100012F0100FF30010B1D310892
:1039430000003A0100083B01000F3C0100013D016A
:1039530000FF3E04000042040000460400004A0445
:1039630000004E04000052040000560400005A04F4
:10397300000000000000200172840000010020010B
:1039830072840000020020017484000003002001FF
:1039930073840000040042016D80000005004201B1
:1039A3007E80000006004201A08000000700200185
:1039B300AB80000000404201A080000010004201E3
:1039C3008F80000011002001FF0600001200100389
:1039D300891D0600000010110000080000002033BC
:1039E30000000C005500393300000C001C0042336A
:1039F3000000120055002001000014000E004222B6
:103A03000000010371030103010301030103010327
:103A13002203020301031003000300030003000356
:103A2300000300030003420300032403060300030F
:103A330000030403120325032303250323030403C1
:103A430004030003000300034403000300032303F0
:103A5300000365032100350381030003050300030D
:103A63000003000300032503230301017101010186
:103A73000101110101013101010101018001100165
:103A830061013B0014006301730172016201430190
:103A93000001130106013D0135000401120100017B
:103AA30000010001000104010401330133013C0161
:103AB30044013201360000010001650100013500B7
:103AC30081010001050182018301000103047104E6
:103AD30002046004110470040204020401040204D9
:103AE3001004610400041404630473047204620484
:103AF3004304000413040604000400040404120431
:103B030000040004000400045104640000040004E1
:103B130000044404000400040004000465040004D9
:103B230035048104640005040004830400040302D3
:103B330071023001600211027002010202020202EC
:103B43008002100261023A004100630273027202B2
:103B53006202430200021302380000020002040260
:103B630012020002000200020002040204023700F3
:103B730037003C02440200023900000200026502E1
:103B83000002350281020002050282028302000262
:103B93000300710030016000110070003102200346
:103BA30050048000100061000000140063007300E3
:103BB30072006200430000001300060000000000D2
:103BC30004001200000000000000000004000400D4
:103BD300370037003C0244000000000000000000F2
:103BE300650000003500810000000500000083002F
:103BF300000036000100060000000F000000000076
:103C0300000000000000000003FFFF00000403FFAA
:103C1300FF0000FFFF0FF4010005C40403200001AF
:103C230000000B000000000000000003010F000073
:103C33000000000000000000000000000000000081
:103C43000000000000000000000000000000000071
:103C53009823F2239E23A222A423F823A42304243B
:103C6300AA23A222A423F823B023A222B623A222AA
:103C7300BC23A222C223A222C823A222CE23A22291
:103C8300D4230A24DA23A22200000000000000004B
:103C930000000000E0231C24E623A222E0231C24CE
:103CA300E623A222D4230A24EC23A22200000A271B
:103CB3001300B6261F00BC261F80C22601000A2758
:103CC30002003E260300442604004A26050050262F
:103CD30006005C2630007A263100742632008626E0
:103CE30033008C26350092263400982636009E2613
:103CF3001100AA261400B02615006E26FFFF00004F
:103D03000A00000002000000040000000800000098
:103D130010000000200000004000000080000000B0
:103D23000001000000020000000400000008000081
:103D330000100000002000000040000001082F06D2
:103D4300322F082C2F0B4A2F10202C020E2F052068
:103D53002F07142F0CF02E0DFC2E641C2AFF0000DD
:103D630007ECFDFDFDECDCDCCCBCACAC9C9C8C7CA2
:103D73007C6C6C5C5C5C4C4C3C3C2C2C1C1C03EA4B
:103D8300F5E5D5D5C5B5A595958585757565655550
:103D93005545453535252515150500160F00000B2E
:103DA300150B020002220F3300000E5A69674265A9
:103DB30065416C6C69616E63653039010305070900
:103DC3000B0D0F00020406080A0C0D00011916184A
:103DD300161618230300303017181921301B1D1F26
:103DE30030303016181920231A1C1E3000034A499C
:103DF300434E181A25050200393D3F373C3C362C0B
:103E0300442D0C0E020B040B0A0708000F020402D8
:103E130001010101090200BE040AE80300000000D9
:103E23000E00E80300007F001E05030003040010DA
:103E33000A0C10080C280904040903010C050815D1
:103E43001208FFC082C083E990197AF002414B74D3
:103E5300F4120DF28A088B09EB5480604D800EEE4C
:103E6300FAEFFB122302EEFAEFFB121F1E90197AF0
:103E7300E0F9121F308A0A8B0BAE0AAF0BEE4F60CC
:103E8300208E828F83E0641A60D5EEFAEFFB122254
:103E93009CE9F974FF6960CEEEFAEFFB121F2480F0
:103EA300CCAA08E5096480FB80047A007B00024108
:103EB3003374F7120DF27AFF02557374F6120DF292
:103EC300E9FEEAFF7A047B00124546A808A909EA3D
:103ED300496034EF8A828B83A3A3A3F0EE8A828B9B
:103EE30083A3123F42E4F0A3F09019891245667050
:103EF30009901989E8F0A3E9803FE0FB8A828B836C
:103F0300A3A3A3E06F700479008031EAFCEBFD8A80
:103F1300828B8312456670E474FF6F700C8C828D04
:103F230083123F49E4F0A38010901989125E9A909E
:103F33001989123F49EAF0A3EBF0790102571CA358
:103F4300F08A828B8322126DB18882898322C08298
:103F5300C083EA126EB33BF583E0FA9019898004BB
:103F630088828983125D3C601C88828983A3A3A312
:103F7300E0FBEA6B600574FF6B70E588828983A3BD
:103F8300A3E0F9800279FF02414B74F4120DF2EAC7
:103F9300FEEBFF8A82F583125E9A12229CE9F508F2
:103FA30074FF69700302403E7A197B00121F18EAFE
:103FB3004B700302403E8A828B83743412691BA3C5
:103FC300EA2402FCE43BFD740612134E8E828F83B7
:103FD3001272038882F583126EC58A828B83A3A330
:103FE300A3A3A3A3A3A3124043A3A3A3A3A3A3EAAB
:103FF300240AFCE43BFD740C12134E8E828F831251
:104003005FCDC8126EB338F583E0C0E0EA2416F53D
:1040130082E43BF583D0E0F0EE240CF8E43FF9882A
:1040230082F583126EC9EA2417F582E43BF5831205
:104033004043E4F0A3F0A908121F2479010241339D
:10404300ECF0A3EDF08882898322C082C0839019AB
:1040530087125E9A02414B74F4120DF28A088B099F
:10406300ECFEEDFF7A081240AD700479108038122F
:10407300411712413F740C12177F125E9A8882898E
:1040830083A3A3A3A312785D90197F1245669019A9
:104093007F601112413A8003EAFCEB12456170F82C
:1040A3008C828D831241110241337B00121FAE8A31
:1040B3000A8B0BA80AA90BEA492274F4120DF289A0
:1040C300088A09ECFEEDFF7A0A1240AD70047910FC
:1040D300803A1241178A828B83A3A3A3E4F0A3122D
:1040E300412AE50912412AA3EEF0A3EFF0901983C8
:1040F300124566901983601112413A8003EAFCEB82
:1041030012456170F88C828D831241118022126DE9
:10411300B179002212411B228A828B83E4F0123F81
:1041230042A3A3E508F022125564A3A322121405A7
:104133007F040211428F83E0FCA3E022A3E509126E
:104143005569EEF0A3EFF022D083D0820213D2742C
:10415300F2120DF2EAFEEBFF8C088D0912231A8B83
:104163000DA90DEA4960198A828B83A3A3A3EEF0FC
:10417300A3EF125560E508F0A3E509F0790080028A
:104183007901025F1C74F4120DF274F71214E8E95A
:10419300FE8518828519837401F0EC7006EDC394D3
:1041A30006404D74036A4B604774011214BA880ABF
:1041B300890B780A1213F27C127D007A007B00EEE1
:1041C3001241FE121405E9601CE4F50AF50B780AA6
:1041D3001213F274031214CA74021214C212236E5D
:1041E3007402121405851882851983E06401700432
:1041F3007901800279007409024130F91223207495
:10420300022274E8120DF274FA1214E889128A1663
:104213008B178C088D0912370C8A148B15EA4B7097
:10422300057902024394AA08AB09A912122338E9BB
:10423300F50FA2E6401C901987125D3C6014E82438
:1042430019F582E439F583E064017006E50FD2E6DF
:10425300F50F7C067D007900AA18AB19121F0674AE
:104263001F12177F1243996009E054FCF0E04401E8
:104273008003E054FC1272AB125D3C602B741E127F
:10428300177FE0FE88828983A3121209EEFD740270
:1042930012177FE05403FCAA08AB09A9121222C02B
:1042A3007402121405E97005790102439474221211
:1042B300177F125D3C6012851882851983E04404E0
:1042C300F0740212177F126DAD742012177F124320
:1042D300996005E044088003E054F7F07421121755
:1042E3007F1243996005E044108003E054EFF074BB
:1042F3002412177FE0C0E0740412177FD0E0F0743B
:104303000512177FEEF07803851882851983E05430
:104313000460027805742512177F12498DE8251071
:10432300FEE43511FF12462B6063AC0AAD0BAA18ED
:10433300AB1912230E742712177F125EAC1213EE01
:10434300AC10AD1112611B121405750C1E780C1202
:1043530013F6750C7D750D19780C1213F2780A1289
:1043630013F28E0C8F0D780C1213F278081213F2DD
:10437300A90FAC14AD15AA16AB171237187409128E
:104383001405E9FEAA0AAB0B121FB480027E10EEDD
:10439300F97406026DBB12439D22E08518828519CC
:1043A300832274EA120DF274FE1214E8890B8A1444
:1043B3008B158C0E8D0F7E007F00750A007418120A
:1043C300177F12498D801112455712237A8B09EEFC
:1043D3002AFEEF3509FF050A126BC6502EE50A7552
:1043E300F0061249442403FEE43FFFA3A3E070E672
:1043F3000EEE70010F88828983A3A3A3A3124566DF
:104403008882898360C1125CAD80C2EEFAEFFB1231
:1044130045468A0C8B0DEA4B700302453A750A0038
:104423008030A818A9198812891378121213F27808
:10443300081213F28A828B83124557122380740465
:104443001214051271FDE50828F508E50939F50987
:10445300050A126BC6507CE50A75F006A4F8A9F0AC
:10446300E51028F582E511126BAD12454E8A828B59
:1044730083A31254D4F01255481254CFF0E5082404
:1044830003F5085002050988828983E070C2EA2493
:104493000308E43BF98882F58312454EA38582081D
:1044A3008583098A828B83A3A3A3A312413A8C82B7
:1044B300F583E58245837003024425AC08AD09AA60
:1044C30082AB8388828983E0F91223508A088B099F
:1044D300024453780C1213F28E088F0978081213D2
:1044E300F2742012177F1249831213F6E4F508F5CC
:1044F3000978081213F2742212177F1249831213D8
:10450300F6742212177F1249831213F67508007886
:10451300081213F675080178081213F6AC0EAD0FE6
:10452300AA14AB15A90B124E21121405E9FEAA0C0D
:10453300AB0D121FB480027E10EEF9740212140543
:10454300024574121FAE8A088B0922E08508828512
:104553000983F022127299AA0EAB0FA90B22FD8CCC
:10456300828D83125EA2EA4B22EEF98004AA12AB7B
:10457300137F0E02114274EC120DF2890A8A108B1A
:1045830011ECFEEDFF741412177F12477F700302C4
:10459300461CA808A9097C00800D12476250010B34
:1045A3001247925001090C850C82850D83E0FAECC9
:1045B300C39A40E674016A700AA3E07006750E019F
:1045C300750F0078081213F2780E1213F2741C128E
:1045D300177F12475C1213F6E4F50CF50D780C12F5
:1045E30013F2741E12177F12475C1213F6741E1215
:1045F300177F12475C1213F6750B00780B1213F634
:10460300750B04780B1213F6124E17121405E9FEFC
:10461300AA08AB09121FB480027E10024745740A30
:104623001214057F0C021142EEFAEFFB121FAE8A41
:104633000A8B0BEA4B22F58312586422F8E4350DFA
:10464300F98882F583124973A32285108285118329
:10465300E0F8E508C3982274EC120DF2890A8A1077
:104663008B11ECFEEDFF741412177F12474AF50805
:104673007509007402780812164D85080E85090F16
:10468300AA0EAB0F12746870030247437900803E91
:10469300E9F5127513007402781212164DE50C2514
:1046A30012FCE50D3513FD8C82F583A312463B12F4
:1046B3004F4DA312463BA3F0EC2403FC50010DF530
:1046C300828D83E0124F47124F2150010B09850C55
:1046D30082850D83E0F8E9C39840B5740168700AD8
:1046E300A3E07006750E01750F0078081213F278B7
:1046F3000E1213F2741C12177F12475C1213F6E4A6
:10470300F50CF50D780C1213F2741E12177F124775
:104713005C1213F6741E12177F12475C1213F675A0
:104723000B00780B1213F6750B07780B1213F612A6
:104733004E17121405E9FEAA08AB09121FB4800232
:104743007E10EEF902462612474E22E0F50CA3E056
:10475300F50D850C82F583E022E0F50B780B22EC56
:1047630075F003A4FAABF0E50C2AFAE50D3BFB8ADE
:1047730082F5831249A0F0EA2402FA2212474E7509
:10478300F003A4F50EE5F0F50FAA0E12725622F50A
:10479300828B83124B57124999A3A3F0E82403F8A1
:1047A3002274E8120DF274FE1214E81249EB121788
:1047B3007F12498D8009EE2402FEE43FFF050812B3
:1047C300464D5037E50875F00D1249442404FEE4C4
:1047D3003FFFE070E8A3E070DDEE2405FEE43FFF59
:1047E300E82404F50AE43912495F60D1850A828519
:1047F3000B83E0F9122362EE2980BE12462B70036D
:1048030002493F8A0E8B0F7508008018E50C2409B6
:10481300FAE4350DFB8A8212496D124995F08C0E2C
:104823008D0F050812464D40030248DCE50875F07C
:104833000D1249A7AA82AB83124648F0E50C240265
:1048430012463F1249BCA3F0E50E2404F50E5002B4
:10485300050F850C82850D83E070C7E50E2402FCED
:10486300E4350FFD850E82850F83A3A882A9838A71
:10487300828B83E07096E50C2404F512E4350DF584
:104883001385128212496DF0E50C2405F516E43503
:104893000DF51785168212746C1249CE2407F8E4BD
:1048A300350DF9888212496D1249E3F0E50E2405AE
:1048B300F50E5002050F8512828513831249667027
:1048C30003024825AC0EAD0FE50C240BF582E4354D
:1048D3000DF58312497B024825780A1213F28E0CD8
:1048E3008F0D780C1213F2742212177F1249831260
:1048F30013F6E4F50CF50D780C1213F27424121769
:104903007F1249831213F6742412177F12498312FC
:1049130013F675080078081213F67508097808125B
:1049230013F6AC14AD15740B12177F1249541214FD
:1049330005E9FEAA0AAB0B121FB480027E10026DBA
:10494300B7A4F8A9F0E51028F582E511124AF2EEB2
:1049530022125EA2A9091222C6740B22F50B850A44
:1049630082F583E0F9122356E922F5831249732273
:10497300E0850E82850F8322124B5C8A0E8B0F22F9
:10498300E0F5087808228E828F83E0F510A3E0F526
:10499300112212499922123F431249A022A3E0880F
:1049A30082898322126D7B85820C85830D12497364
:1049B300F0850C82850D83A3221249C022A3124BDA
:1049C300F9E0850E82850F83A3A322F085168285E5
:1049D30017831249DCF0E50C22A3E08C828D83223D
:1049E300A3A31249C0A3A322851882851983EAF0E1
:1049F300A3EBF089098C148D157E007F00750800E8
:104A0300741A2274EA120DF2890B8A108B118C0E20
:104A13008D0F7E007F00750A00741612177F1253E4
:104A23008F8003124ABF850C82850D83126BCC40A5
:104A3300F2EEFAEF127467607EA808A909750A00FE
:104A43008003124AFB850C82850D83E0FAE50AC3D5
:104A53009A40EF78081213F28E0C8F0D780C121314
:104A6300F2741E12177F126BF21213F6E4F50CF5B3
:104A73000D780C1213F2742012177F126BF21213BB
:104A8300F6742012177F126BF21213F6750A007870
:104A93000A1213F6750A0A780A1213F6AC0EAD0F52
:104AA300AA10AB11A90B124E21121405E9FEAA0894
:104AB300AB09121FB480027E1002456CE50A75F043
:104AC30005A4F8A9F0E50C28F582E50D124AF2A336
:104AD300A3A3127865A3A3E0F91223688B09EA2440
:104AE30003F8E43509F9EE28FEEF39FF050A223908
:104AF300F583A3A882A98322E50A75F005A4FAAB7E
:104B0300F0124B4B8582148583151249A1124F4233
:104B130088828983A3F0E5141275A835158A12F5E6
:104B2300138A82F583124B57A3F0E82403FCE4397C
:104B3300FD851482851583A3A3A3124B5C8A128B74
:104B430013A812A913050A22E50C2AF582E50D3BE9
:104B5300F583A3221249A1A322125EA685128285A0
:104B63001383E0F91223502274F6120DF274FE122D
:104B730014E8E9FE740C12177F124BEAC0E07401CB
:104B830012177FD0E0F0A818A919880889097808B6
:104B93001213F275080275090078081213F27416DD
:104BA30012177F1249831213F6741512177F12120C
:104BB30009741612177F1249831213F6741612170B
:104BC3007F1249831213F675080078081213F675DD
:104BD300080B78081213F6EEF9124E21121405741D
:104BE3000212140502571C1272C58882F583124300
:104BF3009D124BF9E022F088828983A32274EA1282
:104C03000DF289138A108B11ECFEEDFF7416121747
:104C13007F1275C6E50A2402F50CE4350BF50D8504
:104C23000C82F583E004751200F50E750F00FAABE4
:104C33000F1274687003024D2B850A82850B831251
:104C43004E0B801EEAFC850A82850B83A3A3A3E097
:104C53002CFBA3E034008B8212746CF0A3A882A90E
:104C6300830A850C82850D83E0FBEAC39B40D585CF
:104C73000A82850B83A3E0F8741812177FE0F97496
:104C83001912177FE0FA741A12177FE0FB74116888
:104C9300703978081213F2780E1213F2EBF50A78D2
:104CA3000A1213F6E4F50AF50B780A1213F2EAF581
:104CB3000A780A1213F6E9F50A780A1213F6750A46
:104CC30000780A1213F6750A12803C741368704F49
:104CD30078081213F2780E1213F2EBF50A780A121F
:104CE30013F6E4F50AF50B780A1213F2EAF50A78DB
:104CF3000A1213F6E9F50A780A1213F6750A007810
:104D03000A1213F6750A14780A1213F6EEFCEFFD75
:104D1300AA10AB11A913124E21121405E9F512AA18
:104D230008AB09121FB48003751210A9120245744F
:104D330074E8120DF289108A128B13ECFEEDFF74E6
:104D43001812177F124F2D75F003A4A9F02401F553
:104D53000EE4391274637003024E04850C82850DD0
:104D630083124E0B802EEA75F003A4FCADF0E50C24
:104D73002CFCE50D3D124F1312746C124F3E8882CA
:104D83008983124F5488828983A3A3F0E82403F80C
:104D93005001090A850A82850B83E0FBEAC39B4025
:104DA300C578081213F2780E1213F2742012177FCB
:104DB300126BF21213F6E4F50AF50B780A1213F2EA
:104DC300742212177F126BF21213F6742212177FDA
:104DD300126BF21213F6750A00780A1213F6750AAB
:104DE3000D780A1213F6EEFCEFFDAA12AB13A9100D
:104DF300124E21121405E9FEAA08AB09121FB48052
:104E0300027E10EEF9026DBE125864F0A3A882A9C7
:104E1300837A0022EEFCEFFDAA10AB11A90A12223D
:104E2300C6740B2274E8120DF289128A108B11ECEE
:104E3300FEEDFF741812177F124F2DF50875090048
:104E43007402780812164DE5082401F50EE43509BD
:104E53001274637003024F0E850C82850D83125802
:104E63005BA3AA82AB8379008034E9F5147515003E
:104E73007402781412164DE50C2514FCE50D351556
:104E8300124F13124639124F3E8A828B83124F54AC
:104E9300124F47A3A3A3A3124F2150010B09850A65
:104EA30082850B83E0F8E9C39840BF78081213F2B8
:104EB300780E1213F2742012177F126BF21213F68C
:104EC300E4F50AF50B780A1213F2742212177F1213
:104ED3006BF21213F6742212177F126BF21213F68F
:104EE300750A00780A1213F6750A16780A1213F671
:104EF300EEFCEFFDAA10AB11A912124E21121405FC
:104F0300E9FEAA08AB09121FB480027E10024E0606
:104F1300FDEC2402F514E43DF515851482221258A4
:104F230064A3A3A3F0EA2404FA22125393850C8208
:104F3300F583A385820A85830BE022124F42221256
:104F430072B1E0228A828B83A3A3F08C828D83A328
:104F530022A3F08C828D83A3A3A3A3E02274F11276
:104F63000DF274EB1214E8EAFEEBFFC200EA242010
:104F7300F8E43F8808F5098882F583C3E09403A326
:104F8300E094005005790102538790198712785FE6
:104F9300740212177F12785F740E12177FE4F0A366
:104FA300F0740A12177FE4F0A3F0740C12177FE475
:104FB300F0A3F0EA2422F8E43F880AF50B8882F58F
:104FC30083126EC9740412177FAA82AB831223085B
:104FD3008A0C8B0DA80CA90D740A12177F12785F27
:104FE300850882850983125E9AEAC398F8EB99F9DA
:104FF300850A82850B83E028F8A3E039F9740C1243
:10500300177F126DAD740812177FE090197EF0EED2
:105013002414F508E43FF509850882F583E0F912C5
:10502300370C8A828B83E5824583700C901987E461
:10503300F0A3F079020253871253D5602BEE2404B8
:10504300F50AE43FF50BA3121209740B12177FE064
:10505300FD740612177FE05403FC1253E41222C0BE
:105063007402121405E9700C901987E4F0A3F07927
:10507300030253871253E4122338E9F50E850A829B
:10508300850B83125E9AEAFCEBFD90197F800488FE
:10509300828983125D3C700302518388828983A3D2
:1050A300A312538FC3EA950CEB950D40E2888289D6
:1050B30083A3A3A3A3C3E09CA3E09D40D2E8FCE9A0
:1050C300FD740412177FE05407700D740912177FE3
:1050D300E0640B7003025187E50EA2E64003025120
:1050E30087EE2419F582E43FF583E06003025187DC
:1050F300740212177F1253AD707A740212177F1263
:105103005D3770707C00850882850983E0F912237E
:105113003E740112177F7401F0740912177F125342
:105123009B12177FE0F50C780C1213F67407121715
:105133007F121209750C01780C1213F674081217FA
:105143007F1274781213F674051214BA880C890D41
:10515300780C1213F2740912177F1253CC12177FB3
:105163001253A112177F1253BB1214057C01125361
:10517300E412233E901987E4F0A3F07905025387E4
:105183007C007D00740412177FE0F854036003026F
:1051930052A2E8540460057E840252E17409121796
:1051A3007FE0F8C39417400302529EE8F50A750B9B
:1051B300007402780A12164D7453250AF582743C62
:1051C300350B125843E849700302529E85088285C5
:1051D3000983E0C0E0741012177FD0E0F0740C1262
:1051E300177F125E9A741112177F12785F740A1276
:1051F300177F125E9A741312177F12785F7410125E
:1052030014C288828983120FC18B09A909740E12F3
:10521300177F12785FEA496048740912177FE0F537
:10522300087509007402780812164D74552508F59F
:1052330082743C3509F583E493F87401938882F50D
:1052430083E5824583601274021214C2120FC17483
:105253000E12177F125D3C6008740E12177F1278CE
:105263000E740912177FE0F86054740268604F747B
:105273000368604A74066860457408686040740C8B
:1052830068603B7411686036741368603174156824
:10529300602C740B6860277E0080437E82803FEC25
:1052A3004D602B8C828D83A3A3A31253D5601F74EF
:1052B300021214C2120FC1E9FE74FF6E700B901933
:1052C30087E4F0A3F0F902538774016E701074043D
:1052D30012177FE0540460047E8380027E8174028F
:1052E30012177F1253AD7075740212177F125D3758
:1052F300706B740412177FE0FA541070607401121B
:10530300177FEEF0740912177F12539B12177F1247
:1053130049831213F6740712177F121209750801D5
:1053230078081213F6EA131313541F64015401F59A
:105333000878081213F674051214BA8808890978D4
:10534300081213F2740912177F1253CC12177F122B
:1053530053A112177F1253BB121405D20090198761
:10536300E4F0A3F0EE70047900801974846EA20057
:10537300700A50047907800C790680085004790973
:10538300800279087415121405025CA71253932244
:10539300E0F50CA3E0F50D22127809740822E0244D
:1053A30006FAA3E03400FB740922125FCDC824156A
:1053B300F582E438F583E022A3E0C8126EB738F52E
:1053C30083E0F91222EA7407221271A9127295740A
:1053D3000922A3A3A3125FCD8882F583E5824583C7
:1053E30022850A82850B83125EA285088285098342
:1053F300E0F92274F4120DF28A088B09ECFEEDFF3A
:105403007C067D007900121F06850882850983E0EA
:1054130054FCF8A3E0F98E828F83E05403FAE84A40
:10542300850882850983F0A3E9127855A2E2500426
:10543300D2F08002C2F0850882850983E054FBF034
:10544300A2F0E433F50A750B007402780A12164DC4
:10545300E0450A127855A2E3850882850983E05066
:10546300044408800254F7127855A2E45004D2F0A1
:105473008002C2F0850882850983E054EFF0A2F030
:10548300E433F50A7404780A12164DE0450A1261F2
:1054930021850882850983E0540460108E828F83FE
:1054A300E0FAA3E0F9EA12667250010F8E828F834D
:1054B3001254CFA31254DD850882850983A3A3A3C5
:1054C300A3A3F0EE1275A83FFB0241331254D4A3F9
:1054D30022E0850882850983A322A312691BE022A7
:1054E30074F7120DF28A828B83E054038C828D83CE
:1054F30012555B540412555454081255545410F861
:105503008C828D83E048F0A3AC82AD838A828B8347
:10551300E0540460161255481249DD124BF48C8294
:105523008D83A3F0EC2402FC50010D8A828B83A3AC
:10553300A3A31249DC1255601249DDA3F0EC1275E6
:10554300A83DFB802EEA2402F8E43BF98882F58328
:1055530022F88C828D83E048123F43E02212556487
:1055630022125569A322F08A828B83A3A3A3A322C9
:105573001222967F01021142C082C083901981805A
:10558300048A828B83124566600C8A828B83A3A371
:10559300E06970ED80047A007B0002414BC082C059
:1055A3008390198380048A828B8312456660138AF1
:1055B300828B83A3A3E0F8E968600B74FF6870E64D
:1055C30080047A007B0002414B74F0120DF28A08CA
:1055D3008B09ECFEEDFF12231A8A0C8B0DEA4B604C
:1055E300627C0080010C850C82850D83A3A3A3A399
:1055F300A3A3A3125FB3504BECF50E750F00740316
:10560300780E12164D850C82850D83A3A3A3A312D6
:10561300584D8882F583E493FA740193FBE5086A95
:105623007003E5096B70BEA3A312564A7002EF6BB9
:1056330070B3741012177F125654740812130A7938
:1056430001800279008015E493FA740193FBEE6AFA
:105653002212729989838882221214057F0802110B
:105663004274F6120DF21256906005125E97800492
:105673007A007B0002571C74F6120DF212569060EA
:1056830005125E9580047A007B0002571C12231AD0
:105693008A828B83E58245832274F7120DF2E9FF38
:1056A300EAFCEBFD901985800488828983125D3CB6
:1056B300604688828983A3A3E06F70ED7E0080013A
:1056C3000E88828983A3A3A3E0FAEEC39A50DAEE8D
:1056D30075F003A4FA85F008AB0888828983A3A335
:1056E300A3A3E02AFAA3E03BFB8A82F583E06C7074
:1056F30003A3E06D70CA80047A007B0002557674C0
:10570300F6120DF21223328A828B83E5824583607F
:1057130006A3A3E0F9800279007F0202114274F626
:10572300120DF2ECFF1223328B09A909EA49601525
:10573300EA2402F582E439F583EF6005E0D2E680DE
:1057430003E0C2E6F080D274F0120DF2EAFEEBFF42
:105753008C098D0A1223148A0C8B0DEA4B700302F9
:105763005838750B00741012177F126BC1FAE9FBDE
:1057730080128C828D83A3A3A3E493A2E35003023C
:10578300581E050B850C82850D83A3A3A3E0F8E5C2
:105793000BC3984003025838E50BF50E750F0074E0
:1057A30002780E12164D850C82850D8312584D1208
:1057B300583DEE687002EF6970C88A828B83E0F807
:1057C3008C828D83A3A3E493C39840B674116509B7
:1057D30070197401650A609AE50A70A68C828D833C
:1057E300A3A3A3E493A2E2403280977413650970E4
:1057F30044E50A700D8C828D83A3A3A3E493A2E0F6
:1058030080E57401650A60030257858C828D83A34A
:10581300A3A3E493A2E14003025785741212177FF6
:10582300125934740412130A88828983A3A3125869
:105833005B79018002790002565FE8FCE9FD88820A
:10584300F583E493F8740193F922A3A3A3A3E025BA
:105853000EF8A3E0350FF922125864F0228E828FDE
:1058630083E08A828B832274F0120DF28A088B09FB
:105873008C0B12231A8A0E8B0FEA4B7003025921E9
:105883007A007B00741012177F125FC080050AEA4A
:1058930070010B850E82850F83A3A3A3A3A3A3A3E8
:1058A300E0F8C3EA98EB940050748A0C8B0D7403F0
:1058B300780C12164D850E82850F83A3A3A3A31222
:1058C300592612583DE508687003E5096970BFA3BE
:1058D300A3E493F50C740193F50D8E828F831272FA
:1058E30003C3E50C98E50D9940A48C828D83A3A393
:1058F300A3A3A3E493A2E7E433650B70917412129C
:10590300177F125934740812130A88828983A3A358
:105913001272038E828F83126DAD7901800279003A
:1059230002565FA3A3A3A3E0250CF8A3E0350DF96A
:10593300221272C58C828D83E8FCE9FD2274F11278
:105943000DF2EAFEEBFFECFAEDFBEE4F7003025AA9
:10595300B2EC2402F50CE43BF50D8C828D83A3ACF1
:1059630082AD838E088F09750A00E91212BA0441C9
:10597300427F5A4344915AE0E24A5AE8E9F65921F0
:1059830008E85909F6590A0C5A0B4A5A10E85918EB
:10599300E85919F6591A0C5A1B4A5A20E85921F6A4
:1059A30059220C5A234A5A245B5A25645A266D5AA3
:1059B30027765A28E85929F6592A0C5A2B4A5A2C81
:1059C3005B5A2D645A2E6D5A2F765A30E85931F6A8
:1059D3005938F659394A5A3A765AEA4A5AF0765AAF
:1059E300F1A35AB25A8E828F8312585BECFAEDFB05
:1059F300025AB28E828F8312463B1254DE8C828D02
:105A030083F00A0AAB0D025AB28E828F8378081292
:105A130017108A828B83E508126920780812171001
:105A2300E5098C828D83126920780812171074108F
:105A33007808121489850C82850D83E508F0EA2421
:105A430003FA506B0B80688E828F83121205121F2C
:105A5300847404121405805778081213EE7C0580B1
:105A63004678081213EE7C06803D78081213EE7C0C
:105A730007803478081213EE7C08802B7808121301
:105A8300EE8E828F83E02401FCE43400800F7808DB
:105A93001213EE8E828F83125C3CFCE439FD800985
:105AA30078081213EE7C107D0012611B121405029C
:105AB3005CA7C082C083E91212BA03202FCD5A38E3
:105AC3003ACD5AE0E2CD5A00D15A790180027900E9
:105AD30002414B74F2120DF274FE1214E8EAFEEB6B
:105AE300FF8C088D09122368851882851983740138
:105AF300F0A3E4F0851882851983E0600C750C012E
:105B0300750D00780079008033750CFF750DFFEA81
