:20000000003A0120C9FB010039FB021039FB021039FB021039FB021039FB021039FB02101C
:1C00200039FB021039FB021039FB021039FB021039FB021039FB021011FB021002
:20004000BA492DE9F04F0446B74ADFF8E8920E68A578507800279046ADF1540D29460C29B1
:2000600007D9DFF8CCB2DFF8D0A2203933290FD953E3DFE811F06D055E0543052D050D0506
:20008000F704F304DD04C7045203BA04B6049604DFE811F083047F047B046B046704EC0242
:2000A00051042F04B10287024303430343034303430343030B04F003D303B80359029D034A
:2000C0003402FC01430343034303430343034303E801B5019C0143038C03790183037703BE
:2000E0006A0354012A01E500660362035803C000480382004503670046003400E1788DF871
:200100002A7031F07F0006D011F07F0F0CBF381C0120CA49087053210DF12A0300F004BD25
:2001200008F1110332203946012226F041F908F1120333203946012226F03AF9C84898F882
:2001400011100078012905D04FF400611EF066FE00F001BD4FF40061642226F0AEFC00F069
:20016000FABC8DF82B7078B9E41C204626F050FB0546A01C0446083026F04AFB024621461E
:20018000284624F08AFA00E012208DF82B0051210DF12B0300F0C8BCE01C26F039FBE51C3E
:2001A000AE784FF6FF748DF80A600546ADF80850AC4218D0E01EA84215D0A01EA84212D0FD
:2001C00002208DF80C00ADF80E5003A81BF096FF012818BF4FF001090CD1BDF80E00ADF890
:2001E0000800012000E038468DF80B0002A81DF099FD8146E41EAC4204DC012088F82A0039
:2002000088F82B6021F004FF8DF82C904F210BAB00F08ABC20798DF82E00E078012814D071
:20022000022809D0032805D052200DF12E0124F0C7FB0FE03C4600E0012452200DF12E0131
:2002400021F026FF88F8004004E052200DF12E0121F01EFF4D210DF12E0300F065BCE178F0
:2002600038465EB13279914205D1F2880DEB4003401CC0B21A813668002EF3D18DF830003A
:200280009DF83000012404EB4000C0B205461AF0C1F85FEA000806D18DF8307049212246A6
:2002A0000CAB00F042BC02469DF8300002F8010B38469DF8301081420ADC652049212A462B
:2002C000434622F097F9404621F062FD00F043BC0DEB400108310B7813700988401CC0B237
:2002E00009125170921CE4E7301CE4788DF8317013D03E4601798C420BD11EB905680B49B8
:200300000D6002E001683160056821F041FD284601E0064600680028ECD121F0D9FE0DF10A
:200320003103472100F000BCAC5D0020C4640020EB740020F45C0020065A0020E01C10F891
:20034000014B26F065FA0146C7480068224650B13E4603799A4202D1C388994205D00646BF
:2003600000680028F5D1012008E006B9BE4E0168316021F00DFD21F0ABFE38468DF832004F
:200380000DF13203CDE739460DF12200062207911BF07AFEE01C07A925F070F88DF82200C4
:2003A000079870B101888DF8231046888DF8256009128DF8241031128DF8261000798DF894
:2003C0002700432106220DF12203AEE364788DF8377048B1012805D002281CBF01208DF80C
:2003E000370004D1022000E004200EF07DF924F01F04202C40F0AF830DF13703EEE2204604
:2004000090F80180C01C26F003FA59460A7849468E6856B13C4633799A4202D1F388984205
:2004200005D034463668002EF5D101200EE03CB9346804B93C468C6004E0C046585A002054
:2004400030682060304621F0A3FC384628F01F088DF83800B8F1200F40F07D830EABBDE284
:20046000CC59002020464478C01C26F0D1F901465846007820F06EF824F01F048DF8390091
:20048000202C40F068830DF13903A7E2E41C204626F0BEF9A41CADF8080014F8010B042155
:2004A0008DF81000204625F006F90646201D10F8019B10F8018B26F0ABF9044631464A4661
:2004C000434602A800941DF01FFB8DF83A009DF810000F280FD1022053468DF810001888C3
:2004E00031464A46ADF80800434602A800941DF00BFB8DF83A000DF13A036FE2207826461F
:20050000042806F1030614BF16F8010B02208DF81000304626F07CF9D54CADF80800B01C70
:2005200010F8018B012626700278414602A81EF0F1FF8DF83B002770404625F0FDFE0DF1D6
:200540003B0332464BE20220E41C8DF81000204626F05EF94E46A11CADF808000C7A7068D2
:2005600026F0CFFA7168C4F3400804F00104B8F1010F0F7204D17268107A40F04000107266
:20058000012C03D1087A40F080000872484602A9342209231DF038FE0DF13D038DF83D00B0
:2005A000C1E20226E41C8DF81060204626F030F9A41CADF80800204626F02AF9A2788046EA
:2005C00002A84146144625F031FA8DF845009DF810000F280CD1504600888DF81060414633
:2005E0002246ADF8080002A825F020FA8DF845000DF14503F2E10226E41C8DF810602046A7
:2006000026F006F9A41CADF8080014F8010B8DF84700204626F0FCF8A41C14F8019B8046D6
:2006200002A90DF14700424600944B46019721F09FF98DF846009DF810000F2811D15046BD
:2006400000888DF810603E4602A94246ADF808004B4600940DF14700019621F089F98DF8A0
:2006600046000DF14603B9E1C4640020A946E51CA878B846FE280BD1E878FF2808D1207803
:20068000082805DB284626F0C3F8294624F04CFA284608A925F0AAFA041C0ED1182019F02A
:2006A000B9FE5FEA000807D0BDF8200039461822434625F07DFE00B1C824192019F0AAFE2D
:2006C000061C20D05CB9701C2946082225F066FB06F109004146102225F060FB04E0701CBF
:2006E000FF2118221BF0D0FC3470652049461922334621F07FFF3046394619221BF0C4FCD3
:20070000304621F045FBB8F1000F00F024824046394618221BF0B8FCD5E502271BE21CF0DA
:20072000E1F818E2E01C26F073F8E51C0246A81C10F8011B1CF08EFB4E210DF12D038DF881
:200740002D00F1E18DF82F7025F0D0FB0DF12F034C218DF82F00E7E120461CF089F8FAE1AF
:2007600020461EF0A7F9F6E1E01C26F051F86179A2791DF00CFB46210DF133038DF83300D7
:20078000D2E1E01C26F044F86179A27911F0C2FD45210DAB8DF83400C6E1E01C11F002FC2A
:2007A00044210DF135038DF83500BDE1E01C26F02FF8E51CA91C0B4608310A4619461FF0FF
:2007C000D7F942210DF136038DF83600ACE10220E41C8DF81000204626F01AF84E46A11CD1
:2007E000ADF808000C7A706826F08BF9706802A935220923047248461DF006FD0FAB8DF8FB
:200800003C00EBE00220E41C8DF81000204625F0FFFFADF80800A0780DF13F0602A9332299
:200820008DF83F00012300964846019721F0A0F80DF13E038DF83E00D0E00220E41C8DF812
:200840001000204625F0E4FFADF80800A0780DF1410602A932228DF8410001230096484613
:20086000019721F085F810AB8DF840005BE1C046946300200220E41C8DF81000204625F047
:20088000C7FFADF80800A0780DF1430602A931228DF84300012300964846019721F068F86F
:2008A0000DF142038DF842003DE10220E41C8DF81000204625F0ACFFA41CADF808000421A1
:2008C000204624F0F8FE4E46221D014612F8018B7068137825F056FA02A900F8018B3022AF
:2008E0000370484606231DF08FFC11AB8DF8440019E10126E41C8DF84860601C25F088FF4B
:20090000814604F10B0025F083FF804694F800A0637BA07B22F02EFD0093E01C494652469B
:20092000434613F02BFD12AB8D498DF84800042025F09EFF05E60126E41C04218DF8496068
:20094000204624F0B8FE21791EF008FA85498DF84900022025F08CFF83490DF14903032026
:20096000E6E720461AF07EFBF5E0E41C204625F04FFFA11C0B4608310A4619461FF0F8F82E
:200980000DF14A038DF84A00CDE020461AF0E3FAE1E020461AF09CFADDE020460FF0E6FF75
:2009A000D9E0E01C25F034FF4E464FF6FD740F22ADF8084071688DF81020022304121522D2
:2009C00001F8010B48460C7002A9F7701DF01CFC39468DF84B000DF14B03F1700122294643
:2009E000A3E0204618F028FFB5E0E41C204625F00FFFA11C0A7A3B4622F08EF913AB8DF823
:200A00004C0090E00220E41C8DF81000204625F0FFFEADF80800A01C25F0FAFE01461122FB
:200A200002A825F003F80DF14D038DF84D007AE00220E41C8DF81000204625F0E9FEADF8C4
:200A40000800A01C25F0E4FE0146102202A824F0EDFF0DF14E038DF84E0064E020460FF0ED
:200A6000E1FA78E00220E41C8DF81000204625F0CFFEADF80800A01C25F0CAFE0146052290
:200A800002A824F0D3FF0DF14F038DF84F004AE00220E41C8DF81000204625F0B9FEA41CCF
:200AA000ADF80800204625F0B3FE4E467268A178107072680312537070680323042281708F
:200AC00002A948461DF0A0FB14AB8DF850002AE00220E41C8DF81000204625F099FEADF829
:200AE0000800A01C25F094FE0146032202A824F09DFF0DF151038DF8510014E00226E41C81
:200B00008DF81060204625F083FEADF80800A01C25F07EFE0146324602A824F087FF0DF1E9
:200B200052038DF8520029460122652021F062FD11E0E41C204625F06BFEA41C14F8011B45
:200B4000227822F04BFC0DF153038DF85300EAE7204617F0ABFA384615B0BDE8F08FC04626
:200B6000012C0200E74B0200515201002DE9F04F04464FF6FE70ADF15C0DADF854009B4839
:200B800040784FF00008022812D19848007878B92089002807BF30204146102001210FF001
:200BA0003BF88DF8568052200DF1560121F070FA6068217A08AA12F04BFB002800F0BD84AF
:200BC0009DF822000228B4BF012747469DF824000228A8BF4746BDF82A104FF6F8708842CF
:200BE0000ED04FF6FE70401F884209D04FF6FE70001F884204D04FF6FE70C01E884200D1C6
:200C0000474625F0CFFD9DF82310884240F09584002F00F0928475484078022804D19DF84D
:200C20005100002840F08984208D9DF82660678EADF84C00ADF82E7056B161689DF8212067
:200C40009DF83C30012025F0FDF8002840F075849DF82570DFF8E492DFF8E4A24646002F88
:200C600049D19DF83D00474658BBBDF82A00034621F02EF84546022808BF0125002D9DF825
:200C8000225018BF012749460988994208BF47F0020727B1002D14BF402120210F431846B7
:200CA00021F016F8012808BF47F00107002D3BD01298007825F0C0FB012818BF27F001079D
:200CC00032E09DF8411041B1FF2906D09DF84000119A22F035FB50B126E05246BDF82A10DC
:200CE000508F884205D092F84A0004281CD101261AE0222718E0BDF82A10FF2023F0C2FA4A
:200D0000002804BF3D1C082708D09DF8250047F001052C2740F001008DF8250005F0030566
:200D2000012D08BF47F0110730489DF82650407830F0010005D107F002010E4308BF47F0F4
:200D40008007DFF8D8C295B961460E787EB107F0220122290BD007F04201422940F0ED836C
:200D600012990978062918BF072940F0E683F9094FEAA7155AD3BDF82A20129948B9604603
:200D8000C01C0078800804D30878401E0A282FD909E00878C01E01282AD9001F28D0C01E20
:200DA00026D0801E24D0B8F1000F21D148460088904240F0C2830D780520BDF82C408DF854
:200DC000110004A824F01AFA002800F0B6830269032313271370511C0F704C7022128A70B9
:200DE000CD70448009F0BAF9A7E3C046AC5D002068081BD30878032802D148780D2815D0D7
:200E00009DF8280038B1BDF82C000E990CF0F0FE012800F08E839DF8270038B1BDF82A000C
:200E20000D990CF0E5FE012800F0808309F10E00B4F844100088884209D1CDF80080208DEB
:200E4000B4F8421094F8462043460AF03FFF9DF82600002844D0208DB4F8421020F032FEFF
:200E6000061C26D19DF8510090B99AF89000012836D112980078062801D1680830D2BDF88F
:200E80002E104FF6F870C01D884240F0C28054E3042024F00CF9011C00F04F8364200870FF
:200EA00001274F70208D48809AF800001FF09CFD43E39DF821106068F3780A18527B9A42B2
:200EC00003D0F27040467060606840180421401C24F0F1FB7168814200F22F83401C70607A
:200EE000B148DFF8C0B24078022800F0868230F0010040F022839AF832008008C0F01D8344
:200F00009DF8510018B3BDF82C0024F0FEFEC8B9A3495C46BDF82C000B6862699901A1EBDB
:200F200083019047012840F00883A169BDF82C008847E168BDF82C008847FEE2065A00205F
:200F4000CC5900206168487800F0DF0048709DF8320038B161688879401E8871C0B28DF874
:200F6000320008B907F07F07380924D39DF82500F9084FF4805814D279091AD3811011F00C
:200F8000070F01F0070604D0072E1CBF761EF6B20EB907F07F0700F0E30040EA8600C0B2E4
:200FA00005E020F01C00C11021F0030108438DF82500616808729AF84A00042800F0E381A6
:200FC000092800F0E08117F0610F40F0EF809DF82200012811D112980078052800F0D88020
:200FE00003280AD1BDF82A0024F08FFE28B1218D08A815AA002301F08BFB9DF8320078B9E3
:201000009DF82200012804D112980078032800F0948208A821461EF087FE8EE2FB5900203A
:2010200024F0B2FB002840F088829DF83D0000286DD19DF82400BDF82A10FD100028ADF8D3
:2010400054102ED13A0930D29DF82220012A28D0084600211BF0DCFD002620B140790128C2
:2010600016D0022814D0BDF85400B4F8441020F029FD28B1807824F04DF808B1082807DB48
:20108000BDF82C0024F041FE18B104208DF824000126BDF82A10002E08BF022272D09DF880
:2010A00024006A0838BF002300D340230DF13D021BF0E8FD30B16168087848F0200800F0A3
:2010C0003F0008709DF83D0040B1BDF82A1010A820F0DEFD48F04008ADF854009DF82200D4
:2010E000012806D0BDF82A00BDF82C10002218F05FF868082CBF40220022BDF82C10BDF81B
:201100002A0015F0AFF808B148F0200833E09DF840009DF84110119A22F012F900282ED024
:201120009DF8410038B9BDF82A00ADF8540025F088FC00BB1DE011999DF8286001EB4000CC
:2011400030F8020C002EADF854000CBF082110219DF8270008B10831C9B29DF82500002208
:2011600000B1012266688918491CCAB2905D401E905548F0400823F0A5FD81469EE0BDF8EC
:201180002A100B22BDF82C0000231BF087FAD4E1218D08A815AA002301F0BAFACDE1C0460A
:2011A000B8820200E45A0020AC5D002078084FF000095DD39DF83300B4F828B0C24D49468A
:2011C00016901E20EA79169B934206D1BDF82C302A88934201D1AE782EB9401E05F1080593
:2011E00001F10101EED11E2921D0AE79E6B1BAF84810584623F022F908B1761EAE71BA4802
:2012000033210279FF2A02D00288934504D0491E00F12400F5D102E0A879401EA871A879F1
:201220004828A4BF4E46AE7127F0600720E023F049FD81469DF8320020B9208DBDF82C104C
:20124000884215D0218D08A84A4610F0E1FC58B1380932BFBDF82A004FF6F870C01D48F038
:201260000408ADF8540003E027F020074FF00009B8094FEAA71510D394F8460094F8476062
:2012800094F948308DF81000E26B8DF8116004A98DF8123008A804F0E9FE68080ED3218D73
:2012A00008A815AA4B4601F033FA5FEA000905D012980078012808BF48F01008BDF854106E
:2012C0004FF6FE70884208BF4FF000099D48C07E01282BD1618E4FF6F870C01D884225D002
:2012E000218D884222D0BDF82A204FF6F870401C90421BDDBDF82C00884217D025F0A1FB6F
:20130000A0B10179012918BF02290FD101218DF810104088ADF81C0004A81EF0DBFF28B139
:2013200005A81EF049FB08B120F072FE37F07F0000F00381B9F1000F00F0FF80208919F081
:2013400069F8071C00F0F9806168228924F026FD002605969DF822008DF81000CDF8009093
:20136000CDF8048004AD0296BDF854100395228D237A384614F0FAFC002800F0DE80384672
:2013800020F006FDD9E04946BDF82A00098881420AD020F09DFC022806D09DF8250000F092
:2013A0000300012840F0C9809DF8220098B112980178042904D19DF83C10022900F08F8058
:2013C0000078072804D19DF83C10042900F0838003287BD0B1E094F846008DF8100094F896
:2013E00047708DF8117094F948608DF81260E26B08A804A904F03AFE9FE09AF84A000428A7
:2014000018BF092840F09980B8096FD212986908C0F093800178042903D19DF83C10022915
:201420005DD00178072903D19DF83C20042A52D003294BD00C2940F08080401C414A10F826
:20144000017B0578164601215120D21CF57025F069FA3C4B3A49012658465C79067057B9AF
:20146000002C14BF4EF660204FF47A7051F8241000FB01F405E00846203000684EF660245C
:2014800044430320B4FBF0F441464FF480400EF0C3FB9AF8000002211DF0C0FC680808D201
:2014A000A8084AD39AF800000221224625F002FB43E04FF48040214616F04EFD4FF480404F
:2014C00031460EF0A9FB38E0441C002008A8002112F066FC31E008A81AF0E4FB2DE000204F
:2014E00008A90BF099FC28E02C2A002094F8460094F847709DF832508DF8100094F9486037
:201500008DF81170012D8DF812607FF470AF208DBDF82C1088427FF46AAFBDF82A0020F02B
:20152000D7FB022808BF8DF8328060E7BDF82A0001E0BDF82C001FF0D5F817B0BDE8F08F02
:2015400094820200AC5D00202DE9F04FC14DC24CDFF808A3C44E88465FEA1840ADF11C0D0F
:2015600080F09E826F78DFF8F892DFF8F8B25FEA580080F01B82384630F0010040F0918084
:201580005FEA980058D25FEA981044D25FEAD830C0F087800120022123F036F9C5B20DB374
:2015A000E80018F037FF071C1DD0C04C82464FF0010933262079012818BF02280DD18DF859
:2015C00004906088ADF8100001A81EF083FE20B102A9504625F095FA8246761E04F1240473
:2015E000E8D100E0002797B175B10F204FF6FC768DF80C001F24ADF8046001A92A463B465F
:20160000C248009416F0F2F9384620F0C1FB88F4804000F007BC207A38B92078062802D1DE
:20162000072024F03FFC23F0F9FEE07910211DF08BFE88F02000F5E3207AE8B92178E0796D
:20164000082917D124F0B0F8092024F02BFCBF480078052806D0072809D10720012105F088
:201660001BFF04E0012023F0BFF91CF031FD23F0D5FE13E010210FE025F08EF8EF2803DBBD
:20168000002023F0B1F909E025F086F81030C0B225F094F8E07901211DF056FE88F0020048
:2016A000C0E3CE48CE4B0668B3F900005FEA581180F04E815FEA181028BF88F0080080F005
:2016C000B1835FEA582080F0D1805FEAD80080F0B78037F001001CD15FEAD81019D32069D1
:2016E000A0B117F02DFC20690768206920F050FB27615FB1FA8802E0F888801AF8803F6858
:20170000002FF9D1E079402125F0D7F988F0400088E35FEA182064D25FEA98205CD2C84C14
:201720005FEA18302CD25FEAD82027D3142018F071FE071C1FD0002524342E46207A01286E
:2017400012D10097042029463246142321F08CF950B9206838606068294614223B46786048
:20176000042021F073FF26726D1C0C34C82DE5DB384620F00DFB88F4806053E3002051E330
:20178000182018F047FE071C23D000252E46207A012812D10097062029463246182321F07F
:2017A00063F950B9206838616068294618223B467861062021F04AFF26726D1C0C34032DC7
:2017C000E5DB3846314618221AF05EFC384620F0DFFA88F4006025E319F054FE88F4007024
:2017E00020E31CF075FC207805281DD1E07904211DF014FBE07904211CF06AFF062024F0EF
:2018000051FB687830F0010007D15046007800F00700022801D024F0B1FE20F0F9FB19F0D3
:2018200031FE1EF06FFE01E020F0F2FB012022F003FA0320012105F02FFE88F08000F1E2BE
:20184000FF20032121F0B8FB24F0BEFFC24901200860FEE7AC5D0020305C0020B47300201B
:20186000CC590020005E0020B07300204A4692F84A00082818BF042845D124322120742189
:2018800025F050F8BF4E6878716832880024B146A2423DDC30F001002DD1044CFF2500269A
:2018A00094F82100802822D102E0C0462C2A00206788ADF8067023798DF80830A1798DF880
:2018C0000A1062798DF809202088ADF80400E77984F82150237D8DF80B70A7698DF80C3056
:2018E00031461022032001AB049721F0AFFE761C2434332ED4DBBB48006800B1804700201A
:20190000022121F059FB88F480708BE2F45C0020A30003EBC403CF5C37F07F0C13D017F0D7
:201920007F07CF540B4405D101A8FF210C221AF0ABFB01AB012021460C2221F087FE68785A
:20194000D9F804103288641CA4B2A1E72A5F0020B0F1FF3F37465C4602D1B8480078A08078
:201960005FB17968087818B1486800781BF05AFB3F68002FF5D1B4F90400B0F1FF3F02D0A7
:20198000C0B21BF04FFB24F013FFBD49088024F0C9F9687C012806D14C4620784FF4006144
:2019A000642225F08AF888F010003BE2012024F079FA3046677801793546122201F0070A3D
:2019C00011F0070F16D1022F0CD0012F12D1082024F068FA24F0D2FD0BE0C046DC63002018
:2019E000045E0020082024F05DFA0020014612F0ABFE0246BAF1010F18BFBAF1020F45D114
:201A000007B3032F1ED0012F40D1BAF1010F3DD10A2024F047FA4C4620784FF480611DF008
:201A2000FDF9502005A922F0CBFFBDF81400A4F84800BDF81400002119F066FD2DE0C046A0
:201A4000603E002024F072FD002818BF032F16D1022024F027FAB449E06809781DF07EF98C
:201A60000246A879000911D28AB959464878401CC0B20428487004BFB848E06006E024F0C0
:201A800088FF0146012012F05FFE02462AB1E07901214FF47A7225F010F888F00100C1E1F3
:201AA000DFF8C0B2B5E10646AD4A33782778116868781A46521E00F08781521E00F0948025
:201AC000183A00F0A081B93A00F099812A3A00F083801B1F77D05B1E6ED05B1E54D05B1E01
:201AE0003CD05B1E2CD05B1E40F0908120BB707FDBF8109000BBB9F1000F06F1050A1BD009
:201B0000BAF1000F18D04F46B81C5146082223F0D5FB18B9FF68002FF6D104E038461EF078
:201B2000AFFBDBF81090B9F1000F05D19BF800004FF400611DF072F9304623F08FFC65E1F0
:201B4000012818BF022840F06181307916F030FF20F05EFA5AE1C0467C052043002840F086
:201B600055813079012800F05181022806D0042840F04C81304619F013F847E1304613F0A7
:201B800047FC43E1F8630020012840F03F817088002840F03B81301D01A921F06DFE0128A2
:201BA00040F0348124F004FEADF80C00361D029601A817F077F929E1002840F027813046EE
:201BC00013F08CF822E1012818BF022840F01E81304609F04FF819E1002900F017813046AB
:201BE000884713E144620020012818BF022840F00D81584680795E46072818BF082805D12D
:201C0000237A1BB9012105F047FC2778032F00F08D800A2F14D0042F18D00D2F16D00E2F94
:201C200014D00C2F12D0002F00F0F0801EF06AFCE07910211DF088FBE8E0C046EB74002039
:201C40007E48007800F0070001286FD0277A6078002F32D10020E0720746F7701FF066FEA3
:201C600080B96878022803D1082001210DF0D4FF052024F017F942F2107023F0BFFBC5E0C4
:201C80004C5C0020062024F00DF968480078000904D34FF4004001210DF0BEFF687830F0D5
:201CA000010007D16648007900F00700022801D024F064FC1EF026FCA8E0E17A01280BD0A7
:201CC00003281ED1687802281BD1594900260E7001270320677113E0491CC8B20428E0723B
:201CE00004DB54480078012809D00AE0524800884FF6FF7181421CBF0426A672E8D1002075
:201D0000607022F059F821F031FA48480078000902D3287D012879D16078032876D10820E4
:201D200001210DF079FF71E0555F0020207A002848D1E07910211DF007FB1FF0F7FD98B91F
:201D40006878022803D1082001210DF065FF052024F0A8F8012020F0FBF957E000F8FF07C7
:201D6000E45F0020245F00206F78207837F001070AD10A2808D13149097801F007010229AA
:201D800002D02B4A0821117003280BD11EF0BAFBB079022806D1012021F04EFF022001219B
:201DA00005F07AFB062024F07DF8687830F001002CD12248007800F00700022826D024F0FF
:201DC000DDFB23E00020C6E7022F1FD1012818BF02281BD124F064FD28B114F013FBA8B16B
:201DE0006878022808D024F091FD00280CBF0020012020F067FD09E01AF0E8FA06E0304686
:201E000005F0EEFC02E0304607F0BCFC069823F065FAE0791DF06AFA002806907FF443AEE0
:201E200088F4004007B0BDE8F08FC046B6730020165A00209C5F0020145A0020B47300203C
:201E4000B0730020B84A2DE9F04F0846ADF14C0D11780F90000C80F030849246B34D0F9ACA
:201E60006878920B80F0FF83022813D10F9A520810D39AF850000F2807D19AF84A0020B161
:201E8000012802D0002020F02DFC0F9880F0010000F033BC0F9A920980F01A83DFF89492A9
:201EA000DFF8948230F0010740F0B8820F9A520980F039820F99C90980F0C0819C490F9FB6
:201EC0000A78390A80F0AB813946490A40D23946090B28D20F999AF80370490B19D20F999C
:201EE000C90BC0F09B824C46A06A70B1297D01290BD18047E06A00B180479AF800004FF47A
:201F000080414FF47A7224F0D5FD0F9880F48040F3E327B100208AF803001FF07FFC0F988C
:201F200080F48050E9E31FF079FC687C01280BD1A97C49B19AF800004FF47A7212FB01F244
:201F40004FF4006124F0B6FD384680F40060D4E324F02EFC4FF6FE7B834500F05C819AF8EA
:201F600032008008C0F0578100263446304622F05FFC071C19D03879012816D0022814D0C2
:201F8000F879411CF9719AF88B1081420DDABC727C72388821F0C0FD388801A922F0C4FD4B
:201FA00001A81DF009FD20F033F8761C332EDDDBA8F11C0614275D46119436F81C0F854221
:201FC0000CD0307B9AF88B40411C8442317305DA1198B0747074308821F09EFD7F1EECD108
:201FE0004C46032104F13C0010F8047F0FB17F1E0770491EF8D1B04C332605F1010934F8EA
:20200000240F81451FD001208DF804006788ADF8107001A81EF05EF9A8B1A8F11C051427BE
:2020200035F81C0F2188814208D0BDF80610814204D002A8A91C23F0AFFD10B1284623F032
:202040003DFE7F1EECD1761ED9D1119D2C46284622F0EEFB48B1077937F0040705D1807AA9
:2020600023F058F808B1641CE4B26D1C332DEEDB22F06CFF119E5FEA00080ED03546284638
:2020800022F0F2F928B1807C23F044F808B1761CF6B26D1CEDB2A845F1DCA019C7B2002FE9
:2020A0004CD0B80018F0B6F91090002808BF119F46D0BA00FF2119F0E7FF119E3546B44257
:2020C00018DD284622F0B4FB031C10D0187930F004000CD1987A23F01DF8011C07D0009786
:2020E00018885A7A109B18F079FF761CF6B26D1C332DE4DBB8F1000F22D0119C204622F090
:20210000B3F9061C0AD0B07C23F004F8011C05D00097109B3088727C18F060FF641CE4B285
:20212000A045EBDC0CE0C046CC590020AC5D0020EA620020E45A00209C1E002011981090A6
:202140009AF83000002808BF4FF0620805D023F06DFEC0F154005FFA80F80320B8F1600FC1
:2021600098FBF0FAA8BF4FF01F0ADDF84090ABF1020BB8F1000F0EBF119D2025DDF84480B4
:20218000BA45A6BF3C1C45F040055446032014FB00F0801C8DF8050001A823F02FF84E46B0
:2021A000031C26D01869082104F01F02017045EA02014170801CA4B12246C01E361F16F85D
:2021C000041F00F8031F318809124170B17801F0070CF178521E01F0070141EA0C11817005
:2021E000EDD1A3F802B001209876184607F0B6FF00E00120E90906D2641EE4B20CB109EB07
:2022000084093F1BFFB205F040052843B1D0109808B11FF0BDFD0F9880F480706DE2104329
:2022200006D1A948C178012902D100218170C1701EF042FB384680F080005EE2A34C1E2631
:2022400000214FF006084FF00409A778002F43D07F1EFBB26079A37023F066FC071C3AD08B
:202260006BB9787B022808BF87F80D8033D087F80D803868407BF0211FF00CF92BE0A37994
:202280001BB9787B032812D025E023791BB3E078401EC3B2E370F3B99AF82500E070207931
:2022A000401EC3B22371787B032814D133B9204639461FF0CDFD0EE0082A002087F80D90AE
:2022C00024F067FB00F00F00401C38819AF8000020211DF039F80121761E04F10804B4D127
:2022E0009AF80000012910D040211CF097FD95F82A00012813D1002085F82A0095F82B00FE
:2023000016F056FB1FF084FE09E040211FF020FD28B99AF800004021642224F0CBFB0F9884
:2023200080F04000E9E1084610211FF011FD30B99AF8000010214FF47A7224F0BBFBBB48DF
:20234000DFF8EC82417808F2AC54491ECFB217BB012141700020052123F020F9071C1BD078
:2023600006253846052123F019F90646388978B1401E80B2388158B97889C00802D3387B88
:2023800021F0B2FB7D733868407BF0211FF082F8371CE6D100E0477064274FF6FE76002590
:2023A0002079A0B1FF2812D0401E2071C0B270B96079032805D16088218802221CF0ECF920
:2023C0006079012803D0268066806571A5717F1E04F10804E4D108F15A040827207A401EDF
:2023E0002072C0B230B9C648214621F0CDFC90B9668025707F1E04F10A04EFD1C14AC82189
:2024000012F8080F08B1401E1070491EF8D10F9880F0100071E11EF0FBFCE4E74C460F9951
:202420002778890834D20F992289890A12D20F99C90A38BF0020C0F06081022801D119F074
:20244000C5FFBAF84800012119F05EF80F9880F4806052E1BAF8485004F108015020AAF8B5
:2024600048201FF015FE2689142744466089854205D0864204D0204623F020FC00E06681E1
:202480007F1E04F11C04F1D10F9880F4007034E16FB9BAF83E10012020F086FF6878022840
:2024A0000DD19AF8000001211CF0B8FC07E001A824F0CBFA24F06AF901A91CF08DFE0F9802
:2024C00080F0020019E1C046503E0020441C0020084620211FF03CFC28B9DAF8100000289B
:2024E00008BF012616D024F0ABFC044624F03CF94FF47A716043B0FBF1F1DAF81000002852
:2025000008BF002004D088428CBF4FF0FF30081A460865D00020042123F040F8071C5FD0F6
:20252000FF254FF0FF3B06244FF001093846042123F034F810903889864204D8801B83B2D4
:202540003B8113B149E000203881BB7B012B02D17889C0083BD3002B36D08DF804508DF85E
:2025600005508DF806B03968086AC97F02AA10F06FFE4FF00008012808BFC8465FEA0800C1
:202580001DD0788A40F08000ADF83600B87B8DF838007889000908D3BDF8360040F48070DD
:2025A000ADF83600387B8DF83A007B6913B1187BADF8180001A9002202A803F057FD7C732A
:2025C000387B19F0EFFA08E087F80D9005E07C733868407BB7211EF05DFF109F002FA5D18D
:2025E0000BF06AFD9AF800300020012122F0D6FF18B1184620211CF0A7FE0020042122F01E
:20260000CDFFB3B278B152460789147822F0C6FF20BBBB42AEBF0027FF1ABFB220464FB971
:2026200020211CF091FE002012E0C046B8740020201B00207A00202124F03FFA24F000FCE7
:20264000044624F091F84FF47A716043B0FBF1F0CAF810000F9880F020004EE00289BA4278
:20266000D8BF171CD2E724F066FA274C0546201D0068074698B157F80C1C9AF8000021B987
:202680004FF400511CF024F803E04FF400511CF05BFE204639460022001D21F071F8284696
:2026A00024F0CAFB2FB13846FEF760FA384622F015FE0F9880F400501FE008461CF016FE19
:2026C000071C17D0114920310A78FF2A0FD03C780B460020944207D0401CC0B2C200D11870
:2026E0009A5CFF2AF6D102E0496838468847384622F0F4FD0F9880F4004013B0BDE8F08F51
:20270000F9150200E423002000640020947E02002DE9F04F064693460020ADF13C0DABF8C6
:202720000000B06A099303460078884623F084FE48B1708904461FF0CBFA022804BFABF81F
:202740000040B36A01D0002009901878C84DDFF82493401E0A2800F20B84DFE810F02F0355
:20276000B3020C04A0028D0151010904BE00880066000B00BD4C207D012840F0F9835B1C5C
:20278000B06913F8015B1F7824F08BF9002800F0F7830379002B00F0F383032B80F2F083D8
:2027A0000E2D1CDCDFB9D04907752DB901EB85010A6BC261096B0AE001EB85010B6B9A01E8
:2027C000A2EB8302C2610A6B9101A1EB82018161012180F820101FF01BFC002500E00125B1
:2027E0000320B689E4788DF8190006A822F006FD071C00F0C58338690C2100F8011B00F885
:20280000015B04700124BC7723F08CFA786204A9304622F089F910B17C7704A838627E806E
:20282000BC76384607F09AFCAAE35C1C207820F01F0700F01F00012840F09A83641C04A8D7
:20284000214624F05EF9284604A95D3023F0A4F9002800F08D83002F40F08A830834A27864
:202860006178207801EB022120F01AFB88E3688F7189884240F07C835C1C14F8016B04A8C2
:20288000214624F03EF9284604A95D3023F084F906F01F0726F01F06002800F07183002EBD
:2028A00040F06E83780017F0B5FD011C00F0688367B184460834384663782278401E04F16A
:2028C000020402EB03222CF8022BF5D100910EF0FAFD08461FF05CFA52E35C789A1C34F0AD
:2028E0007F0704F01F0E40F04B83377F03201EFB00F0801CC1B2B94240F04283002714F027
:202900001F0F04BF4FF6FE7C614618D0D9789B7870464D4603EB012C5378117812F802EF61
:2029200001EB03213EF0770340F02A832B888B4208BF0EF00707521C401EEDD1BFB9604607
:202940004FF6FE72824212D004F06002602A0ED04D462A88A30907D2E30902D2904203DD22
:202960000EE3904203DD0BE39142C0F20983B08924F067F8002836D1B0894FF6FF7121F0DB
:202980005DFD041C14D120F047FE041C00F0F88200211C2219F078FBB0894D460E3520806F
:2029A00028886081AA23A3740622227401216174207C0C2805DB0620072F2074BCBF7F1C37
:2029C000FFB2677400202073A01C22F065FE002840F0D682307A002800F0D282B169A01CEB
:2029E00024F08FF8CCE20021C171017A0C2905DB0621072F0172BCBF7F1CFFB24772BFE2BA
:202A0000484671890088884240F0B282307F022840F0AE82AA4CA01D00884FF6FE7181428D
:202A200040F0AE82162022F042FB071C00F0A88201213970B07900280CBF081C022078705F
:202A4000B06A4078B872000902D2B0891FF0EEFFB169B81C24F055F80020F874287839466E
:202A60001DF0C2FFB089E0808AE2C046AC5D0020CC590020065A002070891FF029F900283D
:202A800040F076825F78B94987B10C2F03F1020380F276828C463D465A7818786D1E03F129
:202AA000020300EB02202CF8020BF5D1484675890488DFF8D892AC4200F0B280B37C002B4A
:202AC00000F05E823B1C0A974FF0000811D0A74A38464146921E32F8023F9C4206D0401EE3
:202AE00001F10101F7D104E0648202000A914FF00108284600211AF08BF800280B907ED03E
:202B0000407901287BD10B98807910F0180F76D00B984188384623F015F810B9B8F1010FF2
:202B20006DD109F55F794FF6FE704FF000080C97B6F80CB0CDF820904FF0010A0D90C14617
:202B400011E0B8F1010F08BF4FF0010908D023F020FFC0B290FBF8F101FB08F1A0EB010941
:202B60004FF00008C246089D14271C3D35F81C4F4FF6FE70A04213D0A34511D00C982146E9
:202B800022F0E0FF60B96B7C53B1072B08DA08F10100BAF1000F5FFA80F801D1C14521DDD1
:202BA0007F1EE3D1B34D332735F8244F0D98A0421AD0A34518D00C98214622F0C3FF98B959
:202BC0006B7A8BB1072B0FDA287901280CD002280AD008F10100BAF1000F5FFA80F803D1B6
:202BE000C14501DC0D9407E07F1EDDD1B8F1000F02D0B9F1000FA4D00D980B994880B37C28
:202C00005A4C581EB074F77C00970A9D0195029401220392B189B269708915F0D7FDAFE128
:202C2000B4890C2F80F2AC818846ADF81040BD488DF812700168CDF8148009B104A88847B7
:202C400020461CF00BFCC82803D14FF6FE701CF005FCC82880F2948109EBC00000F6CC0585
:202C6000686808B11FF094F82FB1780017F0D2FB686010B984E1002068606C80C2486F7051
:202C8000007828706878002800F07A816868002800F076817A00414623F080F870E1307FC6
:202CA000022840F06581099828B94D4671892888884240F06581099831460AF0ADF85EE13F
:202CC000E45A0020B5F8481040461EF0FBFEA846074608202FB17D781DB9062139700725FA
:202CE0007D70B16A0A79CC788B794D7891F802A0CF7904EB02244A7902EB03296A0928BF7E
:202D00001020AA0924BF0830C0B235F0700340F03781327F904240F0338105F07005680981
:202D200038BF002006D306A8083123F0EAFE25F010050820A90907D3B16A091804A80831C2
:202D400023F0DFFE25F020052046514621F0D4F908280DDA8D4B410001EBC001C9188879AF
:202D6000B84240F30D818F71002002E0441B00200420B8F83A10A14219D048B9B189484664
:202D800001222B460EF0AAFE28B1F9E0201B0020042840F0F58006A804AE009049463A461C
:202DA000534601962046029512F06CF9E8E0B189484601222B460EF091FEE1E0B5F8481008
:202DC00040461EF07FFE4FF00609041C03D06078002800F0CD80B06A817847780891C378BE
:202DE000017900F1050A03EB0120099040461DF047FE9AF8001009185FFA81FAB80928BF9A
:202E00004FF00E0937F0780040F0B28007F01800182800F0AD80307F814540F0A9804FF0E2
:202E20000009CDF800900899B0895246434619F063FF032800F09C80002807F078074DD1DB
:202E400017F0180F18D195F8310028B1B089414601223B460EF042FE09984FF6FE714A463D
:202E60003B460EF03BFE002838D14FF6FF70ABF8000039E0082A002047F00107780928BF00
:202E800047F00207B089394619F0C2FE90B1817911F0180F0ED0417901290BD154B14088A3
:202EA000B5F848101EF00EFE20B1437813B1607898425DDCB089414601223B460EF00EFE4A
:202EC00060B94FF6FF70347AABF80000002C0CBF4946B169B089524622F09AFDBBF80010F7
:202EE0004FF6FF70884243D1012000900899B0895246434619F000FF099839461EF062F903
:202F0000698F81422ED1099823F09BFD60B10079012818BF022807D1099804A921F004FEBE
:202F200008E0C046705C002022F0FCFE014604A823F0E7FD307A012803D1B16906A823F03F
:202F4000E0FD06A8009004AF0197B06A407840F0300002900999089BB0894A4612F092F8AD
:202F600048460CE0B06A80F805A021F0ABFE06E04FF00009F4E70999304610F011FF09901C
:202F800009980FB0BDE8F08FC65D00207A1B00202DE9F04FAB4C04F12C000768ADF15C0DD2
:202FA00017B1002087F84500DFF894824FF0000A17F148060BD0BF6DA04D6E612FB94046A8
:202FC0000068D0F84C0580476E697068686023F0B2FD1690082014F0E7FA1AF001FB45462C
:202FE00010B17FA023F024FF1CF096FD684623F08FF90426504669468DF8006023F0FEFA74
:20300000206423F0BDF809A823F068FA504609A98DF8246023F06AFAA06323F0BBF80DA8F8
:2030200023F06CFA50460DA98DF8346023F06EFAA16BE06319B972A023F0FAFEE06B10B9E5
:2030400074A023F0F5FE206C10B977A023F0F0FE2868D0F8E00380472868D0F818028047AE
:203060002868D0F8F0028047D8F8000056460725A0300168775827B138468047D8F80000B2
:20308000A0306D1E06F10406F3D1D0F8B8028047EB2023F093FBE06A574670B105A8FF2146
:2030A000082218F0F1FFE06A05A9082222F006F904F12C05012818BF2F68634A0CCA05A8CE
:2030C000391C80E80C001ED1082017F0A3F9061C54D0B51E032723F05CFC05F8020F7F1E14
:2030E0004FEA20206870F6D13020F82705F8020F3146082204F14800F77122F04FFE304620
:203100001EF046FE04E004F14800082222F046FE0120082105AA23F0FFFB04F1480500284C
:2031200018BF092826D121F071FD80081DD205A8FF21082218F0A8FF07AEFF21082230467F
:2031400018F0A2FF012051460822334623F030F980B9304605A9082222F0B0F828B928469F
:203160003146082222F01AFE04E0012008212A4623F0D8FBE22029461EF08AFF21F046FDA4
:20318000400834BF56460126304D5520012105F1320223F0C1FB18B916B1504620F04CFD9D
:2031A0002B4DE22005F13C0121F00AFC30461BF085FF05A85146102218F066FF687830F063
:2031C00001004CD1234F05A91022384622F076F8002841D105A83946102222F0DFFD3EE0DD
:2031E00052616E646F6D5F736565644175746F6D617469632829206661696C656400C046EB
:2032000041455343434D206F70656E206661696C656400C0414553454342206F70656E2056
:203220006661696C656400C054524E47206F70656E206661696C656400C046C0E05E0020B3
:20324000140100205831002030850200245F0020AC5D00207482020005A820F0BDFC62201D
:20326000102105AA23F058FB28B926B16220102105AA23F057FB05A85146102218F004FF08
:20328000304612F047FE30461FF0C2FA304613F021F96878A8B905A820F09EFC40F20110C2
:2032A000102105AA23F038FB30B92EB140F20110102105AA23F036FB05A85146102218F03B
:2032C000E3FE1EB1504601211FF076FE282017F0A1F80028606400F03C81206B616B221DEC
:2032E0001AF08EFECE49087010211CF02DF8616C201D0860206B616B04F108021AF080FEF7
:20330000D8F80010D1F84C138847616C04F108004860206B616B04F10C021AF071FE0DF094
:20332000B5FD616C04F10C008860206B616B04F110073A461AF064FEBA4E7070698E86F879
:2033400002A0301D0180303005F14C01149006F1340023F0D6FBDFF8D09295F8230005F1C8
:2033600044035146F3604FF4B472307009F5057018F08AFE04F1300B04F134001390626C46
:203380000168DBF800003C2309F5057C0C324FF6FE7E5B1E2CF806EBF9D1176004F114023A
:2033A0001AF02EFEA44BA24FB362A049B760A14A0870139B606C726204F1140704F1180212
:2033C00007611968DBF8000015921AF019FE9B4FF871022287F824204FF6FE70B88322F02F
:2033E000A1FC97481499C0F800A0B14823F089FB4846FF210E22801C18F046FE9148934B3F
:203400008360934AC2609049416080F800A0914B0361914A426193493161904B8361904A73
:20342000C261914B7361914AB2619348904B914AF36193491061914ED16007F1300096606B
:203440001EF0B8FA1EF050FA994809262C30761E40F804ABFBD1F87948F201011DF07AF875
:20346000F8794FF400411DF075F8F87948F221011DF070F8F87948F222011DF06BF8F879EC
:2034800020211DF067F8F87921211DF063F8F87922211DF05FF8606C1599139F4161DBF8AB
:2034A0000000396804F11C021AF0AAFD754E48F2150130701DF04EF8307838211DF04AF851
:2034C000724B734AF36070483261616C706102234FF6FE72DBF8000086F8283004F11C039F
:2034E0008B613968328404F120021AF089FD694904F12003684A0870606C684EC3613968A7
:20350000DBF80000166004F1240632461AF078FD68496F78087027B991F833700FB102214D
:20352000E97148F202011DF015F8606C139906620968DBF8000004F128021AF061FD20709F
:203540005749087023F01CF94870616C04F1280048621CF04FF912F0B1FD169823F06CFCB2
:203560000FF0BAFA21F086FCD8F80000D0F8D40090F8430021F090FCD8F80000D0F858241D
:2035800051460120904722F0E1FE4648D8F8047080F800A0F868007830B9D8F80000D0F868
:2035A000582450460146904717F00AFC3E483F4A0721534621F0B4F916F05AFE1FF064F976
:2035C00010200DF146018DF846005A201EF060FD4FF4FA7011A9ADF8440055201EF058FD9E
:2035E00003200DF147018DF8470059201EF050FDD8F80070052012A9D7F830248DF84800B2
:20360000E02090476878022807D12878012804D14FF4004001210CF0FFFA17B0BDE8F08FCE
:20362000EB7400209C5F0020201B002088630020CD200100F58301001D650200305C0020F3
:203640000C5E002028620020A9C60000DD42020075DB010027300200594802004116020000
:2036600081480200216B0100594601007D4C0200A9A30000E8620020654501009DB70100D1
:203680007D370100D85F0020E12C0200A941020071490200E0630020EC630020511F020023
:2036A000D0630020F374002084610020BB6B0200445C0020245F00202DE9F04F0446B14D03
:2036C000B1480021ADF14C0D001D2E680768A0780C910146102910DC102900F0AC80002918
:2036E00000F0A682491E012940F2F581891E00F04D81491E00F01C813CE3113966D0491E1A
:203700001ED0491E03D0491E00F03A8332E3207967798DF81000E0788DF8117022F094F94D
:20372000002808BF022005D00C3004A9022222F035FB0C988DF82000132108AB012233E3EB
:20374000204634460421C61C304621F0B4FF0C9F0121002C35D0A268904203D02468002CE3
:20376000F9D12EE06CB3361D304623F051F8B778804657B92868844218BF251C20682860AA
:2037800020461EF005FB0C991BE0B81C16F042FE051C04BF10210C9F13D00C9828706F703D
:2037A00061683A46A81C414422F0F8FABE1C642012212B46F2B21EF01DFF28461EF0E8FA45
:2037C000F5E23170334612217770ECE220460126C41C8DF82160204623F01AF86F68A37820
:2037E0000FB3B3B938680090686818300190787E0290B87E03903969BA8AFB8A381D08F0B9
:2038000063F88DF8210068681EF0C2FA0C9868600CE03968E41C1A4609180846214622F0CC
:20382000BDFA0C9800E010208DF82100112132460DF12103B8E22546B94C89462D1DA07870
:2038400015F8011C002936D0491E10D0491E02D0481E5FD05CE0287822F0E0FE002861D0D5
:2038600041680978E170007820710C984CE02D78002857D1E1200DF1230121F0A1F89DF89D
:203880002300854242D00126A670304622F086FD0C9809A98DF8240052201EF0F9FB284603
:2038A0001DF0B4FC90B3657020783146642223F004F9BA2028E0002834D1E1200DF125015A
:2038C00021F07EF8CB4E9DF825103C36307888421CD0DDF8308001255220A5700DF1260157
:2038E0008DF826801EF0D4FBE12031461EF0D0FB52200DF126018DF826501EF0C9FB404685
:2039000022F04CFD4046A07002460CE00C9A0AE00220F9E7284622F07BFF0C9AA97823F01C
:203920005BF800B901228DF822200DF122031FE210218DF82710E1788046DFB17A68127865
:20394000384691420ED03F683FB17A681278914205D038463F68002FF7D102200BE03968C3
:20396000016002E0B1493868486038461EF010FA0C9800E001208DF827000DF12703CDF8EE
:203980003480A5E018640020D863002001218DF828100C990D900C2204A818F075FB254619
:2039A0000224ED1C8DF81840284622F031FFAF1CADF8100017F8010B8DF8190017F8010BF7
:2039C00022F02CFE8146384622F022FFBD1C0E9015F8010B15F801AB15F8018B2E788DF826
:2039E0002900700016F016FD0F9000286CD06D1C4EB183463746284622F00AFFAD1C7F1E55
:203A00002BF8020BF7D1B9F1000F57D0CDF8409015F8013BDDF83C903746AB460C2FBDF8F1
:203A2000105011934ADA28461BF018FDC82815D14FF6FE701BF012FDC8280FD1C34890F8CA
:203A4000CC38012100F6D40C0C981CF8082B9342C4BF131C081C491CC829F6DBC74C4FF655
:203A6000FE7604EBC0046068668018B11EF090F90C9860606FB17E00304616F0CBFC60600C
:203A8000002808BF102419D060684946324622F085F9C9486580007867700DF129062070B9
:203AA0001099CDF800B00E9A0196119BCDF808A004A8CDF80C8007F007FF04460F988DF820
:203AC00028401EF065F902E010208DF828000AAB0D9881464CE194F801B0012102288146B5
:203AE00004F103048DF82B101CD114F8010B03288DF8180005D0204622F08AFEADF81000B3
:203B000004E004A82146082222F048F9083414F8010B8DF81900204622F07AFEA41C0FE0A0
:203B2000E063002002208DF81800204622F070FEA41CADF8100014F8010B8DF819000C98AE
:203B4000ADF81A0014F8010B22F068FD8046204622F05EFEA41C0D90B9F1020F14F8010B4D
:203B600014F801AB14F8017B8DF82A001CBF14F8016B06F10A0006D1204622F049FEA41CAC
:203B8000064606F11400B8F1000F80B242D0FA2832DD6C68002C3DD106F11C0016F03AFC44
:203BA00004466C6024B30C9804F11C0504A98DF82B000C222560201D22F0F0F8C4F81080CB
:203BC0000D98A082E6829DF82A50257684F819A0A7760F23E376794C207808214FF47A727A
:203BE00022F06BFFC8B1207808211BF0ADFB14E0102010E0CC59002000940DF12A000D9AA0
:203C0000019041463346CDF808A004A8039707F05BFE00E002208DF82B002BF01F0BBBF16D
:203C2000200F40F0C4800DF12B03A1E0D86300204FF0100A89468DF82CA0504616F0EAFBDF
:203C4000071C00F094805D48E41C7860207822F0E5FC00287CD120780C9E3870B04687F861
:203C60000C80142016F0D6FB0028B8606BD014F8011B017062782178A61C01EB0221418094
:203C800031787278B41C01EB02218180817914F8022B01F0F00102F00F020A438271B96838
:203CA00014F8010BC871BD68EB79464673B1580016F0B0FBA860B8688568002D08BF5646CC
:203CC00004D03046BA68D179814231DC2078B9680873BD682B7B73B1580016F09BFB2861BE
:203CE000BD682B69002B08BF564606D0641C4046297B814210DC102E2BD1A86810B11EF035
:203D000047F8BD68287B18B128691EF041F8BD6828461EF03DF81CE0627821782B6901EB36
:203D2000022123F81010BD68A41C421CD0B2DFE7637821789268451CA41C01EB032122F8E1
:203D40001010E8B2BEE7564603E0C046201B0020B8268DF82C603EB938461DF02BFE8DF805
:203D60002C009DF82C0010B138461EF011F80BAB4946E3E402200C9019E0C046EC23002008
:203D80000C988DF810008DF81100E07804A921F0B0F99DF8117014219DF810008DF81D7093
:203DA00007AB8DF81C00022264201EF023FC0C9813B0BDE8F08FC046C65D0020EB74002088
:203DC0002DE9F04FDFF814B3C34C01214FF0E047ADF12C0DDBF804002569C06808931F40FB
:203DE0000170C84807924FF0000101704FF0020000EA020008BF002840F0F482DFF80893C4
:203E0000DFF8088311464FF480301E4600270840374008BF002832D100204FF4003110EA2C
:203E2000060701EA020108BF00290ED137464FF48001384001EA020108BF002900F0C682E9
:203E4000002028711AF048FAC0E22871EB201FF061FB4A460020414610700878862801D1F5
:203E60001FF0C0FB22F067FEE1690A68002313710968E16122F0E0FF21F080FEA6E20020C3
:203E8000DBF80070287107F1B8000168DFF880A20F782FB951460F7817B1D0F894048047B8
:203EA0001FF086FB812756469A4937709A4D0860FF232B702778A7700021A1812069DBF843
:203EC0000050007A4A460E46801E81B2D5F800011670C0890A918842C0F26C82E16908313E
:203EE000096804F1180001600426A6810A98DBF80060657EA17EE37E04F11902C01E80B23A
:203F000006F1B80C0A9005EB012051786081C1F30119DCF80010237109780692002908BF42
:203F2000B9F1020F00F04682B9F1020F00F3428219B110F0070F00F03D82667800F0070533
:203F4000AD1E022D08BF002E00F0348231B141460978862902D1002D40F02C82001300F052
:203F60000200022864DA35435AD1DCF81C0090F88300022851D0E1690C31097805A80170C8
:203F80000527A78122F0D7FD454606462878862840D1DBF80000403001680F6837B9D0F8D6
:203FA0000C058047DBF80000006C07689DF9140022F0FFFD7877DBF80000016C0968002201
:203FC0008A77006C9DF914100068C177304622F033FF2679678922F0AEFD41460A7807F014
:203FE0001007862A15D1BB4D05F11E031A88521C1A8087220A7022F01FFFE879B04206D1CE
:204000001FB9002019F05CFB07E01B20FAE7E920F8E70646304622F00FFF21F0AFFDCBE112
:2040200041460878862803D11FF0DCFAA77866788FB186B9012F00F0BD816089022F03D14A
:2040400010F0070F40F0B681032F05D100F00701032901D0AEE16089010980F0AB810113B4
:2040600001F00201022902DA810A80F0A38106994978C1F38108B8F1010F4FEAA11109914B
:2040800000F09881012900F09581B9F1020F14DA00F00701012918BF03290ED1B8F1000F82
:2040A0000BD1099F002F00F0858159460968AC3109680F78002F00F07D81BD49B9F1020F94
:2040C0000ED0099E11F808708A5DB918CFB256B3C10928D3BF1E13E0E0710020140100205D
:2040E0000A46099908EB0207891809793A795218C109D7B212D2099958EA010613D0BF1CB2
:20410000FFB210E0C8630020F4740020F7740020F2740020D4740020E5470020099958EA82
:20412000010608BF02270A9AC0F30020391A60718A42C0F23F81DBF800601146C91B091820
:2041400088B2D6F850122081743080B2884700286678606100F02E810021742217F094FFF8
:204160000020E07062891EB9C14902F020000870BF48617906784FF0000C002E30D0002978
:204180002ED102F00700032808D0012828D1DBF80000D0F8D40090F882600EB3DBF8040091
:2041A000406906781EB122F013F8FE2815D0DBF80000D0F84C02804750B9DBF80000D0F88D
:2041C0004402804720B96289617994F803C007E00420E0706289617901E00420E0708446A6
:2041E0006569268905F1740305F17400AB65069B686093F801902E812089C9F3011A00297E
:20420000A5F85C001878AA8100F078004AEA00004CEA000028744FF0FF06AE730CBF2079B3
:20422000002085F83A8085F84900099885F83000A089002FA0EB010086B2A68100F0B580AB
:20424000E169E78068463A468919083114F062FFBF19B8B2A0812846017C4FEAA90212F00B
:20426000030F02F003076D4601F0400843D0BAF1020F4FF0000301D1C9090BD29DF80120FC
:204280009DF8001001EB0221A0F844100DF10205A0F84210804EB0F84410B6F842208A42E9
:2042A00003D04FF6FF728A4223D1032F14D06A78297801EB022189B24186B6F84020AD1C34
:2042C00001208A4214D04FF6FF728A4218BF181C0EE0C0469861002060692946323022F0C7
:2042E00010FC606937363146323021F055FC08350346002B56D00698407886111ED06169C5
:20430000BAF1020F03D0087CC00903D309E058EA070306D16A782878AD1C00EB0220A1F8EE
:204320004200032E05D068782A7802EB00220A8504E060692946283022F0E3FB59460968A1
:20434000AC310A686089167886B1BAF1020F0DDA00F00702012A18BF032A0BD162692FB906
:204360004E4BB2F842201B8893421BD100F00702032A05D0012A18D1886A90F88200A0B1D8
:20438000D1F89C116069884778B90020069FE070B97866697878C1F3011100F07800084360
:2043A000307402E019F098FF06E00CF08DF903E06C8A020021F0D4FB22F0BDFBE1690A682E
:2043C000002313710968E16122F036FD079A089F202100201140384008BF002930D021F0CB
:2043E00087FB2DE02E4991F90000002803DD91F90000401E08702B4991F90000002803DDBF
:2044000091F90000401E0870114600201E464FF080770840374008BF00280DD0224991F9AB
:204420000000002803DD91F90000401E08701F480121017021F08AFD0020287119F04CFF75
:20444000184A92F90000A8B1079B089F02214FF0E0401940384008BF002914D092F900001B
:20446000002810DCDBF80000D0F84C0580470AE0F4740020DBF800700D480021D7F85824FF
:20448000017008469047DBF80400C06800210BB00170BDE8F08FC046E05E0020225F002011
:2044A000CB630020CA630020CC630020C9630020C66300202DE9F04FADF13C0DC54C0B9095
:2044C000C3480C91002147780E919FB137F0010608D0022F12D1207900F0F80141F0020195
:2044E000204605E02046017901F0F80141F00101017103E0207900F0F8002071261D307822
:20450000402537F00102657100F00700307005D18E20A0716FB940F0010009E0022F08D1BE
:20452000AB4980200978A071012902D140F00800A0710E99F170317150256572A020B07138
:20454000F171B072F172A089099140F43050A0812174B2B1022F1CD1012019F0ADFB28B913
:20456000206820F00F0040F0020004E0206820F00F0040F001006FF30F1048F22021014366
:2045800006E0216894484CF21017084047EA00012160934B9149A0791F780A9381F83200C0
:2045A00067B90E981AF08AFD8C4890F83200000911D30E9808A98DF8200009E0084690F86E
:2045C0003200000907D301200DF121018DF8210052201DF05DFD1BF00DF920F017FB80084B
:2045E00038BF0E9803D30E981FF026FB01200028DFF80CA30D9040F0D8800FF04DFD5FEAEC
:20460000000B40F0C380754ADDF83880212074212432174622F080F9002859D121204146A2
:2046200074223B4621F0C4FE002851D16B48408F4FF6FE7181424BD0684890F84A004FF071
:204640000108082806D0042804D010F05BFADDF838803DE0C14642200DF122018DF822908B
:204660001DF016FD07F12F0143201DF011FD07F12C0147201DF00CFD07F11C014A201DF046
:2046800007FD07F11A014B201DF002FD07F1240128461DF0FDFC07F1160153201DF0F8FC78
:2046A00007F12D0154201DF0F3FC07F11801E1201DF0EEFC494890F83200000938BFDDF83B
:2046C000389052200DF122018DF822901DF0E0FC0E9D17E0DAF804100E9AA80000EBC500D7
:2046E0000C23401881460090294601201EF0BCF930B999F80000FF2804BF099889F8000003
:204700006D1CADB23248BAF800104078A942E1DC30F0010001D10FF0C3FB9548001D006803
:2047200000B180471EF016FAB8F1000F1BD022F03FF80A99888318B9307800F0F800307048
:2047400023484078022818BF012104D1234A0998032182F84A000A983937417039461430C2
:2047600022F0CFF901E04FF0090B804D0999184FA81C0180787818B91DF0D8F8384640783C
:20478000BBF1000FA94605D10E9904E01048DFF8DC91407801210D9110490A9D91F83C2015
:2047A000012707FA02F1E96087E00FF075FC10F0A9F90A4A21207421243222F0B3F802A834
:2047C000FF210C2217F060FC0E9D574612E0C046AC5D0020B07300200000FFFFCC59002039
:2047E000305C0020294601200C2202AB1EF02EFF6D1CADB23888A842F4DCB848407830F02D
:2048000001000ED102A8FF21102217F03DFC0E9D03202946102202AB1EF018FF6D1C332D52
:20482000F6DB5348006800B180471FF041FD099806220E99ADF8100002A817F025FC1420B4
:2048400015F0E8FD5FEA00081BD0A3480C300768A7B103270225A8B202A90622404421F031
:204860009DFAAD1D7F1EF6D104A94046022221F095FA4C201421424622F054F840461DF062
:2048800087FA182015F0C6FD071C10D00E9D1822294617F0F9FB0620294618223B461EF0E7
:2048A000D5FE6D1C032DF6DB38461DF071FA1CF0F5FC8A48DFF8B49040780D99864D012960
:2048C00066D1B44F2437E8B1012807D002280BD1307800F0F80040F0020004E0307800F066
:2048E000F80040F001003070A34820F024FC002808BF09980BD00A9A04210320917206E094
:20490000F86300203178022001F0F8013170DDF8288088F8010022F03CF80B996F4E00F031
:204920007F000818643080B20E90B06B0221C8F80C00FF201EF040FB96494FF6FE70431C11
:2049400048870E46F0870998A1F848301EF028FC62484078012810D10C9801280AD0099924
:2049600002A8082217F090FB02A804E0FC6200203C62002009981DF06BFB212074213A469D
:2049800021F0D0FF099802211EF016FB53484078DDF834A018B9A08940F00100A081EF68B5
:2049A00087B9122015F036FD0646002EEE606ED04FF6FE70B61F0327411C26F8060F7F1E68
:2049C0007180FAD1BAF1000F61D1099906AB4C20022221F0EDFC002852D1BDF81800002812
:2049E0004ED004284CDA182015F014FD03274FF002084FF6FE7B0646099CEB681FFA88F1F2
:204A00004C2006221B1921F0D3FC78BBE868015B8B452BD056B300962018099A41881823C6
:204A200006201EF021F83069EA6800F2E93333611019418805F11002880000EBC100E9681D
:204A40001350081973694188880000EBC1008018E9684360081941881822334606201EF09C
:204A6000F5FD09993046182217F00EFB7F1E04F1060408F10608C0D116B130461DF088F9E3
:204A8000164B099971200822443321F091FC13484778381C06D121F045F921F04FFD0F48FB
:204AA000477817B121F042FD18B10120A870099EEE703248324EC9F80C00C9F810607FB1F0
:204AC00037F0010003D11FF04FFE2F480BE01FF04BFE2E4807E0C046503E0020AC5D00208A
:204AE0001FF042FE2A482749BAF1000F086019D0284890F86500A8B92748407890B9DDF877
:204B00002480622102AA404618F06AF902A841461FF057FA404613F04BFF02A8102241460A
:204B200017F0B2FA0A98006950B10A9C1034076820681DF02DF90A99384600280861F6D129
:204B40000A9A099F01200146107002F1090457728520093221F0E0FE28B985203946012261
:204B6000234621F025FC0E9820F036FF20F0BCF850460FB0BDE8F08FD05F002075F20000BC
:204B8000DD650200D06100203D7901007B56020099840100CC590020AC5D00202DE9F04F15
:204BA0000446B54EA578F06A4FF0000BADF14C0D2946312911DC312900F0E280DFF8C8826D
:204BC000B24F142914D91C3900F06281491E00F01B81133900F0E9807FE2323900F0BA80F4
:204BE000491E69D0491E012929D9891E17D074E2DFE811F06402A502A102500299027302C4
:204C0000730224024E010A010D02F8018F0273028902DE0173027302C901B801760240B151
:204C2000C06830B1E01C21F0F3FDF16AC968884700E003208DF8380036210EAB61E20127D8
:204C40000028A8468DF839702ED0406A60B3204602A920F0C3FA342D044618BF584602D184
:204C600021F0D6FDA41C2578E0B902A821F0DBFB641C01280DD1BDF80C00294622461FF09B
:204C80008DFCBDF80C00012803D1E22021461DF0FFF9F06A466A02AB93E803002A46234651
:204CA000B04702E0042000E003208DF8390041460DF139033D46A5E0002840D0C0690028E4
:204CC0003DD0204602A920F089FA054602A821F0AAFB012818BF584603D1BDF80C0021F034
:204CE00081FA0446284621F093FDAD788046F82DA8BFF725A81C5FFA80F9484615F08AFB9F
:204D0000071C1AD0A4B9F06ABE1C02ABC469009693E8030042462B46A047041C08D1584690
:204D200038704A4633213B467D7061201DF062FC38461DF02DF81CB90DE2102400E00324DE
:204D400008A85946022217F09FF98DF82040332108ABFCE168B1806A58B104A9204620F049
:204D60003DFAF06A826A04AF97E803009047014600E0594602A821F005F832210422D8E1FA
:204D800060B1806950B1204602A920F027FAF06A826902AF97E80300904700E003208DF8FF
:204DA0003A0031210DF13A03ABE101258DF83B5010B3006900B3204602A920F00FFA04213C
:204DC00020F079FC5FEA000814D015F023FBF46A071C14D05946424617F056F9246902A8DD
:204DE00003C842463B46A0478DF83B0038461CF0CFFF04E0052000E003208DF83B003021C3
:204E00000DF13B032A46A3E1E41C8DF83CB0204621F0FEFCA846092D064609D0A01C21F06A
:204E2000F7FC0746201D21F0F3FCA41D054602E0A778E578241D242E03D12088352606AC6F
:204E4000069030461FF026FB7919884216DB27B93046294622461FF0A1FB304629462246A4
:204E600021F060FD30B9012E0BD1E22021461DF00FF904E00A2002E05831002002208DF812
:204E80003C0041460FAB3CE1EB740020A48A02002646F61C304621F0BBFCA9468046B8F1AF
:204EA000240F46D021F09EF90446082D08BFB67803D0B01C21F0ACFC064640461FF0EAFA70
:204EC00086422BDA5CBB801B85B2F82DA8BFF725A81C5FFA80FA504615F09CFA071C1BD09E
:204EE000B81C59462A4617F0CFF8BB1C404631462A4621F05DFA48B95846387052464946E7
:204F00003B467D7061201DF075FB00E00A2438461CF03EFF1CB91EE1102400E002240AA890
:204F20005946022217F0B0F88DF8284049460AAB0DE135205946042207AB21F039FA38B9DF
:204F4000BDF81C20584602210425ADF8262002E00120594602258DF824008DF8251009ABAB
:204F600008214FE7E01C21F053FC242802D01FF091FA00E058468DF82C00001213210BAB93
:204F80008DF82D00E3E0E01C21F042FC0546601D21F03EFC0146242D03D0284621F03FFD18
:204FA00000E058468DF83F0012210DF13F03A8E0E078211D70B1401E0AD10878012805D046
:204FC00020B1522010A91FF0FBFC08E0522002E0022002E0E0201DF05BF88DF840000F213A
:204FE00010AB8EE041460125087814F8031F8DF842500429A8BF022003DA37F8111019F02A
:205000000DFF8DF842000B210DF14203FAE6E41C20780428A8BF02200ADA601C21F0F8FBBD
:20502000267841460246087837F8161021F045FD8DF843000A210DF1430362E0E01C21F055
:20504000E7FB0646601D21F0E3FBE779E51C0146242E19D0B94205F1050510DD30465A46D5
:2050600021F05AFC8DF844009DF8440009280ED16FB1304639462A4621F054FC07E03046D4
:205080002A4621F049FC00E058468DF84400072111AB36E00127E41CE2208DF8457021463E
:2050A0001CF0F6FF30B938460821224621F03AFC8DF8450003210DF14503FBE5E078284CD0
:2050C00030B1401E47D121F07FFB01202060FEE721F07AFB01202060FEE74FF0020B3AE0F6
:2050E00094F903001F4F8DF83D003868D0F830240DF13D01E020904714210DF13E038DF828
:205100003E00012224E08DF841B00E210DF14103F7E721F03EFC8DF830000C210CAB00126F
:205120008DF8310013E0E22002A91FF049FC0421082202AB0CE00C4B02210A2208E05920D6
:20514000062701218DF834000DAB8DF83570022261201DF04FFA584613B0BDE8F08FC046DF
:205160007C05204314010020588A02002DE9F0430346D449D24E9D780F7830680024ADF16D
:20518000440D294640292ADC402900F0D381202914DC202900F004820A2945D9103900F0B1
:2051A0002682491E00F01982C91E00F00D82491E00F00382481E00F0F88159E1B1F1210047
:2051C00000F0E881401E00F0DF81401E00F0D281401E00F0C981401E00F0BE8148E14A2966
:2051E00011DC4A2900F08381413900F09881C91E00F09181491E30D0C91E00F08081491E49
:2052000000F0798134E1B1F14B0000F05D81801E00F05281163800F04081401E00F02F8176
:205220007C3800F0278123E1091E00F0C480491E66D0491E00F01E82491E00F00782491EE8
:2052400000F0F681491E00F0E681491E38D0C91E00F0D281491E1CD00AE1184606A9C01C69
:2052600020F0C4FC8DF81E0048B99DF81800BDF818708DF81F0038128DF8200005E00DF15A
:205280001F00FF21022216F0FFFE03220DF11E0303E2DB1C5F7838B9684621F0BBF801202D
:2052A00069460DF03DFE306017B91DF067F902E064211DF0D3FE8DF836400DF13603EBE1F7
:2052C00018468DF83740C61C304621F0A1FAB778C0F304213FB9052903D04FF6FF718142F8
:2052E0000BD1204607E0052903D04FF6FF71814203D14FF0FF30DE4908600DF13703CBE157
:20530000202015F087F8061C00F0CB81FF21202216F0BAFE731C01202146082221F048F8B9
:20532000751C071C18BF01272146042205AB842021F03EF8083560B99DF8170028709DF863
:20534000160068709DF81500A8709DF81400E87001E047F0020783202146022207AB21F08A
:2053600027F82D1D38B99DF81C002870BDF81C000012687001E047F00407ED1C61202146BB
:2053800001226B1E21F014F808B147F008072146102262202B4621F00BF808B147F010079E
:2053A000012120223346672037701DF023F930461CF0EEFC75E1264637F001008DF83C6042
:2053C0000AD10FA819F0BCF89DF83C1080460E2000EB4100C7B201E0A0460E27384615F085
:2053E00019F85FEA00093DD0054621460822012005F8016B2B4620F0DBFF21F0D9F908355C
:20540000072305F8010B001205F8010BA74A05F8013B1078A64905F8010B4B7833F00103AA
:2054200016D19DF83C0028709DF83C308BB141466D1C20469DF83C2082420ADD0A782A70B1
:2054400031F8022B401CC0B212126A70AD1CF1E72E70672021463A464B461DF0CBF848468E
:205460001CF096FCB8F1000F00F01B8146469EE7022416E122464720E02113460FE11846A5
:20548000C11C4A7A087A00EB02208A7A8DF82E400EF0FAFE0DF12E03FEE018468DF82F4090
:2054A0000822C01C0146684620F078FC68461AF083FA0DF12F03EFE018460FF06FFDF0E0A0
:2054C000C0740020AD5D0020D91C6846082220F065FC8DF80840CDF80CD002208DF80900F2
:2054E00002A816F09DF90CAB8DF83000D4E018461DF09EF8D5E018461FF062FBD1E0DE1C1B
:20550000307871781FF080F90222307000127070294630466EE0184613F0AAF9C1E0D81CF0
:2055200021F076F9ADF80200684616F0E7FD01AE0822EDE7D91C01A8082220F02FFC68464E
:2055400018F08EFCBDF802000DF122038DF8220000128DF8230015E0F5208DF827400DF18A
:2055600026038DF826000DE0F5200DF131038DF831003AE0F520FF278DF82A000DF12A033E
:205580008DF82B70022288E0F5200DF132038DF8320081E0F5200DF133038DF833007BE0A3
:2055A000F5200DAB8DF8340076E068462146092216F06AFD162109220DE0684621460622D6
:2055C00016F062FD152105E068462146062216F05BFD142106226E469BE7D8781DF082F846
:2055E00011210DF135038DF83500012256E01A78D81C1021034651E021F022FC054621F074
:20560000B3F82C496843B0FBF1F1684620F0BAFB09210422DFE7DE1C62201EF03BFF01469E
:205620003246622021F07EF90EAB8DF8380033E0DE1C61201EF02EFF01463246612021F058
:2056400071F90DF139038DF8390025E0D81C042120F031F8049084201EF01CFF014604AA3B
:20566000842021F05FF90DF13A038DF83A0013E098630020D81C21F0CBF8ADF81A008320EB
:205680001EF008FF01460DF11A02832021F04AF90DF13B038DF83B000122294667201CF07C
:2056A000A9FF204611B0BDE8F083C046305C0020AC5D002040420F002DE9F04FCF48D04C0F
:2056C000DFF840830F46390CADF1240D80F06582790927D300230370D7494370184621F01C
:2056E000C7F8D649012021F0C3F8D549062021F0BFF8D449072021F0BBF8D849082021F071
:20570000B7F80522D6498DF80C300DF10D0020F045FB41208021062203AB1CF06BFF87F0B3
:20572000100044E2B80828BF87F0020080F03F822068390931D217F4706F08BF002000F054
:205740003682380B04D3002020F056FD87F40067F80A04D3012020F04FFD87F48067B80A98
:2057600004D3022020F048FD87F40077780A04D3032020F041FD87F48077384617E22168AD
:20578000884205D0016829601CF002FB286804E0016821601CF0FCFA206808BB606858B1F3
:2057A000C27EC17E521E491ED6B2C17626B960681CF0EEFA002060602668002E08BF0028AE
:2057C0000BD04446207808214FF47A7221F075F918B12078082119F0B7FD87F00800E6E168
:2057E000017B491E0173C9B20029C8D005460068D3E70546D9F8046028781A280EDC1A281B
:2058000054D0401E00F06C81401E00F02B81801E00F0B581801E00F01781BBE1243800F05D
:20582000A881AD3800F09E81801E03D02A3800F08B81AFE1A87C0930C0B2804614F0EAFD6C
:20584000061C00F0A781A97800F8011B6988091200F8011B99F80C1000F8011B99F80E1049
:2058600000F8011BB9F80E10091200F8011B99F8101000F8011B99F8111000F8011B99F8FA
:20588000141000F8011BB9F81410091200F8011BAA7CA96920F082FA4520FF214246334682
:2058A0001CF0A8FE30461CF073FA73E1B5F824A0E97B0AF114001FFA80F821F08DF80026C2
:2058C00040B9A87B032805D0B8F1F00FD8BF4FF0810B16DD08F10A004FF0820B1FFA80F84F
:2058E000B8F1FA0F0DDD0AF1100014F093FD061C00F0508106F11000A8EB0A0470601FFAF9
:2059000084F8404614F086FD079020B9002E00F041813046A0E00446A87804F8010B688856
:20592000001204F8010B287904F8010BA888BBF1820F4FEA202004F8010B1AD1A87B04F8AC
:20594000010BA87B032805D0A8792070E8880012607004E0A91D2046082220F01FFAE87B4F
:20596000083404F8010B287C04F8010B288A001207E0A87904F8010BE888001204F8010BD9
:20598000E87B04F8010B287D04F8010B687D04F8010BA87D04F8010B687E04F8010BE96995
:2059A000204620F0EFF9241DBBF1820F04D0002004F8010B504606E0002004F8010B04F86F
:2059C00001AB4FEA2A2004F8010B0E480078DEB10B4909680A4B31604FF47A721E600821B2
:2059E0000F23337321F069F820B106480078082119F0AAFCE869B060706807E0505D002001
:205A000018640020EB74002020465444A96A524620F0C4F995F82C0004F8010BA88D5FFAA6
:205A200088F85946001204F8010B95F82E00079E2070442032E7C046A5E501004F370200A7
:205A4000511C020039390200A878401DC0B214F0E1FC002800F09E80064623E7E12A0200FA
:205A6000588A020029790B2000EB4100C0B21FF01EFB002800F08E80A9782E798DF800102C
:205A8000EC788DF802608DF801400DF10301FEB1AA792C79EE880A70022C4FEA26218DF859
:205AA00004100DF1050113DB2A7A2C792E890A70032C4FEA26218DF806100DF1070107D13E
:205AC000AA7A6E890A7031128DF808100DF109012A7BAE890A7032124A701FF0FFFB59E0B3
:205AE000002E57D070788DF81500B0788DF816003078FA2819DC9DF8150000F01E00162857
:205B000011DA2C499DF815000D4600F01F00820050194068091D30B18958304688478DF8D4
:205B2000140028B9BEE6012000E004208DF814009DF8150020F01F0020287FF4B3AE602099
:205B40000021032205ABABE66878AE78EC788DF8180006AB8DF8196003228DF81A404420A0
:205B6000802103E06B1C4520C02101221CF042FD10E0F0783346401DC2B26920F0E7F078FC
:205B8000401DC4B2A11E701CC9B220F03FFAA41904F8010C48461FF0A1FB0748007819F054
:205BA000A5FB5FEA00097FF424AE87F4004009B0BDE8F08F505D0020EB7400202DE9FC4771
:205BC000D44C0F460546F80B80F006826078DFF85883B90F80F0AA81B90880F09D81F90ACB
:205BE00080F00281390B80F0CC80380907D2F80FC0F0288227F0804717F0E4FE22E220F05C
:205C00009AFF81461FF0BAFB002800F0B480082020F022FE002840F0AE80802020F01CFE6C
:205C2000002840F0A880684613F0A8FB012803D10098002800F09F8094F84102002840F09D
:205C40009A8000250126E8B220F044FB48B1837A3BB1867290F9090006FA00F0C0B21DF01A
:205C60003BFB6D1C032DEED3032084F8200004F5CC7020F05AFF484621F0DEF8D348002562
:205C80002A460168056050F8081CD14940F8085C04F15C001FF082FA40460068006B8047A8
:205CA000A168401A010BA06AC1F1FF3282422CBF08444FF0FF30A06294F82C0020B120690B
:205CC000A16AB1EBC02F25D91FF068FB294600B13146081C1BD0BF4840F60901018045808B
:205CE000417B06F00F0221F00F010A434273017B05F00F0321F00F0143EA01020273294606
:205D0000416020F053FC418811F4406FFBD084F82C60A5621BF036F9CE48294605600220E6
:205D20001FF03CF802201DF0AFFE112011F0A2F9207818B96068483020F013FFC648007826
:205D400010B90E2011F096F994F82D0020B184F82D5005201DF098FEC048606284F82050BB
:205D6000B4F9B000B4F9B210884214BF0220072015F0C2FA02E0484621F05EF827F00807B3
:205D80003AE720B104201DF07FFE0020607065681CF08AFF38B12846ED696FF480710022EE
:205DA0004FF00073A847E06858B140460068006B8047E2686168801AC860000BC8600026A3
:205DC000E660A74904F15C0000221FF0E7F90221D4F89C0084F8201018B104F1DC0020F04A
:205DE000C8FE27F4006707E720F0A5FE06461FF0C5FAD4F894100028894600F0848000291C
:205E000000F081809749042504F15C00002284F820501FF0C3F9304621F00EF804F5CC709C
:205E200020F083FE40460068006B8047E0604FF0010884F8018028461DF03EFED9F8100094
:205E40006060D9F81000416AC90803D3036A294600229847404619F011F8606880F8158005
:205E6000606811F087FA6568D5F808A040F60A02D01F564600F1010C00E01E46736833B1C8
:205E800019888A4203D0884218BF8C45F5D100217160727B08F00F0322F00F021343737342
:205EA000D9F80C201288904224D06046904221D02B8E03B3696305F13002518095F83C001F
:205EC00001F00F0320F00F00034385F83C3095F83D0008F00F0320F00F00034385F83D304E
:205EE0007260707B01F00F0520F00F0045EA0001717300E0E160504620F058FB5146404676
:205F00001EF04CFF02E0304620F096FF27F4806798E0C046E84700200AF0D8F9D4F89C0029
:205F200008B927F002078DE08C0100104E4A116841F08001116020B104201DF0A5FD00207E
:205F4000607020F0F8FD8246D8F85400016804208847D0B1287DC0B1A068B0B18146D8F88D
:205F600000002E69006B8047A0EB09002861000B2861B04202D280194008286140F6C4116C
:205F800081422CBFB0F5967F2961504620F054FF1CF08AFE80B1EE6928466FF48071002216
:205FA0004FF00073B047D4F89400002808BF47F0020701D017F006FD2846AD6900214FF0EA
:205FC00080630A46A84727F000573BE01410044001F40100C473002020F0ADFDD4F8AC60CF
:205FE00066B306F1280106C90A234FF0E0450B40154008BF002B21D106F1280191E80003E8
:2060000006F1280595E8060006F1280322EA090221EA080183E8060020F00EFFB16879B1BB
:20602000B9F1000F08BFB8F1000F09D03069B6F93010B5684B464246A84701E020F0FCFEB7
:2060400027F4804727B104F1DC00394620F091FDBDE8FC8700000460068A020039480100F8
:206060009D3C01005D530200CC2108402DE9F04FADF17C0D1B91C0491C923CC9064610A877
:206080003CC00EC980E80E0000248DF84240327F8DF84340B08D8DF84D40D6F828C0ADF829
:2060A00044401746ADF85A00F0898DF854706146ADF84A00087800F00303022B8DF8400040
:2060C00000F3FD8123461D93491C1E9343083CD200F00C0EBEF10C0F0CD043093CBF11F8C7
:2060E000013B8DF84230BEF1080F04BF01238DF84C3001D08DF84C40BEF10C0F0AD073794D
:2061000003F00303012B0CD140F00C0073898DF8400004E04D780B78891C03EB0523ADF8F4
:206120004430430911D24D780B78891C03EB0523ADF846300B784D78891C03EB0523ADF8F6
:20614000483011F8013B8DF8433011F8013B30F07F058DF855301ED00B7833F003058DF876
:20616000413040F0A88103F0030EBEF1030F00F0A28113F0030F01F101010ED011F8013B51
:2061800000F00305022D8DF8573004BF11F8013B8DF8583001E08DF841401491A1EB0C0192
:2061A0007F1AFFB2BA42C0F28681D21B8DF85470D1B28DF84D100F4300F08181C10907D35D
:2061C00070891BF085FD002840F079819DF8400000F00C012746091F08BF0127820932D301
:2061E00001221E9279B3B28920F0E2FA904202D1F08D000A0DD220F0DBFA904221D0F18D48
:20620000080A38BF101C07D39DF8400000F003032DE07089ADF85A20804620F0C9FABDF831
:206220005A10884205D0404619F084FE002800F04681A448026810A940469047002840F0A1
:206240003E819DF84000F18D00F003030A0A0ED2C2090CD39DF8412012F0030F07D100F0C6
:206260000C020C2A03D0082A1CBF01221D92DFF86082022B00F00081012B00F0CE8010F067
:20628000030F40F01C81904890F82F00012803D1B579002D00F013819DF8540002221A90FD
:2062A0000B0A9DF84240BDF846B0BDF848A09DF855E09DF857C0DDF850908DF86420B089FD
:2062C0009DF84350ADF85C0075D2454605F11C021468002F52D11D9F17B110A913F0FBFCAA
:2062E0007A484178022936D10078012833D1B07C002830D070891BF0EBFC022801D0707929
:2063000048B37449B2893C208B1F33F8064F944204D19C78F77CBC4200F0D180401EF4D170
:206320006878891F3C234FF6FE7731F8064FA74202D05B1EF9D1C2E00A80F27C8A700C227E
:206340008A8004211BF004FD28B9687804214FF4FA7220F0B2FBF07C1E9F00901C9D0197A6
:20636000594C0295B07C1B9B0390B4F8482017A910A811F047FEA2E0BC870200307C002CFB
:206380008DF8560000F09B8020F012FABDF85C20904240F0948030791E9F00901C9D01976D
:2063A0001B9A02951D9B039196F8300010A9049017A8A04783E08DF820208DF822508DF8F0
:2063C0002340ADF830107089ADF818008DF835E0ADF826B0ADF828A0CDF82C901A9B8DF882
:2063E00036C0327CADF82A3035798DF83220B47C8DF8335096F832108DF83440324F8DF86E
:206400003810B7F84800ADF8240096F830708DF8377006A805F05AFD51E01D9FB58937B10D
:20642000080A04D2284610A913F055FCB5899DF85400B6791030C0B21EF039FE071C3ED07B
:206440007D81022038703E737C709DF854203A7207F110057D609DF84000800928BF0124CE
:206460007C72149978681FF099FC45466D1C287839461AF0B9FA22E09DF84100B189454670
:2064800024352B6810F0030F10D110A807901248ADF8181006A91DF077FC80B1062141736C
:2064A0000068407B21461AF0F5FF08E03BB110A82246984703E08DF84D408DF854401FB0A4
:2064C000BDE8F08FCC610020CC590020AC5D00209C5F0020341D0020D30702002DE9F04F20
:2064E0004FF0FF084146ADF14C0D0E910F914FF0000910914E46089609960A96AD4C0B96A5
:2065000004F1300B0C96E0680D96494611919EE0E068710306AA042320F036FA119903AAE5
:2065200030461FF079F902AA304601211FF074F93046022101AA1FF06FF9069800F0FF005C
:2065400028709DF81900069F6870C7F30140E8709DF80E30AB702878FF2834D0BDF80C703B
:20656000FE2830D04FF6FF70B8422AD107A81CF09BF8E06871034FF088524FF4005320F083
:2065800003FAB8484FF4005750F8041D3F1FBFB2B1F1FF3F07F1885201D1032FF4D8106832
:2065A0004FF0010A514600F0FF03FF2B18BF8A46491C000A0529F6DB106007981FF0D6FBDA
:2065C0005744EF8001E01020E8809DF80A00BDF8087028719DF806302F81BDF804206B71A3
:2065E00029786A81E068FF292AD0FE2922D07E291AD07C2912D078290BD0702904D00D99E5
:20660000491CC9B20D9120E00C99491CC9B20C911BE00B99491CC9B20B9116E00A990F9681
:20662000491CC9B20A9110E009990E96491CC9B209910AE00899B046491CC9B2089104E051
:2066400009F1010710965FFA87F9761CF6B2E578B54200F31F810D9F002F38D108980228EA
:2066600035DA0C98022832DA099802282FDA4D452BD00C98C0B90898A0B90B980A99084329
:2066800025D01EF025F9854219DCB9F1000F14D094F83200FE211DF07FF9E5780120DDF8CB
:2066A000408015E0012013E0089860B9B9F1000F07D11EF00DF9854201DC062008E00320DE
:2066C00006E00220EBE7022002E0119800E004200028A07000F0C880401E49D0401E00F0FA
:2066E000A980401E06D0401E00F09780801E00F093800AE11EF0ECF805460C2084F83C50DB
:2067000015FB00B0817E84F83D10C07E84F83E000EF06EFAE2782D1895FBF2F050432D1AA8
:20672000E8B284F83200401C90FBF2F15143401A84F831007C201CF07FFAFF2810D17E20E5
:206740001CF07AFAFF280BD1FF201CF075FAFF2806D178201CF070FAFF2808BF94F8310065
:2067600084F833000C2110FB01B0808BE0868BE00F9F08F1010090FBF5F184F832806943B2
:20678000FF2FA0EB0100C1B284F8311014D10E98FF2804D10C200E9111FB00B004E00146D6
:2067A000880000EBC100584484F83310808BE086ABE0C046585B00203A46D0B2910084F866
:2067C000330001EBC2015944898B1729E18640F29C80C91F01AA89B212F0C8FA9DF80F00FB
:2067E000C0083BD3119F0097BDF81220E18E94F833000323891AC91F01AA89B209F0BCFC1F
:20680000002840F08280BDF8101000297DD09DF814001AF0C3F878E0FEE7119EB54223DD82
:20682000304610F0C7FB6178E578761CF6B201436170F3E708F1010084F8328090FBF5F128
:206840006943401A84F831005FFA88F010F0B2FB6070FE215FFA88F01DF09EF8119802F009
:20686000C9F852E00020001111986D1E84F831000C2184F8325010FB01B184F83300898B68
:20688000E1867E211DF088F894F83200FE211DF083F83AE00C2116FB01B506AA04237103A7
:2068A00020F072F81199304603AA1EF0B5FF304602AA01211EF0B0FF3046022101AA1EF07C
:2068C000ABFF0699163501F0FF0201F0FF00FF2A09D0FE2A07D07E2A05D07C2A03D0782AA9
:2068E00018BF702A0AD1119F47B9C1F38542032A04D19622B2EB116F3FF422AE304610F0D1
:2069000059FB002860703FF403AE13B0BDE8F08F2DE9F04FC24CC44AA0790E46F108ADF1EB
:206920001C0D80F07281BF49330C07D3DFF8FCB24FF6FF7A9146AAF1010A42E00F78710BC5
