:020000040000FA
:06000000020D8E0203A0B8
:03002B00020B05C0
:030033000207635E
:030053000202CFD7
:03006B0002071871
:03007B0002074138
:1000830002033101010000000000F8FF07FFFF0039
:10009300000504000000030001FFFFFF1410270008
:1000A300000020FD000206FFFF1E181600000000DE
:1000B300000000000000000000000000000000003D
:1000C300000001040000F519000000E8030000FF30
:1000D300FF461A0188130000E8030000640064006F
:1000E300B801A0BB0D00A0BB0D0002020207040172
:1000F300051E02051E020A0A010108080103B80BC6
:1001030002803E0102FEFFE8030A050001FFFF0231
:100113000A011401E0050301010F030003000300BA
:1001230003000300030003000300030005000A00AB
:10013300140028004F009E0000001D29000000004D
:10014300F12700000000FF000000FF0000120D9ED9
:10015300604F120DAD6012E7548066F6120C6970A1
:1001630011120E3B703B090909F4F618F618F6183C
:10017300F622120C417015120E4408080860EAE6D4
:10018300447FF618768018E4F618F622120E4460BF
:1001930016120E3B7012E4F608F608F608E65480D1
:1001A300F609090918181822EAC0E0EBC0E0ECC010
:1001B300E0EDC0E0E687F0A4FBACF008E687F0A42E
:1001C3002CFCE435F0FA1809E687F0A42C4B600206
:1001D3007401CA35F0FCE433FB09E687F0D2F7A4D7
:1001E3002CCB35F0FC1908E687F0A42BCC35F0FBBB
:1001F300E433FD0819E687F0D2E7A42C4ACB35F0A7
:10020300CD3400FC09E687F0D2E7A42DCC35F0FD10
:10021300E433FA0918E687F0D2F7A42CCD35F0CAF7
:100223003400FC08E687F0D2E7D2F7A42ACC35F0F5
:100233007A7E20E70B0ACB33CBCD33CDCC33CC3313
:10024300CB3350147004ED30E00ED2F1E4CD3DCD4C
:10025300CC3CCC3B5005DA05C2F1EB547FC63308E6
:10026300E63392F0FBE73309E733C39A502D2B7043
:10027300190C0D4C4D70151806E608C333700D208C
:10028300F10AA2F013F6E418800B4024E4F630F0F0
:1002930002768018F618F618F68024D33B14501013
:1002A30074FFA2F013F6187680E418F618F6800FA0
:1002B300A2F013F618E63303F618ECF618EDF6D0B1
:1002C300E0FDD0E0FCD0E0FBD0E0FA22C0E074F126
:1002D3001206B9A2AFE433F509D2AF85A708AFA1DF
:1002E300EF5508FE74105E600612109075A1EF744E
:1002F300085E600812109675A1F78024EFA2E092C1
:10030300F0E508A2E082F05017906198E0F89005BC
:10031300A3E0C398A2D265D0335002E8F075A1FEE2
:10032300752300E509A2E092AF7F020207D4C0E083
:1003330074F21206B9A2AFE433FED2AF9061A4E027
:10034300F8759B00E59158540860087591F71210F1
:10035300E48023E59158541060087591EF1210EA78
:100363008014E591A2E092F0E8A2E082F05007E069
:10037300C2E0F01212409061A3E0F8E5E95854049A
:10038300600E12121675E9FB906193E0A2E640F24B
:10039300752300EEA2E092AF7F010207D4C0E074A0
:1003A300F21206B9A2AFE433FED2AF9061A5E0F832
:1003B300E5BF585404600675BFFB12125880D1C3C1
:1003C300E498F8E499F91204038026C3E49AFAE462
:1003D3009BFBE920E7E9120403E498F8E499F92286
:1003E300C3E498F8E499F9120403E498F8E499F95A
:1003F300C3E49AFAE49BFB22EB20E7CFE920E7E092
:10040300B90010BB0008E88AF084F8AAF022E4FBE4
:10041300C8FA22EB70227B10C833C8C933C93350E2
:1004230007C39AC3DBF280069A50012ADBEAC8337A
:10043300F4C8C933F4C9FA2275F008E4C833C8C94B
:1004430033C933C99AC99B5004C92AC93BD5F0ECB7
:10045300FBC833F4C8E4C9FA221204A730F03912F6
:1004630004EC80341204A720F01430E72B74FFFC53
:10047300FBFA747F8022E4FCFBFA7480801AB48058
:1004830008BC00F2BB00EF800F50EBF9E4C39AFA0B
:10049300E49BFBE49CFCE499C6CC18C6CB18C6CA03
:1004A30018C6F922E4C9C608CAC608CBC6D33303A3
:1004B30008CCC63392F0C3947F402E94184019C9D8
:1004C300B90704CACBCC225025C309CA33CACB33DC
:1004D300CBCC33CC33D9F422F4600DC9CCC313CBCA
:1004E30013CBCA13CAD9F6CC22E4FCFBFA2214FCC0
:1004F300FBFA22080808EAC0E0EBC0E086F0E7A4B4
:10050300FA180986F0E7A42AFA180986F0E7A42A5C
:10051300FA180986F0E7A42AFA1986F0E7A4FBE59E
:10052300F02AFA190886F0E7A42BFBE5F03AFA194A
:100533000886F0E7A42BFBE5F03AFA18180986F0D1
:10054300E7A4C5F02BFBE43AFA1908E7C5F0C6A403
:1005530026F6E5F03BFBE43AFA1886F0E7A4F6E565
:10056300F00826F6E43B08F6E43A08F6D0E0FBD0C0
:10057300E0FA22E4CFC0E0E4CEC0E0E4CDC0E0E4A2
:10058300CCC0E075F020E626F608E633F608E6333D
:10059300F608E633F6181818EC33FCED33FDEE33AA
:1005A300FEEF33FFC3EC9709ED9709EE9709EF9739
:1005B300191919400FFFEC97FC09ED97FD09EE9708
:1005C300FE191906D5F0BFECF709EDF709EEF709A7
:1005D300EFF7191919D0E0FCD0E0FDD0E0FED0E030
:1005E300FF222521C582C0E0E52234FFC583C0E098
:1005F300E521C3958224F810AF08858322858221E3
:100603008008858322858221D2AFCEF0A3E520F036
:10061300A37808E608F0A3DEFAEFF0A3E58124FA55
:10062300F8E608F0A3E608F0A3E608F0A30808E656
:1006330008F0A3E608F0A315811581D0E0FED0E011
:10064300F8158115811581E8C0E0EEC0E022120E95
:1006530026B900030206A3E490050178E179188026
:1006630002F0A3D8FCD9FA78239000867A01BA0065
:10067300028007E493A3F608DAF97AE17B1C900081
:100683008778C979018015E493A3AD82AE838A820A
:100693008B83F0A3AA82AB838D828E83D8E9D9E7BB
:1006A3007582AB7583BA7404120AE775824C75833D
:1006B300247400120AE7C0D02521C582C0E0E522D8
:1006C30034FFC583C0E0E521C3958224F310AF084E
:1006D3008583228582218008858322858221D2AF6A
:1006E300C8F0A3E9F0A3EAF0A3EBF0A37908E709C4
:1006F300F0A3D8FAECF0A3EDF0A3EEF0A3EFF0A390
:10070300D0E0F0A3D0E0F0A3D0E0F0A3E520F0A385
:10071300E5F0F0A322C0E074F21206B9A2AFE4330D
:10072300FED2AFE589547C6003120FCA538983C29A
:10073300C5752300EEA2E092AF7F010207D4C0E0AB
:10074300C0D0E8C0E0A8A8D2AFE58A858A8AC2EB08
:10075300752300E8A2E792AFD0E0F8D0D0D0E03222
:10076300C0E0C0D0E8C0E0A8A8D2AFE58B858B8BF2
:10077300C2E880DCE9799EC608CAC608CBC608CCA5
:10078300C6C370207996CACBCC7019798ECBCC7046
:10079300137986CC700EF9802ACA33CACB33CBCCFB
:1007A30033CC331930E7F2CCCBCA3350147004EA9C
:1007B30030E00DE4CA3ACACB3BCBCC3CCC50020967
:1007C300C3E913C6CC182313C6CB18C6CA18C6F977
:1007D30022852283852182E0C0E0A3E0F9A3E0FA29
:1007E300A3E0FBA37808E0F608A3DFFAE0FCA3E0AC
:1007F300FDA3E0FEA3E0FFA3E0C0E0A3E0C0E0A30D
:10080300E0F5D0A3E0F520A3E0A3F5F010AF088551
:1008130083228582218008858322858221D2AFD0DD
:1008230082D083D0E0F8D0E03275F0108E248F258B
:10083300858229858328852182852283E0CEA3E0D2
:10084300CF852982852883EBC9EAC8EDCBECCAC3DF
:10085300E833C8E933C9EA33CAEB33CBC3EA9EF5BD
:1008630027EB9FF526B35004AB26AA27EC33CCED38
:1008730033CDD5F0DAAE24AF2522D083D082ECC0BD
:10088300E0EDC0E0E493A3FCE493A3FDED4C600D25
:10089300120955EC24FFFCED34FFFD80EFE493A334
:1008A300FCE493A3FDED4C600D1209F2EC24FFFC74
:1008B300ED34FFFD80EFD0E0FDD0E0FCE493A3C076
:1008C300E0E493C0E022852283852182E0A3FEE059
:1008D300A3F5207808E0A3F608DFFAE0A3FFE0A37E
:1008E300C0E0E0A3C0E0E0A3C0E0E0A3C0E0E0A379
:1008F300C0E010AF0885822185832280088582218C
:10090300858322D2AFD083D082020AEDD083D082F6
:10091300E9C0E0E493A3C386F0C5F095F0F908E4D9
:1009230093A386F0C5F095F0700BE493A3C39940AD
:1009330005E9048002A3E475F002A42582F582E5AB
:10094300F03583F583D0E0F9E493A3C0E0E493C0EA
:10095300E022C0E0C3E49396087401939618400F15
:10096300E49366700808740193661870007019A305
:10097300A3C3E49396087401939618A3A3400DD0E0
:10098300E0D0E0D0E00208B9A3A3A3A3A3A3D0E0DF
:10099300227404800474028000CCC0E0EDC0E0E562
:1009A30021C39CCCAD2250011D10AF068C218D229A
:1009B30080068C218D22D2AF120A69D0E0FDD0E0EF
:1009C300FC2274028000CCC0E0EDC0E0E521C39CB2
:1009D300CCAD2250011D10AF068C218D2280068CD8
:1009E300218D22D2AF120A47D0E0FDD0E0FC22C015
:1009F300E0C0F088F0E49366700808740193661809
:100A03007000A8F0A3A3700BD0F0D0E0D0E0D0E04A
:100A13000208B9A3A3D0F0D0E022D083D082CCC007
:100A2300E0E493A36006120AA91470FAE493A360A6
:100A330006120BEC1470FAD0E0FCE493A3C0E0E4DC
:100A430093C0E022CAC0E0E493A3C582CCC582C5AB
:100A530083CDC583F0A3C582CCC582C583CDC583B1
:100A6300DAE5D0E0CA22CAC0E0E0A3C582CCC582E1
:100A7300C583CDC583F0A3C582CCC582C583CDC54F
:100A830083DAE6D0E0CA22C008C3E096F50808A3DB
:100A9300E096420808A3E096420808A3E0964508BA
:100AA3007001D3D00822C0E0E493A3D39C5010E498
:100AB30093A3C39C400AD0E0D0E0D0E0020A3AA35B
:100AC300A3A3D0E02270090808082260161818189A
:100AD300C6C333C608C633C608C633C608C633C63C
:100AE300D5E0EA22C09FF59FE473D09F22D083D044
:100AF30082C09FE493C0E0740193C0E0740293F555
:100B03009F22C0E0C0D0E8C0E0A8A8D2AFC2C7759A
:100B13002300E8A2E792AFD0E0F8D0D0D0E03225AE
:100B230021F58210AF08F521400C15228008F5212C
:100B330040021522D2AF8522832200C0D025211086
:100B4300AF08F521500C05228008F521500205223B
:100B5300D2AFD0D0227404800A740380067402805A
:100B6300027401C0E0F404120B22D0E0120DE9225A
:100B7300BB0102E722C082C08389828A83BB000350
:100B8300E08002E493D083D082226016080808C66E
:100B9300C313C618C613C618C613C618C613C6D5BC
:100BA300E0EA222521F8E43522F9222521FAE43569
:100BB30022FB222521FCE43522FD22C3E0C696F662
:100BC30008A3E0C696F608A3E0C696F608A3E0C617
:100BD30096F622252110AF08F521400C1522800836
:100BE300F52140021522D2AF22C0E0E493A36C703A
:100BF30009D0E0D0E0D0E0020A3AA3A3D0E022E09B
:100C030066701008A3E066700A08A3E06670040823
:100C1300A3E06622C3E09608A3E09608A3E0960843
:100C2300A3E096A2D265D03322E76670100809E7E5
:100C330066700A0809E76670040809E7662219194D
:100C430019E70947097009E727097005E733F42213
:100C53000922C3E096F008A3E096F008A3E096F01B
:100C630008A3E096F022181818E60846087009E66B
:100C730026087005E633F4220822C3E49396087429
:100C83000193960874029396087403939622C3E61D
:100C930097F60809E697F60809E697F60809E6972E
:100CA300F622E026F608A3E036F608A3E036F608B7
:100CB300A3E036F622E056F008A3E056F008A3E0DE
:100CC30056F008A3E056F022700422600D18C6C344
:100CD30033C608C633C6D5E0F41822E657F608092A
:100CE300E657F60809E657F60809E657F622E056EE
:100CF300F608A3E056F608A3E056F608A3E056F676
:100D030022E627F60809E637F60809E637F6080962
:100D1300E637F622E026F008A3E036F008A3E03633
:100D2300F008A3E036F022E647F60809E647F6089E
:100D330009E647F60809E647F622E4C396F608E40F
:100D430096F608E496F608E496F622600D08C6A225
:100D5300E713C618C613C6D5E0F322C6F4C608C601
:100D6300F4C608C6F4C608C6F4C622C3E796080943
:100D7300E7960809E7960809E79622C3E09608A3D1
:100D8300E09608A3E09608A3E0962275D00075814B
:100D93003F75210175220500020651E6084608C386
:100DA300134608336002E633F422E7094709C31305
:100DB3004709336002E733F422600C08C6C313C645
:100DC30018C613C6D5E0F422E6F008A3E6F008A39C
:100DD300E6F008A3E6F022E0F608A3E0F608A3E0B5
:100DE300F608A3E0F622CAC0E0E6F0A308DAFAD0D8
:100DF300E0FA22E0FAA3E0FBA3E0FCA3E0FD22EA91
:100E0300F0A3EBF0A3ECF0A3EDF022E0F8A3E0F9FC
:100E1300A3E0FAA3E0FB22E8F0A3E9F0A3EAF0A33E
:100E2300EBF022E5C754F84401F5C77901222521E7
:100E3300F582E43522F58322E72719471947194735
:100E430022E62618461846184622C2AF75D69F02D8
:100E5300000022120AF0DCAB04120AF0ECAB04121D
:100E63000AF028AC04120AF086F101120AF002F229
:100E730001120AF035F201120AF063F201120AF0CC
:100E8300A1F201120AF0BEF401120AF0DAF401121F
:100E93000AF01FF501120AF0A4F501120AF0F0F5A9
:100EA30001120AF082F601120AF05AF701120AF04F
:100EB300B6F701120AF014F801120AF091F80112C0
:100EC3000AF0C7F801120AF012F901120AF038F910
:100ED30001120AF0C8F901120AF05FFA01120AF0CE
:100EE300ABFA01120AF0DCFA01120AF013FB011249
:100EF3000AF0A2FC01120AF06CFD01120AF03CFE9A
:100F030001120AF0269C04120AF0489C04120AF00B
:100F1300689C04120AF08F9C04120AF0D69D0412F6
:100F23000AF0449E04120AF00A9F04120AF0A19FD9
:100F330004120AF0EB7F00120AF0F07F00120AF0AD
:100F4300F37F00120AF0BDB104120AF084B2041256
:100F53000AF096B204120AF009B304120AF0C6C6E4
:100F630004120AF0D7C604120AF075C704120AF075
:100F730080C704120AF098C704120AF0EFFF0212A6
:100F83000AF0D87F00120AF0A7C704120AF0B7C705
:100F930004120AF0CCC704120AF080C804120AF043
:100FA300C4C404120AF047C504120AF0ADC5041202
:100FB3000AF08BBF04120AF0B3BF04120AF0D6BFC3
:100FC30004120AF04BC004120AF095C004120AF08E
:100FD300C0C004120AF0D7C004120AF065980412C4
:100FE3000AF0739804120AF0EC9804120AF0C499F8
:100FF30004120AF0879B04120AF0D79B04120AF02A
:10100300139C04120AF0F87F00120AF0A1B804122C
:101013000AF0D9B804120AF024BA04120AF0A8BAE2
:1010230004120AF0AD8A04120AF0D98A04120AF0F3
:101033001D8D04120AF05D8D04120AF09D8D0412B9
:101043000AF0B18D04120AF0CA8D04120AF0BC8EA4
:1010530004120AF0618F04120AF0758F04120AF069
:1010630023BE04120AF047BE04120AF060BE041243
:101073000AF092BE04120AF0C2BE04120AF0EFBED6
:1010830004120AF0F9BE04120AF05BBF04120AF05C
:101093006ABF04120AF074BF04120AF081BF04127B
:1010A3000AF018AF04120AF038AF04120AF077AF4F
:1010B30004120AF092AF04120AF0B1AF04120AF05C
:1010C30017B004120AF020B004120AF07DB0041223
:1010D3000AF08CB004120AF0B0B004120AF071B135
:1010E30004120AF07EB104120AF08FB104120AF05E
:1010F3007FFF03120AF0C7FF03120AF0F3FF031284
:101103000AF0FC8504120AF0568704120AF0648779
:1011130004120AF0778704120AF08C8704120AF08B
:10112300A18704120AF0B48704120AF02888041273
:101133000AF08D8804120AF0158904120AF09189C5
:1011430004120AF0558A04120AF0658A04120AF09E
:10115300748A04120AF02EC904120AF052C9041246
:101163000AF07AC904120AF0A2C904120AF01AB4E6
:1011730004120AF041B404120AF05FB404120AF034
:10118300D2B404120AF045AC04120AF05EAC0412A5
:101193000AF06AAC04120AF07EAC04120AF09CACAA
:1011A30004120AF0A6AC04120AF0B0AC04120AF05E
:1011B300C3AC04120AF049AD04120AF0BEAD041226
:1011C3000AF0EDAD04120AF03BAE04120AF08AAE47
:1011D30004120AF0A5AE04120AF0AFAE04120AF02C
:1011E300C0AE04120AF003AF04120AF044CA041298
:1011F3000AF08FCA04120AF05EEE03120AF088EEB8
:1012030003120AF0A5EE03120AF0B8EE03120AF075
:10121300CEEE03120AF02CEF03120AF064EF03126E
:101223000AF058F303120AF09DF403120AF0D0F403
:1012330003120AF033F503120AF093F603120AF0CD
:10124300BBF603120AF0D0F603120AF0E0F603121B
:101253000AF024F703120AF07FF703120AF08FF75C
:1012630003120AF094C304120AF0AEC304120AF084
:10127300D6C304120AF0EFC304120AF013C4041213
:101283000AF031C404120AF048C404120AF076C406
:1012930004120AF091C404120AF0267F00120AF025
:1012A3006A7F00120AF0D99F04120AF0E99F041220
:1012B3000AF0EEA004120AF020A104120AF050A1D1
:1012C30004120AF073A104120AF08AA104120AF0AC
:1012D300C4A104120AF029A204120AF06BA2041298
:1012E3000AF0AAA204120AF0DBA204120AF006A36F
:1012F30004120AF0EDC004120AF0FFC004120AF04F
:1013030013C204120AF016C204120AF003FF0212F7
:101313000AF039FF02120AF04FFF02120AF091FF9E
:1013230002120AF0A1FF02120AF0E5FF02120AF00C
:101333003B7800120AF07E7800120AF0E37800127C
:101343000AF0007900120AF0A27900120AF0AB79D0
:1013530000120AF0F07900120AF0197A00120AF06A
:10136300267A00120AF0A17A00120AF02C7B0012EE
:101373000AF0717B00120AF0BC7B00120AF0217C98
:1013830000120AF0447C00120AF0B57C00120AF045
:101393000A7D00120AF0457D00120AF07A7D0012E0
:1013A3000AF08C7D00120AF09E7D00120AF0BD7DCA
:1013B30000120AF0C67D00120AF0797E00120AF0CC
:1013C300BC7E00120AF0FA7E00120AF043C2041235
:1013D3000AF083C304120AF09BCA04120AF06BB624
:1013E30004120AF0A1B604120AF0E9B604120AF0D4
:1013F30042B804120AF0DEAA03120AF0F7AB031292
:101403000AF031AC03120AF0DFAD03120AF00DAE9D
:1014130003120AF073B003120AF0B3B003120AF016
:1014230057B203120AF0E7B203120AF03BB30312F6
:101433000AF0DDB303120AF01FB403120AF061B419
:1014430003120AF0BEB503120AF00CB703120AF036
:1014530043B903120AF071B903120AF098B90312DF
:101463000AF0A1B903120AF0F8B903120AF093BA09
:1014730003120AF09BBD03120AF022BE03120AF004
:1014830086C804120AF09EC804120AF0A8C80412FF
:101493000AF0FCC804120AF0898F04120AF09F8F25
:1014A30004120AF0409004120AF07F9004120AF02A
:1014B3009C9004120AF0CD9004120AF01A910412BF
:1014C3000AF04D9104120AF0889104120AF08393F2
:1014D30004120AF0EB9304120AF0C6C504120AF0D0
:1014E30025C604120AF063C604120AF0A4C6041245
:1014F3000AF055CB04120AF0F8CA04120AF000806D
:1015030002120AF00C8002120AF06E8002120AF034
:10151300788002120AF0098102120AF04581021250
:101523000AF0FC8102120AF04D8202120AF0E082F4
:1015330002120AF0188302120AF0918302120AF0CF
:10154300628502120AF05C8702120AF0788802129E
:101553000AF0BB8902120AF06A8A02120AF00A8FA1
:1015630002120AF0FD8F02120AF0A19002120AF091
:10157300C69002120AF0629102120AF077910212E7
:101583000AF09B9102120AF0099202120AF02692C3
:1015930002120AF0509202120AF0EC9302120AF0BD
:1015A3000D9402120AF0B39402120AF0FB94021291
:1015B3000AF0509502120AF0F09502120AF05496BE
:1015C30002120AF0B29602120AF0579702120AF0B8
:1015D300D39702120AF0079802120AF075980212C2
:1015E3000AF0AA9902120AF01B9B02120AF0B89B96
:1015F30002120AF0F69D02120AF05F9E02120AF02E
:10160300899E02120AF097A002120AF034A3021272
:101613000AF063A402120AF0BFF703120AF0D7F725
:1016230003120AF0F4F703120AF049F903120AF05D
:1016330002FC03120AF024FC03120AF016FD031243
:101643000AF0A0FD03120AF0F2FE03120AF095BCA1
:1016530004120AF051BD04120AF0F3BD04120AF099
:10166300008004120AF08D8004120AF0068104122D
:101673000AF0A58104120AF0C68104120AF0A282BC
:1016830004120AF00F8404120AF036FF01120AF062
:101693001A9603120AF0499603120AF0C19603122E
:1016A3000AF0C49703120AF0209803120AF09799DC
:1016B30003120AF0B39903120AF0059A03120AF00F
:1016C300489A03120AF05B9A03120AF0AD9A0312C6
:1016D3000AF0689B03120AF0E29B03120AF00C9CC7
:1016E30003120AF0449C03120AF0C09D03120AF08D
:1016F300999E03120AF0E29F03120AF0B5A00312A7
:101703000AF03DA103120AF085A103120AF09FA17A
:1017130003120AF0E6A103120AF006A203120AF06A
:101723009CA203120AF022A303120AF07CA3031261
:101733000AF0C0A303120AF051A603120AF074A719
:1017430003120AF0B0A703120AF0A2A803120AF0C8
:10175300CAA803120AF0CDA803120AF0D7A80312ED
:101763000AF0EAA803120AF069A903120AF09FA972
:1017730003120AF0CBA903120AF0F2A903120AF02A
:1017830016AA03120AF087AA03120AF095AA0312F3
:101793000AF0C8AA03120AF0C7C904120AF0D3C98F
:1017A30004120AF007CA04120AF0FDFF01120AF03C
:1017B300008003120AF0238003120AF069810312E6
:1017C3000AF0B28103120AF01A8203120AF0788235
:1017D30003120AF07B8203120AF0C78203120AF093
:1017E3003A8303120AF0C28303120AF0C583031279
:1017F3000AF04F8403120AF0908403120AF07388EC
:1018030003120AF00C8A03120AF06A8A03120AF01E
:10181300E58D03120AF01E8F03120AF08D90031256
:101823000AF02B9103120AF0369203120AF08794FE
:1018330003120AF071BE03120AF01BBF03120AF06F
:1018430081BF03120AF09ABF03120AF016C00312F3
:101853000AF06CC003120AF0BCC003120AF023C1E1
:1018630003120AF09CC203120AF0CAC303120AF05D
:101873004FC403120AF055C603120AF0B0E703126D
:101883000AF0A7C703120AF069C803120AF012CAC2
:1018930003120AF0BACB03120AF06BCC03120AF05C
:1018A30083CD03120AF043CE02120AF0B7CE02121E
:1018B3000AF0FFCE02120AF043CF02120AF08CCFD5
:1018C30002120AF0D6CF02120AF00ED002120AF068
:1018D3008CD002120AF0E6D002120AF03AD20212B7
:1018E3000AF0CBD202120AF023D302120AF0E1AAC1
:1018F30004120AF065D302120AF0BDD302120AF0F1
:101903002CD602120AF04BD602120AF02FD702127B
:101913000AF05FD802120AF0DCD802120AF02BD9BF
:1019230002120AF08CD902120AF032DA02120AF019
:1019330000DC02120AF000DD02120AF07EDE02125F
:101943000AF05FE002120AF0C5E202120AF075E43F
:1019530002120AF045E502120AF0B3E502120AF098
:10196300CAE502120AF0C2E602120AF0B2E7021254
:101973000AF01DE802120AF084A604120AF0D0A7A6
:1019830004120AF08DA804120AF0F1A804120AF056
:101993005EA304120AF079A304120AF0BDA3041291
:1019A3000AF0E3A304120AF009A404120AF021A422
:1019B30004120AF084A404120AF099A404120AF08F
:1019C300BCA504120AF0C5A504120AF0CEA50412A0
:1019D3000AF0D7A504120AF0E1A504120AF0F8935D
:1019E30004120AF0F79704120AF0FC9704120AF0A3
:1019F300FE9704120AF022BB04120AF08ECB0412E3
:101A03000AF08AA802120AF0BDA802120AF029A954
:101A130002120AF0C4A902120AF061AA02120AF021
:101A2300A6AA02120AF0C8AA02120AF0E1AA021236
:101A33000AF007AB02120AF029AB02120AF067ABF5
:101A430002120AF0ABAB02120AF0CDAB02120AF09B
:101A53002FAC02120AF0F6AC02120AF0ADAD02127C
:101A63000AF01FAE02120AF0EAAE02120AF03DAF0C
:101A730002120AF0A3AF02120AF0DDAF02120AF05B
:101A83002FB002120AF09DB002120AF008B102123E
:101A93000AF00BB102120AF08CB102120AF023B25F
:101AA30002120AF0A3B202120AF0C2B202120AF040
:101AB30026B402120AF033B402120AF03FB502123E
:101AC3000AF04CB502120AF055B502120AF02DB70E
:101AD30002120AF047B802120AF0C0B802120AF062
:101AE30032B902120AF054B902120AF0E8B902122A
:101AF3000AF0BCBB02120AF093BF02120AF0A7BF9E
:101B030002120AF0B7BF02120AF0C1BF02120AF0B2
:101B1300CABF02120AF0D3BF02120AF0DDBF0212DB
:101B23000AF00AC002120AF033C002120AF03EC0E1
:101B330002120AF062C002120AF086C002120AF010
:101B4300F0C002120AF036C102120AF053C10212A7
:101B53000AF0D0C102120AF007C202120AF046C20A
:101B630002120AF093C202120AF019C302120AF017
:101B7300E7C402120AF06AC502120AF04EC6021244
:101B83000AF0B5C802120AF00EC902120AF058C9C7
:101B930002120AF0B3CA02120AF0E8CA02120AF0E9
:101BA3003ACB02120AF0EFCB02120AF09ECC0212D9
:101BB3000AF0DBCC02120AF070CD02120AF0DCCD7F
:101BC30002120AF07E2B00120AF0B02B00120AF068
:101BD300DE2B00120AF0B42D00120AF0942E00122C
:101BE3000AF0EC2E00120AF0273000120AF07330CC
:101BF30000120AF09C3300120AF08F3600120AF02A
:101C0300DF3700120AF0753800120AF0813800122B
:101C13000AF0B33800120AF0363A00120AF0E73B32
:101C230000120AF07B3C00120AF0BE3C00120AF0DC
:101C33003C3D00120AF0593D00120AF0893D0012A2
:101C43000AF0BE3D00120AF08E3E00120AF0373F42
:101C530000120AF0BD4100120AF0DD4200120AF040
:101C6300C84300120AF04A4400120AF07E480012E8
:101C73000AF0BB4800120AF0134900120AF0464961
:101C830000120AF0B04900120AF0E64900120AF005
:101C9300714A00120AF0C94A00120AF0A04B00125E
:101CA3000AF0594C00120AF0F44C00120AF0FC4FEF
:101CB30000120AF0185100120AF0BB5400120AF085
:101CC300AF5500120AF0B25500120AF0E1550012A6
:101CD3000AF0E75700120AF0C05800120AF003593D
:101CE30000120AF0595A00120AF0985A00120AF028
:101CF300215B00120AF0555B00120AF01A5C001215
:101D03000AF0325E00120AF0A35E00120AF0E35EEC
:101D130000120AF0715F00120AF0936000120AF0D9
:101D2300556100120AF05C6300120AF0746300123A
:101D33000AF0886300120AF0C06300120AF0EE632F
:101D430000120AF06D6500120AF0926600120AF0A2
:101D5300EF6600120AF0A16700120AF0C8670012CA
:101D63000AF08F6800120AF0276900120AF04D6B1F
:101D730000120AF0826B00120AF0E56B00120AF0FF
:101D8300146D00120AF0BC6D00120AF0ED6D001222
:101D93000AF0056E00120AF0946E00120AF0487100
:101DA30000120AF0207300120AF03C7300120AF0CA
:101DB300587300120AF0267400120AF01978001200
:101DC3000AF0A48701120AF0D68701120AF0C58B24
:101DD30001120AF0118C01120AF0578C01120AF059
:101DE300F98C01120AF0558D01120AF09A8D011235
:101DF3000AF0E18E01120AF0F58F01120AF0E49362
:101E030001120AF0689401120AF0759501120AF0A2
:101E1300D19501120AF0C19701120AF03698011206
:101E23000AF0409801120AF04D9801120AF07898CE
:101E330001120AF05F9901120AF0099A01120AF0DD
:101E4300879A01120AF0A79A01120AF0D09A011296
:101E53000AF0F29A01120AF0529D01120AF0189E3A
:101E630001120AF05D9E01120AF0DA9E01120AF0D5
:101E73008B9F01120AF0BD9F01120AF003A0011209
:101E83000AF03FA001120AF08FA001120AF0E3A0AA
:101E930001120AF039A101120AF085A101120AF018
:101EA300F2A101120AF06DA201120AF038A4011284
:101EB3000AF038A501120AF05DA601120AF09CA9E6
:101EC30001120AF0AFAC01120AF06CAD01120AF074
:101ED300B0AD01120AF060AF01120AF074AF011243
:101EE3000AF07EAF01120AF088AF01120AF094AF34
:101EF30001120AF0B0AF01120AF05BB001120AF04E
:101F03009AB001120AF0A4B001120AF0AEB00112A5
:101F13000AF01EB101120AF069B101120AF07EB291
:101F230001120AF0DAB201120AF05BB301120AF0ED
:101F33001AB401120AF023B501120AF057B60112BE
:101F43000AF045B701120AF05DB701120AF0B8B7FB
:101F530001120AF0D6B701120AF01EB801120AF0F4
:101F630045B801120AF0E0B801120AF0A6B901124D
:101F73000AF038BA01120AF0B2BA01120AF0CCBB65
:101F830001120AF079BC01120AF0A1BD01120AF094
:101F9300F1BD01120AF055BE01120AF0B7BE0112DB
:101FA3000AF0E5BE01120AF009BF01120AF03EBFB2
:101FB30001120AF06FBF01120AF0A2BF01120AF068
:101FC300C2BF01120AF02AC001120AF01EC1011297
:101FD3000AF079C101120AF0A2C101120AF02AC261
:101FE30001120AF0ADC201120AF0D8C201120AF0BE
:101FF300BDC301120AF0CCCE03120AF004CF0312C0
:102003000AF025CF03120AF067CF03120AF0C9CFF3
:1020130003120AF0D3CF03120AF0E3CF03120AF03C
:102023001ED003120AF0FED303120AF0EBD50312FB
:102033000AF0D1D703120AF068D803120AF00AD9BA
:1020430003120AF0BFC501120AF03DC601120AF0DD
:1020530099C601120AF0E4C601120AF0FFC6011282
:102063000AF02AC701120AF047C701120AF053C740
:1020730001120AF0EAC801120AF003C901120AF0B8
:1020830088C901120AF09BC901120AF0BAC90112E8
:102093000AF05ECA01120AF0DFCB01120AF092CDF8
:1020A30001120AF028CE01120AF02BCE01120AF017
:1020B3009BCE01120AF0B9CE01120AF050CF0112E1
:1020C3000AF098CF01120AF09BCF01120AF061D0F7
:1020D30001120AF0CED001120AF0F4D001120AF074
:1020E3007FD101120AF09DD101120AF0E3D101124E
:1020F3000AF097D201120AF0E1D201120AF010D3CA
:1021030001120AF06DD301120AF0A2D301120AF0F0
:10211300CED301120AF0DCD301120AF029D4011242
:102123000AF099D401120AF0E2D401120AF02ED572
:1021330001120AF05AD501120AF065D501120AF00C
:1021430083D501120AF06ED601120AF078D6011275
:102153000AF0B3D601120AF0C3D601120AF0CCD6A4
:1021630001120AF020D701120AF034D701120AF043
:1021730063D801120AF07AD801120AF08FD801123B
:102183000AF01DD901120AF062D901120AF0EED940
:1021930001120AF0F9D901120AF03BDB01120AF02D
:1021A30056DB01120AF0A2DB01120AF011DC011264
:1021B3000AF04ADC01120AF064DC01120AF0A6DC20
:1021C30001120AF076DF01120AF023E001120AF08D
:1021D30090E001120AF0D0E201120AF0E8E20112E3
:1021E3000AF0EBE201120AF0F7E201120AF00BE344
:1021F30001120AF013E301120AF046E301120AF096
:1022030048E401120AF0CFE401120AF03FE501129B
:102213000AF0C1E501120AF082E601120AF0A1E612
:1022230001120AF042E701120AF09FE701120AF0D5
:10223300A2E701120AF0CFE701120AF0E4E7011264
:102243000AF058E801120AF0A7E901120AF0ADEA10
:1022530001120AF038EB01120AF053EC01120AF0F2
:102263001BED01120AF04CED01120AF06FED0112A1
:102273000AF078ED01120AF0A7ED01120AF037EE29
:1022830001120AF0EDEE01120AF062EF01120AF0F8
:1022930009F001120AF07EF001120AF0B5F0011202
:1022A3000AF0F3F001120AF029F101120AF0B9E57C
:1022B30003120AF00CE503120AF09EE403120AF07B
:1022C300D3FE02120AF0C9FE02120AF05EFE0212E7
:1022D3000AF0B2FC02120AF070FC02120AF090FB40
:1022E30002120AF07AFB02120AF0DEA904120AF0C3
:1022F30099A904120AF03BFB02120AF096FA0212A1
:102303000AF065A904120AF018EE03120AF092F714
:1023130002120AF080F502120AF04DF502120AF0D9
:10232300E8F402120AF07BF402120AF03AF4021201
:102333000AF073F302120AF00EF302120AF0B9F272
:1023430002120AF05CF202120AF033F102120AF0EE
:10235300D0F002120AF01AF002120AF015F002127B
:102363000AF009F002120AF0BCEC02120AF096EC31
:1023730002120AF0E0ED03120AF089ED03120AF0EB
:10238300F2EB03120AF034EB03120AF097EA03129A
:102393000AF08DEA03120AF037EA03120AF03BEC63
:1023A30002120AF0E6EB02120AF0A7EB02120AF09D
:1023B30094EB02120AF023EA03120AF089EB0212E9
:1023C3000AF065EB02120AF0A0E902120AF01FE913
:1023D30002120AF082E903120AF0DBE802120AF0A1
:1023E3003DD302120AF0B4E802120AF040E40312E9
:1023F3000AF002E403120AF0D5E303120AF0A1E3A0
:1024030003120AF040E303120AF028E303120AF06E
:1024130004E303120AF0CDDF03120AF099DD03127D
:102423000AF080DB03120AF00FDB03120AF0BEDAB4
:1024330003120AF078DA03120AF086E803120AF0AC
:10244300E1D903120AF0FEC60300000080FBE47327
:102453008F0001006E1D870001006C1D3500040014
:10246300351D25000200391D260002003B1D2700F3
:1024730002003D1D28000100471D29000100481DE1
:1024830084000400D11A86000100EF1C2A00010019
:10249300491D2B0001004A1D2C0001004E1D2D007B
:1024A3000800DD1A2E0001004F1D2F000100501DF2
:1024B30030000100511D31000100521D32000100A6
:1024C300E51A33000100E61A34000100531D3600FB
:1024D3000100E71A38000100541D390001004D1DA9
:1024E300830002006A1D63000100F31A6400010007
:1024F3004B1D650001004C1D6D000100F41A7100B5
:102503000800D51A66000100691D430001005A1D29
:10251300440002005B1D450001005D1D46000200F2
:102523005E1D47000800EB1A48000100601D4B00C8
:102533000100611D040001006D1DA1000100711D5A
:1025430037000100701D880001006F1D3C00010071
:10255300E81A3D000100551D49000200621D670095
:102563000100F51A4D000200641D4E000100661DB6
:102573004F000200671D3E000100591D510001007C
:10258300E91A52000100571D53000100581D540061
:102593000100EA1A000000000000070000003023D9
:1025A300C618070010003023B218070000003023BC
:1025B300C718070010003023B318070000003023AA
:1025C300C818070010003023B41807000000302398
:1025D300C918070010003023B51807000000302386
:1025E300CA18070010003023B61807000000302374
:1025F300CB18070010003023B71807000000302362
:10260300CC18070010003023B8180700000030234F
:10261300CD18070010003023B9180700000030233D
:10262300CE18070010003023BA180700000030232B
:10263300CF18070010003023BB1807000000302319
:10264300D018070010003023BC1807000000302307
:10265300D118070010003023BD18070000003023F5
:10266300D218070010003023BE18070000003023E3
:10267300D318070010003023BF18070000003023D1
:10268300D418070010003023C018070000003023BF
:10269300D518070010003023C118070000003023AD
:1026A300D618070010003023C2180700000030239B
:1026B300D718070010003023C31807000000302389
:1026C300D818070010003023C41800013636010162
:1026D30000010201000103010001040106060502D5
:1026E3000000070100340801000F090401010D0176
:1026F30000FF0E08000017020000190100FF1A0175
:1027030000011B0100FE1C0100081D0200001F0147
:10271300000120010001210200002301000F240217
:1027230000002601000127010008280200FF2A01FA
:1027330000072B0102402C0100002D0100012E0196
:1027430000012F0100FF30010B1D310800003A0189
:1027530000083B01000F3C0100013D0100FF3E0466
:10276300000042040000460400004A0400004E0436
:10277300000052040000560400005A040000000048
:1027830000002001A287000001002001A3870000B0
:10279300020020019E870000030020019F870000A4
:1027A30004004201A4860000050042016186000086
:1027B300060042015086000007003001A087000098
:1027C30000402001A3870000FDFF21019A8701003B
:1027D30020002005F71C010021002005F81C07003C
:1027E30000003023C518070010003023B11801037F
:1027F3007103010301030103010301032203020324
:10280300010310030003000300030003000300039C
:10281300000342030003240306030003000304032D
:1028230012032503230325032303040304030003E3
:1028330000030003440300030003230300036503B1
:102843002100350381030003050300030003000394
:10285300000325032303010171010101010111019A
:1028630001013101010101018001100161013B00FE
:10287300140063017301720162014301000113013A
:1028830006013D01350004011201000100010001B0
:10289300000104010401330133013C01440132010D
:1028A30036000001000165010001350081010001CE
:1028B30005018201830100010302710230016002FC
:1028C300110270020102020202028002100261027E
:1028D3003A00410063027302720262024302000281
:1028E3001302380000020002040212020002000276
:1028F3000002000204020402370037003C024402D3
:102903000002390000020002650200023502810262
:1029130000020502820283020002030071003001FB
:102923006000110070003102200350048000100089
:102933006100000014006300730072006200430032
:102943000000130006000000000004001200000055
:1029530000000000000004000400370037003C02C0
:102963004400000000000000000065000000350086
:102973008100000005000000830000003600010014
:10298300060000000F00000000000000000000002F
:10299300000003FFFF00000403FFFF0000FFFF0F21
:1029A300F4010005C4040320000100000B00000033
:1029B300000000000003010F000000000000000001
:1029C3000000000000000000000000000000000004
:1029D30000000000000000000000D6150016DC1502
:1029E3001C15E2150616E2151216E8151C15E2155C
:1029F3000616EE151C1500000000F4151C1500004A
:102A0300000000000000FA151C1500000000000083
:102A130000000000000000000000000000000000B3
:102A230000000000000000000000000000000000A3
:102A330000000000000000005E1801005E180200A4
:102A4300D4170280CE170300DA170400E0170480BE
:102A5300E6170500EC170600F81731000A183300D3
:102A6300101834001618FFFF0000030003000400D1
:102A7300080010001F003E007B00F600EC01D703A6
:102A8300AF075D0FB91E713D000007ECFDFDFDECC6
:102A9300DCDCCCBCACAC9C9C8C7C7C6C6C5C5C5CF3
:102AA3004C4C3C3C2C2C1C1C03EAF5E5D5D5C5B598
:102AB300A5959585857575656555554545353525C3
:102AC300251515050A3A1E02041E05101E070A1EC7
:102AD3000CEC1D0DF81DFF000000160F00000B1578
:102AE3000B020002220F3300000E0F5A6967426582
:102AF30065416C6C69616E63653039D0D1D2D3D4D2
:102B0300D5D6D7D8D9DADBDCDDDEDF3030161819BD
:102B130020231A1C1E3000034D4C4651181A25055C
:102B2300020001191618161618230300303017185F
:102B33001921301B1D1F30003C40423A3F3F392FC3
:102B430047300C0E020B040B0A0708000F020402A5
:102B5300010101010902E803000000BE040A0E009E
:102B630001000300E803FF04090E031E1E03010C0A
:102B730004280828020C0508150A04C082C0831221
:102B83000E68901B1E74DCF0A3741BF0901B207462
:102B9300E2F0A3741BF0901B2274E8F0A3741BF003
:102BA300901B2474EEF0A3741BF00258B974F7124F
:102BB30005E5901B12E4F0E9901B11F07CEB7D1A04
:102BC3007A137B1B1214EC901D60E0901B1BF0909A
:102BD3001B1C74D5F0A3741A023B4674F01205E56E
:102BE300EAFEEBFF54807003022D4F901B11123B42
:102BF300DB7003022D48EA241B125446707CEA243E
:102C03001F12544664137002A3E0706E8A828B8392
:102C1300122D9D901B2C1249D8750A00750B00804C
:102C23000D123A1C126AB81213F0AA0EAB0FEA4B3C
:102C330060488A828B83E0650C7004A3E0650D70A5
:102C43002C8A828B83A3A3A3A3E0F50EA3E0F50F45
:102C5300E50A450B8A828B83A3A3A3A360C3123D1A
:102C63001E850A82850B83A3A3A3A380B78A0A8B3D
:102C73000B8A828B831249D480B4E508242A125428
:102C830046FCE5082402F8E43509F9E8FAE9FB9083
:102C93001B2C122E84A3A3E06402703C8A828B83D4
:102CA3001249D8800B88828983A3A3A3A3123D1E54
:102CB300E849601F88828983E06A7003A3E06B7030
:102CC300E488828983A3A3E06C70DA901D661257AF
:102CD30076806BECF9121C18850882850983E06401
:102CE30001704FE5082418122D86120B64126060E0
:102CF300120994E5082412122D86120B64E50812BA
:102D03003BCF120B60E508240B126064120998E5AF
:102D1300082417123B6CE5082402FCE43509FDE5A1
:102D2300082419FAE43509FB122422740A120B3D14
:102D3300800CE064027007AA08AB09121CF6AA080B
:102D4300AB09121354EEFAEF6480802DEA5402604B
:102D53000C901D757401F0EA6402FA8023EA5408AA
:102D6300601A121C12EA4B700B901B2E125F3B7AF7
:102D730008122D93EE6408FAEFFB80047A007B00BF
:102D83000266EAF582E43509F583E0F50A780A225A
:102D9300FB901B11E0F91214BC22A3A3E0F50CA3D2
:102DA300E0F50D227B00901B11E0F91214B07404BE
:102DB3002274F41205E58A088B098A828B83A3A304
:102DC300A31247D0123B7738F583E02409FA126641
:102DD300827003022E778A828B83740212484585A0
:102DE3000882850983122E84E8F0A3E91262FC8A23
:102DF300828B83A3A3A3A3A3A3A3A3F0E508240324
:102E0300F8E43509122E79123B773AF583E08E8286
:102E13008B83A3A3A3A3F0EE2409FAE43FFB8E82E2
:102E23008F83A3A3125A28F5838882E0A2E58E82BA
:102E33008F83A3A3A3A3A3500474018001E4F0E54B
:102E4300082403F58289831249D8EA124F593BF5C6
:102E530083126649120B5C123B763B125B1A8E821D
:102E63008F83A3A31277F8120B3DEEFAEFFB901BAF
:102E7300111266CF8016F98882F583E0FAA3E0CABF
:102E830022124B75A3A3227402120B3D7F04020886
:102E9300C974F21205E58A088B09ECFAEDFB740E8E
:102EA300120E31E0FC120E9E8A0C8B0DAE0CAF0D90
:102EB300EA4F6030AC08AD09120E8CE96026AC080D
:102EC300AD09EEFAEFFB120E92E970148E828F8336
:102ED300123D0BFAEFFB120E86AA08AB09120EB6CF
:102EE3007900800279B4024AC474F01205E574F6DD
:102EF300120BD6EAFEEBFF8C088D09750FB3852103
:102F030082852283E4F0750E008002050E902B74F7
:102F1300E493F8E50EC3984003023013AA0E7B0036
:102F2300120EDA8A0A8B0BEA4B60E08A828B83A348
:102F3300A312301A28F0F8C3EE98EF940050CC7C1B
:102F4300157D007900AA08AB0912133C850A828516
:102F53000B83A3A3A3A3126AF5E0F8EEC398292574
:102F6300E0F8E433F9E50A28F582E50B39F583A3A4
:102F7300A3A3A3A3A3123B81A312559D8A0C8B0D7C
:102F8300AC0CAD0DAA08AB091214EC850A82850BB3
:102F930083A3E06401700A1260607401123B9380A2
:102FA300447401120BB6850A82850B831249D6122B
:102FB3000EC2E9603D7409120E31E0C0E012606098
:102FC300D0E0F07409120E31E0640370137401123F
:102FD3000BB6E508240BFAE43509FB1214EC801256
:102FE3007401120E31123D1EE50812558335091284
:102FF3006AB6850A82850B8312606C123B93A3A386
:10300300E0C0E0E5082414126064D0E0F0750F001E
:10301300A90F740A0266E7A3A3A3E0F885218285BA
:103023002283E02274F71205E5E9FE8A828B83A3EB
:10303300A3A3A3A3A3E0540860338A828B83A3A32F
:10304300A3A3A3A3E0540260218A828B83A3A3A337
:10305300A3A3A3A3A3A3E06406600F74E96E600AAD
:1030630074CD6E600574F06E7003121BFA0243C3D5
:1030730074F01205E574EF120BD6740F120E3112B1
:103083005E1F7408120E31E9F0ECFEEDFF740512B9
:103093000E3112418B1243AFA3E0F9120EAA74064C
:1030A300120E31125E1F7406120E31124FEA7003B4
:1030B30002332E123BBBE0FA7406120E31E0F91212
:1030C3001B3A12338EF8A3E0F9E849700302332E5A
:1030D300EE2403F50AE43FF50BEE2406F508E43F7E
:1030E300F5097C00850882F5831249D8850A828513
:1030F3000B83E0F9120EB07403120E31125E1F85BA
:103103000A82850B83E0C0E0852182852283123306
:1031130087D0E01250FFF9852182852283123A235A
:10312300124C5112301DFAA3E0CA2407F582E43A87
:10313300F583E8F0A3E4125E2A2406F582E438F569
:1031430083E4126AC21247C4120B5CEE123B773F50
:10315300125B1A7403120E311247D024091277F24C
:10316300120B3D7429120E31126AEF122E7E125188
:10317300123A126AB6742B120E31E0C0E085218236
:10318300852283124FB1D0E0F07402120E31E4F0C5
:103193007425120E317808120DDA02328574031287
:1031A3000E31125AE28882F583123376A3A3A31257
:1031B30055A8FB120EC8850E82850F83A3EAF0A3E0
:1031C300EBF07403120E31123387A31233761257C6
:1031D300B7A2E6500F850E82850F83A3A3A3A3A3F3
:1031E300E0D2E1F07405120E31E0706B850E82853A
:1031F3000F83A3123D1E901B6CE0687003A3E0696C
:103203007055850E82850F83A3A3A3123B56750CBD
:1032130000780C120B647808120B587429120E31C3
:10322300E0F50C780C120B647427120E3112099816
:10323300901B7912099879007419120E311249A85A
:10324300121D3E740A120B3D850E82850F83A3A3C4
:10325300A3A3A3E04405F07402120E31E004FC8E34
:10326300828F831249D28E828F83A3A3A3E0F912A4
:103273000EB07403120E31125E1F7402120E31E08F
:1032830004F07403120E31124FEA60677402120ED7
:1032930031E0FA7406120E31123D1EC3EA98E49926
:1032A30050517402120E31123660852182852283B9
:1032B300E028F8A3E039F9E8240FF50EE439F50F17
:1032C300850E82F583E4F07403120E3112338164A8
:1032D3000160030231A07405120E3174011266D528
:1032E300F07403120E311258A9123683E8F0A3E9E1
:1032F3000231C48521828522831249D8121B40855D
:1033030021828522831209987426120E31E0FD74FE
:1033130025120E31E0FC740A120E31E0F9EEFAEFD9
:10332300FB121BF47402120B3D80438E828F83A326
:10333300A3A3E0C0E0740C120E31D0E0F012653E9E
:10334300E0C0E0740D120E31D0E0F07406120E31BD
:10335300124FEA7009740E120E3174B98007740E9D
:10336300120E317410F07409120BAE121D38741161
:103373000266E7E0850E82850F83A3A3A322E012F2
:1033830050D7E022E01250D7A3A3228521828522C1
:1033930083EAF0A3EB124FF32274F01205E574E114
:1033A300120BD67404120E31E9F07403120E31ECD1
:1033B300F07402120E31EDF08A0E8B0F742F120E81
:1033C30031122D9FAA0CFB121B2E7401120E31E930
:1033D300F0AA0CAB0D121B347401120E31E0700312
:1033E30002365B852182852283E480158E828F835A
:1033F300A3A3A3A3A3E0D2E3F0852182852283E0E4
:103403000412662DF8852182852283E0C398400348
:103413000236527401120E31E070030236528521D6
:1034230082852283123660E50C28F8E50D39F9E828
:10343300240FFEE439FF8E82F583A3A3A3A3A3E0A5
:10344300A2E040B5750800750A08750B00740212F6
:103453000E31E060037508207C087D007900740557
:10346300120BAE12133C8E828F83E0603E901BBC26
:10347300E06401701AE508D2E3F508750B10123603
:1034830070120E31E8F0A3E912549B74FF80764367
:10349300080C750A0C8E828F83A312367B126AB8CE
:1034A3007405120E3174FFF0A3805A7404120E31A6
:1034B300E06009E508D2E6F508750A0A8E828F8373
:1034C300A3E064FE7003A3E0F470307412120E31B3
:1034D300740412608AF8741D120E31E812484574A0
:1034E30012120BAE121A5C7D007C00790074151267
:1034F3000E31AA82AB83121846800B123670120E5D
:1035030031E8F0A3E9F07407120E31E508F0123B3D
:10351300B2C0E07409120E31D0E0F0740A120E3119
:103523007401F07405120BAE121CFC7411120E31EF
:10353300E06003023630740D120E311250FA8E829F
:103543008F83A3A3A3A3F0740D120E31124813E5C6
:103553000AF0A3E50BF07403120E31E0C0E012474A
:10356300A4D0E01257B76011901BBCE0C0E0740D0B
:10357300120E311247EED0E0F0740D120E31123DEF
:103583001E850C82850D83A3A3A3A3A312366924EE
:103593001C125E19126AD212366B12576939126500
:1035A3005DC0E012478BD0E0126622C0E0740D12BA
:1035B3000E311242D1D0E0126323C0E0740D120E1B
:1035C300311242C7D0E0F0740D120E3112367B1265
:1035D3003669242A125E19850E82850F83A3A3A35D
:1035E300A3A3A3A3A3E0125E12123BA1C0E0124265
:1035F300B3D0E0F0740D120E311249D8850E8285D6
:103603000F831266382428F582E43B126AB6123B14
:10361300AA126649120B5C125B13EA125DAB3B12F2
:1036230077F6120B3D7405120BAE121D028E828FBC
:1036330083A3A3A3A3A3E0D2E0F07411120E31E09D
:1036430060030233EF7401120E31E0140233FB798D
:1036530000AA0CAB0D121C00741F0266E7E075F0A4
:1036630007A4F8A9F022A3A31249DCE8228E828FD3
:1036730083A3123D22740522E0123683A3A3A3225F
:10368300F8A3E0F9850E82850F83A32274F0120557
:10369300E574E8120BD6E9852182852283F08A0E30
:1036A3008B0F8A828B83A3A3A3A3A3A3A3A3E0F972
:1036B300121B588A088B09EA4B700302376CE50E1C
:1036C300124F6D123BCA123B61852182852283E032
:1036D300600302376F7C04850E82850F83A3A3A347
:1036E300A3A3A3A3A3E0F9121B5EEE4F607B8E821C
:1036F3008F83A3A3A3A3123D1E7407120E31125F7F
:1037030050123D1E7409120E31124875C0E0741137
:10371300120E31D0E0126301A3A3A3A3A3A3A312A8
:103723003D1E740F120E31126AB87412120E31E478
:103733001266DDC8241FF582E438F583125ADEC40D
:1037430013135403FC70027C048E828F83E0F97898
:1037530008120B60742059FD744059F97403120B5D
:10376300AE121BF47402120B3D0266E57C08850E53
:1037730082850F83A3A3A3A3A3A3A3A3E0F9121B8F
:103783005E8B0BEA4B70030236EDEE4F60DB852157
:1037930082852283E0F50C780C120B648508828500
:1037A3000983A3A3A3A3A3A3A3E0F50C780C120B93
:1037B300648A828B83A3A3A3E0FB8A82850B831293
:1037C30073158A82850B83E0FA8E828F83A3A3E02D
:1037D300F91224287402120B3D0236F174F7120514
:1037E300E574FA120BD6E9FE780179017F008003B4
:1037F30079000F124B54E0FCEFC39C5026EF75F099
:1038030007A4FC85F008AD08EA2CFCEB3DFD124152
:1038130043E0A2E050DA540C60D6E0A2E250D37841
:103823000080CF8A828B83A3A3A3A3A3A3E0703DCD
:10383300E9A2E0400574016E70338A828B83A3A3EF
:10384300A3A3A3A37401123B33E0C0E07403120EDD
:1038530031D0E01241A2E0C0E07404120E31D0E096
:10386300F07405120E31E8125A7D121D38740602E7
:1038730043C0C082C0837901121C000258B974F49A
:103883001205E5EA4B901D756019E4F08A088B096F
:10389300F50AF50B7808120B587A02122DA7120BB2
:1038A3003D800A7401F07A027B00122D94022E8F60
:1038B30074F01205E574F3120BD67403120E31E49F
:1038C300F0A3F0901B2C123B617401120E31E4F053
:1038D300A312484A04F0901B66E0A2E350030239A6
:1038E300A6123B277409120E31120E1A7409120E16
:1038F300317808120DDA901B2E7808120BBE74056E
:10390300120E317808120DCB123A2A7405120E31B9
:103913007808120D7E50077A017B00023A1774056E
:10392300120E31780C120DDA901D65E0F509780C52
:103933007908120576A80CA90D901D66E0C398E4DA
:10394300995003E08001E8852182852283F0740980
:10395300120E317808120DDAC008C009C00AC00B74
:103963007405120E31780C120DDA123A2A780C799A
:1039730008120576E4F50AF50BD00FD00ED00DD062
:103983000C780C7908120C91901B2E780C120DCB2D
:103993008011123A1C126AB8EEFAEFFB1213F0AE62
:1039A30008AF09EE4F60658E828F8312301AC39879
:1039B300502DEE2403F8E43FF9E0FA88828983E08E
:1039C300C39AF060237403120E31123E8474011201
:1039D3000E31EEF0A3EF125F6BFEA3E0FF80C48E07
:1039E300828F83A3A3A3E4F08E828F831277AF74B5
:1039F30001120E31124FEA8E828F83A3A3A3A36019
:103A030091125F44120E31123A2380897403120E0D
:103A1300311249D8740D0266E7123D22901B2C2205
:103A2300125B09A3A3A322901D641277B7E4F50ADE
:103A3300F50B2274F01205E58A088B09890A7800D0
:103A43007900901B2C123B61FBEE4B601E088E82AB
:103A53008F83A3A3A3A31249A2601008E8700109EE
:103A63008E828F83123B5DEA4F70E3901D6712498C
:103A7300D8C3E89AE99B4003023B1A7A06123B1D1E
:103A8300A80CA90DEA497003023B1A8A828B83E5CD
:103A930008F0A3E509123B3CE50AF0901D66124BC2
:103AA3005C123B33A3E4F0A3F0901B2C1249A260F9
:103AB3000D8E828F83A3A3A3A3126AB88017901BD2
:103AC3002C126AB8901B66E0A2E34009123B2790D0
:103AD3001B2E120E1A901B66E0A2E3503A7A087B63
:103AE30000901B11E0F91214C2EA4B4C4D70289060
:103AF3001D64E0F508A3E085080CF50DE4F50EF56B
:103B03000F780C120B587A087B00901B11E0F91206
:103B130014B67404120B3D0266EA7B001213EA8AA0
:103B23000C8B0D221214D4EAF8EBF9ECFAEDFB221C
:103B3300123B3722123B3CA322F08A828B83A3A33E
:103B430022E508F00243C3F08E828F83A3A3A3A3CD
:103B5300A3A322125454A3A3F022A3A3A3A3E0FE7E
:103B6300A3E0FF227F050208C9F582E43509F58346
:103B7300E0F922EA123B7B222410F582E422123B75
:103B830089A3A3A3A322123D268508828509832244
:103B9300123B9722F0850A82850B83A3A322E50EAD
:103BA3002411123BC7E022E50E240E123BC722E587
:103BB3000E2410123BC7E022123BBF22EE123B7BC6
:103BC3003FF58322F582E4350FF58322240FF50AAE
:103BD300E43509F50B780A22E0F91213668A088B9B
:103BE30009EA4B2274F21205E5890B8A088B098ACC
:103BF300828B831249D8121C24EA4B600479B88063
:103C03006A121C30E9F8902B71E493F9E8C39940E8
:103C13000479B280567A15123B1DAE0CAF0DEA4FF4
:103C23007004791080458A828B83E4F0A3123B3CB5
:103C3300E50BF0750A007808120B5C7C127D00EA34
:103C430024031265F4120B3D901B32124FEA7008E5
:103C5300901B32800C123D1E88828983123C717046
:103C6300F4EEF0A3EFF0121C427900024AC41249A9
:103C7300DCEA4B8882898322C082C083901B328016
:103C8300048C828D83127316EC4D60288C828D8395
:103C9300A3A3E069600574FF6970E68C828D83A33A
:103CA300A3A3E06A7003A3E06B70D6EC2403FAE4E9
:103CB3003DFB80047A007B000258B974F71205E5D6
:103CC300E9FD74FE6D70047C0180027C00901B3260
:103CD30080096D70027C0188828983124FEA601F1C
:103CE30088828983A3A3A3E06A7003A3E06B70E7D0
:103CF300ECA2E088828983A3A3E050D6F9800279FD
:103D0300FE0243C3EEF9800CA3A31277B7EE22742D
:103D130002120B3D7F020208C9F583123D222212D3
:103D23003D2622E0F8A3E0F922123D268E828F83FE
:103D330022120B3D7F030208C9C082C08379009021
:103D43001B32800109E0FAA3E08A82F583E582450C
:103D53008370F10258B974F61205E5E4F508F50924
:103D63007808120B60902B71E49375F013A4A9F0FB
:103D7300123E79126B16120B3DE9FE74096E700345
:103D8300121C3C023D0774F61205E574FE120BD6B5
:103D9300852182852283E4F0A3F0A821A922880843
:103DA30089097808120B60750802750900780812F2
:103DB3000B60126787120B3D023D1274F51205E585
:103DC30074EB120BD6852182852283E4F0A3F09055
:103DD3001B3280748E828F83A3A3E0C0E07402122F
:103DE3000E31D0E012549BA982AA8389088A0975EF
:103DF3000A007808120B5C7C127D007406120E31E7
:103E0300126ADB120B3D7402120BA688088909782B
:103E130008120B607508137509007808120B60749B
:103E230004120E31124F8D75F013A4F8AAF075F039
:103E330013E9123E7512678F120B3D85218285228D
:103E430083123E848E828F83123B61EE4F7085A86E
:103E530021A922880889097808120B607508027560
:103E630009007808120B60126787120B3D74150264
:103E73003D34A42AF9E82402FCE439FD7A427B00AC
:103E830022E02401F0A3E03400F02274F41205E5EB
:103E930074EB120BD67E007F00A821A92288088923
:103EA300097808120B607508028E097808120B60F6
:103EB3007C007D007A42126B22120B3DE9706C8EFE
:103EC3000880567402120BA6880A890B780A120B13
:103ED30060750A13750B00780A120B60E50875F01C
:103EE30013A4F8AAF075F013E509123E75126B24BA
:103EF300120B3DE9701B7403120E31AA82AB83745B
:103F030002120E31E0F9121C1EE970050EEE70016B
:103F13000F0508E5087002050985218285228312B1
:103F23003D1EC3E50898E509994098EEFAEFFB7446
:103F330015022E8C74F61205E58C828D83A3A312D1
:103F43004190F0EA125DB13BF583E0C0E012414DD0
:103F5300D0E0F0EA241DF582E43B123D1C1241310E
:103F630012418BF0A3F0EA241FF582E43BF58312A0
:103F73003B61EC1241243DF583EEF0A3EFF01241D7
:103F83002A3BF58312415BA3A3A3A3A3A3EEF0A350
:103F9300EF125A0CFE8C828D8312419A74035EFEDB
:103FA300C394034003024117EE600874026E60037A
:103FB30002403C8C828D83E0540CFE740C6E7003C3
:103FC30002407BE0A2E4400D88828983E08C828DED
:103FD30083A31241B074086E600302407B12413B1D
:103FE3007401F08A828B83A3A3A3A3A312546170E9
:103FF300148C828D83E0440C1241A2A3A312415B73
:10400300EEF0A3EFF08C828D83E0A2E4402B888254
:1040130012416912417E500109F582124169A3A33D
:10402300A3A3A3A3F0A3EF1241AA8C828D83A3A31E
:10403300A3F0E82403F850010988828983E0C0E0F3
:10404300EC2411F582E43DF583D0E012419A8C8291
:104053008D83E0A2E7507588828983E0FE8C828D90
:10406300831241B074FC5E700C8C828D83A3E05488
:10407300036403701E02411712413BE4F0740C6E9B
:104083006003023FE6888212416F12417E500109AC
:104093000240088C828D83A3E054036032888289B6
:1040A30083E0C0E0EC1241553DF583D0E01241B10D
:1040B3008C828D83E054036402701488828983E0C8
:1040C300C0E0124143D0E01241B18003A3E4F0EC1D
:1040D300124F593D126AB6EC2410FEE43DFFEA2468
:1040E3001DF582E43BF583E0F5088E828F83E0C300
:1040F300982508F508F0EA2417F8E43BF98882F5D7
:1041030083E0C39508C0E0124131D0E0125A0CC3DA
:104113009508500A124131E4F012414DE4F0023D9A
:10412300172415F582E422EA240DF582E422EC2417
:104133000DF582E43DF58322EC1251123DF5832205
:10414300EC2414F582E43DF58322EC123B7B3DF530
:1041530083222413F582E422E0FEA3E0FF8C828D08
:1041630083A3A3A3A32212416FA3A3228983E0F510
:1041730008A3E0FFE5088C828D8322A3A3A3A3F009
:10418300A3EFF0E82402F822124190A322E4F08C7A
:10419300828D83A3A3A3221241B8A882A9832212EA
:1041A3003B37A3A3A3A3221241B8A3E022A3124146
:1041B300B808A98322125A15A32274F41205E574D0
:1041C300F3120BD68A0A8B0BECFEEDFF8C82F58380
:1041D300E0540CF508E0A2E75006E508D2E7F5083D
:1041E300E508D2E1F5081254617006E508D2E4F55A
:1041F30008E0A2E55006E508D2E5F5087C087D0055
:104203007900AA21AB2212133C7402120E31E50885
:10421300126ABCC0E07403120E31D0E012484AE5C2
:104223000AF0A3E50BF07405120E31126328120E87
:1042330031E070777408120E311247D01259FE38EC
:10424300126343C0E07408120E311242D1D0E0125F
:104253006323C0E07408120E311242C7D0E0F07439
:1042630008120E311242BDE01247F8124879125E6D
:1042730012EE241112542DC0E01242B3D0E0F0EE3E
:10428300241412542DC0E07408120E311247D024A6
:1042930035F582E438F583D0E012481DC0E0740898
:1042A300120E311247D4D0E012607C740D022E8CB2
:1042B300E82432F582E439F58322123D2CA3A3A32B
:1042C300A3A3A3221247E412652238F583221247DF
:1042D300E42426F582E438F5832274F71205E57E9B
:1042E300008A828B83A3A3A3A3A3A3A3A3A3E064B2
:1042F30004600302439F12510AE0600302439F12CA
:104303004F6C3B124FE8700302439F88828983E01E
:104313005403600302439FE812511239F583E0FA14
:104323008C828D83A3A3E0FBA3E0CB2411F582E46D
:104333003BF583E06A706588828983A3A3A3A3A363
:10434300A3A3A3A31243A3E06A7003A3E06B704C7F
:1043530088828983A3A31243AFE0FFA3E0CF24069F
:1043630012542D6A7003A3E06B703188828983A392
:10437300A3E0F88C828D83A3A3E0F9A3E0F58389FE
:1043830082A3A3E06860138C828D83A3A3A3E0F5CB
:10439300838982E0540C640470027E01EEF980206C
:1043A3001243A7221249E08C828D8322A3A31243D6
:1043B300A7A3A322740C120E31E0F9740D120B3D66
:1043C3007F010208C974F61205E574FC120BD6EAE4
:1043D300FEEBFFECFAEDFB8C82F583A3E054036064
:1043E30016901B28124FEA60597900EEFCEFFD127C
:1043F3005C09122451804B852182852283EEF0A330
:10440300EFF07402120E3112483FAC21AD227A5AFA
:104413007B1C121E828A088B09A808A909EA496035
:10442300218A828B83A3A3A3A3A3A3A3A3A3740619
:10443300F07A0088828B831247D0125DD2E0F912A2
:104443001DE07404023D1474F21205E574F3120BBB
:10445300D6EAFEEBFF8A82F583A3A3A3A3A3A3A3B8
:10446300A3A3A3E0F50A901D75E0700579BA02478E
:1044730088750801750900750C00750D007C087DB1
:10448300007900AA21AB2212133C7405120E317479
:1044930001124852540460127402120E31E0D2E643
:1044A30012485254087003750803E05410600674F0
:1044B300404508F508E0540860227402120E31E00A
:1044C30044C01248525420600A7403120E31E0D2E1
:1044D300E080087403120E31E0D2E1F0EE241512ED
:1044E300542D1247B87003740169700674084508A7
:1044F300F5088E828F83A3A3A3A3A3A3A3A3E07032
:1045030016121EDC852182852283125E1F7402121D
:104513000E31E0D2E28030640F70107402120E315B
:1045230012485A74044508F508807F8E828F83A34E
:10453300A3A3A3A3A3A3A3E064028E828F83700A21
:10454300126AEFE8F0A3E9F08060A3A3A3A3A3A3F7
:10455300A3A3E06403700DAC21AD22EEFAEFFB12CE
:104563001C9080468E828F83A3A3A3A3A3A3A3A39C
:10457300E064017035901BBCE060107402120E31D0
:1045830012485A750910750AFF80187402120E3109
:10459300E0440C12484A74FDF0A374FFF074044520
:1045A30008F5088E828F83122D9FEE241512542D49
:1045B300A2E0503F7402120E31E0540C701B8E8245
:1045C3008F831249D8121912E9700579BB02478803
:1045D3007402120E31E0D2E5F0EE241512542DA22E
:1045E300E050107402120E31E0540C64047004E0C5
:1045F300D2E5F0EE241112542DC0E07404120E31F2
:10460300D0E012632A120E31E0600302478174087E
:10461300120E31124813E508F0A3E509F01247AE74
:10462300E0C0E01247A4D0E0F0124795E0C0E07488
:1046330008120E311247D012415538F583D0E012DB
:10464300487964017011901BBCE0C0E07408120E3D
:10465300311247EED0E0F07408120E3112480E12F8
:10466300479FFAE8241CF582E439F583EA124845AA
:10467300EE2415FAE43FFB8A82F583127316E812DF
:10468300576939F58312483FEE241C12542DC0E0BC
:1046930012478BD0E01258AF1247B8700374016908
:1046A30070137408120E311250FAFAEE241D1254CC
:1046B3002DF9121B648E828F83A3A3A3A3A3A3A3A9
:1046C300A3A3E0C0E07408120E311242D1D0E0F08F
:1046D3007408120E311242C7E50AF07408120E3143
:1046E300124F8D2428F582E439F583E50CF0A3E518
:1046F3000D1248251247F81254A6125E12EE124705
:104703009FC0E0E82433F582E439F583D0E0F0EE8E
:10471300241B12542DC0E07408120E311247D4D05A
:10472300E0F0EE241A12542DC0E07408120E311278
:1047330047D02432F582E438F583D0E012481D12C5
:1047430047C4120B5C126528127316740B120E31D8
:104753001247D0242F1277F2120B3DEE2415125478
:104763002D54406012901B48124FEA600AAA21ABF5
:1047730022125C09122451AA21AB22121D02740CCD
:10478300120E31E0F9024ABFE82420F582E439F53C
:104793008322EE2419F582E43FF58322126537E084
:1047A30022E82412F582E439F58322EE2418F582F7
:1047B300E43FF583225480F8A3E05401F974806840
:1047C30022F508A3E0F509750A007808221247E4E8
:1047D300221247E42434F582E438F58322A3A3A309
:1047E300A31247E822E0F8A3E0C8221247E41241EB
:1047F3002438F58322FAA3E0FBE8242AF582E4397E
:10480300F583EAF0A3EB22A3A3A3A3123D22EE2296
:10481300124F91124F7139F58322F0EE2413125483
:10482300AE22F0EE240D1254AE22E0FC8A828B837A
:10483300E02CFCA3E03400FD8A828B83ECF0A3ED33
:10484300F022F0A3E4F022F085218285228322F076
:10485300EE24151254AE22E0D2E3F0124862228E07
:10486300828F83123D26852182852283E8F0A3E986
:10487300F022E8F0A3E9125F65E02274F71205E580
:104883008A828B83A3E0640170047E6380027E646A
:104893008A828B83E0600879051248B224F3FE9084
:1048A3001B64E06007F91248B224F2FE02439F1230
:1048B3001DAAE9F8EEC3982274F61205E574FE12F8
:1048C3000BD6852182852283125E1FE9FEECFAED69
:1048D300FB900531124FEA6032A821A9228808898A
:1048E300097808120B607D01740E120E31E0FCEEA4
:1048F300F9900531125DF31224517402120B3DEA53
:104903004B60047900800679B2800279B6023D12C9
:1049130074F71205E5E9FE901B1E124FEA601F743F
:1049230009120E31E0F5087808120B64EEF9901BBA
:104933001E125DF31224517401120B3D800279B6ED
:104943000243C374F71205E58908ECFEEDFF79B560
:10495300E508245E602014600624F86034803D90EE
:1049630005331249A26035126B331224518E828FA4
:1049730083125E1F8024901B20127316EC4D601C63
:10498300EEFCEFFD901B20125DF3122451E9F98038
:104993000B901B1C1249A81214EC79000243C3129A
:1049A30049DCEA4B2212731AEEFAEFFB2274F71278
:1049B30005E5E9FE79B574AB6E700B901B1C1249CB
:1049C300D81214EC79000243C38E828F83A3A3A36E
:1049D300A3A3A3A3A31249DC221249E022E0FAA372
:1049E300E0FB2274F11205E5EAFEEBFF8C0A8D0B66
:1049F300750801901B6CE06E7003A3E06F700C12DE
:104A03004AB3AA0AAB0B1214EC805E121EE2EE6AE2
:104A13007002EF6B7009AA0AAB0B121EE8804AAC56
:104A23000AAD0BEEFAEFFB121A38E9F508901D6C8C
:104A3300E0703612235CE97030E508702C901B3C63
:104A4300E06E7003A3E06F7020EE4F601C750C34B2
:104A5300750D1B750E00780C120B5C7C087D00AA8B
:104A63000AAB0B126ADF120B3DA90802741274F22F
:104A73001205E5EAFEEBFF8C088D09750A01124A5F
:104A8300B3EEFAEFFB1214E6E964017011901B6CAC
:104A9300123D1E850882850983126AB8800EAC0810
:104AA300AD09EEFAEFFB121A3EE9F50AA90A8011E5
:104AB300121ED68A0C8B0DAC0CAD0D22740D120B8D
:104AC3003D7F060208C974F61205E5EAFEEBFF7A9C
:104AD3000D7B001213EAEA4B6062EE24241267BCDA
:104AE300F0EE24251267BCA3124B811267C2A3A365
:104AF300126555124B5CF0EE124B42124B71E8F00B
:104B0300A3E9124B98124B69126AB8EE124B4B127F
:104B13006618A3A3A3A3F0EE243312542DC0E0120E
:104B23004B54D0E0126347124B69A3A3A3E8F0A34D
:104B3300E9124B90C0E012510AD0E0F0023D172475
:104B43002AF582E43FF58322242EF582E43FF583A0
:104B530022EA1255833BF58322124B6022E08A82BC
:104B63008B83A3A3A322126677A3A3A3A322124B2F
:104B73007522123D268A828B83A3A3A3A322F0125C
:104B83004B8622EE2426F582E43FF58322F0EE24C1
:104B9300321254AE22F0EE242C1254AE2274F412CC
:104BA30005E574FE120BD6ECFEEDFFEC2416125451
:104BB3002D64057010EC2406FCE43FFD121C8AE909
:104BC3007003024C4CAC21AD221268711219188586
:104BD3002182852283124FEA606B8E828F83E06489
:104BE300017058E875F009A4F8AAF075F009E9A472
:104BF3002AF9749528F8740839F9E8FAE9FB8882E8
:104C0300F5837808120DDAEE124CEE120D7E402772
:104C130085218285228312480E12543B124C51780F
:104C230008120DDA9087367808120CA58A828B83D6
:104C33007808120DCB800A79A28010EE240F126A35
:104C4300B27900800679A1800279C8022E8A1248BF
:104C53006FEE1265432274F21205E58A0C8B0DEC9C
:104C6300FEEDFFEC12543BE4F0A3F09087027808CA
:104C7300120DDAEC124CEE120C026067EC240E12E9
:104C83005434703478B3901B63E07028901B95E024
:104C930064017020EC241112542DF9121D928B091A
:104CA300A909EE124F6D3F125E1DEA4960047800B8
:104CB300800278A18808802EE060046402700A12E2
:104CC3001C9CE9F5087007801DE064037010EEFC7E
:104CD300EFFDAA0CAB0D12193CE9F5088008750825
:104CE300A180037508A3A908024AC4126543780882
:104CF3002274F01205E574F5120BD6EAFEEBFFEA17
:104D0300240AFCE43F8C82F5831277B3124F777445
:104D130003120BB68A828B83125C13E97003024D74
:104D2300DD7401120BB67403120BAE121918740161
:104D3300120E31124FEA7003024DDDE875F009A43B
:104D4300F8AAF075F009E9A42AF9749128FC74080B
:104D530039FDE508240E126064E4F004120E3112EA
:104D63003D1EE508124F6D3509126AB68C828D839C
:104D7300120E0EE5082412126064120E1A90873682
:104D83007808120DDA8C828D837808120D178C82C5
:104D93008D83780C120DDA9087927808120DDA78E9
:104DA3000C7908120576E5084509450A450B702A72
:104DB3007401120E31124F8D75F009A4F8AAF07523
:104DC300F009E9A42AF9749928F582740839F5835E
:104DD3007401F07A007B08124F9A8E828F83A3A30B
:104DE300A3A3A3A3A3A3A3A3E02406FCA3E03400EB
:104DF300FD8E828F83125C13126335603EEE240AAC
:104E0300124F5F1248137468124845E8124F59391C
:104E1300F5837402F0901B4E120E0E8C828D83125A
:104E23005E0C1259FE3CF583120E1A9087367808F1
:104E3300120DDA901B4E7808120D17124FD5705DC4
:104E4300901B1C124F85A3A3A3A3A3A3A3A3A3A354
:104E5300125A341214E6E970101259F2901B1C1204
:104E63005A04700512633560348E828F83A3A3A323
:104E7300A3A3A3A3A3A3A3124F851249D812194234
:104E8300E960118E828F83A3A3A3A3A3A3124FC1AF
:104E9300E4F0A3F08E828F83124FA7E4F0124FD574
:104EA3006003024F548E828F83A3A3A3A3A3A312F1
:104EB30077AF901B63E06003024F49901B95E0645A
:104EC300016003024F49750A3A750B00780A120B09
:104ED300607402120BA6880A890B780A120B6012FF
:104EE3006DAE120B3DE9705BE508240E126064742D
:104EF30001124FEFC0E0E5082411126064D0E0F026
:104F0300E508240F126064743A124845901B4A1254
:104F13000E0EE5082412126064120E1A908736787A
:104F230008120DDA901B4A7808120D17908736780D
:104F330008120DDA901B4A7808120C027008124FFF
:104F4300968003124F77124FD570061258F574A14D
:104F5300F0740B0266E7240EF582E422F8E43FF9CD
:104F6300E8FCE9FD8882F58322EA124F7122240FBF
:104F7300F582E422E508124F713509F583E4F0A3C5
:104F8300F02212731A8E828F8322124F9122123DC6
:104F930026E8227A007B029019F5E0F91213902299
:104FA3008A828B83A3A3A3A3A3A3A3A3A3A3124F25
:104FB300B5221247E8240EF582E438F58322A3A331
:104FC300A3A3124FC9221247E8240FF582E438F550
:104FD30083228E828F83A3A3A3A3A3A31247E024D8
:104FE3000FF582E438F583124F914922124FF322D1
:104FF300F0852182852283E02274F61205E5EAFE1C
:10500300EBFF7A237B001213EAEE240AF508E43F50
:10501300F509850882125E1D7C237D007900121339
:105023003C850882850983124FEA70030250BDEE66
:10503300FAEFFB121CA8124FD560748E828F831275
:1050430050F064018E828F83A3A3A3A3A3A370074D
:105053001250E6740E8021124FEA701012633570FD
:105063000B8E828F83A3A3E0A2E050071250DC745F
:105073000D80051250DC74051263475403640170FC
:10508300071250C47405800B901B64E0C0E01250FB
:10509300C4D0E01250FFF583888212545A850882E7
:1050A3008509831247D0125DB138F583E9800E85F7
:1050B3000882850983125E968003125DD9F0023D52
:1050C300178E828F83A3A3A3A3A3A3A3A3A3A31234
:1050D30050D622E0125DF8A3228E828F83A3A3A36E
:1050E300A3A3A31247E0125DB738F58322A3A3A3BA
:1050F300A3A3A3A3A3A3A3124FB5E0221251032298
:10510300126886F8A3E022EA1251123BF5832224A7
:105113000CF582E42274F11205E574E4120BD68ACD
:105123000C8B0D8C088D097A237B001213EA8A0AF3
:105133008B0BAE0AAF0BEA4F7003025415125DBD21
:10514300E5082415125446687003A3E0698E828F24
:10515300837004740280027401F0E508240DF8E4FE
:105163003509F98882F583E0FAC3E49AFA95E0FBFE
:105173001254422AFAA3E03BFB8E828F83A3A3A39C
:10518300A3125A1B8E828F83A3A3F0EE2420F582F1
:10519300E43FF583E4F0EE2421F582E43FF583E474
:1051A300F0EEFAEFFB121D5C850882850983125429
:1051B3006170098E828F83A374058006901B64122D
:1051C300544FF0EE2417F50AE43FF50B8E828F83DC
:1051D30012545AE9850A82850B83F0EE2416F8E40B
:1051E3003FF9E508240EFAE43509FB888289831226
:1051F300482DE5082410FAE43509FB850A82850B5E
:1052030083E0FC88828983E0F88A828B83E0C398F9
:10521300C39CF812549BF0EEFCEFFDAA0CAB0D12ED
:105223001CA2E9F50B8E828F83E06402700612598B
:10523300F212541FE50B600302540C750C00750D3C
:1052430000901D6CE064016005E06402703F12543D
:10525300316008EE242112543470328E828F83A37E
:10526300A3A3125DDF125467EE241612542D1254B9
:1052730090FAE439FB123B1FEA4B601112664112AC
:105283000B5C125475AA0C126ADF120B3DEEFAEF97
:10529300FB121D68E9F50B901D6CE064016008E0EA
:1052A300640260030253FFE970030253FFE50C45F8
:1052B3000D700302540C8003850E0B125431600BE6
:1052C300EE24211254346003025405850B0E850C21
:1052D30008850D09750A007808120B5C1254758E47
:1052E300828F83A3A3A3A31277F8120B3DEE24208E
:1052F30012542D600D12543A7468124845EE24205E
:105303008015EE242112542D601512543A7403F0C3
:10531300A37401F0EE2421F582E43FF583E4F0EE7B
:10532300FAEFFB121D68E9F50B70907C137D007991
:10533300007409120BAE12133C741A120E3174016D
:105343001254A664687002A3E0704F8E828F83129A
:105353004FC1E0640560030252BB7C0879FF8E8273
:105363008F83A3A3A3A3E0242A125A371213C6E9F7
:1053730070030252BB7C087D0079FF7401120BAEEF
:1053830012133C7401120BB67A007B0079AB121C2A
:10539300847419120E3174FC801512543AE06403BC
:1053A3007004A3E0640170087419120E3174FFF0E5
:1053B300E4F508F5097808120B607402120BB67451
:1053C30013120E31AA82AB83125F1C120B3D85218F
:1053D30082852283E0602B7409120BA68808890951
:1053E3007808120B607508137509007808120B60B2
:1053F3007C007D0012678F120B3D8006E50C450D86
:105403006007AA0CAB0D1213F0EEFAEFFB1213F0C8
:105413008003750B10A90B741C02740FEE2406FA9B
:10542300E43FFB1214EC22EE240C1254AE22EE24C1
:10543300201254AE640122EE124F713FF58322E530
:1054430008240EF582E43509F583E022125454A3AF
:1054530022E08E828F8322A3E0F9121DAA22E05458
:105463000364012212546B22E0FAE82AF8E43400C0
:10547300F9228E828F83A3A3A3125DE312546BEEF2
:1054830024161254AE125490FCE439FD22FAE82A91
:10549300F8E439F9E824042212549F22126356A334
:1054A300A3A322F01254AB22EE240FF582E43FF5BE
:1054B30083E0227901020AED74F41205E5EAFEEBBA
:1054C300FF8A82F583A3A3A3A3A3A3A3A31247D015
:1054D3002424F582E438F583125461702E8A828B7A
:1054E300831250F07025125589E06405701D125522
:1054F30089A3E0F874016860057406687007124FA9
:10550300A374028005124FA37403F0EA240A125E07
:105513008A125DF3E4F0EA2408F8E43F122E7924BA
:1055230031F582E43AF583E0C0E0126B2AA3A3D0FD
:10553300E01255A8CA242EF582E43AF583E0C0E0D0
:10554300126B2AA3A3A3D0E0125ACEC812558338F4
:10555300123D1C126B2A12559D8A0A8B0BAC0AADA5
:105563000B850882850983125A341214EC8508824C
:105573008509831249D8121D68125E85F0022E8FA9
:10558300240BF582E4228A828B83A3A3A3A3A3A380
:10559300A3A312631CF583888222A3A3A3A31248A7
:1055A3006F121ED622125A10FAA3E0220254B6C07A
:1055B30082C083901B3E74AEF0A3741CF0901B401A
:1055C30074BAF0A3741CF0901B4274C0F0A3741C53
:1055D300F0901B4474B4F0A3741CF00258B974F433
:1055E3001205E5EA2408FEE43BFF8E82F583124FA1
:1055F3008D125DC9E0F50874035508F509125A2F99
:10560300F8A3E08882F583E508F0A3A882A983E5DF
:105613000960097402650960030256CE740C5508CB
:10562300FC600A74086C600574046C70267402656F
:10563300097006E508A2E4401A8A828B83A3A3A318
:10564300A3A3A3A3A31257D41265223D12576FA39A
:1056530008A983740C6C701C1257D024281257BCF1
:105663002428F582E43DF583A3126150F0E8240277
:10567300F8500109740265097006E508A2E4404B7D
:105683001257D0242A1257BC242AF582E43DF5830D
:10569300A312577E1257DA1261501257DAA3125728
:1056A30076E82404F8500109EC600F74086C600A72
:1056B300740C6C600574046C7011125E002426F582
:1056C30082E43C12576FA3A882A9838A828B83A3A7
:1056D300A3A3A3A3A3A3A312579E54037014E50883
:1056E300A2E1400E125E001257693CF583E054803C
:1056F30060081257841257718019901B12E0C0E0A2
:10570300125784D0E01257B1888289831257B104AB
:10571300125A15A3A882A983E508A2E750458E82F1
:105723008F8312579E888289831257B71257A354C7
:10573300036030125E002434F582E43C12614EF0C3
:10574300E508A2E1501D8A828B83A3A3A3A3A3A38D
:10575300A3A3122E7E2435F582E43A12614EA3F000
:10576300E82403022E8F241EF582E422F5831257C8
:105773007EF02212577EA3A3A3F022E088828983BE
:10578300228A828B83A3A3A3A3A3A3A3A3E0FCA343
:10579300E0CC2432F582E43CF58322E01257A322C5
:1057A300FCA3E0CC2425F582E43CF583E022F090D1
:1057B3001B12E022126352E022F582E43DF58312CC
:1057C300577E1257C9221263561257D4228E828FE4
:1057D30083E0FDA3E0CD22A31257C9242CF582E474
:1057E3003DF58322C082C0838A828B831258A9FC31
:1057F30074035CF98A828B83A3A37401F0E96005C7
:105803007402697061740C5CF8600A74086860055E
:1058130074046870137402697005ECA2E440098A89
:10582300828B83A3A37402F0740C68700A8A828B40
:1058330083A3A3E02402F07402697005ECA2E440A0
:10584300258A828B83A3A3E02404F0E8600F740805
:1058530068600A740C68600574046870098A828B36
:1058630083A3A3E004F0ECA2E7502A8A828B83A3EC
:10587300A3E0041258AF123388E0540360178A82FE
:105883008B83A3A3E004F0ECA2E150098A828B830B
:10589300A3A3E004F08A828B83A3A3E004F0801621
:1058A3008521828522831250D6A3E022F08A828B3F
:1058B30083E022120B3DD083D082020AEDC082C066
:1058C300838A828B83A3A3A3A3A3A3A3A3A3A312C8
:1058D3004FEA60098A828B83A3A31258E280D7A37D
:1058E300A3A3A3A3A3A3A31258EE221249E0121366
:1058F300F0221258F922EE240CF582E43FF58322BC
:1059030074F61205E574F4120BD6125A3EFCA3E0AA
:10591300F5838C82A3E0C0E07402120E31D0E01252
:105923005AEC125AD57404120E31126AB874021268
:105933000E31E064047014125A542412125A37744C
:1059430006120E31125A1B241A8035E064016005D9
:10595300E064067039EA2402F8E43B122E79125906
:10596300FE3AF583E0C0E07403120E31D0E0125A20
:105973000C2413125A377406120E31125A1B241BAD
:10598300125AD57408120E31E8F0A3E9802B74067D
:10599300120E31E4F0A3125A4F2412125A3774082C
:1059A300120E31125A28C8241AF582E438F583E01E
:1059B300C0E0740A120E31D0E0F07406120E3112F8
:1059C3004FEA601F7406120E311249D8121A2CE9DD
:1059D3006401700F1259F27406120E31125A0464E4
:1059E300017007AA21AB22121D44740C023D14124C
:1059F3001ED68A088B09AC08AD09222412F582E46D
:105A0300221249DC1214E6E922125A1022125A1504
:105A1300E022F08882898322125A1F22EAF0A3EB44
:105A2300125A15E022125A1FF8A3E0221263B0E0C3
:105A330022E02406FAA3E03400FB228A828B83A3AC
:105A4300A3A3A3A3A3126AF3E8F0A3E9F0125A54A1
:105A530022125AFDE022C082C08374FD120BD612BB
:105A63005A83123382C0E07402120E31D0E0125A0C
:105A73007D121D4A74030258B6E4F0AA21AB222218
:105A83008A828B83A3A3A3A3A3A31248668A828BD0
:105A930083A3A3E022C082C08374FA120BD6126AD6
:105AA300E5125AF2C0E07402120E31D0E0125ACE5F
:105AB300F5838882A3A3E0C0E07405120E31D0E021
:105AC300125A7D121D5074060258B6125A10F8A3CA
:105AD300E022F8A3E03400F922A3A3125B5022E0F2
:105AE3002402F8A3E03400F922125A1024022212ED
:105AF300486F125AFD125B09E022EA2402F8E43BE4
:105B0300F98882F58322E0FAA3E0F5838A82A3224F
:105B1300E50E123B7B350FF583E0FC7D0022C0824E
:105B2300C083125B44600A24FC600B24F9600C8080
