:020000040000FA
:06000000021661020A4035
:03001300020A627C
:03002B00021416A6
:03003300020C7F3D
:03003B00020AB7FF
:03004B000213108D
:030053000209752A
:03005B0002118B04
:030063000211A6E1
:03006B00020C255F
:03007B00020C561E
:100083000209D4010020FD0002FFFF09012505003C
:10009300000001FF671B731B0000791B851B000019
:1000A30000008B1B000000000102040810204080A8
:1000B300010D010104010001000000000000000621
:1000C300FFFFFFFF0101010400651A000000E803C0
:1000D3000000FFFF311BE803000064006400B80167
:1000E300A0BB0D00A0BB0D00020200F8FF07050234
:1000F300070401051E02051E020A0A01020808037D
:10010300B80B02803E0102FEFFE8030A050001FF6F
:10011300FF010A1401E00100B0423BAAB83F00000E
:10012300003F8C906339AA0CA33A00941E3C804292
:10013300633DCFFE753E1572313F0000803FF304EF
:10014300353F8096184B2292D43EDD9B2A3F040014
:100153000040FFFF7F7FFFFF7FFF010080341872A5
:10016300313F010105030101FF0F10FEFF7B390041
:10017300000000ED3700000000FF000000FF00C09A
:1001830082C08312036F600814601214601C802BFA
:10019300EA6005EB42808023E85280801EEA600516
:1001A300EB42908016E852908011EBC39420500BE1
:1001B300EA6005EB42A08003E852A00202D3C082AA
:1001C300C083EA607412036F6008146026146044ED
:1001D300806774016A700553F7DF800874026A70E0
:1001E3000843F720E85280805074036A704BEB4257
:1001F30080804674016A700553F7BF800874026AF1
:10020300700843F740E85290802F74036A702AEB1A
:1002130042908025EBC39420501F74016A700553EC
:10022300F77F800874026A700843F780E852A08061
:100233000874036A7003EB42A00202D3C082C08336
:1002430012036F60091460301460570202D3E8523E
:10025300F3EA601F74016A700553F7DF80087402C4
:100263006A700843F720E85280800874036A7003B9
:10027300EB4280EB42FD8058E852F4EA601F7401C0
:100283006A700553F7BF800874026A700843F74029
:10029300E85290800874036A7003EB4290EB42FECD
:1002A300802EEBC394205028E852F5EA601F7401B6
:1002B3006A700553F77F800874026A700843F780F9
:1002C300E852A0800874036A7003EB42A0EB42FF7C
:1002D300D083D08222C082C08312036F600914606E
:1002E3002F14605502036CE852F352FDEA607A74EE
:1002F300016A700553F7DF800874026A700843F7D8
:1003030020E85280806374036A705EEB42808059F8
:10031300E852F452FEEA605174016A700553F7BF64
:10032300800874026A700843F740E85290803A7478
:10033300036A7035EB42908030EBC39420502AE877
:1003430044E0F852F552FFEA601F74016A700553E6
:10035300F77F800874026A700843F780E852A08030
:100363000874036A7003EB42A00202D3E95407FC4A
:1003730074252CF582E4341EF583E0FBF4F8E9C41C
:10038300540F540322C082C08312036F60081460A9
:10039300151460228034EA6005EB42808003E85242
:1003A30080EB42FD8024EA6005EB42908003E85233
:1003B30090EB42FE8014EBC39420500EEA6005EBF1
:1003C30042A08003E852A0EB42FF0202D312168040
:1003D3006046121671603DE9687008F618F618F663
:1003E30018F622748067F7120404090909748067F8
:1003F300F722121671601D121680700519191980E3
:100403001A121526701F12153AC37003E6673319C3
:10041300191940071818182208080874FFF618F667
:1004230018F618F62212153A601712172670219241
:10043300F012172F7019501720F014080808090933
:1004430009E7F61819E7F61819E7F61819E7F62277
:1004530012172F60E6E869701F0808E62480F60883
:10046300E436F618547FB47F0CE654806007F6E454
:1004730018F618F622181822E9C6CC08C6CD08C605
:10048300CE08C6CFC0E0E8C0E0EAC0E0EBC0E009B8
:10049300E9F809E7FA09E7FBE6F918E6F8C3EC9887
:1004A300ED99EE9AEBC2E7F5F0EFC2E795F0500E47
:1004B300600CEBCFFBEACEFAE9CDF9E8CCF8EAA27F
:1004C300E7D2E7FAEB33FB13F5F0EEA2E7D2E7FE50
:1004D300EF33FFC5F013A2E730E601B313C5F0C352
:1004E300C0E0C0F07F00C39BFB605E9418600F40C8
:1004F3001D14601AD0E023F9D0E0F80205D68AF083
:10050300E9486003D2F0E4AFF0FAF9F8803BEB304E
:10051300E40D89F0EA6003D2F0E4AFF0F9CAF8EB36
:1005230030E30D88F0EF6002D2F0AFF0E4CAC9F80F
:10053300EB54076014FBC3EA13FAE913F9E813F861
:10054300EF135002D2E0FFDBEDD0E0C0E030E7393B
:10055300C3E49FFFF5F0EC98FC42F0ED99FD42F007
:10056300EE9AFE42F0D0E0F9D0E0F8E5F0607AE9E7
:1005730023F9EE20E742D8028067C3EF33FFEC3361
:10058300FCED33FDEE33FE80EAEC28FCED39FDEEA5
:100593003AFED0E023F9D0E0F84002801BC3EE130B
:1005A300FEED13FDEC13FCEF135002D2E0FF08B88D
:1005B30000067F7F74FF802EEF3350178CF020F0FE
:1005C3000260100CBC000C0DBD00080EBE00040838
:1005D300E860DFE933E813FFEE2313FE4F4D4C8051
:1005E30008E95480FFE4FEFDFCEE33EF33F47004BE
:1005F300FCFD7E80D0E0FBD0E0FAD0E0F8D0E0CF85
:10060300C618CEC618CDC618CCC6F92212167170FC
:100613000418181822121680700D74FFF61819F6B4
:100623001819F61819F622E7548066F612172F7078
:100633000F12172670F014F608F608F608F680D1A4
:10064300121726700CF608F608768008E6447F80B9
:10065300EC12153D700C12152960BFE65480F6E4C8
:1006630080BB121529700519191980A5E869700C4A
:10067300763F18768018F618F6E8F922E6CDC0E042
:1006830018ECC0E0E633CD33CDD313F6E719FCE71E
:10069300191933CC33C3947F400ECD9D502408E603
:1006A3005480F6E418F6800FF4043D14501408E661
:1006B300447FF6187680E418F618F6D0E0FCD0E014
:1006C300FD22CCD313CCFD18E4C6CBC0E018E4C69E
:1006D300CAC0E00808ED08C633E613F618E433C6CB
:1006E30075F003C3CA97CA09CB97CB199C40047D05
:1006F30008802EBD00030207B816B6FF05060608DC
:100703001618C3CA33CACB33CB33CA27CA09CB376C
:10071300CB193CC37D08803E187D0820E75CC633B7
:10072300C6CA33CACB33CB33DDF1D5F0EB30E77B2D
:10073300CA97CA09CB974ACB199C406F4B7025E6E1
:1007430020E0218066187D08C3CA97CA09CB97CBDE
:10075300199CD3C633C6CA33CACB33CB3350C9DD96
:10076300E7D5F0E1D3E4C636C608C636C608C636B2
:10077300C608C636C61818188031C3CA97CA09CB2B
:1007830097CB199CB34097C633C6CA33CACB33CB76
:1007930033DD34D5F02EC6A2E0C640C8CA27CA0945
:1007A300CB37194A70BECB3CB480B90808E633088E
:1007B300E633601F181818D0E0FAD0E0FBD0E0FC55
:1007C300D0E0FD22187D08CA27CA09CB37CB193CD4
:1007D300D3808013F618E4B67F11F618B6FF0EF631
:1007E30018C60470D20808768080CAF618F618F680
:1007F30080C500121671604F1216806012E7548094
:1008030066F61215267011121726703B090909F4B2
:10081300F618F618F618F62212153A701512172F55
:1008230008080860EAE6447FF618768018E4F618AC
:10083300F62212172F60161217267012E4F608F626
:1008430008F608E65480F609090918181822EAC0C0
:10085300E0EBC0E0ECC0E0EDC0E0E687F0A4FBAC69
:10086300F008E687F0A42CFCE435F0FA1809E687D3
:10087300F0A42C4B60027401CA35F0FCE433FB098D
:10088300E687F0D2F7A42CCB35F0FC1908E687F005
:10089300A42BCC35F0FBE433FD0819E687F0D2E74F
:1008A300A42C4ACB35F0CD3400FC09E687F0D2E71F
:1008B300A42DCC35F0FDE433FA0918E687F0D2F71E
:1008C300A42CCD35F0CA3400FC08E687F0D2E7D279
:1008D300F7A42ACC35F07A7E20E70B0ACB33CBCDB5
:1008E30033CDCC33CC33CB3350147004ED30E00E26
:1008F300D2F1E4CD3DCDCC3CCC3B5005DA05C2F181
:10090300EB547FC63308E63392F0FBE73309E73352
:10091300C39A502D2B70190C0D4C4D70151806E60B
:1009230008C333700D20F10AA2F013F6E418800B0C
:100933004024E4F630F002768018F618F618F680B4
:1009430024D33B14501074FFA2F013F6187680E4FE
:1009530018F618F6800FA2F013F618E63303F6180C
:10096300ECF618EDF6D0E0FDD0E0FCD0E0FBD0E0F3
:10097300FA22C0E074F1120E7BA2AFE433F509D280
:10098300AF85A708AFA1EF5508FE74105E6006128D
:10099300189D75A1EF74085E60081218A375A1F77E
:1009A3008024EFA2E092F0E508A2E082F0501790D5
:1009B3006198E0F8900492E0C398A2D265D03350D6
:1009C30002E8F075A1FEE509A2E092AF7F02020EF4
:1009D300DAC0E074F2120E7BA2AFE433FED2AF9022
:1009E30061A4E0F8759B00E591585408600875917F
:1009F300F71218EB8023E59158541060087591EFB6
:100A03001218F18014E591A2E092F0E8A2E082F0DE
:100A13005007E0C2E0F0121A3B9061A3E0F8E5E969
:100A2300585404600E121A1175E9FB906193E0A209
:100A3300E640F2EEA2E092AF7F01020EDAC0E0746C
:100A4300F2120E7BA2AFE433FED2AF9061A5E0F8C1
:100A5300E5BF585404600675BFFB121A5380D4C017
:100A6300E0C0D0E8C0E0E9C0E0C082C083A8C1E82C
:100A7300C0E09003FFE0F8747E28F582E43403F5C8
:100A830083D0E0F09003FEE0F8A3E0687006E595FC
:100A9300900401F09003FFE004F0C394804002E46B
:100AA300F0A374C6F0D083D082D0E0F9D0E0F8D0C0
:100AB300D0D0E032C0E0C0D0E8C0E0E9C0E0C082FE
:100AC300C083900482E0F8A3E0687008539AFBA304
:100AD30074018022C2E9900482E0F8740128F07462
:100AE3000228F582E43404F583E0F5C1900482E042
:100AF300C394804002E4F080ACC3E498F8E499F92D
:100B0300120B3D8026C3E49AFAE49BFBE920E7E954
:100B1300120B3DE498F8E499F922C3E498F8E499B8
:100B2300F9120B3DE498F8E499F9C3E49AFAE49BCB
:100B3300FB22EB20E7CFE920E7E0B90010BB000878
:100B4300E88AF084F8AAF022E4FBC8FA22EB7022C8
:100B53007B10C833C8C933C9335007C39AC3DBF208
:100B630080069A50012ADBEAC833F4C8C933F4C9B2
:100B7300FA2275F008E4C833C8C933C933C99AC91E
:100B83009B5004C92AC93BD5F0ECFBC833F4C8E435
:100B9300C9FA22120BD620F01430E72B74FFFCFBAA
:100BA300FA747F8022E4FCFBFA7480801AB4800814
:100BB300BC00F2BB00EF800F50EBF9E4C39AFAE4F8
:100BC3009BFBE49CFCE499C6CC18C6CB18C6CA1898
:100BD300C6F922E4C9C608CAC608CBC6D33303087C
:100BE300CCC63392F0C3947F402E94184019C9B9F0
:100BF3000704CACBCC225025C309CA33CACB33CB93
:100C0300CC33CC33D9F422F4600DC9CCC313CB134A
:100C1300CBCA13CAD9F6CC22E4FCFBFA2214FCFBA0
:100C2300FA22C0E074F2120E7BA2AFE433FED2AF1D
:100C3300901A17E05589600FE589FA7900121E4969
:100C4300901A17E0F45289C2C5EEA2E092AF7F0179
:100C5300020EDAC0E074F2120E7BA2AFE433FED2CE
:100C6300AF901A18E0558A600FE58AFA7901121ECF
:100C730049901A18E0F4528AC2EB80CDC0E074F2B6
:100C8300120E7BA2AFE433FED2AF901A19E0558B5C
:100C9300600FE58BFA7902121E49901A19E0F4529B
:100CA3008BC2E880A4080808EAC0E0EBC0E086F045
:100CB300E7A4FA180986F0E7A42AFA180986F0E7E8
:100CC300A42AFA180986F0E7A42AFA1986F0E7A4F9
:100CD300FBE5F02AFA190886F0E7A42BFBE5F03AC6
:100CE300FA190886F0E7A42BFBE5F03AFA1818097D
:100CF30086F0E7A4C5F02BFBE43AFA1908E7C5F040
:100D0300C6A426F6E5F03BFBE43AFA1886F0E7A41E
:100D1300F6E5F00826F6E43B08F6E43A08F6D0E0F8
:100D2300FBD0E0FA22080808E630E7111214FE129D
:100D33000D40080808C64480C61818182218181849
:100D4300E9799EC608CAC608CBC608CCC6C37020BC
:100D53007996CACBCC7019798ECBCC70137986CCAB
:100D6300700EF9802ACA33CACB33CBCC33CC3319B8
:100D730030E7F2CCCBCA3350147004EA30E00DE410
:100D8300CA3ACACB3BCBCC3CCC500209C3E913C60D
:100D9300CC182313C6CB18C6CA18C6F922E4CFC091
:100DA300E0E4CEC0E0E4CDC0E0E4CCC0E075F020E8
:100DB300E626F608E633F608E633F608E633F618D1
:100DC3001818EC33FCED33FDEE33FEEF33FFC3ECC9
:100DD3009709ED9709EE9709EF97191919400FFF36
:100DE300EC97FC09ED97FD09EE97FE191906D5F06E
:100DF300BFECF709EDF709EEF709EFF7191919D069
:100E0300E0FCD0E0FDD0E0FED0E0FF222518C58253
:100E1300C0E0E51934FFC583C0E0E518C39582241B
:100E2300F810AF0885831985821880088583198592
:100E33008218D2AFCEF0A3E520F0A37808E608F03D
:100E4300A3DEFAEFF0A3E58124FAF8E608F0A3E6BF
:100E530008F0A3E608F0A30808E608F0A3E608F004
:100E6300A315811581D0E0FED0E0F8158115811519
:100E730081E8C0E0EEC0E022C0D02518C582C0E002
:100E8300E51934FFC583C0E0E518C3958224F31048
:100E9300AF08858319858218800885831985821890
:100EA300D2AFC8F0A3E9F0A3EAF0A3EBF0A379086B
:100EB300E709F0A3D8FAECF0A3EDF0A3EEF0A3EF6B
:100EC300F0A3D0E0F0A3D0E0F0A3D0E0F0A3E520BE
:100ED300F0A3E5F0F0A322851983851882E0C0E032
:100EE300A3E0F9A3E0FAA3E0FBA37808E0F608A3E4
:100EF300DFFAE0FCA3E0FDA3E0FEA3E0FFA3E0C074
:100F0300E0A3E0C0E0A3E0F5D0A3E0F520A3E0A3D5
:100F1300F5F010AF08858319858218800885831939
:100F2300858218D2AFD082D083D0E0F8D0E03212DD
:100F33001711B90003020F71E49003017800791BC4
:100F43008002F0A3D8FCD9FA7A007B1E9000867841
:100F5300FD79018015E493A3AD82AE838A828B83EE
:100F6300F0A3AA82AB838D828E83D8E9D9E77582F9
:100F7300057583C6740612138D7582C77583337422
:100F83000012138D1E75F0108E1A8F1B85821F851C
:100F9300831E851882851983E0CEA3E0CF851F8247
:100FA300851E83EBC9EAC8EDCBECCAC3E833C8E9B5
:100FB30033C9EA33CAEB33CBC3EA9EF51DEB9FF586
:100FC3001CB35004AB1CAA1DEC33CCED33CDD5F0D0
:100FD300DAAE1AAF1B22121671601C12168060174C
:100FE30012172F70071217267001D322C0D01217C1
:100FF300267006D0D0B322C32233D0D0501430E0B1
:10100300F6C3E7960809E7960809E7960809E796FD
:10101300B32220E0D5E6970809E6970809E6970882
:1010230009E697B322121671601B1216806016121E
:10103300172F7007121726600CB322C0D012172681
:101043007005D0D022C32233D0D0501330E0EBC38D
:10105300E7960809E7960809E7960809E796222024
:10106300E0E4E6970809E6970809E6970809E69792
:1010730022D083D082ECC0E0EDC0E0E493A3FCE493
:1010830093A3FDED4C600D12114CEC24FFFCED34E9
:10109300FFFD80EFE493A3FCE493A3FDED4C600D0F
:1010A300121252EC24FFFCED34FFFD80EFD0E0FD83
:1010B300D0E0FCE493A3C0E0E493C0E0228519836D
:1010C300851882E0A3FEE0A3F5207808E0A3F608E4
:1010D300DFFAE0A3FFE0A3C0E0E0A3C0E0E0A3C029
:1010E300E0E0A3C0E0E0A3C0E010AF08858218856C
:1010F30083198008858218858319D2AFD083D08263
:10110300021393D083D082E9C0E0E493A3C386F0B3
:10111300C5F095F0F908E493A386F0C5F095F07057
:101123000BE493A3C3994005E9048002A3E475F09B
:1011330002A42582F582E5F03583F583D0E0F9E456
:1011430093A3C0E0E493C0E022C0E0C3E493960815
:101153007401939618400FE4936670080874019322
:10116300661870007019A3A3C3E4939608740193DF
:101173009618A3A3400DD0E0D0E0D0E00210B0A3B6
:10118300A3A3A3A3A3D0E022C0E074F2120E7BC2F8
:10119300D9901E3F1211BE4005E0F9121E857F0152
:1011A300020EDAC0E074F2120E7BC2DC901E401213
:1011B30011BE4005E0F9121E8580E3E0C39400A24E
:1011C300D265D033227404800474028000CCC0E062
:1011D300EDC0E0E518C39CCCAD1950011D10AF065E
:1011E3008C188D1980068C188D19D2AF1212EFD07E
:1011F300E0FDD0E0FC2274028000CCC0E0EDC0E052
:10120300E518C39CCCAD1950011D10AF068C188D89
:101213001980068C188D19D2AF1212CDD0E0FDD0F3
:10122300E0FC221216716025121680602012172F1F
:101233007003021726080808E76670101819E76696
:10124300700A1819E76670041819E76622F422C0B9
:10125300E0C0F088F0E493667008087401936618A0
:101263007000A8F0A3A3700BD0F0D0E0D0E0D0E0E2
:101273000210B0A3A3D0F0D0E022D083D082CCC0A0
:10128300E0E493A3600612136E1470FAE493A36070
:10129300061214931470FAD0E0FCE493A3C0E0E4C4
:1012A30093C0E022C008C3E096F50808A3E0964285
:1012B3000808A3E096420808A3E0964208A2D26574
:1012C300D033E5087001D3D00822CAC0E0E493A369
:1012D300C582CCC582C583CDC583F0A3C582CCC5E9
:1012E30082C583CDC583DAE5D0E0CA22CAC0E0E077
:1012F300A3C582CCC582C583CDC583F0A3C582CCEB
:10130300C582C583CDC583DAE6D0E0CA22C0E0C07A
:10131300D0C082C08375AF00900702E02401F0A320
:10132300E03400F0D083D082D0D0D0E032C008C304
:10133300E096F50808A3E096420808A3E096420861
:1013430008A3E09645087001D3D008227009080865
:1013530008226016181818C6C333C608C633C60851
:10136300C633C608C633C6D5E0EA22C0E0E493A379
:10137300D39C5010E493A3C39C400AD0E0D0E0D0A8
:10138300E002129AA3A3A3D0E022C09FF59FE473C7
:10139300D09F22D083D082C09FE493C0E074019396
:1013A300C0E0740293F59F222518F58210AF08F56B
:1013B30018400C15198008F51840021519D2AF858D
:1013C30019832200C0D0251810AF08F518500C055A
:1013D300198008F51850020519D2AFD0D022740431
:1013E300800A74038006740280027401C0E0F4046E
:1013F3001213ABD0E01216BC22BB0102E722C0825B
:10140300C08389828A83BB0003E08002E493D08394
:10141300D08222C0E0C0D0E8C0E0A8A8D2AFC2C743
:10142300E8A2E792AFD0E0F8D0D0D0E0326017085E
:101433000808C6A2E713C618C613C618C613C618EB
:10144300C613C6D5E0E9226016080808C6C313C64A
:1014530018C613C618C613C618C613C6D5E0EA22A3
:10146300C3E0C696F608A3E0C696F608A3E0C696C0
:10147300F608A3E0C696F6222518F8E43519F922F2
:101483002518FAE43519FB222518FCE43519FD2249
:10149300C0E0E493A36C7009D0E0D0E0D0E0021286
:1014A3009AA3A3D0E022251810AF08F518400C1515
:1014B300198008F51840021519D2AF22E0667010A2
:1014C30008A3E066700A08A3E066700408A3E06658
:1014D30022E76670100809E766700A0809E7667074
:1014E300040809E76622C3E09608A3E09608A3E090
:1014F3009608A3E096A2D265D03322181818E4C345
:1015030096F608E496F608E496F608E496F622C3FF
:10151300E096F008A3E096F008A3E096F008A3E0B5
:1015230096F022181818E60846087009E62608708F
:1015330005E633F4220822191919E7094709700946
:10154300E727097005E733F4220922C3E697F60873
:1015530009E697F60809E697F60809E697F622C31F
:10156300E49396087401939608740293960874039F
:10157300939622E627F60809E637F60809E637F6D2
:101583000809E637F622700422600D18C6C333C675
:1015930008C633C6D5E0F41822E657F60809E6571D
:1015A300F60809E657F60809E657F622E056F60864
:1015B300A3E056F608A3E056F608A3E056F622E0A9
:1015C30026F608A3E036F608A3E036F608A3E036CD
:1015D300F622E026F008A3E036F008A3E036F00890
:1015E300A3E036F022E647F60809E647F60809E6DF
:1015F30047F60809E647F622E493F608740193F6E2
:1016030008740293F608740393F622E056F008A3D5
:10161300E056F008A3E056F008A3E056F022600D70
:1016230008C6A2E713C618C613C6D5E0F322C6F44C
:10163300C608C6F4C608C6F4C608C6F4C622C3E084
:101643009608A3E09608A3E09608A3E09622C3E7D2
:10165300960809E7960809E7960809E7962275D0E0
:101663000075813F75180175190300020F32E608F2
:101673004608C3134608336002E633F422E70947FA
:1016830009C3134709336002E733F422600C08C629
:10169300C313C618C613C6D5E0F422E6F008A3E6C2
:1016A300F008A3E6F008A3E6F022E0F608A3E0F6CC
:1016B30008A3E0F608A3E0F622CAC0E0E6F0A30818
:1016C300DAFAD0E0FA22E0FCA3E0FDA3E0FEA3E017
:1016D300FF22EAF0A3EBF0A3ECF0A3EDF022E0FA93
:1016E300A3E0FBA3E0FCA3E0FD22E8F0A3E9F0A361
:1016F300EAF0A3EBF022ECF0A3EDF0A3EEF0A3EFFE
:10170300F022E0F8A3E0F9A3E0FAA3E0FB22E5C7A7
:1017130054F84401F5C77901222518F582E43519F7
:10172300F58322E72719471947194722E626184662
:101733001846184622C2AF75D69F02000022121324
:1017430096FB7F00121396EBFF041213961FD0062D
:101753001213962FD00612139647D006121396AF84
:10176300D006121396D1CC0612139654CD0612133B
:1017730096BACD0612139613C4061213964EC406D8
:10178300121396A9C40612139640C506121396C6E1
:10179300C5061213967E97061213968C970612139C
:1017A30096059806121396D99806121396AB9A06C5
:1017B300121396E7D20612139611B9061213965B0B
:1017C300B906121396F1B90612139677BA061213D5
:1017D30096A8BA06121396C0BA0612139634BB061D
:1017E3001213964ABB061213965DBB061213966735
:1017F300BB061213969EF70212139616F8021213E3
:1018030096BDF802121396A7F902121396BDFA02B7
:101813001213967AFB02121396FDFC0212139629F9
:10182300FD02121396A8FD02121396D0FE021213A4
:101833009640FF0212139633EB051213965FEB05E6
:10184300121396D0ED0512139610EE05121396504F
:10185300EE0512139664EE051213967DEE05121330
:10186300966EEF0512139613F00512139627F005E3
:10187300121396E5C70612139609C8061213962289
:10188300C80612139654C80612139684C806121378
:1018930096B1C80612139613C90612139622C906E7
:1018A3001213962CC90612139639C9061213967B86
:1018B300B6061213969BB606121396DAB6061213E1
:1018C30096F5B60612139614B7061213967AB70650
:1018D30012139683B706121396E0B70612139604F3
:1018E300B806121396C5B806121396D2B806121389
:1018F30096E3B806121396B9D006121396D1D00602
:10190300121396FDD00612139611F5051213966B5A
:10191300F60512139679F6051213968CF605121333
:1019230096A1F605121396B6F605121396C9F60597
:101933001213963DF705121396A2F7051213964458
:10194300F80512139608F90512139618F9051213E0
:101953009627F90512139686CF06121396AACF0679
:10196300121396D2CF06121396FACF06121396F5D8
:10197300BF061213961CC0061213963AC006121322
:1019830096ADC006121396F0B00612139609B1066F
:1019930012139615B10612139629B1061213964720
:1019A300B10612139651B1061213965BB1061213C8
:1019B300966EB106121396F4B10612139669B20627
:1019C30012139698B206121396E6B20612139635C0
:1019D300B30612139650B3061213965AB306121394
:1019E300966BB306121396AEB30612139616D2066F
:1019F3001213964C76001213967676001213969372
:101A03007600121396A67600121396BC7600121374
:101A1300961A7700121396527700121396467B009C
:101A23001213968B7C00121396BE7C001213962120
:101A33007D001213968B7E00121396B37E00121351
:101A430096C87E00121396D87E001213961C7F0050
:101A5300121396777F00121396877F0012139683D3
:101A6300CA061213969DCA06121396C5CA06121306
:101A730096DECA0612139602CB0612139620CB06E5
:101A830012139637CB0612139665CB061213968064
:101A9300CB0612139661D206121396109B061213ED
:101AA30096209B06121396279C061213965B9C06A0
:101AB3001213967D9C06121396A09C06121396BED3
:101AC3009C06121396F89C061213965D9D0612133C
:101AD300969F9D06121396DE9D061213960F9E0681
:101AE300121396469E061213961BF7041213967052
:101AF300F704121396D9F70412139696F9041213E6
:101B030096C0F904121396E2F9041213969AFB0491
:101B130012139638FC04121396D4FC041213962C59
:101B2300FE041213961CD20412139660D2041213ED
:101B33009694D2041213963AD30412139630D50412
:101B430012139603DA04121396B9DB041213961BCD
:101B5300DC04121396AADC04121396C6DD041213D6
:101B6300965CDE0412139697DE04121396D2DE04FB
:101B7300121396E9DE041213960EDF041213961164
:101B8300DF0412139657DF0412139696DF04121321
:101B93009632E004121396CDE20412139651E40434
:101BA30012139684E404121396A2E504121396C347
:101BB300E50412139684E7041213967DE8041213C6
:101BC30096FEE90412139654EA04121396F5EA04F6
:101BD30012139622EB0412139623EC04121396B3FA
:101BE300FF02121396CDFF02121396E2FF021213A5
:101BF300962FA50612139699A50612139615A606F7
:101C03001213964BA6061213961BA706121396479A
:101C1300A70612139689A706121396ADA7061213E9
:101C2300960EA8061213963DA8061213963BF005CE
:101C330012139663A8061213961CA906121396F1A3
:101C4300A906121396C6AA061213961BAB06121305
:101C530096249006121396949206121396FC9206FB
:101C630012139623AE0612139628AF06121396ECA0
:101C7300AF0612139606B006121396B2B0061213ED
:101C83009682FE01121396A2FE01121396B5FF016E
:101C9300121396B8FF01121396D3CE0612139609A8
:101CA300CF0612139623CF0612139665CF0612138F
:101CB3009675CF06121396DBCC0512139615CD0538
:101CC3001213967ECD051213969BCD051213963DE6
:101CD300CE0512139646CE051213968BCE0512131C
:101CE30096B4CE05121396C1CE0512139632CF05C4
:101CF300121396BDCF051213960BD00512139649F6
:101D0300D005121396AED005121396D1D005121337
:101D13009648D1051213969FD105121396DAD10571
:101D23001213960FD20512139621D205121396336E
:101D3300D20512139652D2051213965BD2051213D3
:101D43009616D30512139662D305121396A0D305E4
:101D530012139643C906121396BFBD06121396F5C6
:101D6300BD061213963DBE0612139696BF061213B6
:101D7300963ED1061213967795051213969B9605F8
:101D8300121396D596051213967F9805121396A9EA
:101D930098051213961E9B051213965E9B0512134C
:101DA30096F49C05121396919D05121396E39D05D7
:101DB300121396869E05121396BE9E051213960065
:101DC3009F051213966FA005121396BDA10512135A
:101DD30096EEA3051213961CA40512139643A405AD
:101DE3001213964CA4051213969CA4051213962E57
:101DF300A5051213965DA805121396E0A805121304
:101E0300964BD30612139661D3061213965A840681
:101E130012139670840612139614850612139653A2
:101E23008506121396708506121396A18506121362
:101E330096EE85061213962186061213965C860685
:101E4300121396518806121396CCD3051213967962
:101E5300D40512139638D50512139603D60512131B
:101E63009658D605121396E0D6051213969CD705FD
:101E7300121396EFD70512139618C2061213968FF4
:101E8300C20612139671BD0512139640BE051213B6
:101E93009686BE05121396AEBF0512139606C005AD
:101EA300121396C9C00512139618C10512139693FF
:101EB300C105121396D3CD0612139632CE06121312
:101EC3009670CE06121396B1CE0612139664E005F1
:101ED300121396B4E00512139658E105121396BF38
:101EE300E20512139650E305121396ABE4051213A1
:101EF30096E5FF011213960080041213960C8004DA
:101F03001213966E80041213967880041213960BA4
:101F13008104121396478104121396078204121345
:101F230096148204121396678204121396B48204E1
:101F33001213965683041213968C83041213960974
:101F43008404121396A985041213967D8704121331
:101F5300964A8804121396CB8904121396308B0485
:101F6300121396C58B04121396F88C04121396EC75
:101F73008D04121396258F04121396BB9304121328
:101F830096A894041213964095041213966595042B
:101F93001213968A950412139622960412139638F6
:101FA30096041213965A9604121396C096041213AB
:101FB30096DF960412139608970412139628980432
:101FC300121396FE9804121396739A04121396949E
:101FD3009A04121396159B04121396BB9B041213B7
:101FE30096039C041213967F9C04121396E39C049D
:101FF300121396439D04121396F29D041213965ED8
:102003009E04121396919E041213960F9F041213AB
:10201300966BA004121396DBA0041213966DA10411
:10202300121396D0A20412139657A304121396BC4C
:10203300A304121396EAA50412139676A7041213A7
:102043009686A704121396BAA70412139628A80417
:1020530012139663A804121396C5A8041213965A72
:10206300A90412139635AB04121396F1AC041213A0
:1020730096FBAD04121396F8B104121396C5B2047D
:10208300121396DDB30412139687B504121396DC6C
:1020930093061213964C94061213965A940612132F
:1020A30096689506121396B9B30612139655B4069D
:1020B300121396FFB406121396B77F00121396B647
:1020C300D50312139611D6031213969BD60312133C
:1020D300960CD803121396E4D803121396CDD903A2
:1020E300121396E4D90312139636DA031213969A4F
:1020F300DA03121396DBDA03121396EEDA031213E2
:102103009644DB031213969DDB03121396B5DB0390
:1021130012139665DE03121396FADE031213962446
:10212300DF031213966DDF031213965DE10312139F
:1021330096C7E1031213969BE203121396DEE203A2
:10214300121396F8E2031213963FE3031213965FFA
:10215300E30312139609E40312139607E50312131C
:102163009661E503121396B2E503121396BDE603D7
:1021730012139661E90312139697E9031213960952
:10218300EA031213962EEA03121396A8EA03121314
:102193009671EB03121396AEEB0312139610EC0336
:1021A300121396D1EC03121396D4EC03121396DE9A
:1021B300EC03121396E8EC03121396FBEC031213D1
:1021C3009677ED03121396A0ED03121396B3ED0366
:1021D300121396DFED0312139606EE031213962ADB
:1021E300EE0312139665EE03121396D7EE03121342
:1021F30096FFEE0312139640EF0312139675EF0347
:1022030012139695EF03121396D2EF031213960946
:10221300F00312139613F10312139646F2031213EB
:10222300965CF203121396B6D106121396CED1061C
:1022330012139660F9051213969EF9051213962A46
:10224300FA0512139635FB0512139651FD05121369
:1022530096DBC5051213962AC605121396CAC7053F
:1022630012139685C905121396C7C905121396B0A2
:10227300CA05121396BACB05121396DCCB051213BB
:102283009626CC05121396A7CC051213962ED802C8
:1022930012139651D80212139644D9021213968D33
:1022A300D902121396E5D90212139641DA021213D8
:1022B300968DDA0212139603DB021213968FDB025A
:1022C30012139604DC0212139647DC0212139618BB
:1022D300E00212139667E202121396A1E2021213AE
:1022E3009625E30212139656E602121396CBE602E4
:1022F3001213965BE80212139663E902121396799E
:10230300EA02121396EFEA02121396B6EB021213C5
:10231300961FEC0212139622EC02121396F6EC02AD
:1023230012139632EE02121396F2EF02121396ED87
:10233300F102121396F8F20212139694F302121397
:1023430096DFF402121396E5F50212139648F6028D
:10235300121396E5F602121396008005121396A047
:1023630080051213960A8105121396B18105121383
:1023730096108205121396BC820512139665850585
:102383001213968B86051213960F8705121396EC7C
:102393008805121396918905121396348A05121330
:1023A30096938A051213964C8B05121396CB8C05C4
:1023B300121396888E0512139609900512139663CD
:1023C300910512139673920512139619930512131E
:1023D300963894051213969BB70412139613B804F8
:1023E3001213965BB8041213969FB804121396E85F
:1023F300B80412139632B90412139667B904121370
:1024030096E5B9041213963FBA0412139698BB04C7
:1024130012139617BC041213962EBD041213965072
:10242300BD041213965CBE041213966DBE04121300
:102433009685BE04121396A5BF04121396C2BF0459
:1024430012139695C004121396B9C004121396D0B2
:10245300C004121396F1C00412139613C10412138D
:102463009605C2041213965DC204121396D3C304D5
:1024730012139631C40412139650C4041213968295
:10248300C504121396B7DA051213966CC604121319
:1024930096ACC6041213960EC704121396BEC70455
:1024A30012139690C9041213967BCA0412139675DD
:1024B300CB041213967BCC0412139697CD041213FC
:1024C30096A5CD041213967ECE041213961ECF0446
:1024D30012139662CF0412139677CF0412139688C1
:1024E300D0041213962BD10412139683D104121322
:1024F30096F8A106121396A0A3061213965DA406DE
:10250300121396B2A406121396498C06121396D789
:10251300FF03121396AB8C06121396D18C0612137B
:1025230096F78C061213960F8D06121396278D06B7
:102533001213963F8D06121396A28D06121396E47C
:102543008D06121396068F061213960F8F0612131B
:1025530096188F06121396218F061213962B8F0649
:10256300121396008006121396E08306121396EE5A
:102573008306121396F3830612139672C60612137A
:10258300966BD3061213964DAB06121396B3CB0676
:102593001213968AFF04121396DFFD051213961F7A
:1025A300D3061213965E8806121396008002121346
:1025B30096578002121396C380021213964F81021C
:1025C3001213960582021213964D82021213966617
:1025D3008202121396898202121396AB820212139D
:1025E30096E98202121396388302121396638302CA
:1025F300121396C183021213966884021213961063
:1026030085021213968C85021213965986021213B1
:1026130096A08602121396EC860212139674870212
:10262300121396AD87021213960388021213961F94
:1026330088021213964E88021213965A8A021213B4
:1026430096888B02121396B48B02121396E88B02B0
:10265300121396098C02121396188C0212139623E6
:102663008C02121396D28C02121396428D0212130D
:1026730096CD8D02121396D58D02121396428E02B9
:102683001213967E8E02121396448F02121396171C
:1026930090021213966C90021213960B910212136E
:1026A30096659102121396AA91021213964394020D
:1026B300121396869502121396709802121396546B
:1026C3009902121396389A02121396499A02121318
:1026D30096BB9A02121396529B02121396B79B0251
:1026E300121396A79C02121396CC9C02121396EA1D
:1026F3009C02121396069D02121396799D021213E1
:1027030096889D02121396109E021213960D9F0235
:102713001213961A9F02121396239F021213960501
:10272300A10212139627A20212139637A2021213C2
:102733009665A302121396E4A302121396FFA40252
:102743001213963BA50212139615A702121396D2E3
:10275300AA02121396E6AA02121396F0AA02121301
:1027630096FAAA0212139604AB021213961DAB0239
:1027730012139627AB0212139694AB021213969F71
:10278300AB02121396C7AB02121396D2AB0212130B
:102793009637AC0212139642AC0212139666AC0241
:1027A3001213968AAC02121396FCAC0212139645CE
:1027B300AD0212139661AD02121396D2AD0212133B
:1027C300961EAE0212139667AE02121396A5AE02C0
:1027D30012139626AF02121396CDAF021213969CD4
:1027E300B10212139601B2021213962FB3021213FF
:1027F3009655B3021213969DB402121396D7B702DD
:10280300121396D5B902121396A0BB02121396396E
:10281300BC021213963ABE02121396EFBE021213B3
:102823009628BF021213968EBF0212139698BF0208
:10283300121396C1C10212139600C30212139657C4
:10284300C30212139602C402121396B2C5021213E4
:1028530096FFC6021213961FC70212139674C7027D
:1028630012139675C8021213969DC802121396FC92
:10287300C802121396F4C9021213966BCA021213FA
:10288300967ECB02121396ECCB02121396EBCC027C
:1028930012139645CF021213966ECF02121396D4DB
:1028A300D00212139656D202121396ADD20212130D
:1028B300965BD30212139600D40212139659D402D4
:1028C30012139617D502121396A9D502121396085E
:1028D300D6021213964AD6021213967BD60212130D
:1028E30096D2D702121396008003121396328003F6
:1028F3001213966B8003121396298203121396FF09
:1029030082031213965E83031213967484031213C5
:1029130096C084031213964E8703121396288A03D4
:102923001213966F8B03121396078C0312139613CD
:102933008C031213965C8C031213969E8D03121351
:1029430096948E03121396BE8E03121396148F035E
:102953001213966D8F03121396E08F0312139616BC
:1029630092031213969893031213968394031213EC
:1029730096CD9503121396059803121396029B03A3
:10298300121396119B03121396A59B0312139650D1
:102993009C03121396939C03121396FB9C0312132E
:1029A30096179D03121396469D03121396859D0356
:1029B300121396809E031213962F9F03121396AC45
:1029C300A103121396DEA203121396B6A3031213E6
:1029D3009638A4031213966DA8031213969CA803AA
:1029E300121396F7A8031213962AA903121396A299
:1029F300A903121396D5A90312139636AA03121329
:102A03009686AA0312139653AB031213960CAC03C8
:102A1300121396D0AC031213964AAF03121396AC5B
:102A2300B003121396FDB10312139621B3031213CD
:102A33009624B30312139653B3031213964BB503A1
:102A43001213960AB60312139639B6031213965746
:102A5300B7031213961FB803121396DDB9031213AB
:102A6300960FBA0312139651BA0312139650BB036F
:102A7300121396C3BB03121396ECBD031213964BAA
:102A8300BE031213969FBE03121396CEC0031213F6
:102A930096B1C1031213966DC20312139681C2033A
:102AA30012139695C203121396C2C203121396F21F
:102AB300C203121396ADC403121396BFC5031213B8
:102AC3009614C6031213965DC60312139684C603A7
:102AD3001213964CC703121396F2C7031213967878
:102AE300C903121396BFC90312139631CA031213F3
:102AF3009686CB031213962FCC0312139663CC0343
:102B03001213967BCC031213961ECD031213969ABF
:102B1300CF0312139642D10312139660D1031213FB
:102B2300967ED1031213964AD20312139698D503B5
:102B3300121396CC82011213960483011213960486
:102B430088011213964A8801121396808901121381
:102B530096E589011213965A8B01121396648E011E
:102B63001213968D8F01121396A0990112139630AA
:102B73009A011213961A9D01121396279E0112139E
:102B8300968A9E01121396D29F0112139640A201B8
:102B9300121396D2A3011213965FA4011213967E09
:102BA300A5011213960BA60112139615A601121373
:102BB300963DA601121396DDA601121396C8A7012E
:102BC30012139695A801121396B2A801121396DB5D
:102BD300A80112139608A9011213964FAB01121301
:102BE300961EAC011213965DAC01121396DFAC0175
:102BF30012139680AD01121396B2AD01121396F91A
:102C0300AD011213962CAE0112139670AE0112137E
:102C130096BFAE01121396C4AE0112139620AF01F4
:102C230012139664AF011213963EB001121396A3CA
:102C3300B00112139609B10112139684B101121354
:102C430096ECB401121396EFB5011213966DB7010A
:102C530012139683BA0112139625BB011213966EB3
:102C6300BD0112139629BE0112139668BE011213F9
:102C73009640C0011213965DC00112139666C001FF
:102C83001213966FC0011213967AC001121396990C
:102C9300C0011213963DC2011213969AC201121378
:102CA30096A4C201121396AEC2011213960DC3016C
:102CB30012139657C30112139658C401121396AFF9
:102CC300C401121396C0C50112139609C60112134B
:102CD30096C3C601121396DAC701121396AFC80141
:102CE300121396F6C901121396FACA01121396F338
:102CF300CB011213960BCC0112139642CC01121383
:102D0300964CCC0112139656CC0112139661CC014A
:102D13001213967FCC01121396C7CC01121396257A
:102D2300CD011213964CCD011213965ECD011213F1
:102D33009613CE011213964CCE011213966ECF0149
:102D4300121396C1CF01121396A7D001121396CE78
:102D5300D0011213963ED101121396BAD101121368
:102D63009616D3011213963DD401121396FFD40184
:102D7300121396CDD5011213968BD60112139673A7
:102D8300D7011213961DD80112139685D801121379
:102D9300963AD90112139696D901121396EED901D8
:102DA300121396B4DA01121396D7DA01121396921C
:102DB300DB01121396B4DB0112139615DC01121317
:102DC3009645DE011213963EDF01121396EADF01E8
:102DD3001213960BE20112139654E2011213969FFB
:102DE300E201121396FBE20112139659E301121347
:102DF300967DE301121396A1E301121396D6E30124
:102E0300121396FEE30112139643E40112139697ED
:102E1300E401121396F0E401121396EAE50112138A
:102E23009688E701121396CDE701121396F6E70190
:102E33001213967FE801121396F2E801121396001B
:102E4300E90112139624E9011213967AE901121388
:102E53009695E90112139650EA011213967CEA0142
:102E6300121396BFEA0112139622EB011213963046
:102E7300ED011213965CED0112139617EE01121376
:102E830096FBEE011213968FEF011213962DA905EF
:102E930012139665A90512139686A905121396C8EF
:102EA300A9051213962CAA0512139636AA05121316
:102EB3009646AA051213967DAA0512139626AE0509
:102EC300121396EEAF05121396D2B1051213967430
:102ED300B205121396FEB205121396933C00121319
:102EE300963C3D001213961B3E00121396273F009B
:102EF300121396473F001213966940001213961956
:102F0300420012139686420012139657430012137F
:102F1300965D4400121396D5440012139610450093
:102F2300121396694500121396A44500121396EDE9
:102F33004500121396814600121396174700121389
:102F430096EC4700121396BF48001213964D4900A2
:102F5300121396734900121396A04900121396D1C7
:102F630049001213969E4A00121396AE4A0012139A
:102F730096014B001213960E4B001213961B4B0037
:102F8300121396244B00121396884B00121396E6E5
:102F93004B00121396314C001213964C4C00121333
:102FA30096734C00121396904C001213969C4C008F
:102FB3001213962D4E00121396464E00121396C20C
:102FC3004E00121396D54E00121396E54E001213BF
:102FD30096894F00121396F550001213960852006B
:102FE300121396A85200121396B25200121396317E
:102FF3005300121396425300121396815300121377
:1030030096AF53001213967C5400121396D35400B8
:103013001213960C550012139662550012139680E4
:103023005500121396CE550012139699560012139B
:1030330096E75600121396345700121396B75700AB
:10304300121396E15700121396175800121396267F
:103053005800121396855800121396FD5800121348
:10306300963E59001213968E5900121396B95900C1
:10307300121396D35900121396ED5900121396C2E8
:103083005A00121396CC5A00121396075B001213C0
:1030930096175B00121396685B001213967C5B0015
:1030A3001213969E5C00121396B35C00121396469D
:1030B3005D00121396BA5D001213965F5E00121341
:1030C300966A5E00121396CD5F00121396E95F00B5
:1030D300121396356000121396A36000121396D54F
:1030E3006000121396EF60001213964F61001213E3
:1030F30096EE61001213963962001213968C6400E7
:103103001213962465001213969B6500121396F80A
:1031130067001213961068001213961368001213B7
:10312300961F68001213963368001213963B6800CB
:10313300121396726800121396666900121396F0C2
:103143006900121396726A00121396F26A00121340
:1031530096C96B00121396EB6B00121396846C00E6
:10316300121396E16C00121396E46C00121396533B
:103173006D001213969F6E00121396B26F00121316
:10318300963D700012139650710012139617720039
:103193001213964872001213966E720012139677EA
:1031A3007200121396A6720012139656730012132E
:1031B300960674001213967974001213961C750008
:1031C3001213968F7500121396CE7500121396176D
:1031D3007600121396C0D206121396A5D2061213C6
:1031E30096FCE905121396CDE8051213963BE80504
:1031F3001213962AE70512139612E605121396E1A7
:10320300E50512139620FD0112139688FB01121394
:1032130096D8FA01121396CCFF031213962EFF03CE
:1032230012139645F80112139688F6011213961D90
:10323300FF03121396E4BC05121396FFF301121356
:103243009684F3011213962DF201121396E1F00105
:1032530012139650F0011213964ABC06121396C924
:10326300BB061213967ABB0612139644FE0312137F
:10327300966AFD03121396A0FC031213960FFB0329
:10328300121396D8FA03121396AAFA031213965E30
:10329300FA03121396C7F90312139637F90312139D
:1032A3009611F903121396C6F80312139690F803B6
:1032B30012139613F803121396AEF7031213965DC7
:1032C300F703121396A2BB0512139685F603121386
:1032D3009633BB0512139609BB051213965FBA0505
:1032E30012139642B90512139660B6051213968C03
:1032F300B5051213968CB405121396ADB3051213CC
:1033030096F5F503121396A9F50312139624F50304
:10331300121396DFF403121396F1DF05121396C30B
:10332300F4031213966BF3031213963DF303121374
:10333300960AF30312139656DF051213968EF203C1
:10334300121396678C06121396D0F604121396770F
:10335300F60412139642F6041213960DF604121392
:1033630096D9F5041213966CF50412139654F504CA
:103373001213962FF50412139608F204121396DB18
:10338300EF04121396E2ED041213966EED0412137A
:10339300961FED04121396D9EC0412139674DB05F1
:1033A3001213967BEC0412139637A106121396930D
:1033B300A006121396999F061213969E9E06121349
:1033C30096FFC50400000080FBE4730000000020AA
:1033D30001C982000001002001C98200000200200F
:1033E30001CA82000003002001C8820000040042D9
:1033F300014680000005004201578000000600429C
:103403000179800000070020018480000000404211
:103413000179800000100042016880000011002043
:103423000192070000120010032F1E060000001077
:1034330001000008000000200300000C00550039C3
:103443000100000C001C0042010000120055002086
:1034530001000014000E0042020000050B000021D1
:10346300010000050B010021010000050B000123F1
:10347300010000050B010123010000050B020123DC
:10348300010000050B030123010000050B040121CA
:10349300010000050B050121010000050B060121B8
:1034A300010000050B070121010000050B080121A4
:1034B300010000050B090121010000050B0A012190
:1034C300010000050B0B0121010000050B0C01217C
:1034D300010000050B0D0121010000050B0E012168
:1034E300010000050B0F0121010000050B10012154
:1034F300010000050B110121010000050B12012140
:10350300010000050B130121010000050B1401212B
:10351300010000050B150121010000050B16012117
:10352300010000050B170121010000050B18012103
:10353300010000050B190121010000050B1A0121EF
:10354300010000050B1B0121010000050B1C0120DC
:10355300010000050B1D01280100008F000100CCB4
:103563001B870001008E1E35000400531E25000238
:1035730000571E26000200591E270002005B1E286A
:10358300000100651E29000100661E840004006717
:103593001E860001006B1E2A0001006C1E2B000119
:1035A300006D1E2C000100711E2D000800B31B2EA0
:1035B300000100721E2F000100731E300001007411
:1035C3001E31000100751E32000100BB1B330001D8
:1035D30000BC1B34000100761E36000100BD1B3801
:1035E300000100771E39000100701E830002008C69
:1035F3001E63000100C91B640001006E1E6500010B
:10360300006F1E6D000100CA1B71000800AB1B6632
:103613000001008B1E430001007C1E440002007D5C
:103623001E450001007F1E46000200801E47000861
:1036330000C11B48000100821E4B000100831E04D1
:103643000001008F1EA1000100921E3700010091AE
:103653001E88000100901E3C000100BE1B3D0001BE
:1036630000781E49000200841E67000100CB1B4D39
:10367300000200861E4E000100881E4F00020089D2
:103683001E3E000100C01B51000100791E520001C3
:10369300007A1E530001007B1E54000100BF1B0073
:1036A30000000000000001363601010001020100A4
:1036B30001030100010401060605020000070100E1
:1036C300340801000F090401010D0100FF0E080079
:1036D3000017020000190100FF1A0100011B01007D
:1036E300FE1C0100081D0200001F01000120010053
:1036F30001210200002301000F2402000026010023
:103703000127010008280200FF2A0100072B0102FC
:10371300402C0100002D0100012E0100012F0100AA
:10372300FF30010B1D310800003A0100083B010086
:103733000F3C0100013D0100FF3E04000042040074
:1037430000460400004A0400004E04000052040036
:1037530000560400005A040000000021010001008B
:1037630021020000012366000101236700020123F7
:10377300680003012369000401216A000501216B2C
:10378300000601212C010701212D010801212E0131
:103793000901212F010A012130010B012131010C03
:1037A3000121C8000D0121C9000E0121CA000F012A
:1037B30021CB00100121CC00110121CD00120121E8
:1037C300CE0013012132011401213301150121CF50
:1037D300001601213401170121D000180121D10065
:1037E300190121D2001A0121D3000103710301033E
:1037F3000103010301030103220302030103100375
:10380300000300030003000300030003000342035B
:103813000003240306030003000304031203250328
:10382300230325032303040304030003000300030A
:10383300440300030003230300036503210035034E
:1038430081030003050300030003000300032503B2
:1038530023030302710230016002110270020102AC
:10386300020202028002100261023A004100630276
:103873007302720262024302000213023800000262
:10388300000204021202000200020002000204020B
:103893000402370037003C024402000239000002F0
:1038A3000002650200023502810200020502820263
:1038B30083020002010171010101010111010101F2
:1038C3003101010101018001100161013B0014007C
:1038D30063017301720162014301000113010601D7
:1038E3003D01350004011201000100010001000146
:1038F30004010401330133013C0144013201360068
:10390300000100016501000135008101000105018D
:1039130082018301000103047104020460041104A1
:10392300700402040204010402041004610400048C
:103933001404630473047204620443040004130450
:103943000604000400040404120400040004000438
:10395300000451046400000400040004440400044F
:1039630000040004000465040004350481046400B9
:1039730005040004830400040300710030016000A7
:103983001100700031022003500480001000610018
:103993000000140063007300720062004300000023
:1039A30013000600000000000400120000000000E5
:1039B3000000000004000400370037003C0244000C
:1039C30000000000000000006500000035008100D9
:1039D300000005000000830000003600010006001F
:1039E30000000F00000000000000000000000000C5
:1039F30003FFFF00000403FFFF0000FFFF0FF401BC
:103A03000005C4040320000100000B0000000000B7
:103A130000000003010F0000000000000000000090
:103A23000000000000000000000000000000000093
:103A3300000000000000000005205F200B20151F80
:103A430011206520112071201720151F11206520DA
:103A53001D20151F2320151F2920151F2F20151F7B
:103A63003520151F3B20151F412077204720151FA8
:103A73000000000000000000000000004D2089202D
:103A83005320151F4D2089205320151F41207720D7
:103A93005920151F00007723130023231F00292318
:103AA3001F802F23010077230200AB220300B122E2
:103AB3000400B7220500BD220600C9223000E72218
:103AC3003100E1223200F3223300F9223500FF22D4
:103AD3003400052336000B231100172314001D2384
:103AE3001500DB22FFFF00000A00000002000000B7
:103AF3000400000008000000100000002000000087
:103B030040000000800000000001000000020000EF
:103B13000004000000080000001000000020000066
:103B230000400000016F2B06992B08932B0BB12B40
:103B330010992802752B05872B077B2B0C572B0D10
:103B4300632B649526FF000007ECFDFDFDECDCDC38
:103B5300CCBCACAC9C9C8C7C7C6C6C5C5C5C4C4C42
:103B63003C3C2C2C1C1C03EAF5E5D5D5C5B5A59525
:103B730095858575756565555545453535252515F2
:103B830015050000000406000004060001040600F9
:103B930002040600420400160F00000B150B02007E
:103BA30002220F3300000E5A6967426565416C6C4F
:103BB30069616E6365303901030507090B0D0F0059
:103BC300020406080A0C0D0001191618161618230C
:103BD3000300303017181921301B1D1F30303016E9
:103BE300181920231A1C1E3000034A49434E181A81
:103BF30025050200393D3F373C3C362C442D0C0E45
:103C0300020B040B0A0708000F0204020101010161
:103C13000902E803000000BE040AE8030E000000E6
:103C230000007F001E0503FF040403100A001008B0
:103C33000C280400090903010C05081532050C08BA
:103C4300E0041244C3A2E792AF22E4F0A3F0A3F08E
:103C530022A3123C4DA3F0227F0C0210C0E0F50812
:103C6300E4F509F50AF50B227401F09004AAE06467
:103C73000F2274091213C67F040210C0A3A3E02409
:103C8300F5C39413229004CA1267B37A147B0022FB
:103C9300C082C083901CE8743BF0A3742FF0A3741C
:103CA3004DF0A3742FF0901CEC7423F0A3742FF049
:103CB300A3741DF0A3742FF0A37459F0A3742FF011
:103CC300A3745FF0A3742FF0A37453F0A3742FF0C5
:103CD300A3740BF0A3742FF0901CF8742FF0A3744B
:103CE3002FF0A37435F0A3742FF0A37429F0A374F9
:103CF3002FF0A37465F0A3742FF0901D09125D409B
:103D03006006125FAA121D6B901D0612546C740894
:103D1300F0A3E4F0A3F0901DA9F0901D0BF07C0B31
:103D2300FDF97A0C7B1D121CC37C0B7D0079007A94
:103D3300177B1D121CC302547574F7120E0F74F710
:103D43001214A9EAFEEBFF1252937405123E097492
:103D530003F0EE2402FAE43F123DE3242DFCE43F9A
:103D6300FD8C828D83123F21123DF2600812466B57
:103D730074FFF0A3F0EE242BE43F1C1CFD8C828D1A
:103D830083A3E0C0E08A828B831252A4D0E0123D69
:103D9300F288828983125A9C240312657D121EC7FE
:103DA300740812171C7403F09004BF1211CC740230
:103DB30012148B7903EEFAEFFB1230F7740212132D
:103DC300C6E9F5087007EEFAEFFB122FDDA90874B8
:103DD3000902467BF582E43FF5831271E8125A919A
:103DE300FB8A828B83123E01E8F0A3E9F0EE2212F4
:103DF30067D1123E01E8F0A3E9126D4DE022123EB5
:103E0300EC8A828B8322F0A3E4F0123E1122EE248B
:103E13000DF582E43FF5832274F1120E0FEAFEEBF7
:103E2300FF8C088D09890A123EF68A828B83123E23
:103E3300EC740F12171C123F0FE824FF18E934FF2C
:103E4300F988828983E50A123F019004C4123EFE79
:103E53009004C3123EFE741112171C123F0FEE247E
:103E630004FCE43FFD880B8A828B83E0F50C8C8293
:103E73008D83E0250CC3950B1267CDE8F0A3E912FF
:103E83005200A3A3A3A3A3A3A3A3E06403700812F4
:103E9300555CF0A3E48003124202123E0C7409F055
:103EA300750C0C750D1D750E00780C1213E512417F
:103EB300F6121CB774031213C6750CFF750DFF7849
:103EC3000C1213E9AC08AD097903EEFAEFFB1230DB
:103ED300F774021213C6E9F5087007EEFAEFFB1246
:103EE3002FDDA9087F070210C0E024FFF8A3E03408
:103EF300FFF922EE2402FAE43FFB22123F21123F94
:103F03000522F0E824FF18E934FFF922E0F50CA3B9
:103F1300123F21123F0588828983E50CF022E08855
:103F230082898322C082C083901D28E0C394084005
:103F33000474078001E08A828B83F033333354F8AF
:103F4300F902547574F0120E0FEAFEEBFF890C8C24
:103F53000E8D0F750A00A2AFE433F50BC2AF901DAF
:103F630022803F12402F503712404064037030EEDE
:103F730024F9FEEF34FFFF850882850983A3A3E0BC
:103F83002405FCA3E03400FDEEFAEFFB121EC7EE9E
:103F930024FF1EEF34FFFF7410250AF50A150C12D7
:103FA30051CD1271E4E50C6006E508450970B4E5EE
:103FB3000BA2E092AFA2AFE433F50BC2AF901D2288
:103FC300802C2402FAE43509FB8A828B831267BCB6
:103FD3002406F582E438F58312404D8A828B8312DE
:103FE3004035A3A312404D050A150C1251CD1251B1
:103FF300E26022124040640270F112402FE5084053
:10400300C1124330A2E550E3850E82850F8374010C
:10401300F0E50C70D6E50BA2E092AF8E828F83E5BC
:104023000AF0EE24FFFAEF34FFFB803512433BA284
:10403300E62212403922126BB1A3A3A32285088280
:10404300850983126BAB1261E522E08E828F83F0C8
:10405300EE24FF1EEF34FFFF221231C37404121348
:10406300C67F080210C074EC120E0F74F51214A967
:1040730089138A128B0F851882851983E4F0041241
:104083001483122EEDE9F89004A9E0292434F508ED
:10409300FA7B00121CD58A0A8B0BAE0AAF0BEE4FCC
:1040A30070030241EAEE2402F50AE43FF50BA80887
:1040B300EE28F8E43FF9850A82850B83123DEB2451
:1040C30004F510E43FF511851082F583E4F09004C4
:1040D300A9E0FCF8C3E498F895E0F9850A82850B1A
:1040E30083E028F508A3E039F5099004A712647565
:1040F300750E00780C1213E57D00AA08AB09121C9B
:10410300B774031213C6AC18AD19740112171CE06F
:10411300F9E50824FFFAE50934FFFB122EF38A823E
:104123008B83E4F0EA24FFF508EB34FFF509E50F90
:10413300C454F0F9901DAAE0C4333354C0F890047A
:10414300A3E0A2E0E43313134849440F12420AE503
:1041530012C454F04513850882850983F0A80885A5
:104163000A82850B83E0FA851082851183E02AC3D6
:1041730098F0850A82850B83E8F0A3E509F01242E3
:1041830002123E0CE4F0740A12171CE4F0750817CF
:1041930075091DF50A78081213E51241F6121CB7CA
:1041A30074031213C6851882851983E06009EE240F
:1041B3000E1253294408F01230DFE9F9E4F508F54B
:1041C3000978081213E9740412148BEEFAEFFB1248
:1041D30030F774021213C6E97006EEFAEFFB800B98
:1041E300EEFAEFFB121CDB7A007B00740B1213C692
:1041F300023C5B7C0B7D00EE2418FAE43FFB2212A9
:104203005297E4F0A322E0850882850983124214C1
:1042130022F01264492274F3120E0F8A0A8B0BA246
:10422300AFE433F50CC2AF750800750900901D2289
:10423300802C1244575024850A82850B83A3A31232
:1042430076118E828F83A3A3125FAD1230E5E960EE
:104253000A12427DC2E6F08E088F0912444C1247BF
:104263000570CFE50845096006124337D2E6F0E54D
:104273000CA2E092AF7F050210C0124281221264A9
:1042830062E02274F0120E0FEAFEEBFF8C0C8D0D30
:10429300750E00A2AFE433F50FC2AF7508007509C0
:1042A30000901D228020850A08850B09124337D20E
:1042B300E4F0E508124330D2E7F0E50A24FBF58287
:1042C300E50B34FFF583E0F50AA3E0F50BE50A45BA
:1042D3000B6043E50A1250B8350BF583E0A2E750B3
:1042E300D9850A82850B83A3A31211CCAC0CAD0D27
:1042F300EEFAEFFB1230EB74021213C6E960BBE572
:1043030008450960A1E508240D12434364017006C2
:1043130012434CD2E4F0E50FA2E092AFE508450961
:104323006006122FD7750E01A90E0240641250E2E7
:104333001243462212433B22E5082411124343222F
:10434300F582E43509F583E0228508828509831225
:104353006BABE02274F2120E0F74FE1214A9750CEB
:1043630000750D00851882851983E4F0A3F0A2AFD0
:1043730033F50AC2AF901D22E0FEA3E0FF8035EEC5
:1043830024FBF582EF34FF1271E2780C1213E9EE8D
:10439300FCEFFD7A227B1D121D0B74021213C6EE75
:1043A300FCEFFDAA18AB19121CF9AE08AF09901D5A
:1043B30028E014F0EE4F6027124457501DEE240BF3
:1043C300F8E43FF988828983E024FFF0A3E034FF17
:1043D300F088828983125D4060A51244488099E584
:1043E3000AA2E092AF901D28E060319004AAE06435
:1043F3000F6006901DA9E070237A007B1D1231CF58
:104403009082C01211C87A007B1D1231C37404124A
:1044130013C6800874F0125693122FCBAA18AB1947
:10442300121CFF8A0A8B0BAE0AAF0BEE4F601312FE
:104433002EFF12427DA2E28E828F83A350D674E9AF
:1044430080D402470D8E0C8F0DEE24FBF582EF34E2
:10445300FFF58322124281A2E72274F7120E0FEABC
:10446300FEEBFF122EFF1252A11233CCE96401902E
:1044730004C6700AE02401F8A3E034008004E0F8E5
:10448300A3E0F91258EF125C98901D28E070219078
:1044930004AAE0640F70197A007B1D1231CF908259
:1044A300C01211C87A007B1D1231C374041213C6E3
:1044B300A9A8C2AF901D28E0041244C3A2E7800D4F
:1044C300F0E9A2E7E433F8E922E508A2E092AF02BB
:1044D300572F74F7120E0FEAFEEBFF12450AF01284
:1044E3002EFFEEFCEFFD7A227B1D121D05A9A8C24B
:1044F300AF901D28123C439004AAE0640F70057925
:104503000812309702572F124281C2E42274F71225
:104513000E0F74EA1214A9EAFEEBFF9004A3E06005
:10452300408518828519837401F012171CE4124523
:10453300E212171CAA82AB83121EC78E828F8312CC
:104543004352C0E0740A12171CD0E01267E2740BE6
:1045530012171CAA82AB8312310FAA18AB191225AA
:1045630063741602467B74F7120E0FEAFEEBFF121A
:104573002EE1E9F974DC69601E74DD69601974E485
:1045830069601474F369600F74DE69600A74DF692B
:10459300600574DB697007EEFAEFFB12309D02577A
:1045A3002F74F7120E0F74EB1214A9EAFEEBFF85BA
:1045B300188285198374061245E212171CAA82AB6E
:1045C30083121EC71267E7740A12171CAA82AB83F1
:1045D30012310FAA18AB19122563741502467BF02A
:1045E300EE2413FCE43FFD74022274F7120E0F74E1
:1045F300F71214A9EAFEEBFFEE242D12532960658E
:10460300124EBAAA18AB19121EC7740812171C74DB
:1046130003F09004BF1211CC12466B1211CC90041C
:10462300D2E0F9740412148BEEFAEFFB122EE77446
:10463300041213C6E9F974DC69602374DD69601E32
:1046430074E469601974F369601474DE69600F744B
:10465300DF69600A74E869600574DB697007EEFA64
:10466300EFFB12309D023DD2EE12467022242BF551
:1046730082E43FF5832274031213C602572F74F2A8
:10468300120E0F8A088B09750C00750D00750AE769
:10469300A2AFE433F50BC2AF901D2280031244484E
:1046A300124705603512445750F3125326640170C4
:1046B300ECEE242FF582E43F1248B4E06870DE7814
:1046C3000C1213E9EEFCEFFD7A227B1D121D0B7415
:1046D300021213C6901D28E014F0E50BA2E092AF7E
:1046E300EE4F6013EEFAEFFB122EFF79F0EEFAEFC6
:1046F300FB12309D750A00A90AAA08AB0912309D66
:10470300800DE0FEA3E0FFEE4F2274021213C67F7A
:10471300060210C074F4120E0F74F71214A9EAFE05
:10472300EBFF8E828F83A3E064F370030247C18E95
:10473300828F83A3E064DF70030247C18E828F837D
:10474300A3E064E860788E828F83A3E064DB606E0D
:10475300122F41E9F508705EEE240E1253296056BC
:104763001247CB122F89EA4B604C740812171C12A4
:1047730047D51211CC7508FF7509FF78081213E9A4
:104783008E828F83A3A3A3A3A3A3A3A3E0F974049B
:1047930012148B122EE774041213C6E9F50874F38E
:1047A3006508601274DF6508600C74E865086006CC
:1047B30074DB6508700F8E828F83A3E508F0EEFA31
:1047C300EFFB122F4D023C75EE240FFAE43FFB7909
:1047D30009227402126FAA74FFF0A31247E2221295
:1047E30047E622125AA5A3A32274F5120E0F8A08D4
:1047F3008B097E008A828B83A3A3A3A3A3A3123C6A
:104803007F40027EE88A828B83A3A3A3A3A3A3A3EF
:10481300A3A3A3E0C3941040047EE880138A828B91
:1048230083A3A3A3A3A3A3A3A3A3A3E0640F600AE7
:10483300901D86E0540870027EE8EA240BF582E4BA
:1048430035091248B4A3A3A3A3A3A3A3A3E0C398C6
:10485300500CEA240B124343640F60027EE8900479
:10486300C3E0F47003A3E0F470027EEC7A237B00D0
:10487300121D65901D09125FBD901D09125D4060F8
:1048830029850882850983A3A3A982AA8389088A23
:1048930009750A0078081213E57C237D00125FAACC
:1048A300121CB774031213C680027E1AEEF902714A
:1048B3004BF583E0F88A828B83A3A32274F5120E4F
:1048C3000FEAFEEBFF8E828F83A3A3A3A3A3A3A36D
:1048D300A3E09004AA126E8D9004C5126E73900427
:1048E300A5126E92901DAAF0F9121999901DAAE0D3
:1048F3006018EE2404FAE43FFB7950121981EE2488
:1049030006FAE43FFB79E1121981901DA9123C6B71
:104913006004740180027400901D0B126E791213EF
:10492300E57C0B7D007A0C7B1D121CB774031213FC
:10493300C6EE2418F508E43FF50978081213E57C60
:104943000B7D007A177B1D02714374F7120E0FEA79
:10495300FEEBFF8E828F83A3E07006125FAA122FF5
:10496300478E828F83742C1256931230A902572FCD
:1049730074F7120E0FEAFEEBFF901D09125D406003
:104983000D125FAA901D09E4F0A3F0121D6B8E8235
:104993008F83740812569312256302572F74F612ED
:1049A3000E0F901DA9E06013901D0BE0700D1249CE
:1049B300C1122EF9EA4B6003122FDD026AED900457
:1049C300A5E0FB9004C5E0FA9004AAE0F92274F490
:1049D300120E0F74E71214A9EAFEEBFF750B018E9A
:1049E300828F83A3A3A3A3A3A3A3E0A2E25068EEB1
:1049F300242BF582E43F12760F124A8F122F05E91A
:104A030070559081A8E064017005750B0080481211
:104A13004A971213E57C0B7D007411121483121C48
:104A2300B774031213C61230DFE9FA740E12147B43
:104A33008808890978081213E97508307509007820
:104A4300081213E912466B1211CC12678379011213
:104A530030FD74061213C6851882851983741012EB
:104A630045E212171CAA82AB83121EBB12466B12BD
:104A730067AF740B12171C125C98740D12171CE5A8
:104A83000B1255061225637419023C77EE2413FAB0
:104A9300E43FFB22EE2408126E8122C082C0839081
:104AA3001DAAE06003123151025475C082C0839085
:104AB3001DA174E8F0A3741CF0A374ECF0A3741CA0
:104AC300F0A374F8F0A3741CF0901EF27419F0A311
:104AD3007439F0901D8B74DBF0A3742EF0901D2DB0
:104AE3007411F0A3742FF0901D2F7417F0A3742F7B
:104AF300F0901D86E044028001E4F0025475C08208
:104B0300C083EAFCEBFD7903025B11C082C083EA38
:104B1300FCEBFD7905025B11C082C0837908026C4E
:104B23007EC082C08374FE1214A9901D3574C5F033
:104B3300A3742FF0901D3774BFF0A3742FF0800D72
:104B43007A227B1D121CFF1254FC1230CD901D22C1
:104B5300125D4070EB901D24125D40600F7A247B40
:104B63001D121CFF1254FC1230CD80E9901D22E46B
:104B7300F0A3F0901D28123C4E74028002741112AF
:104B830013C602547574F6120E0FE9FF74F629F575
:104B930082E4343BF583E493FEFA7B00121CD5EAEE
:104BA3004B6011EA2E125C8E8A828B83A3A3A3A38C
:104BB300E4F0802C7A027B00121CD5EA4B601D7452
:104BC300D52FF582E4343BF583E4938A828B83F01B
:104BD300A3741AF0901D81E0F9121CE17A007B00A6
:104BE300026AEDE9FC740629F8EAA2E0501EE875B2
:104BF300F00A84E5F0F96014740A28C399F8E9C34C
:104C030094054004740A28F8740B28F8ECC3941331
:104C130040047A1480027A06EA2879002409F850BD
:104C230001097A0A7B00120B35E8F9021393C0825B
:104C3300C083901D86E05402600A122569E960046E
:104C4300790180027900025475C082C083901D8669
:104C5300E054026016901D28E0700C125D3D600B5D
:104C6300E0C81251DA5004790180027900025475C8
:104C7300C082C0839081A5E0F8901D2AE0C39850BC
:104C830005121CD580047A007B00025475C082C0D3
:104C9300831230CD790002547574F7120E0F74FE2F
:104CA3001214A9851882851983EAF0A3EB124E0B1F
:104CB300A3A3A3A3A3E0600A14606024FE606902B7
:104CC3004D8C9004AAE0640F60181230A3E97012AF
:104CD300851882851983125FAD901D311252A4127B
:104CE30033CC9004D2E0C0E0851882851983125A30
:104CF3006FD0E0124E0B7414126FA61276117A2441
:104D03007B1D121CF9A8A8C2AF901D2AE004125FF4
:104D1300C37920123097740202467B851882851965
:104D230083126BB3741580D0851882851983124D55
:104D3300EEA3A3E06053851882851983E02402F86B
:104D4300A3E03400F9888289831273E4E0C0E0852C
:104D53001882851983E0FCA3E0CC2406F582E43CA9
:104D6300F583D0E01267EF88828983125FBD8518CF
:104D7300828519831250D685188285198360131290
:104D83004DF36005124DFB4043AA18AB191230CD09
:104D93008084124DF360F2124DFB501C1251EAFA5B
:104DA300851882851983124DF5F8740B125C8934CA
:104DB3003CF583E4936A6014851882851983124D48
:104DC300F3640870C41251EA640870BD1251EA1406
:104DD300124E13240AC0E08518828519831252A447
:104DE300D0E0124E1304024CFBE0F8A3125ABC228B
:104DF300E0F8A3E0124E1A22851882851983126700
:104E0300C0124E1BC3940A22124E25F583888222B8
:104E1300124E25124E1A22C82406F582E438F58371
:104E2300E022126FAAE0F8A3E022C082C083901DA3
:104E330039125D406008126BB41233CC80027900E2
:104E430002547574F7120E0FEAFEEBFF123E117453
:104E530001F0EE2430F582E43FF58312651D123D27
:104E6300EB2432125329C0E0EE2413F582E43FF51C
:104E730083D0E0F0EE2433125329C0E0EE2414F57E
:104E830082E43FF583D0E0F0EE242CF582E43FF595
:104E9300831211CC124EBAEE242E125329F912307A
:104EA300F774021213C6E9F5087007EEFAEFFB1266
:104EB3002FDDA90802572FEE2423FCE43FFD22C077
:104EC30082C0831230A3E960047920800279010251
:104ED3005475C082C083EA1250B8124F79D2E002EF
:104EE3004AFDC082C083124F7364017011124F7E5A
:104EF300400C8A828B83A3E0F912309D806FEA24F1
:104F030010124F76A2E650128A828B83A3E0F990A7
:104F13001D331252A41233CC8053124F73640170A9
:104F23000D124F7E50088A828B83743080368A82BA
:104F33008B83A3E0641B8A828B8370047422802496
:104F4300A3E0700D124F73F874E0125C89343B8058
:104F53000B124F73F874D5125C89343BF583E493D9
:104F63008A828B83F0901D81E0F9121CE102547553
:104F7300EA240DF582E43BF583E022EA1250E23B9A
:104F8300F583E0A2E32274F7120E0FE9FE125D3DF2
:104F930070030250AFEE6011741B6E7013E0C81201
:104FA30050B26405700302507A126BA3E402507E80
:104FB30074E96E70621250CE700B12256FE96005B2
:104FC3001250E8606279EE121903901D2B1250CB38
:104FD300901D2B603B1250EB901D2B700B1250CB8E
:104FE30014F0121AB90250AF1250D6C2E71251F69A
:104FF3001250B26403700C1267B91250B8124E20EB
:10500300D2E2F079ED1219031250BE1233CC80753F
:10501300126BA674E9806474E16E703E12256FE929
:1050230060551250E870509004CCE0C0E01267B9AC
:105033002412F582E438F583D0E0F09004BBE0C09D
:10504300E0901D2B124DEC124DECD0E0F09004BB20
:10505300E004F07901121AA18052741C6E7018904A
:105063001D2B125FAD901D3B1252A41233CC901D29
:105073002BE4F0A3F08035126BA3EEF0901D2B12FE
:105083005FAD122FCB1267B912678BE054806010AB
:105093009004D2E0F91219BD9004D1E0F91219B1CC
:1050A300901D2BE4F0A3F0791012309702572F24B0
:1050B3000D124E1D222411F582E422901D2B125F46
:1050C300B1901D2F126BAD22E0F8A3E0C824121299
:1050D3004E1D22E0F8A3E0C81250E2124E20222413
:1050E30010F582E422901D2B1267C012678FE054E3
:1050F300042274F4120E0F750A00750B00A2AFE4BC
:1051030033FFC2AF125D3D60030251B21252A112CE
:1051130033CCE94410F8901D22800985080A8509DB
:105123000B1251CD1251E270030251B212433758A0
:105133006870E8780A1213E9AC08AD097A227B1D7E
:10514300121D0B74021213C6901D2BE508F0A3E584
:10515300091251F61251DA405D901D29E014F0EF67
:10516300A2E092AF901D2BE0240EF8A3E03400F9E7
:10517300880889098882F583125FAD901D2B12512F
:10518300F0F9122F8FE9901D26F01251FEE05480A2
:10519300901D2B60261267BC2413124E1DF91219A1
:1051A300BD1267B92414124E1DF91219B18018EFFC
:1051B300A2E092AF8011901D2880A11250D6A2E1E7
:1051C300B3E433F9121AA1023C7AE50824FBF58211
:1051D300E50934FFF583222411124E1DA2E72212A2
:1051E30071E8E5084509228518828519831240393B
:1051F300A3E022F0901D2B1267C022A3E4F08508E0
:10520300828509832274F7120E0FEAFEEBFF123038
:10521300C7EE2410125329A2E3400C125326640153
:1052230070059081A380039081A4E0F9EEFCEFFD6B
:105233007A227B1D121D11E96046EEFAEFFB901DE9
:10524300351252A41233CCEE240E12532954047097
:1052530020A8A8C2AF901D29E004125FA3FAE8A218
:10526300E792AF125293A3E054017021122FD7801B
:105273001CEEFAEFFB901D2D1252A41233CC800DBD
:105283008E828F83A374F1125693122FCB02572F62
:1052930012529722EE240EF582E43FF58322901DED
:1052A30037126BAD22C082C083122FD7025475749C
:1052B300F7120E0FEAFEEBFF7900901D86E0540211
:1052C300700CEE24301253295404600279E8901DC7
:1052D30086E05460700CEE243012532954026002AD
:1052E30079E88E828F83A3A3A3A3E0F89081A9E03A
:1052F300C398500279E8EE242E125329700CEE2441
:105303002B125329700479F5800BE97005122FB91C
:10531300E9F9E96007EEFAEFFB12309D02572F34EB
:10532300FFF509EE240DF582E43FF583E022C08208
:10533300C0838A828B83740DF0122563025475C077
:1053430082C0838A828B83E4F0A3F0EA2430124F75
:105353007654049081A37012E0F8901D29E0C3985D
:10536300401279F112309D025475E0F8901D28E047
:10537300C39850EE901D81E0F9121CE180E974F6A8
:10538300120E0FE9FE244CFAE43400FB121CD5EA9A
:105393004B6012EE8A828B83A3A3A3A3F0EA244C6F
:1053A300125C8E80047A007B00026AEDC082C083A7
:1053B300901D3D7425F0A37430F0A37455F0A374CD
:1053C30030F0A3742BF0A37430F0A37431F0A37402
:1053D30030F0A3744FF0A37430F0A37443F0A374BC
:1053E30030F0A3743DF0A37430F0A3745BF0A374A6
:1053F30030F0A37461F0A37430F0A37467F0A37466
:1054030030F0A37473F0A37430F0A37437F0A37473
:1054130030F0A3741FF0A37430F0A37419F0A374D5
:1054230030F0901D597449F0A37430F0A3746DF0FB
:10543300A37430F0A37487F0A37431F0A37479F0EC
:10544300A37430F0A3747FF0A37430F0901D7DE457
:10545300F0901D80F0901D6912546C7402F0901D41
:105463007212546C7401024AFD7497F0A37430F005
:10547300A322D083D08202139374F5120E0F74F11A
:105483001214A98518828519837402F07401121706
:105493001CE9F060047AFF7BFF740212171C125F91
:1054A300BD75087575091D750A0078081213E57C2A
:1054B3000B7D00740712171CAA82AB83121CB774EE
:1054C300031213C6AA18AB19122563740F0271488D
:1054D30074F7120E0F74FD1214A9851882851983AF
:1054E300740AF0740112171CE9F0740212171CEA13
:1054F300125506122563024679851882851983EAB7
:10550300F0A3EBF0AA18AB192274F6120E0F74F77E
:105513001214A9EAFEEBFF12555C123E0974021243
:105523005684AA18AB19121EBBEE242E123DD724A3
:105533003012658A1213E9740212148B79831A1AD2
:10554300EFFB1230F774021213C6E9F5087007EE89
:10555300FAEFFB122FDD026AE612529774012274EE
:10556300F0120E0F1270311216AD7808790C120C6E
:10557300A878081213E17A6C7B1D02405C74F41264
:105583000E0F74C61214A99004AAE0640F6010856C
:105593001882851983742E1255061230A980277A32
:1055A300637B1D1231CF123C88120B3D8808890999
:1055B300E4F50AF50B78081213E17A637B1D1231C7
:1055C300C374041213C6743A023C7774F5120E0FB7
:1055D300EAFEEBFF8E828F83A3E0F8600302566D31
:1055E300EE242D12532964026007E06403600278FD
:1055F300E8EE2423F582E43FF583123C81400478EE
:10560300E8806AE87064EE2423FAE43FFB79E11250
:105613001981EE242EFAE43FFB7950121981EE240E
:105623002D1253296402700E1267791267AF90042A
:10563300B9125C9880129004B974FEF0A304125658
:10564300847AB07B04121EC7EE2418124A9A1213EE
:10565300E57C0B7D007A757B1D121CB77403121356
:10566300C6EEFAEFFB123013E9F8E86011E88E8218
:105673008F83A31269DB74171256931230A9027138
:105683004BF0EE2425FCE43FFD228E828F837429A8
:10569300F0EEFAEFFB2274F6120E0F74F71214A950
:1056A300901D80E0703B7401F0F9121A6BAA18ABDD
:1056B300191230D975087575091D78081213E97523
:1056C300080175090078081213E99004BF1211CC80
:1056D300740612148B7A0379051230FD74061213C3
:1056E300C6026AE874F7120E0FEAFEEBFF790112A5
:1056F3001A718E828F83E064207004A374EBF090A0
:105703001D80E0A2E25003C2E2F0E0A2E1500812E1
:10571300593112300D800C8E828F83742A12569366
:105723001230A98007EEFAEFFB1231457F01021018
:10573300C074F4120E0F74FE1214A9EAFEEBFF7983
:1057430001121A717A637B1D1231CF7A6C7B1D12A1
:1057530031CF125A7B851882851983125AAFE0F52F
:105763000B700FAA18AB1979531219811271D81241
:105773001981124A971213E57C0B7D007A757B1D04
:10578300121CB774031213C6851882851983125F1E
:10579300ADA90B123007901D80E0A2E1500C7A00F6
:1057A3008E828F83A3E0F912300D901D80E4F07494
:1057B30002023C7774F7120E0FEAFEEBFF8E828F24
:1057C30083A374EBF0901D80E0A2E150077A007987
:1057D300EB12300DEEFAEFFB12304302572F74F742
:1057E300120E0FEAFEEBFF7901121A717A637B1D29
:1057F3001231CF7A6C7B1D1231CF901D7DE4F09076
:105803001D80F07AFF7BFF8E828F83A3E0F9123035
:105813000702572F74F7120E0FEAFEEBFF12303D0B
:1058230002572874F7120E0FEAFEEBFF7901121AE2
:10583300718E828F83A3A3A3A3E06004740080020C
:1058430074EB1258785003C2E2F0E0A2E150081260
:10585300597A12300D8014A2E050108E828F837417
:105863002AF0A374EB1256931230A9EEFAEFFB124F
:105873002FEF02572F8E828F83A3F0901D80E0A21B
:10588300E22274F6120E0FEAFEEBFF901D80E0D2C7
:10589300E1F07901121A6B8E828F83A3E0703C12C0
:1058A30030DFE9FAEE240DF508E43FF50978081234
:1058B30013E975080175090078081213E91258EF06
:1058C3001211CCEE2402FCE43FFD79051230FD7485
:1058D300061213C6E98E828F83A3F08E828F83A371
:1058E300E060067A00F912300D026AED1258F322D5
:1058F300EE240BF582E43FF5832274F7120E0FEAD0
:10590300FEEBFF7901121A718E828F83E06420709F
:1059130004A374EBF0901D80E0A2E25003C2E2F016
:10592300E0A2E1500612593112300D02572FC2E1A5
:10593300F07A008E828F83A3E0F92274F7120E0FA0
:10594300EAFEEBFF7901121A717A637B1D1231CFE4
:105953008E828F83A3A3A3A3E060047400800274E8
:10596300EB1258785003C2E2F0E0A2E1500612595C
:105973007A12300D02586EC2E11247E2A3E0A2E4AC
:10598300E433FA8E828F83A3E0F92274F7120E0FA9
:10599300EAFEEBFF7901121A718E828F83A374EBF7
:1059A30012587D5003C2E2F0E0A2E15006125931D1
:1059B30012300D02572F74F7120E0FEAFEEBFF7A27
:1059C300637B1D1231CFEEFAEFFB123067025728CB
:1059D30074F7120E0FEAFEEBFF7A637B1D1231CFD1
:1059E300EEFAEFFB12306702572F74F7120E0F74A3
:1059F300EF1214A9EAFEEBFF1267837AB07B04125D
:105A03001EB5E960628518828519837409F07401F3
:105A130012171C74EFF0125A7BF8740212171CE869
:105A2300125AAFA3A3E0C0E0740412171CD0E01213
:105A33005A9C640870158E828F83A3A3125A6FE059
:105A4300C0E0740512171CD0E08006740512171C01
:105A5300E41267E2740612171CAA82AB8312310F99
:105A6300AA18AB19122563741102467B1267C0246E
:105A730007F582E438F58322125A91FB8A828B83DD
:105A83001267B388828983E0FCA3E0F9EC22EE2459
:105A930002F8E43FF9E8FAE922125AA022125AA5C1
:105AA300E022F08E828F83A3A3A3A322F0A3E912A3
:105AB30067D1125AB922E0F8A3126BB4A3A322C090
:105AC30082C083123151025475C082C083901D9DE0
:105AD300743DF0A3741DF0A37459F0A3741DF090EA
:105AE3001EEC74B7F0A37438F0A37455F0A37438A4
:105AF300F0901D897401F0A37430F0901D86E0448A
:105B030001024AFDC082C083EAFCEBFD7902123038
