:020000040000FA
:0600000002169F0209D662
:030013000209F8E7
:03002B0002144A72
:03003300020C209C
:03003B00020A4D69
:03004B0002132A73
:0300530002090B94
:03005B000211830C
:0300630002119EE9
:03006B00020BC6BF
:03007B00020BF77E
:1000830002096A010020FD0002013505000000019C
:10009300711C7D1C0000831C8F1C00000000951C3C
:1000A300B91CBF1CC51C00000000000000000101BA
:1000B3000204081020408001FFFF090D0101040123
:1000C3000001000000000000000612FFFFFFFFFF19
:1000D300FF0101010400E912000000E8030000FF32
:1000E300FF9113E803000064006400B801A0BB0D96
:1000F30000A0BB0D00020200F8FF0705021E040169
:10010300051E02051E020A0A010108080310270240
:10011300803E0102FEFFE8030A050001FFFF020A19
:100123001401E0C503423F1A51123FF304B53F00E7
:1001330000803E05030101FF5737000000008D36A4
:1001430000000000FF000000FF00C082C083120215
:10015300AA600814601214601C802BEA6005EB424D
:10016300808023E85280801EEA6005EB429080166F
:10017300E852908011EBC39420500BEA6005EB42E8
:10018300A08003E852A0020218C082C0831202AA10
:10019300600814602C146050807BE852F374016A89
:1001A300601274026A601574046A7003EB428FEB89
:1001B30042FD806153F7DFE8528F80F343F72080DD
:1001C300F6E852F474016A601274026A60157404EA
:1001D3006A7003EB42F6EB42FE803A53F7BFE852F4
:1001E300F680F343F74080F6EBC394205027E852A0
:1001F300F574016A601274026A601574046A70030C
:10020300EB42F7EB42FF800D53F77FE852F780F3A1
:1002130043F78080F6D083D08222C082C08312024B
:10022300AA600814602B14604E806CE852F352FDF0
:1002330074016A600F74026A600F74046A7058EB89
:10024300428F805353F7DF800343F720E8528F80B8
:1002530046E852F452FE74016A600F74026A600F3A
:1002630074046A7032EB42F6802D53F7BF80034368
:10027300F740E852F68020EBC39420501AE844E09C
:10028300F852F552FF74016A601074026A601374C5
:10029300046A7003EB42F702021853F77FE852F740
:1002A30080F543F78080F6E95407FC742C2CF58223
:1002B300E43416F583E0FBF4F8E9C4540F54032245
:1002C300C082C0831202AA600814601214601C80EA
:1002D3002DEA6005EB42FD8025E852FD8020EA60AF
:1002E30005EB42FE8018E852FE8013EBC3942050C6
:1002F3000DEA6005EB42FF800574E04852FF0202FD
:1003030018C082C0831202AA600814601514602208
:100313008034EA6005EB42808003E85280EB42FDC3
:100323008024EA6005EB42908003E85290EB42FEA2
:100333008014EBC39420500EEA6005EB42A08003C7
:10034300E852A0EB42FF020218E9C4540F540360C1
:1003530007146013146020227801E8F4FBEA60209C
:1003630014602114601522740F59C3940450047847
:100373000280E7780480E3780880DFE58C58600426
:10038300EB528C22E8428C221216AF601D1216BE6D
:100393007005191919801A121518701F121540C308
:1003A3007003E6673319191940071818182208084B
:1003B3000874FFF618F618F618F62212154060179F
:1003C300121764702192F012176D7019501720F0F4
:1003D30014080808090909E7F61819E7F61819E7D0
:1003E300F61819E7F62212176D60E6E869701F0820
:1003F30008E62480F608E436F618547FB47F0CE64A
:1004030054806007F6E418F618F622181822E9C695
:10041300CC08C6CD08C6CE08C6CFC0E0E8C0E0EA27
:10042300C0E0EBC0E009E9F809E7FA09E7FBE6F900
:1004330018E6F8C3EC98ED99EE9AEBC2E7F5F0EF06
:10044300C2E795F0500E600CEBCFFBEACEFAE9CD94
:10045300F9E8CCF8EAA2E7D2E7FAEB33FB13F5F0BD
:10046300EEA2E7D2E7FEEF33FFC5F013A2E730E6D3
:1004730001B313C5F0C3C0E0C0F07F00C39BFB60B2
:100483005E9418600F401D14601AD0E023F9D0E089
:10049300F802056C8AF0E9486003D2F0E4AFF0FAA1
:1004A300F9F8803BEB30E40D89F0EA6003D2F0E425
:1004B300AFF0F9CAF8EB30E30D88F0EF6002D2F049
:1004C300AFF0E4CAC9F8EB54076014FBC3EA13FAAC
:1004D300E913F9E813F8EF135002D2E0FFDBEDD094
:1004E300E0C0E030E739C3E49FFFF5F0EC98FC424D
:1004F300F0ED99FD42F0EE9AFE42F0D0E0F9D0E043
:10050300F8E5F0607AE923F9EE20E742D802806744
:10051300C3EF33FFEC33FCED33FDEE33FE80EAEC47
:1005230028FCED39FDEE3AFED0E023F9D0E0F840A7
:1005330002801BC3EE13FEED13FDEC13FCEF13500F
:1005430002D2E0FF08B800067F7F74FF802EEF33EE
:1005530050178CF020F00260100CBC000C0DBD0095
:10056300080EBE000408E860DFE933E813FFEE235A
:1005730013FE4F4D4C8008E95480FFE4FEFDFCEE72
:1005830033EF33F47004FCFD7E80D0E0FBD0E0FA5F
:10059300D0E0F8D0E0CFC618CEC618CDC618CCC66A
:1005A300F9221216AF7004181818221216BE700D15
:1005B30074FFF61819F61819F61819F622E754807D
:1005C30066F612176D700F12176470F014F608F6C2
:1005D30008F608F680D1121764700CF608F6087650
:1005E3008008E6447F80EC121543700C12151B60E3
:1005F300BFE65480F6E480BB12151B700519191968
:1006030080A5E869700C763F18768018F618F6E82E
:10061300F922E6CDC0E018ECC0E0E633CD33CDD30C
:1006230013F6E719FCE7191933CC33C3947F400E53
:10063300CD9D502408E65480F6E418F6800FF404A8
:100643003D14501408E6447FF6187680E418F61833
:10065300F6D0E0FCD0E0FD22CCD313CCFD18E4C6E9
:10066300CBC0E018E4C6CAC0E00808ED08C633E60C
:1006730013F618E433C675F003C3CA97CA09CB97B8
:10068300CB199C40047D08802EBD000302074E1643
:10069300B6FF050606081618C3CA33CACB33CB33D5
:1006A300CA27CA09CB37CB193CC37D08803E187DC6
:1006B3000820E75CC633C6CA33CACB33CB33DDF17C
:1006C300D5F0EB30E77BCA97CA09CB974ACB199C85
:1006D300406F4B7025E620E0218066187D08C3CA71
:1006E30097CA09CB97CB199CD3C633C6CA33CACB97
:1006F30033CB3350C9DDE7D5F0E1D3E4C636C608C2
:10070300C636C608C636C608C636C6181818803197
:10071300C3CA97CA09CB97CB199CB34097C633C6B4
:10072300CA33CACB33CB33DD34D5F02EC6A2E0C6F1
:1007330040C8CA27CA09CB37194A70BECB3CB4801C
:10074300B90808E63308E633601F181818D0E0FA32
:10075300D0E0FBD0E0FCD0E0FD22187D08CA27CA18
:1007630009CB37CB193CD3808013F618E4B67F113D
:10077300F618B6FF0EF618C60470D2080876808005
:10078300CAF618F618F680C5001216AF604F121697
:10079300BE6012E7548066F61215187011121764C2
:1007A300703B090909F4F618F618F618F622121523
:1007B30040701512176D08080860EAE6447FF618C2
:1007C300768018E4F618F62212176D601612176475
:1007D3007012E4F608F608F608E65480F6090909EB
:1007E30018181822EAC0E0EBC0E0ECC0E0EDC0E06E
:1007F300E687F0A4FBACF008E687F0A42CFCE43514
:10080300F0FA1809E687F0A42C4B60027401CA358C
:10081300F0FCE433FB09E687F0D2F7A42CCB35F0E8
:10082300FC1908E687F0A42BCC35F0FBE433FD0874
:1008330019E687F0D2E7A42C4ACB35F0CD3400FC7F
:1008430009E687F0D2E7A42DCC35F0FDE433FA09AD
:1008530018E687F0D2F7A42CCD35F0CA3400FC0893
:10086300E687F0D2E7D2F7A42ACC35F07A7E20E7E8
:100873000B0ACB33CBCD33CDCC33CC33CB3350146A
:100883007004ED30E00ED2F1E4CD3DCDCC3CCC3B59
:100893005005DA05C2F1EB547FC63308E63392F014
:1008A300FBE73309E733C39A502D2B70190C0D4C1A
:1008B3004D70151806E608C333700D20F10AA2F037
:1008C30013F6E418800B4024E4F630F00276801827
:1008D300F618F618F68024D33B14501074FFA2F0D8
:1008E30013F6187680E418F618F6800FA2F013F6C4
:1008F30018E63303F618ECF618EDF6D0E0FDD0E079
:10090300FCD0E0FBD0E0FA22C0E074F1120E1CA28E
:10091300AFE433F509D2AF85A708AFA1EF5508FEC1
:1009230074105E600612195F75A1EF74085E6008AB
:1009330012196575A1F78024EFA2E092F0E508A2F1
:10094300E082F05017906198E0F89004A5E0C39816
:10095300A2D265D0335002E8F075A1FEE509A2E00A
:1009630092AF7F02020E7BC0E074F2120E1CA2AFA4
:10097300E433FED2AF9061A4E0F8759B00E5915893
:10098300540860087591F71219AD8023E591585406
:100993001060087591EF1219B38014E591A2E092EB
:1009A300F0E8A2E082F05007E0C2E0F0121AFD90F6
:1009B30061A3E0F8E5E9585404600E121AD375E90F
:1009C300FB906193E0A2E640F2EEA2E092AF7F01DA
:1009D300020E7BC0E074F2120E1CA2AFE433FED20F
:1009E300AF9061A5E0F8E5BF585404600675BFFBFE
:1009F300121B1580D4C0E0C0D0E8C0E0E9C0E0C05D
:100A030082C083A8C1E8C0E0900412E0F874912882
:100A1300F582E43403F583D0E0F0900411E0F8A309
:100A2300E0687006E595900414F0900412E004F079
:100A3300C394804002E4F0A374C6F0D083D082D084
:100A4300E0F9D0E0F8D0D0D0E032C0E0C0D0E8C0C8
:100A5300E0E9C0E0C082C083900495E0F8A3E068B9
:100A63007008539AFBA374018022C2E9900495E0B5
:100A7300F8740128F0741528F582E43404F583E052
:100A8300F5C1900495E0C394804002E4F080AC1279
:100A93000ADD30F039120B228034120ADD20F01403
:100AA30030E72B74FFFCFBFA747F8022E4FCFBFA33
:100AB3007480801AB48008BC00F2BB00EF800F5032
:100AC300EBF9E4C39AFAE49BFBE49CFCE499C6CCFF
:100AD30018C6CB18C6CA18C6F922E4C9C608CAC6BE
:100AE30008CBC6D3330308CCC63392F0C3947F40FC
:100AF3002E94184019C9B90704CACBCC225025C378
:100B030009CA33CACB33CBCC33CC33D9F422F46008
:100B13000DC9CCC313CB13CBCA13CAD9F6CC22E469
:100B2300FCFBFA2214FCFBFA22C3E498F8E499F9DB
:100B3300120B6D8026C3E49AFAE49BFBE920E7E9F4
:100B4300120B6DE498F8E499F922C3E498F8E49958
:100B5300F9120B6DE498F8E499F9C3E49AFAE49B6B
:100B6300FB22EB20E7CFE920E7E0B90010BB000848
:100B7300E88AF084F8AAF022E4FBC8FA22EB702298
:100B83007B10C833C8C933C9335007C39AC3DBF2D8
:100B930080069A50012ADBEAC833F4C8C933F4C982
:100BA300FA2275F008E4C833C8C933C933C99AC9EE
:100BB3009B5004C92AC93BD5F0ECFBC833F4C8E405
:100BC300C9FA22C0E074F2120E1CA2AFE433FED2C3
:100BD300AF90070EE05589600FE589FA7900121D81
:100BE300A390070EE0F45289C2C5EEA2E092AF7F54
:100BF30001020E7BC0E074F2120E1CA2AFE433FEBE
:100C0300D2AF90070FE0558A600FE58AFA79011297
:100C13001DA390070FE0F4528AC2EB80CDC0E074AD
:100C2300F2120E1CA2AFE433FED2AF900710E055D0
:100C33008B600FE58BFA7902121DA3900710E0F485
:100C4300528BC2E880A4080808EAC0E0EBC0E08643
:100C5300F0E7A4FA180986F0E7A42AFA180986F03F
:100C6300E7A42AFA180986F0E7A42AFA1986F0E716
:100C7300A4FBE5F02AFA190886F0E7A42BFBE5F0BC
:100C83003AFA190886F0E7A42BFBE5F03AFA1818AC
:100C93000986F0E7A4C5F02BFBE43AFA1908E7C587
:100CA300F0C6A426F6E5F03BFBE43AFA1886F0E733
:100CB300A4F6E5F00826F6E43B08F6E43A08F6D095
:100CC300E0FBD0E0FA22080808E630E71112157CB1
:100CD300120CE1080808C64480C618181822181810
:100CE30018E9799EC608CAC608CBC608CCC6C37025
:100CF300207996CACBCC7019798ECBCC70137986B8
:100D0300CC700EF9802ACA33CACB33CBCC33CC3365
:100D13001930E7F2CCCBCA3350147004EA30E00D3B
:100D2300E4CA3ACACB3BCBCC3CCC500209C3E9134F
:100D3300C6CC182313C6CB18C6CA18C6F922E4CFEB
:100D4300C0E0E4CEC0E0E4CDC0E0E4CCC0E075F0A8
:100D530020E626F608E633F608E633F608E633F629
:100D6300181818EC33FCED33FDEE33FEEF33FFC3FD
:100D7300EC9709ED9709EE9709EF97191919400FA9
:100D8300FFEC97FC09ED97FD09EE97FE191906D5BF
:100D9300F0BFECF709EDF709EEF709EFF7191919A9
:100DA300D0E0FCD0E0FDD0E0FED0E0FF222518C566
:100DB30082C0E0E51934FFC583C0E0E518C395821E
:100DC30024F810AF08858319858218800885831954
:100DD300858218D2AFCEF0A3E520F0A37808E60809
:100DE300F0A3DEFAEFF0A3E58124FAF8E608F0A316
:100DF300E608F0A3E608F0A30808E608F0A3E6086F
:100E0300F0A315811581D0E0FED0E0F8158115819E
:100E13001581E8C0E0EEC0E022C0D02518C582C02D
:100E2300E0E51934FFC583C0E0E518C3958224F3D8
:100E330010AF0885831985821880088583198582F8
:100E430018D2AFC8F0A3E9F0A3EAF0A3EBF0A379BB
:100E530008E709F0A3D8FAECF0A3EDF0A3EEF0A3B2
:100E6300EFF0A3D0E0F0A3D0E0F0A3D0E0F0A3E54F
:100E730020F0A3E5F0F0A322851983851882E0C052
:100E8300E0A3E0F9A3E0FAA3E0FBA37808E0F60807
:100E9300A3DFFAE0FCA3E0FDA3E0FEA3E0FFA3E0F1
:100EA300C0E0A3E0C0E0A3E0F5D0A3E0F520A3E019
:100EB300A3F5F010AF088583198582188008858310
:100EC30019858218D2AFD082D083D0E0F8D0E03237
:100ED30012157F181818120D4112164E19191922DE
:100EE30012164E191919080808E618181820E7E011
:100EF300120D4112157F18181822090909E719194B
:100F03001920E7DC080808E618181820E703020D83
:100F13004112157F181818120D4112157F18181851
:100F230012164E1919192212174FB90003020F692D
:100F3300E490033178D079138002F0A3D8FCD9FA76
:100F43007A007B1690008678C879018015E493A314
:100F5300AD82AE838A828B83F0A3AA82AB838D8218
:100F63008E83D8E9D9E77582487583A9740612136D
:100F7300A775826775833274001213A7FF75F0108B
:100F83008E1A8F1B85821F85831E85188285198380
:100F9300E0CEA3E0CF851F82851E83EBC9EAC8EDAF
:100FA300CBECCAC3E833C8E933C9EA33CAEB33CB62
:100FB300C3EA9EF51DEB9FF51CB35004AB1CAA1DA1
:100FC300EC33CCED33CDD5F0DAAE1AAF1B221216CB
:100FD300AF601C1216BE601712176D7007121764EC
:100FE3007001D322C0D01217647006D0D0B322C3CD
:100FF3002233D0D0501430E0F6C3E7960809E796C1
:101003000809E7960809E796B32220E0D5E6970892
:1010130009E6970809E6970809E697B3221216AF7F
:10102300601B1216BE601612176D700712176460EC
:101033000CB322C0D01217647005D0D022C3223360
:10104300D0D0501330E0EBC3E7960809E7960809C0
:10105300E7960809E7962220E0E4E6970809E69771
:101063000809E6970809E69722D083D082ECC0E00E
:10107300EDC0E0E493A3FCE493A3FDED4C600D12FB
:101083001144EC24FFFCED34FFFD80EFE493A3FC5B
:10109300E493A3FDED4C600D12124AEC24FFFCED2A
:1010A30034FFFD80EFD0E0FDD0E0FCE493A3C0E08B
:1010B300E493C0E022851983851882E0A3FEE0A3B0
:1010C300F5207808E0A3F608DFFAE0A3FFE0A3C069
:1010D300E0E0A3C0E0E0A3C0E0E0A3C0E0E0A3C081
:1010E300E010AF08858218858319800885821885EA
:1010F3008319D2AFD083D0820213ADD083D082E9DB
:10110300C0E0E493A3C386F0C5F095F0F908E49337
:10111300A386F0C5F095F0700BE493A3C399400543
:10112300E9048002A3E475F002A42582F582E5F0C8
:101133003583F583D0E0F9E493A3C0E0E493C0E002
:1011430022C0E0C3E49396087401939618400FE419
:101153009366700808740193661870007019A3A34E
:10116300C3E49396087401939618A3A3400DD0E0AB
:10117300D0E0D0E00210A8A3A3A3A3A3A3D0E022AE
:10118300C0E074F2120E1CC2D990164A1211B64076
:1011930005E0F912208B7F01020E7BC0E074F2128E
:1011A3000E1CC2DC90164C1211B64005E0F9122059
:1011B3008B80E3E0C39400A2D265D0332274048011
:1011C3000474028000CCC0E0EDC0E0E518C39CCC01
:1011D300AD1950011D10AF068C188D1980068C189F
:1011E3008D19D2AF121309D0E0FDD0E0FC227402B6
:1011F3008000CCC0E0EDC0E0E518C39CCCAD195035
:10120300011D10AF068C188D1980068C188D19D20C
:10121300AF1212C5D0E0FDD0E0FC221216AF60255C
:101223001216BE602012176D7003021764080808B7
:10123300E76670101819E766700A1819E7667004F4
:101243001819E76622F422C0E0C0F088F0E4936640
:1012530070080874019366187000A8F0A3A3700BBC
:10126300D0F0D0E0D0E0D0E00210A8A3A3D0F0D01B
:10127300E022D083D082CCC0E0E493A360061213B3
:10128300881470FAE493A360061214AD1470FAD0B4
:10129300E0FCE493A3C0E0E493C0E022C008C3E011
:1012A30096F50808A3E096420808A3E096420808CA
:1012B300A3E0964208A2D265D033E5087001D3D0EB
:1012C3000822CAC0E0E493A3C582CCC582C583CDFE
:1012D300C583F0A3C582CCC582C583CDC583DAE5BA
:1012E300D0E0CA22A2E792D65002F40430F7066394
:1012F300F0FF05F0B3400384800384F40430D60583
:1013030063F0FF05F022CAC0E0E0A3C582CCC5822A
:10131300C583CDC583F0A3C582CCC582C583CDC5A6
:1013230083DAE6D0E0CA22C0E0C0D0C082C08375B1
:10133300AF0090075CE02401F0A3E03400F0D08319
:10134300D082D0D0D0E03270090808082260161885
:101353001818C6C333C608C633C608C633C608C67C
:1013630033C6D5E0EA22C008C3E096F50808A3E037
:1013730096420808A3E096420808A3E09645087041
:1013830001D3D00822C0E0E493A3D39C5010E4938C
:10139300A3C39C400AD0E0D0E0D0E0021292A3A302
:1013A300A3D0E022C09FF59FE473D09F22D083D0C7
:1013B30082C09FE493C0E0740193C0E0740293F58C
:1013C3009F222518F58210AF08F518400C151980D7
:1013D30008F51840021519D2AF8519832200C0D031
:1013E300251810AF08F518500C05198008F518508A
:1013F300020519D2AFD0D0227404800A7403800688
:10140300740280027401C0E0F4041213C5D0E01228
:1014130016FA226017080808C6A2E713C618C613EF
:10142300C618C613C618C613C6D5E0E922BB010207
:10143300E722C082C08389828A83BB0003E08002E3
:10144300E493D083D08222C0E0C0D0E8C0E0A8A853
:10145300D2AFC2C7E8A2E792AFD0E0F8D0D0D0E0D5
:10146300326016080808C6C313C618C613C618C6C2
:1014730013C618C613C6D5E0EA22C3E0C696F6081B
:10148300A3E0C696F608A3E0C696F608A3E0C696C0
:10149300F6222518F8E43519F9222518FAE4351946
:1014A300FB222518FCE43519FD22C0E0E493A36C6C
:1014B3007009D0E0D0E0D0E0021292A3A3D0E022E2
:1014C300251810AF08F518400C15198008F51840B9
:1014D300021519D2AF22C3E09608A3E09608A3E051
:1014E3009608A3E096A2D265D03322E7667010086F
:1014F30009E766700A0809E76670040809E76622C7
:10150300E066701008A3E066700A08A3E066700442
:1015130008A3E06622181818E60846087009E626AC
:10152300087005E633F4220822C3E4939608740195
:1015330093960874029396087403939622191919C3
:10154300E70947097009E727097005E733F422091A
:1015530022C3E096F008A3E096F008A3E096F00813
:10156300A3E096F022C3E697F60809E697F6080982
:10157300E697F60809E697F622181818E4C396F6D4
:1015830008E496F608E496F608E496F622E026F6D2
:1015930008A3E036F608A3E036F608A3E036F62201
:1015A300E627F60809E637F60809E637F60809E6F6
:1015B30037F622E493F608740193F608740293F65F
:1015C30008740393F622E657F60809E657F6080966
:1015D300E657F60809E657F622E056F008A3E05668
:1015E300F008A3E056F008A3E056F022E647F60819
:1015F30009E647F60809E647F60809E647F62270C2
:101603000422600D18C6C333C608C633C6D5E0F43A
:101613001822E667F60809E667F60809E667F6089A
:1016230009E667F622E026F008A3E036F008A3E017
:1016330036F008A3E036F022E056F608A3E056F6AB
:1016430008A3E056F608A3E056F622E4C397F70989
:10165300E497F709E497F709E497F722600D08C6C2
:10166300A2E713C618C613C6D5E0F322C6F4C6080C
:10167300C6F4C608C6F4C608C6F4C622C3E0960874
:10168300A3E09608A3E09608A3E09622C3E7960892
:1016930009E7960809E7960809E7962275D00075C9
:1016A300813F75183175190300020F2AE6084608B1
:1016B300C3134608336002E633F422E7094709C33C
:1016C300134709336002E733F422600C08C6C313DF
:1016D300C618C613C6D5E0F422E6F008A3E6F00860
:1016E300A3E6F008A3E6F022E0F608A3E0F608A3D9
:1016F300E0F608A3E0F622CAC0E0E6F0A308DAFAAF
:10170300D0E0FA22E0FCA3E0FDA3E0FEA3E0FF2289
:10171300EAF0A3EBF0A3ECF0A3EDF022E0FAA3E0F0
:10172300FBA3E0FCA3E0FD22E8F0A3E9F0A3EAF0C9
:10173300A3EBF022ECF0A3EDF0A3EEF0A3EFF02285
:10174300E0F8A3E0F9A3E0FAA3E0FB22E5C754F82D
:101753004401F5C77901222518F582E43519F5838B
:1017630022E72719471947194722E626184618463C
:10177300184622C2AF75D69F020000221213B00F83
:10178300D4041213B0C5D4041213B0C4D504121375
:10179300B0F7D6041213B0F0AC061213B063AD0663
:1017A3001213B0E9AD061213B019BB061213B02A17
:1017B300BB061213B0C8BB061213B0D3BB06121379
:1017C300B0F97F001213B0E3FF051213B031BD0669
:1017D3001213B041BD061213B056BD061213B0BCAE
:1017E300BD061213B01CB8061213B09FB80612132D
:1017F300B005B9061213B0F8A4061213B033A50648
:101803001213B092A5061213B0EAA5061213B07F05
:10181300A6061213B0D2A6061213B0FCC00612130A
:10182300B00CC1061213B0C4C0061213B059A006FF
:101833001213B0A3A0061213B039A1061213B0BF3E
:10184300A1061213B0F0A1061213B008A2061213D8
:10185300B07CA2061213B092A2061213B0A5A20680
:101863001213B0AFA2061213B00AC2041213B0BB14
:10187300C6041213B0D2C7041213B0EEC704121376
:10188300B071C8041213B038CB041213B028ED049E
:101893001213B08BED041213B03BEE041213B00617
:1018A300EF041213B05BF0041213B03BF1041213F4
:1018B300B038F2041213B010F4041213B037F40466
:1018C3001213B0C3F4041213B01DF6041213B09331
:1018D300F6041213B0D1F6041213B0E3F604121394
:1018E300B04EF7041213B01CF9041213B058FA04E3
:1018F3001213B01DFC041213B0C7D1051213B0F3B9
:10190300D1051213B064D4051213B0A4D405121375
:10191300B0E4D4051213B0F8D4051213B011D505F1
:101923001213B002D6051213B0A7D6051213B0BB1B
:10193300D6051213B0A7B1061213B0CBB10612131A
:10194300B0E4B1061213B016B2061213B046B206D3
:101953001213B073B2061213B0D5B2061213B0E469
:10196300B2061213B0EEB2061213B0FBB206121394
:10197300B0C39D061213B0E39D061213B0229E0658
:101983001213B03D9E061213B05C9E061213B0C232
:101993009E061213B0CB9E061213B0289F06121395
:1019A300B04C9F061213B00DA0061213B01AA00676
:1019B3001213B02BA0061213B04DBE061213B0655E
:1019C300BE061213B091BE061213B096EA051213A7
:1019D300B0F2EB051213B000EC051213B013EC05D3
:1019E3001213B028EC051213B03DEC051213B050DE
:1019F300EC051213B0C4EC051213B029ED05121354
:101A0300B0CBED051213B08FEE051213B09FEE05A8
:101A13001213B0AEEE051213B098BC061213B0BC8D
:101A2300BC061213B0E4BC061213B00CBD061213AD
:101A3300B025A7061213B04CA7061213B06AA70667
:101A43001213B0DDA7061213B0F09A061213B009F1
:101A53009B061213B0159B061213B0299B06121393
:101A6300B0479B061213B0519B061213B05B9B0643
:101A73001213B06E9B061213B0F49B061213B069D7
:101A83009C061213B0989C061213B0E69C06121320
:101A9300B0359D061213B0509D061213B05A9D0621
:101AA3001213B06B9D061213B0AE9D061213B0ADA8
:101AB300BF061213B0A293051213B0CC93051213F1
:101AC300B0E993051213B0FC93051213B0129405F9
:101AD3001213B07094051213B0A894051213B09C9E
:101AE30098051213B0E199051213B0149A05121355
:101AF300B0779A051213B0E19B051213B0099C0548
:101B03001213B01E9C051213B02E9C051213B07253
:101B13009C051213B0CD9C051213B0DD9C05121366
:101B2300B0CBFE041213B0E5FE041213B00DFF0494
:101B33001213B026FF041213B04AFF041213B06845
:101B4300FF041213B07FFF041213B0ADFF0412138E
:101B5300B0C8FF041213B0F8BF061213B0178806FB
:101B63001213B02788061213B02E89061213B0621F
:101B730089061213B08489061213B0A789061213BB
:101B8300B0C589061213B0FF89061213B0648A0622
:101B93001213B0A68A061213B0E58A061213B01602
:101BA3008B061213B04D8B061213B090F70312136A
:101BB300B08CF8031213B0AAF8031213B0D1F803D0
:101BC3001213B096FA031213B0B5FA031213B06AE4
:101BD300FB031213B031FC031213B040FD031213C5
:101BE300B072FE031213B00080061213B0558006C4
:101BF3001213B0CF80061213B0E280061213B0099D
:101C030081061213B09C81061213B076820612135A
:101C1300B00D9D051213B0389D051213B0F79D0545
:101C23001213B0359E051213B0BB9E051213B055A7
:101C3300A2051213B068A4051213B0008003121397
:101C4300B03A80031213B03A82031213B0718403C3
:101C53001213B0F184031213B0F187031213B063AC
:101C630088031213B0FD88031213B01889031213EB
:101C7300B0C289031213B0FB89031213B0128A0393
:101C83001213B03E8A031213B0418A031213B09A9F
:101C93008A031213B0ED8A031213B0B28B0312132B
:101CA300B09B8C031213B0518F031213B06A9103CC
:101CB3001213B09D91031213B0FD91031213B04F91
:101CC30092031213B0D292031213B066930312134A
:101CD300B07295031213B01197031213B04B98030C
:101CE3001213B0E699031213B0329A031213B01E03
:101CF300BA061213B023BA061213B03DBA06121372
:101D0300B07FBA061213B0A8BA061213B0C2BA064D
:101D13001213B0DBBA061213B0FFBA061213B0786F
:101D23007B001213B0CC7B001213B09C7C00121307
:101D3300B0CE7C001213B0FB7C001213B04C7D00BC
:101D43001213B0767D001213B09A7D001213B0DA2D
:101D53007D001213B0647E001213B0957E0012133F
:101D6300B0BC7E001213B0027F001213B0207F00BC
:101D73001213B0447F001213B0647F001213B09AA1
:101D83007F001213B06FF9011213B0A9F9011213F6
:101D9300B0E4FA011213B0CFD6051213B083D705FE
:101DA3001213B0ECFE021213B05DFF021213B0BFA8
:101DB300FF021213B0D1BA051213B0E4BB0512131C
:101DC300B00ABD051213B04EBE051213B0A4BE0572
:101DD3001213B0E7BE051213B0F5BE051213B0AA75
:101DE300C0051213B00092061213B06292061213CA
:101DF300B04694061213B0C0DB051213B001DC0524
:101E03001213B037DC051213B05EDD051213B0FAFE
:101E1300DE051213B09ADF051213B0ACE0051213FE
:101E2300B0DEE3051213B05EE4051213B03FB00653
:101E33001213B07CB0061213B0B0B0061213B0C3C5
:101E4300B0061213B01498061213B0279906121392
:101E5300B0E999061213B0969A061213B0C19A0606
:101E63001213B005B3061213B017B3061213B02A38
:101E7300B4061213B02DB4061213B0ABB506121389
:101E8300B0E1B5061213B0FBB5061213B03DB606AA
:101E93001213B04DB6061213B0E7B6061213B08A8A
:101EA300AD051213B094AD051213B0CEAD051213E8
:101EB300B037AE051213B054AE051213B0F6AE052B
:101EC3001213B0FFAE051213B044AF051213B06D79
:101ED300AF051213B07AAF051213B0EBAF051213AF
:101EE300B076B0051213B0C4B0051213B002B10539
:101EF3001213B067B1051213B08AB1051213B00102
:101F0300B2051213B058B2051213B093B2051213EF
:101F1300B0C8B2051213B0DAB2051213B0ECB205B1
:101F23001213B00BB3051213B014B3051213B0CFD1
:101F3300B3051213B01BB4051213B059B405121331
:101F4300B05AB4061213B09AB5061213B0C2A20661
:101F53001213B0F8A2061213B040A3061213B099DD
:101F6300A4061213B0D2BE061213B0D1AF031213DC
:101F7300B0F5B0031213B02FB1031213B0D9B203EB
:101F83001213B003B3031213B078B5031213B0B82E
:101F9300B5031213B04EB7031213B0EBB70312130A
:101FA300B03DB8031213B0E0B8031213B018B9036D
:101FB3001213B05AB9031213B0C9BA031213B017EC
:101FC300BC031213B048BE031213B076BE03121340
:101FD300B09DBE031213B0A6BE031213B0F6BE0328
:101FE3001213B088BF031213B0B7C2031213B03A6F
:101FF300C3031213B0CDFF051213B01384061213DB
:10200300B02984061213B0CD84061213B00C8506D2
:102013001213B02985061213B05A85061213B0A7FE
:1020230085061213B0DA85061213B015860612134D
:10203300B00A88061213B0B5C0051213B0E0C2058A
:102043001213B012C4051213B02AC4051213B08BB5
:10205300E5051213B0C6E6051213B058E8051213CE
:10206300B063A6051213B01FA7051213B08FA805FE
:102073001213B0CDA9051213B06AAA051213B02A20
:10208300AB061213B0A0AB061213B0D2D6031213D1
:10209300B0A4D7031213B0EED7031213B0A3D8031F
:1020A3001213B002D9031213B0AFDA031213B01B29
:1020B300DB031213B097DC031213B0C3DC03121358
:1020C300B004DF031213B02DDF031213B092DF034A
:1020D3001213B0E4DF031213B035E1031213B08817
:1020E300E1031213B004E2031213B031CC0512134F
:1020F300B058CC051213B0ACCE051213B0BFCE0549
:102103001213B014CF051213B046D0051213B0C783
:10211300D0051213B01EB9061213B07DB9061213FF
:10212300B0BBB9061213B0FCB9061213B0929C04EB
:102133001213B0FB9C041213B0469D041213B0811A
:102143009D041213B0F69F041213B010A4041213CB
:10215300B030A6041213B03EA7041213B018A8049B
:102163001213B085B4051213B0B8B4051213B0F14D
:10217300B5051213B097B7051213B0B0B705121314
:10218300B053B8051213B0B6B8051213B0EDB905C4
:102193001213B0EBBB061213B035BC061213B0F129
:1021A300B6061213B000B7061213B041B7061213E6
:1021B300B00FC1061213B040B6041213B0ABB6048D
:1021C3001213B0A9B7041213B02EB9041213B0B48A
:1021D300B9041213B08DBA041213B06DBB041213F9
:1021E300B08CBC041213B0A5BD041213B04DC004CF
:1021F3001213B00080021213B00C80021213B06EDF
:1022030080021213B07880021213B00B81021213F2
:10221300B04781021213B00782021213B014820274
:102223001213B07782021213B00C83021213B0425E
:1022330083021213B0BF83021213B05F850212131D
:10224300B03387021213B01488021213B05E8902EE
:102253001213B0C08B021213B0258D021213B0BA41
:102263008D021213B0ED8E021213B0E18F0212131E
:10227300B01A91021213B0B095021213B09D9602D8
:102283001213B03597021213B05A97021213B08685
:1022930097021213B01E98021213B034980212134D
:1022A300B05698021213B0BC98021213B0DB980216
:1022B3001213B00499021213B0249A021213B0FA43
:1022C3009A021213B06F9C021213B0909C02121365
:1022D300B0119D021213B0B79D021213B0FF9D02FD
:1022E3001213B0709E021213B0FC9E021213B06060
:1022F3009F021213B0C09F021213B06FA0021213F9
:10230300B0DBA0021213B00EA1021213B08CA10213
:102313001213B0E8A2021213B058A3021213B0EAC8
:10232300A3021213B04DA5021213B0D4A5021213C7
:10233300B039A6021213B067A8021213B0F3A902B0
:102343001213B003AA021213B037AA021213B0A5D4
:10235300AA021213B0E0AA021213B042AB02121384
:10236300B0D7AB021213B0B2AD021213B07DAF02FD
:102373001213B087B0021213B084B4021213B05117
:10238300B5021213B069B6021213B013B8021213D6
:10239300B02BFC051213B09BFC051213B0A9FC056E
:1023A3001213B0B7FD051213B0B88E041213B06F39
:1023B3008F041213B07690041213B0F49004121326
:1023C300B03692041213B05792041213B00F930451
:1023D3001213B0BA93041213B09A97041213B0B63F
:1023E30099041213B07D8D051213B03EC00612136B
:1023F300B07AE5021213B0D2E5021213B058E60226
:102403001213B06AE7021213B0B7E7021213B09DBA
:10241300E8021213B0B4E8021213B006E902121371
:10242300B03EE9021213B051E9021213B0A7E90258
:102433001213B000EA021213B018EA021213B0AD7D
:10244300EC021213B044ED021213B06EED0212133C
:10245300B0A6ED021213B0CCEF021213B012F002C9
:102463001213B05CF0021213B030F1021213B07108
:10247300F1021213B094F1021213B0DBF102121342
:10248300B0BBD2041213B07CF2021213B000F302F9
:102493001213B05AF3021213B0A2F3021213B0AB29
:1024A300F4021213B06BF7021213B097F80212136F
:1024B300B0D4F8021213B09BF9021213B0DBF90285
:1024C3001213B0DEF9021213B0E8F9021213B0FBD3
:1024D300F9021213B080FA021213B0B6FA02121301
:1024E300B0E2FA021213B009FB021213B02DFB0281
:1024F3001213B0C4FB021213B0DDFB021213B010AF
:10250300FC021213B030FC021213B06DFC02121362
:10251300B0A4FC021213B0A3FD021213B0D6FE0244
:102523001213B0C6BD061213B0D2BD061213B018F3
:10253300BE061213B0E7EE051213B025EF05121312
:10254300B0B1EF051213B0BCF0051213B0D8F20509
:102553001213B087C3031213B0AAC3031213B081BB
:10256300C4031213B0CAC4031213B022C503121357
:10257300B07CC5031213B0C8C5031213B03EC60323
:102583001213B0CCC6031213B044C7031213B0879F
:10259300C7031213B055CB031213B09CCD03121310
:1025A300B0D6CD031213B060CE031213B0DFCE0347
:1025B3001213B0ACCF031213B0D8D0031213B0C3AD
:1025C300D1031213B097D2031213B01BD403121307
:1025D300B0B1D4031213B001E8031213B0A1E8039E
:1025E3001213B00BE9031213B0B2E9031213B016BE
:1025F300EA031213B049EB031213B06FEC03121387
:10260300B0E8EC031213B0C0EE031213B060EF0393
:102613001213B003F0031213B062F0031213B01DD0
:10262300F1031213B0E3F2031213B086F40312138F
:10263300B032F5031213B047F6031213B04B9B03EA
:102643001213B0C39B031213B00B9C031213B04FAE
:102653009C031213B0989C031213B0E29C03121351
:10266300B0179D031213B0959D031213B0EF9D0392
:102673001213B0489F031213B0D19F031213B02D4E
:10268300A0031213B047A0031213B06EA0031213DA
:10269300B0C6A0031213B030A2031213B04FA203AB
:1026A3001213B077A3031213B0F4A3031213B06190
:1026B300A4031213B0C3A4031213B073A50312131C
:1026C300B045A7031213B030A8031213B02AA9030D
:1026D3001213B030AA031213B04CAB031213B05A47
:1026E300AB031213B033AC031213B0D3AC03121306
:1026F300B017AD031213B02CAD031213B03DAE03EC
:102703001213B0E0AE031213B038AF031213B0A527
:102713008B061213B04D8D061213B00A8E061213D8
:10272300B05F8E061213B0DC8E061213B0F78E065E
:102733001213B03B8F061213B0618F061213B087CA
:102743008F061213B09F8F061213B0029006121356
:10275300B01790061213B03991061213B0429106C6
:102763001213B04B91061213B05491061213B05EBC
:1027730091061213B0DDF7051213B0BDFB0512135A
:10278300B0C2FB051213B0C4FB051213B0B7A90600
:102793001213B044BF061213B0CAFF011213B0B331
:1027A300AE061213B0D0FF031213B080D50112137B
:1027B300B0D7D5011213B043D6011213B0CFD6014F
:1027C3001213B085D7011213B0CDD7011213B0E69F
:1027D300D7011213B009D8011213B02BD801121369
:1027E300B069D8011213B0B8D8011213B0E3D801FD
:1027F3001213B041D9011213B0E8D9011213B090EA
:10280300DA011213B00CDB011213B0D9DB0112137E
:10281300B025DC011213B0ADDC011213B0E6DC010C
:102823001213B077DD011213B088DD011213B0FA71
:10283300DD011213B093DE011213B0FDDE0112139A
:10284300B0EDDF011213B012E0011213B00FE1017A
:102853001213B01CE1011213B025E1011213B00EE3
:10286300E3011213B02AE4011213B0BBE401121303
:10287300B02CE5011213B006E7011213B0D1EA013F
:102883001213B0E5EA011213B0F5EA011213B0FF17
:10289300EA011213B008EB011213B011EB0112138A
:1028A300B01BEB011213B04AEB011213B078EB012A
:1028B3001213B083EB011213B0A7EB011213B0CBC9
:1028C300EB011213B03DEC011213B086EC011213AD
:1028D300B0A2EC011213B013ED011213B05FED01BE
:1028E3001213B0A8ED011213B0E6ED011213B06795
:1028F300EE011213B032F0011213B0D1F001121332
:10290300B099F1011213B025F4011213B07AF40156
:102913001213B0A2F4011213B0D5F5011213B01AB9
:10292300F6011213B06FF6011213B01DF701121363
:10293300B0C2F7011213B0F7F7011213B097F80101
:102943001213B013F9011213B05784011213B08993
:1029530084011213B0BD84011213B07186011213E6
:10296300B04587011213B0A487011213B0BA8801CE
:102973001213B00689011213B0A38B011213B018FE
:102983008E011213B0648F011213B0FC8F01121366
:10299300B00890011213B05190011213B08490014A
:1029A3001213B01091011213B02292011213B063EB
:1029B30093011213B06294011213B08C9401121399
:1029C300B0F794011213B05095011213B0C39501DF
:1029D3001213B0F997011213B07F99011213B06A61
:1029E3009A011213B0B89B011213B0F09D01121398
:1029F300B0E7A0011213B0F6A0011213B08AA1012F
:102A03001213B035A2011213B078A2011213B0C190
:102A1300A2011213B011A3011213B07EA30112136A
:102A2300B0EAA3011213B006A4011213B035A40136
:102A33001213B074A4011213B05CA5011213B00BEE
:102A4300A6011213B082A8011213B0B4A901121384
:102A5300B083AA011213B005AB011213B051AF0139
:102A63001213B080AF011213B0DBAF011213B00E1B
:102A7300B0011213B069B0011213B085B001121383
:102A8300B0E6B0011213B036B1011213B0E5B101D3
:102A93001213B0A8B2011213B070B3011213B0BC79
:102AA300B5011213B048B7011213B09FB801121346
:102AB300B0BBB9011213B0BEB9011213B0EDB90125
:102AC3001213B0DCBB011213B0A5BC011213B0E6A4
:102AD300BC011213B03CBE011213B0B2BE011213FB
:102AE300B0E5BE011213B049BF011213B06AC101B0
:102AF3001213B0C9C1011213B09FC2011213B0B3B4
:102B0300C2011213B0C7C2011213B0F4C2011213EF
:102B1300B024C3011213B0C8C4011213B0C5C50158
:102B23001213B013C6011213B03AC6011213B01533
:102B3300C7011213B0BBC7011213B041C90112136D
:102B4300B088C9011213B0F5C9011213B04ACB0101
:102B53001213B0F3CB011213B027CC011213B03F01
:102B6300CC011213B0E2CC011213B05ECF011213E9
:102B7300B006D1011213B02AD1011213B048D1010A
:102B83001213B014D2011213B062D5011213B02E76
:102B93003A001213B0603A001213B0E03E00121371
:102BA300B02F3F001213B0753F001213B01840004E
:102BB3001213B07D40001213B0C140001213B028AD
:102BC30042001213B05443001213B05147001213C2
:102BD300B0D047001213B0F648001213B0594900A1
:102BE3001213B0A54A001213B03D4D001213B0CA20
:102BF3004D001213B0D44D001213B0FC4D0012134C
:102C0300B0C44E001213B0594F001213B0824F00DC
:102C13001213B0AF4F001213B00452001213B0D10D
:102C230052001213B01053001213B0925300121338
:102C3300B03D54001213B06F54001213B0BA5400D5
:102C43001213B0F354001213B04255001213B09E86
:102C530055001213B02056001213B08556001213FC
:102C6300B0FD56001213B0A658001213B09E5900BF
:102C73001213B0DF5A001213B0335E001213B08F79
:102C830060001213B04861001213B0906100121378
:102C9300B07163001213B0AC63001213B0B56300DC
:102CA3001213B0BE63001213B0C963001213B0E86D
:102CB30063001213B09B64001213B0F86400121384
:102CC300B00265001213B00C65001213B058650012
:102CD3001213B0A065001213B0A466001213B03D26
:102CE30067001213B00468001213B02E69001213A8
:102CF300B0596A001213B04F6B001213B0676B0028
:102D03001213B09B6B001213B0B96B001213B00116
:102D13006C001213B03A6C001213B0F16C00121372
:102D2300B0B26D001213B0256E001213B0A16E0085
:102D33001213B03D6F001213B06370001213B01F73
:102D430071001213B0BF71001213B0AC72001213F2
:102D5300B00473001213B0CA73001213B0ED730002
:102D63001213B00275001213B04D75001213B0A9FF
:102D730075001213B01176001213B03576001213DA
:102D8300B05D76001213B0A276001213B0C67600BF
:102D93001213B04A77001213B03378001213B078CD
:102DA30078001213B0A178001213B03F7900121308
:102DB300B0AA79001213B0D679001213B0B77A0013
:102DC3001213B0A8E2041213B0E0E2041213B0012C
:102DD300E3041213B043E3041213B0A7E304121382
:102DE300B0B1E3041213B0C1E3041213B0F8E30467
:102DF3001213B0A1E7041213B069E9041213B04D22
:102E0300EB041213B0EFEB041213B079EC041213BA
:102E1300B056BB021213B0BABB021213B018BC02F5
:102E23001213B063BC021213B07EBC021213B0A51E
:102E3300BC021213B0C2BC021213B0CEBC021213F6
:102E4300B05FBE021213B078BE021213B0F4BE021A
:102E53001213B007BF021213B017BF021213B0BB95
:102E6300BF021213B027C1021213B03AC2021213E7
:102E7300B0DAC2021213B0E4C2021213B063C30287
:102E83001213B074C3021213B0B3C3021213B0E12E
:102E9300C3021213B0AEC4021213B005C50212135B
:102EA300B03EC5021213B094C5021213B0B2C502EC
:102EB3001213B000C6021213B0CBC6021213B0191C
:102EC300C7021213B066C7021213B0E9C702121386
:102ED300B013C8021213B049C8021213B058C80283
:102EE3001213B0B7C8021213B02FC9021213B07075
:102EF300C9021213B0C0C9021213B0EBC9021213F4
:102F0300B005CA021213B01FCA021213B0F4CA02E8
:102F13001213B0FECA021213B039CB021213B04916
:102F2300CB021213B052CB021213B0A3CB02121373
:102F3300B0B7CB021213B0D9CC021213B0EECC024D
:102F43001213B081CD021213B0F5CD021213B09A51
:102F5300CE021213B0A5CE021213B005D002121383
:102F6300B021D0021213B06DD0021213B0DBD00225
:102F73001213B00DD1021213B027D1021213B0698C
:102F8300D1021213B0BCD3021213B054D4021213E1
:102F9300B0CBD4021213B028D7021213B040D70219
:102FA3001213B043D7021213B04FD7021213B063F8
:102FB300D7021213B06BD7021213B0A2D7021213A7
:102FC300B096D8021213B020D9021213B0A2D902BC
:102FD3001213B022DA021213B0F9DA021213B01B81
:102FE300DB021213B0B4DB021213B011DC021213B2
:102FF300B014DC021213B083DC021213B0CFDD0273
:103003001213B0E2DE021213B06DDF021213B080AE
:10301300E0021213B045E1021213B076E10212137B
:10302300B09CE1021213B0A5E1021213B0D4E10285
:103033001213B084E2021213B034E3021213B0A7E6
:10304300E3021213B04AE4021213B0BDE4021213F6
:10305300B0FCE4021213B045E5021213B0608C0514
:103063001213B0158C051213B07F8B051213B0F039
:1030730089051213B0ED8C041213B0728B04121372
:10308300B0708A041213B03188041213B0DB8704C2
:103093001213B01E86041213B09583041213B00FDB
:1030A30083041213B0D9CF041213B005CF04121343
:1030B300B0CB81041213B08780041213B005CE0481
:1030C3001213B026CD041213B00080041213B00102
:1030D30096061213B0D995061213B06C9506121307
:1030E300B00C95061213B067B5041213B08DB40477
:1030F3001213B0C3B3041213B032B2041213B0FBF1
:10310300B1041213B0CDB1041213B081B104121380
:10311300B0EAB0041213B05AB0041213B034B004BE
:103123001213B0E9AF041213B0B3AF041213B036E5
:10313300AF041213B0D1AE041213B080AE04121355
:10314300B0A8AD041213B018AD041213B0CCAC0484
:103153001213B047AC041213B002AC041213B0E65E
:10316300AB041213B0C6CB051213B08EAA0412130C
:10317300B027CB051213B065C7051213B08AC60575
:103183001213B09DC0061213B082C0061213B044CE
:1031930092051213B0E690051213B07D9005121339
:1031A300B060AA041213B02DAA041213B0B1A9047B
:1031B3001213B0B4F5051213B01490051213B0A591
:1031C300F4051213B0DFF3051213B066F3051213FF
:1031D300B05DE2041213B0F48E051213B004E204DE
:1031E3001213B0FBF1021213B0CFE1041213B09A21
:1031F300E1041213B066E1041213B0F9E0041213F0
:10320300B0E1E0041213B0BCE0041213B095DD0486
:103213001213B068DB041213B06FD9041213B0FB9E
:10322300D8041213B0ACD8041213B066D804121326
:10323300B008D8041213B02386051213B0368E05D6
:103243001213B09F85051213B0B484051213B03C5A
:1032530083051213B0EC80051213B000800512131E
:10326300B01D9B0400000080FBE4730000000020FD
:103273000153840000010020015384000002002058
:10328300015684000003002001548400000400421E
:10329300016D800000050042017E800000060042AF
:1032A30001A080000007002001AB80000000404225
:1032B30001A0800000100042018F80000011002057
:1032C30001F2070000120010032B16060000001085
:1032D30011000008000000203300000C00550039E5
:1032E3003300000C001C0042330000120055002084
:1032F30001000014000E0042220000050B00002113
:10330300010000050B010021010000050B00012352
:10331300010000050B010123010000050B0201233D
:10332300010000050B030123010000050B0401212B
:10333300010000050B050121010000050B06012119
:10334300010000050B070121010000050B08012105
:10335300010000050B090121010000050B0A0121F1
:10336300010000050B0B0121010000050B0C0121DD
:10337300010000050B0D0121010000050B0E0121C9
:10338300010000050B0F0121010000050B100121B5
:10339300010000050B110121010000050B120121A1
:1033A300010000050B130121010000050B1401218D
:1033B300010000050B150121010000050B16012179
:1033C300010000050B170121010000050B18012165
:1033D300010000050B190121010000050B1A012151
:1033E300010000050B1B0121010000050B1C01203E
:1033F300010000050B1D01280100008F0001002EB4
:1034030014870001009B1635000400601625000296
:1034130000641626000200661627000200681628BC
:103423000001007216290001007316840004007461
:10343300168600010078162A00010079162B000178
:10344300007A162C0001007E162D00080011142EA0
:103453000001007F162F000100801630000100815B
:1034630016310001008216320001001914330001E5
:10347300001A14340001008316360001001B1438AF
:103483000001008416390001007D168300020099B3
:1034930016630001002B14640001007B1665000114
:1034A300007C166D0001002C1471000800091466DD
:1034B3000001009816430001008916440002008AA7
:1034C30016450001008C16460002008D16470008C1
:1034D300002314480001008F164B000100901604CE
:1034E3000001009C16A10001009F16370001009EF9
:1034F30016880001009D163C0001001C143D0001CC
:10350300008516490002009116670001002D144D35
:1035130000020093164E00010095164F000200961C
:10352300163E0001002214510001008616520001CC
:10353300008716530001008816540001001D140073
:103543000000000000000136360101000102010005
:103553000103010001040106060502000007010042
:10356300340801000F090401010D0100FF0E0800DA
:103573000017020000190100FF1A0100011B0100DE
:10358300FE1C0100081D0200001F010001200100B4
:1035930001210200002301000F2402000026010084
:1035A3000127010008280200FF2A0100072B01025E
:1035B300402C0100002D0100012E0100012F01000C
:1035C300FF30010B1D310800003A0100083B0100E8
:1035D3000F3C0100013D0100FF3E040000420400D6
:1035E30000460400004A0400004E04000052040098
:1035F30000560400005A04000000002101000100ED
:103603002102000001236600010123670002012358
:10361300680003012369000401216A000501216B8D
:10362300000601212C010701212D010801212E0192
:103633000901212F010A012130010B012131010C64
:103643000121C8000D0121C9000E0121CA000F018B
:1036530021CB00100121CC00110121CD0012012149
:10366300CE0013012132011401213301150121CFB1
:10367300001601213401170121D000180121D100C6
:10368300190121D2001A0121D3000103710301039F
:1036930001030103010301032203020301031003D6
:1036A30000030003000300030003000300034203BD
:1036B300000324030603000300030403120325038A
:1036C300230325032303040304030003000300036C
:1036D30044030003000323030003650321003503B0
:1036E3008103000305030003000300030003250314
:1036F300230303027102300160021102700201020E
:10370300020202028002100261023A0041006302D7
:1037130073027202620243020002130238000002C3
:10372300000204021202000200020002000204026C
:103733000402370037003C02440200023900000251
:1037430000026502000235028102000205028202C4
:103753008302000203007100300160001100700059
:1037630031022003500480001000610000001400A7
:103773006300730072006200430000001300060040
:103783000000000004001200000000000000000020
:1037930004000400370037003C024400000000002E
:1037A30000000000650000003500810000000500F6
:1037B30000008300000001017101010101011101F9
:1037C30001013101010101018001100161013B008F
:1037D30014006301730172016201430100011301CB
:1037E30006013D0135000401120100010001000141
:1037F300000104010401330133013C01440132019E
:10380300360000010001650100013500810100015E
:10381300050182018301000136000100060000005A
:103823000F0000000000000000000000000003FF84
:10383300FF00000403FFFF0000FFFF0FF40100057A
:10384300C4040320000100000B000000000000007E
:103853000003010F00000000000000000000000052
:103863000000000000000000000000000000000055
:10387300000000000000072361230D2311221323FE
:1038830067231323732319231122132367231F236E
:103893001122252311222B23112231231122372315
:1038A30011223D23112243237923492311220000AE
:1038B300000000000000000000004F238B2355236D
:1038C30011224F238B2355231122432379235B2377
:1038D30011220A000000020000000400000008009A
:1038E30000001000000020000000400000008000E5
:1038F30000000001000000020000000400000008B6
:103903000000001000000020000000400000010043
:10391300EF25020071250300772504007D250500AE
:10392300832506008F253000A7253300B3253400F7
:10393300B9251100BF251400C5251500A125FFFFDA
:10394300000007ECFDFDFDECDCDCCCBCACAC9C9CCE
:103953008C7C7C6C6C5C5C5C4C4C3C3C2C2C1C1C54
:1039630003EAF5E5D5D5C5B5A59595858575756541
:103973006555554545353525251515050A012C028F
:10398300D12B05E32B07D72B0CB92B0DC52BFF0030
:103993000000160F00000B150B020002220F33006C
:1039A300000E01030507090B0D0F00020406080AA8
:1039B3000C0D5A6967426565416C6C69616E63659C
:1039C300303900393D3F373C3C362C442D00034A07
:1039D30049434E181A250502000119161816161820
:1039E300230300303017181921301B1D1F300C0E14
:1039F300020B040B0A0708000F3030161819202396
:103A03001A1C1E30020402010101010902E803002D
:103A13000000BE040AE8030E001E10040903040A92
:103A23000C040408280C050832031E74F7120DB0A9
:103A3300E99014F9F09014AEE4F0121E63901502AD
:103A4300E4F0A3F09014FAF0A3F0122D63121E69B0
:103A530090143EE4F0A3F012275702559974EC1228
:103A63000DB074D71214C3EAFEEBFF548060689064
:103A730014F9E0F9121EDB8A088B09EA4509604F45
:103A83007C0080010CEC75F003A4F8A9F0747F2886
:103A9300F582743939F583E493F4602CE493F88563
:103AA30008828B83E06870DCAA08EC75F003A4F845
:103AB300748028F582743939F583E493C0E0740186
:103AC30093F583D08212326CAA08AB09121EC9EE99
:103AD300FAEF6480023EC2EF5420601E122C5B8A10
:103AE300088B09EA4509600A122BC5AA08AB09121B
:103AF3001EC9EEFAEF6420023EC2EEA2E0501F9010
:103B030014B3E0640F70117900122B9BE9600990E4
:103B1300166012171F122BB3EE6401023E97EF5487
:103B230040604F901650E064067028740BF09016B6
:103B330078E0F9750801750900750A00750B0090A6
:103B430014A1E0780812134AAA08AB09AC0AAD0B1A
:103B530012284790141E1211C07A007B409014F96A
:103B6300E0F912201974041213E0EEFAEF64400234
:103B73003EC2EE54207003023E9B7A207B009014D9
:103B8300F9E0F9122025EA4B4C4D701A9014FE12FD
:103B93001743E8494A4B700E750C01750D00750EFD
:103BA30000750F008061750C00750D00750E0075B2
:103BB3000F001220318A088B098C0A8D0B9014FE9A
:103BC300121743E8494A4B602A9014FE78081213EF
:103BD30069400E750CFF750DFF750EFF750FFF80A5
:103BE3001285080C85090D8C0E8D0F9014FE780C30
:103BF30012147D7401780C121464E50C450D450E06
:103C0300450F7003023DC87C0079047A007B0012E3
:103C13002C378A088B09023CEF8518828519837437
:103C2300FFF0740112175A74FFF0740212175A74DA
:103C3300FF124A88FAA3E0FB74031214A5126B3433
:103C43001263A5122C79E964016003023CD1E508F3
:103C53001259911251D84480F8A3E0F97424121731
:103C63005AE8F0A3E9126310A3A3A3E0C0E074260B
:103C730012175AD0E0126926A3E054086016742480
:103C830012175AA3E04401123EDAC0E07428121757
:103C93005AD0E0F012771F3509126C326018127790
:103CA3001F1262C6A3E0C8127A36E0F87412121724
:103CB3005AE8F0A3E4F090838B1211C07404121439
:103CC300A5740712149D12287774041213E0850853
:103CD30082850983A3A3A3A3A3A3A3A3A374061207
:103CE3003EDAF9122C19850A08850B09E5084509FE
:103CF3007003023DC87C007904AA08AB09122C3773
:103D03008A0A8B0B850882850983A3A3A3A3E0F505
:103D130010A3E0F511E4F512F513780C79101216DF
:103D23008F4029E5082404F8E43509F9850C10854A
:103D33000D1188828983C3E09510F0A3E0951112D9
:103D43004223F8A3E0F9E849709C800E8508828538
:103D53000983A3A3A3A3E4F0A3F0850882850983C1
:103D6300A3A3A3A3A3A3A3A3A3A3E064018508829E
:103D7300850983A3A3A3A3A3A3702BE05404600327
:103D8300023C1C850882850983A3A3A3A3A3A3A341
:103D9300A3A37406F07AB785088285098312400FBE
:103DA300122BAD023CE9A3A3A3A3E06003023C1CD6
:103DB300850882850983A3A3A3A3A3A3A3A3A374B1
:103DC30001F0023CE9122C077C0079017A007B00A8
:103DD300122C378B09EA4509600C7A207B0090147A
:103DE300F9E0F9121F05850C0A850D0B7C00790497
:103DF3007A007B00122C37EA4B701580538A828B32
:103E030083A3A3A3A31274CAE50898E509994007FD
:103E13008A828B831256047C007904122C378B0D13
:103E2300A90DEA4970D7C3E50A9508E50B95095032
:103E330013C3E508950AF508E509950BF509E508A7
:103E4300450970167A207B009014F9E0F9121F05DA
:103E53009014FE123ED3A3F08037E50825E0F50861
:103E6300E50933F509E4F50AF50B78081213FB7A33
:103E7300207B009014F9E0F912201374041213E06C
:103E8300122031EAF8EBF9ECFAEDFB9014FE12176D
:103E93002BEE6420FAEF8027EF5402600A122D5DA7
:103EA300EEFAEF64028018EF540460161267E779A4
:103EB300019014AC1263A7122889EEFAEF6404FB95
:103EC30080047A007B0074291213E07F0C0210B87F
:103ED300E4F0A3F0A3F022126314A3E022C082C093
:103EE3008374EA1214C37C167D007900AA18AB19F7
:103EF300121EB1740812175A7402F09014A2126BB6
:103F030045123F23740912175A126A537413121776
:103F13005AE412673712274B74161213E0026387B1
:103F2300E8F0A3E9F09014AC125E242274F7120DAA
:103F3300B074DA1214C3EAFEEBFFEE4F602DAC1837
:103F4300AD19122C79740612175AE0601E741712F9
:103F5300175AE0FD740112175AE0FCEEFAEFFB79F1
:103F630000122B71E9600479A4800279007426029F
:103F7300559674F7120DB0EAFEEBFF8E828F83A382
:103F8300A3A3A3A3A3E05440601712748E1263A7E4
:103F9300122D09E960067AFF7BFF801512748E806B
:103FA300039014A21263A774FE6A700374FF6B601C
:103FB3004712748E12705D122D09E98E828F836011
:103FC3000E125ACD12599138F583E4F0A3800312EF
:103FD3007A61F07CA17D2B8E828F831263A71227D7
:103FE30051E9F5087015EE4F60097901EEFAEFFB20
:103FF300122C13A9080255997508CDAA0812400B73
:10400300122BADE960E080EB8E828F83125AD112BE
:104013007A19E0F92274F6120DB0E9FEEAFF7A0F7D
:104023007B00121EC3EA4B601F8A828B83740CF0E1
:10403300EEA3A3F0EF8A828B831253769014F9E0F8
:10404300F9121ECF7900802FEEF9122C3D8A088BCE
:1040530009A808A909E849601C88828983A3A3A346
:10406300A3A3A3A3A3A37406127727E0F912291924
:10407300EEF9122C1979100266F574F4120DB08A58
:10408300088B098C0A8D0B9014B3E0640F702CEA33
:104093004509450A450B60239014AEE064086005AA
:1040A300E06404701678081213FB7A017B00901405
:1040B300F9E0F912201374041213E002434F74F46D
:1040C300120DB074FC1214C3EAFEEBFF8E828F83D1
:1040D300A3A3E0F9122C3D8A088B09EA4509700372
:1040E3000241FE8E828F83A3A882A983E0C0E0EA07
:1040F300240B1262C3D0E012422364F160288E8243
:104103008F83A3E064CD601E8E828F83A3E0641A45
:1041130060148E828F83A3E064E9600A8E828F83AA
:10412300A3E064E170367900122C13E9602EE508F0
:104133002404F50AE43509F50B8508828509831201
:10414300420FA3E0F9850A82850B831263A7121E2F
:1041530075850A82850B8312705D806E8E828F83D4
:10416300A3E0C0E0740212175AD0E0124D31127A64
:10417300A3124D23C0E0740312175AD0E0F0E508F0
:10418300240C1251D5AA18AB19700512287180039B
:10419300122CF1740212175AE064E9702D8508821B
:1041A300850983124A9D750A01780A121407750A54
:1041B300E9780A1214071251CB124D131255D81273
:1041C30063A7122CAF74021213E08508828509835A
:1041D300A3A3A3A3A3A3A3A3A3E0640270128508CC
:1041E30082850983A3A3A3A3A3A3A3A3A37406F014
:1041F3008E828F83A3A3E0F9122C19122C07901639
:104203006612473F122BB3740402434CA3A3A3A328
:10421300A3A312421922E0FCA3E0FD8E828F832226
:10422300127737E02274F4120DB0EAFEEBFF750843
:10423300008E828F83A3A3A3A3A3E060487508081D
:104243008E828F83A3A3A3A3A3A3A3A3A31263A772
:1042530079FF122A038B0BEA450B601075082C8E2D
:10426300828F83A3A3A3A3A3E0D2E0F08E828F83E4
:10427300A3A3A3A3A3E0540364016003024348433D
:104283000811024348EE241812588D6038EE241AA0
:1042930012588D6003F470131273B47003A3E069B2
:1042A3006003024348750822024348EE241B12723E
:1042B3009CEE241A12588DFAEE241912588DF91215
:1042C30029070243488E828F83A3A3A3A3A3A3A397
:1042D300A3A31263A7122D09E964027003750801F1
:1042E3001273B47003A3E0697006E508D2E1F50820
:1042F300E50860158E828F83A3A3E07006E508D2DC
:10430300E58004E508D2E6F5088E828F83A3A3A394
:10431300A3A3A3A3A3A31263A7122D09E9640170A6
:1043230006E508D2E0F5088E828F83A3A3E060152B
:10433300EE241D1256EBF9122CF7E964016006E531
:1043430008C2E0F508A90880031213E07F040210F5
:10435300B874F0120DB074D71214C3EAFEEBFF8EDB
:10436300828F83A3A3A3A3E06011901664126C341D
:10437300600990166412473F122BB374031214A5FD
:104383008E828F83A3A3A3A3124D041263A7122CBF
:1043930079E970030244ED7801740512175AE0C3FA
:1043A300940240027800740712175AE0C394024043
:1043B300027800740C12175AE064F87003A3E0F457
:1043C30070030244ED740C12175AE064F97003A3EE
:1043D300E0F470030244ED740C12175AE064FA70AF
:1043E30003A3E0F470030244ED740C12175AE06463
:1043F300FB7003A3E0F470030244ED740612175A32
:10440300E0F990149CE06960030244EDE8A2E04007
:10441300030244ED742712175AE060030244EDEEE1
:104423002413125E1A742212175A12690E241C12D4
:104433005E1A741012175A126A53740912175AE04B
:10444300601F741A12175AE0FD740412175AE0FC25
:104453008E828F83A3A31263A77901122B71E97054
:104463003D740312149D122BBFE9F508740912174A
:104473005AE0702E901496E0602874225508642246
:1044830060207442550864427014742012175A1243
:10449300474B600E742012175A12472860047ACFD4
:1044A300804AE9A2E6504D742012175A1256F1249D
:1044B300FD600F14600C24FD600824FD600424FEDD
:1044C3007028742012175A124721700E7420121785
:1044D3005A12669FA3E0640D601A740312149D12AE
:1044E3002D21E96401700D0247147AD37B00122554
:1044F30041024714EE242DF582E43FF583124A7BF3
:104503007003A3E069702275090078091214077813
:1045130009121407EE242F12588DF912472F126334
:10452300A1122CAF74021213E0740912175AE0702F
:10453300030245D012472F1263A1122D878A0A8BDB
:104543000BEA450B700302466D740412175AE0F828
:104553008E828F83A3A3E028F8A3E03400F9E82434
:104563000D124719F88A828B83A3A3A3E068600E18
:10457300E88A828B83A3A3A312536F123ED47904D8
:10458300E912175A124CFBE02AF8A3E034008882A0
:10459300F583A3AA82AB83121EB78A0C8B0D8C0EF4
:1045A3008D0F850A82850B83A3A3A3A3780C121313
:1045B3006940030247149083EB780C121590850A27
:1045C30082850B83A3A3A3A3780C1216DC9014AEED
:1045D300E064046008E064096003024714E508A28C
:1045E300E540030246A7EE242F12588D85188285D5
:1045F3001983F0EE243012588DC0E0740112175A5B
:10460300D0E0F0EE243112588DC0E0740212175A34
:10461300D0E0F0741412175AE06401702C740E1277
:10462300175A1251E5241312588D687003A3E069D9
:104633007017740C12175A1263A7122D09E964023A
:104643007007741412175AE4F0EE2425F582E43F40
:10465300F5831211C074041214A5740712149D1269
:10466300287774041213E00247149014F3E06401F2
:1046730060030245D0742012175A12474B7009E5A4
:1046830008A2E650030245D0741012175AE0F470E2
:1046930003A3E0F4607BEEFCEFFD740312149D12A0
:1046A3002BCB806DA2E65069742012175A126B1B34
:1046B3007016741A12175AE06402705574031214B8
:1046C3009D7900122CEB8049742012175A12472847
:1046D3007014741A12175AE06404703574031214B8
:1046E3009D122CDF802B742012175A124721700C55
:1046F3007900740312149D122D2D80157420121746
:104703005A12669FE0640C7008740312149D122DF4
:104713004574290251FCF582E439F583E0221274D1
:1047230098E0640322127498E0640722EE242BF5C8
:1047330082E43FF5831272A6EE241322E0F508A368
:10474300E0AA08FBE4FCFD221255F464062274F48B
:10475300120DB0EAFEEBFF8C088D09901419E0608E
:104763000F1273B47003A3E06970051228F5805A21
:1047730079008E828F83A3A3A3A3A3A3A3A3A312CE
:1047830063A71229258A828B83E58245836033A33D
:10479300A3A3A3A3A3E054186028E508241C126272
:1047A300C31211C4E50824131262C31211C4EE2408
:1047B3001812588DF912638E12293774041213E0FC
:1047C3008008790012638E1228FB02434F74F7129C
:1047D3000DB074F71214C3EAFEEBFF9014AEE0645D
:1047E30003600DE064016008E0640960030248E8C7
:1047F3008E828F83A3E060030248AE7C007D007A43
:10480300027B00121E6F1274D48A828B83125E2085
:1048130090149F126A5379531227399014AEE064AF
:104823000960099014AC1263A7122D818518828543
:104833001983740112673779421227399014AE74C1
:1048430004F0740112149D794A122733740112146F
:10485300A57AA47B14122127901650E0640B7005EF
:104863007406F0800B79009014AC1263A7122889A8
:1048730090149F1272A27A037B00121E6F9014A2EF
:104883001272A27A047B00121E6F901499E0A2E3C5
:104893005004D2F08002C2F012672D7952122739E8
:1048A30090166012171F122BB38037FC7D007A031A
:1048B3007B10121E6F901650E0640B7003740AF0A5
:1048C300901686E4F0FA7B409014F9E0F912201F69
:1048D3008E828F831248EF1263A71228899014AE39
:1048E300E4F0122BF57409025596E0F8A3E0F99071
:1048F30014AC22C082C08390143E126C34701F909B
:1049030014AEE014600924FC600A14600C800F905C
:1049130014488034901444802F901446802AE84928
:10492300600890143F124D0D700C8A828B83A3E0B4
:10493300F912287D801D90143E126B2164027005CC
:10494300122D51800E90151D126C3460061266A054
:1049530012326C02638774F4120DB074FE1214C326
:104963008A088B097A007B049014F9E0F912201F5E
:10497300AA18AB1979501227337A0F7B00121EC382
:104983008A0A8B0BAE0AAF0BEE4F60208508828537
:104993000983A3E070169014ACE0F47003A3E0F471
:1049A300603B124A757003A3E06960318508828514
:1049B3000983A374EA124D291227397AA27B147949
:1049C3004B1227397AAC7B1479501227397AA17BA1
:1049D3001479E1122739EE4F7003024A698E828FF0
:1049E300837402F09014ACE0F47003A3E0F4600A63
:1049F300124A757003A3E069704F85188285198385
:104A03001248EDE8F0A3E9124D2912273390149FC1
:104A13001251EA126A537AA27B14794B1227337A22
:104A2300A17B1479E1122733750A00780A1214075F
:104A3300780A1214079016461248F0124F4A12636E
:104A4300A7122CAF74021213E08508828509831222
:104A53004A6EA3F09014AE7403F0EEFAEFFB9014D9
:104A6300F9E0F9121ECF740202434CA3E08E828F49
:104A73008322851882851983125E249014ACE06822
:104A830022E8F0A3E9124A8C22F085088285098383
:104A9300E022F582E43BF583E022125E24E8FAE9A2
:104AA300FB2274F5120DB074D11214C38A088B095A
:104AB3008A828B831256E3741C1214A58A828B8319
:104AC300A3A3A3A3A3A3A3A3124D131263A7122B00
:104AD300FB741C12175AE0702C850882850983A386
:104AE300A3A3A3A3A3A3A3E0C3940B40188E828F15
:104AF30083A3A3A3A3A3A3A3A3E064027007126ADF
:104B03003FE0F46003024CF69014AEE064027003DD
:104B1300024BDDE064067003024BDD90143E126C21
:104B2300346008124D0D7003024C0D9014AEE06416
:104B3300086008E064046003024CF6741E12175AFE
:104B4300124CFBA3A3A3A31256E390143EE0F8492F
:104B53006007126B27640260779014ACE06E7003F9
:104B6300A3E06F6003024CF674016A6016742312AB
:104B7300175AAC82AD837AC07B14122121E96003FA
:104B8300024CF67A007B029014F9E0F9122025EA30
:104B93004B4C4D6003024CF69014AF12174385182B
:104BA3008285198312172B9014B5E0C0E0740412A8
:104BB300175AD0E0F0740512175A7401F0740612F4
:104BC300175A740212673712283BE96003024CF349
:104BD300EEFAEFFB122D4B024CF690143E126C349E
:104BE300702875080078081214077808121407EE65
:104BF3002410F582E43FF583124D04A312420F12F1
:104C030063A7122CAF74021213E08E828F83125E9D
:104C130020740712175AE8F0A3E91251F0125E202C
:104C2300740912175A12690E125DB9C0E0740B129F
:104C3300175AD0E0124D23F508A3E0F509740F7855
:104C4300081216CD740C12175AE508F074201217C7
:104C53005AE0C0E0740D12175AD0E0F07422121714
:104C63005AE0C0E0740E12175AD0E0F0741D121708
:104C73005AE0C0E0741012175AD0E0F0741E1217F5
:104C83005AE0C0E0740F12175AD0E0F0EE2410126D
:104C9300588DC0E0741112175AD0E0F07421121726
:104CA3005AE0C0E0741212175AD0E0F0742E1217B3
:104CB3005AE0C0E0741312175AD0E0F074231217AD
:104CC3005AA982AA8389088A09750A0078081213E7
:104CD300FF7C087D00741712175AAA82AB83121E39
:104CE300A574031213E0740712149D122883800322
:104CF300122841742F0256F5E0FA8E828F83A3A304
:104D030022E0F98E828F83A3A322126B28640122EF
:104D1300E0F98A828B83A3A3A3A3A3A3A3A3A322C0
:104D2300F0126A43E022F07A9F7B14795322124DEA
:104D33003522F08518828519832274F2120DB0741E
:104D4300F81214C3EAFEEBFF8C0A8D0B890D9082D7
:104D53006DAC18AD197408121309750C00EEFCEF55
:104D6300FDAA18AB19122121E97003750C019014E7
:104D7300FA801AEEFCEFFDE508240BFAE43509FB93
:104D8300122121E97023E50824141262C3124DC2D3
:104D93006024E50CA2E040DB850882850983E06599
:104DA3000A7004A3E0650B70DD850882850983A37F
:104DB300A3E0650D70D0AA08AB09740802538A12E8
:104DC300560CE508450922C082C0839014FA026399
:104DD3008474F7120DB09014FA127745800C126E9A
:104DE300921256E6121F5FEEFAEFFBEA4B70EF905A
:104DF30014FAE4F0A3F002559974F1120DB0EAFE2F
:104E0300EBFF890A8C088D098E828F83E08C828D5B
:104E130083125DE8AE82AF83E012612D126334C466
:104E230012612D124EBBE0126134126332A2E2E42E
:104E3300338C828D83126331131313541F12612D2C
:104E4300126330A2E7E4338C828D83A3A3A3A3125E
:104E53004EBB8E0C8F0D750E00780C1213FF7C0861
:104E63007D00E5082407FAE43509FB121EA5740347
:104E73001213E0EE2408FE50010F8E0C8F0D780CF8
:104E83001213FF7C037D00E508240FFAE43509FBC8
:104E9300121EA574031213E0E50AC3940F40118E8A
:104EA300828F83A3A3A3E0C0E01262BFD0E080049B
:104EB3001262BFE4F00274CFA3A3125DEC0EAF83C2
:104EC3002274F5120DB08A088B098A828B83A3AEF4
:104ED30082AF83E0F91228A18E828F83E064EB60B6
:104EE30024850882850983A3E064E160188508822C
:104EF300850983A3E064F1600C850882850983A397
:104F0300E0641A7009850882850983A3E4F090168A
:104F13006012171F122BB3750A01780A1214078542
:104F23000882850983A3E0F508780812140779003D
:104F33009014AC124F4A1263A7122CAF74021213CF
:104F4300E0122C070256F81272A69014A222EAF07D
:104F5300A3EBF002638774F6120DB09014FDE070BA
:104F63001B7C0079017A007B00122C37EA4B600C22
:104F73008A828B83126C346003122BA70266F5C0FE
:104F830082C0837904122C31E9F8903A29E493C35F
:104F930098401079FF122C31E9F8903A28E493C332
:104FA30098500479018002790002638774F0120D2E
:104FB300B08A088B09890B750C008A828B83A3A3A3
:104FC300A3A3A3A3A3A3E0F9122C3D8A0E8B0FAED8
:104FD3000EAF0F750A01EE4F60030250A9850882D8
:104FE300850983A3A3A3A3A3A31272A28508828521
:104FF3000983A3A3A3A3A3A3A3A3E0F9850882859D
:1050030009831263A7122C258A0C8B0DAE0CAF0DEE
:10501300EE4F70030251C48E828F83A3A3A3A3E434
:10502300F0A3F0E508240CFAE43509FB8A828B83AC
:10503300E0C0E01251CBD0E0F0E508240D1251DEC0
:10504300240D126A4D122D0FEE240F127057E5082E
:1050530024111251DE2411126A4DE5082413125152
:10506300D5C0E01268F7D0E0F0750C01EE2406120B
:105073005DAD547FF0A3E054FC124223540460035B
:1050830002511E901672E0F508750900740778083E
:105093001216028E828F83A3A3A3A3A3A3E04508C2
:1050A300F0A3E04509F08E828F83A3A31256047404
:1050B3000778081216CDE5085407FCE50B606C8EE3
:1050C300828F83A3A3A3A3A3A3A3A3A374021263A3
:1050D300351254AF600B90149A1251EAA3A3126ACB
:1050E30053EC7003025192EE2406127A22547FF598
:1050F30008A3E054FCF509EC24FFF50EE434FFF5B6
:105103000F7407780E121602E508450EF8E50945F7
:105113000FF98A828B83126A5380748E828F83A3E2
:10512300A3A3A3A3A3E044800250A8EC7005750ACF
:1051330000805C8E828F83A3A3A3A3A3A3E0542048
:10514300600C121EBDEA547F7900245F80198E82A1
:105153008F83A3A3A3A3A3A3E05410601A121EBDBD
:10516300EA540F7900240A5001098E828F83A3A386
:10517300A3A3F0A3E9800D8E828F83A3A3A3A374BB
:1051830001F0A3E41251F07404125432121F05E526
:105193000CA2E0502F8E828F83A3A3A3A3126E18B9
:1051A300E0F9EEFAEFFB122C2BE96018126C2B607E
:1051B30009EE240F1263A1121F5FEEFAEFFB121F19
:1051C3005F750A00A90A8034EE240CF582E43FF5EA
:1051D3008322F582E43509F583E022F582E435097B
:1051E300F583125E24EE221274F8A3A3221251F463
:1051F30022126070A3A3A3A3221213E07F0802105C
:10520300B874F4120DB074F71214C37E00122C3D5F
:10521300EA4B70030252CA8A828B83A3A3A3A3A37C
:10522300A3A3A3A3E0640660030252CA8A828B830A
:10523300A3A3A3A3A3A3A3E0FF8A828B83127A462B
:10524300E0C0E0740812175AD0E01255EBF8A3E05F
:10525300F9851882851983126A53122C4FEF54086B
:1052630060638518828519831272A27A007B00120B
:105273002C1F8B0BEA450B704C127A951227637C1B
:10528300007D007A007B0080288E828F831256F186
:10529300F47003A3E0F4602D9014AC124215126372
:1052A300A712275DE9641A601C7C007D00EEFAEF0B
:1052B300FB122C1F8A0A8B0BAE0AAF0BEE4F70C981
:1052C30079001227697E01EEF9740902434CC0820A
:1052D300C083EA4B700590150280068A828B83A3F4
:1052E300A31254E760208A828B83A3A3A3A3A3A35F
:1052F300A3E0540860E5EC4D60101254EE7003A374
:10530300E06D70D780047A007B0002638774F21229
:105313000DB0EAFEEBFF890A8C088D097A147B0035
:10532300121F59EA4B603A8A828B83A3A3A3A3A3D8
:10533300A3A3A3A3E41255E0A3E50A12749FA31247
:105343007AA112536F1255FE1253768A828B8312FF
:1053530074BCEA1277213BF583E4F0125366F0A3A1
:10536300F08027A3F08A828B83A3A3221274B3E471
:10537300F0A322A3F01253813BF583E4F022EA1257
:10538300671C22A90A74031213E07F060210B87483
:10539300F4120DB0EAFEEBFF89088C0A8D0BEE4F79
:1053A300700302542D7401650870127901122C31B7
:1053B300E9F8903A2AE493C398502280167404655E
:1053C3000870147904122C31E9F8903A29E493C354
:1053D30098500A7911805574026508704D8E828F3A
:1053E30083A3A3A3A3A3A3A3A3A3E508125DE8A395
:1053F3001270F6E4F0A3F0901502126C34601A8078
:1054030003E0F8A3E0F988828983A3A31254E78811
:10541300828983A3A370EA8003901502EEF0A3EFC1
:10542300125432121F057900800279C102434FF0F2
:105433007A207B009014F9E0F922C082C083E9F856
:105443007900901502801D8A828B83A3A3A3A3A353
:10545300A3A3A3A3E068600574FF687001098A82AF
:105463008B83A3A31254E770DE02638774F7120DD4
:10547300B0EA4B700590150280068A828B83A3A342
:105483001254E760208A828B83A3A3A3A3A3A3A3BD
:10549300A3A3E06970E4EC60108A828B83E012546A
:1054A300AF70D780047A007B00025599F8A3E0C857
:1054B300127A6DE0540422C082C0839015028006E4
:1054C3008A828B83A3A31254E760128A828B83A3FD
:1054D300A3A3A3A3A3A3A3E06970E580047A007B3D
:1054E30000026387127745FBEA4B221255F06C22C8
:1054F30074F2120DB08A0A8B0B8C0C8D0D7508009B
:10550300750900EA450B603090150280068E828F84
:1055130083A3A31256E6EE4F601EAC0CAD0DEEFA5C
:10552300EFFB850A82850B8312326CE9640170DD1F
:10553300EEF8EFF988088909AA08AB0902538D74BC
:10554300F7120DB0901502125E207C007D00800DD5
:10555300E8FCE9FD88828983A3A3125E20E8496001
:1055630030EA687002EB6970E79015021263A7E8EE
:105573006A7002E96B88828983A3A37008125E2094
:105583009015028009125E208C828D83A3A3126A78
:105593005380031213E07F010210B874F7120DB0A9
:1055A300EAFEEBFFEE4F602B122C491256141263E6
:1055B300A5121F5F8E828F831263A7121F5F126C67
:1055C3002B6009EE240F1263A1121F5FEEFAEFFBAB
:1055D300121F5F80C11272A68A828B83221255E446
:1055E300221274B7A3A3A322F01255F0228A828B4E
:1055F30083E0F8A3E0F5838882E0221255E4A3A3B5
:1056030022A3A3A3A312560C22E0F508A3E0F509F5
:10561300228E828F83125AD1125AC73822C082C077
:1056230083EAFCEBFDEC4D6017EC24FBF582ED34D3
:10563300FF126C32700712567AE0F46007121EC92B
:10564300790580309014F9E0C0E012567AD0E0F08A
:10565300903A22E493F97A047B15121EFFE9640160
:1056630070107A007B209014F9E0F9121F0579007D
:1056730080027904026387EC24FFF582ED34FFF5A1
:10568300832274F4120DB0A2AFE433F508C2AF90D5
:1056930015041256E6EE4F603AEE24FBF582EF3422
:1056A300FF126C327A007B209014F96007E0F91244
:1056B3001F058005E0F9121F0BE4F50AF50B780AC4
:1056C300121403EEFCEFFD7A047B15121EF974022B
:1056D3001213E0E508A2E092AFEEFAEFFB02434FAC
:1056E300A3A3A312710EFF22F582E43FF5831255A3
:1056F300F4221213E07F030210B874F2120DB07497
:10570300FA1214C3EAFEEBFF750AFE750BFF122CA7
:105713000DE960057911025885EE241512588D6044
:1057230035901690E0C43354E0F8E0333354FC482A
:10573300C0E0126036D0E0127A76FAA3E0FB79FF7C
:10574300122A038B09EA4509600C750AFF1268FBEC
:105753001267E1D2E0F08E828F83A3A31263A712B4
:105763002D09E96006EE2412126704EE2413125881
:105773008D700D903A2DE493C0E01268F7D0E0F0FD
:105783008E828F83E0A2E7500454038019EE241421
:1057930012588D701290148BE0C0E0125DA3D0E01C
:1057A300F090148BE004F012588A6401701690167E
:1057B3007BE0600D901496E0700A8E828F83E07018
:1057C300031267018E828F83E064017011EE240B54
:1057D3001256EB640270071258A1E04440F0AC1873
:1057E300AD19EEFAEFFB122C738A088B0974FE6570
:1057F3000A700374FFF4700D8E828F83A3A3E0F508
:105803000AA3E0F50BEA450960748E828F83E0C03A
:10581300E0740112175AD0E0F0740412175A12748C
:10582300BCEE241E125E1A740212175A126A5374C3
:1058330001121495880C890D780C121403EE2420A0
:105843001258951214071258A11211C4EE240E1205
:10585300589512140790149F1211C4740812175A02
:10586300E0F9AC0AAD0B122C6D74081213E0E9FEDB
:1058730074106E700BAA08AB09121F5F80027E10B2
:10588300EEF9740602538AEE2411F582E43FF583A0
:10589300E022F582E43FF583E0F50C780C22EE126A
:1058A300690322C082C08374D71214C39081C97460
:1058B300031214A574261213098A828B83A3A3A34C
:1058C300A3125E20740E12175AE8F0A3E91253676D
:1058D300125E20740C12175A125997125991124AD8
:1058E30098C0E0741A12175AD0E0F0126E9C125E40
:1058F3001E742012175A1259972415124A95C0E0A4
:10590300740812175AD0E0F0EA241CF582E43B1223
:105913005E1E741212175A1259972411124A95C017
:10592300E0740912175AD0E0F0EA2412124A95C023
:10593300E0740712175AD0E0F0EA241EF582E43B24
:10594300125E1E742412175A1259972420124A9574
:10595300C0E0742612175AD0E0124D3174FFF07470
:105963000112175A74FFF0740212175A74FFF09061
:10597300838B1211C074041214A5740712149D12A0
:10598300287774041213E079007429023F1D240D53
:10599300F582E422E8F0A3E9F0EA2274F4120DB0F0
:1059A30074EC1214C3EAFEEBFF8C0A8D0B890975A4
:1059B30008107A217B00121F5985188285198312DA
:1059C300705D851882851983126C347003025AC086
:1059D3007C217D007900851882851983E0FA121EE7
:1059E300B19014AC1263A7851882851983125ACD1E
:1059F3002409F582E43812705B742012175A125E80
:105A030020741112175AE8F0A3E9125AD7127A3008
:105A1300125AD7127A4D7402125E2AF812669FE563
:105A23000AF0A3E50B125AD7127A3DE509F0742266
:105A330012175AE0F8851882851983E0F9A3E0C9A3
:105A4300240CF582E439F583E8125E2AF9A3E0C950
:105A5300125AC739F5831274BC742312175A12638E
:105A6300A7740612175A12705D740812175AE8F0D9
:105A7300742612175A127492C082C083740C1217C0
:105A83005AAC82AD83D083D0827405121309742576
:105A930012175AE0C0E0741312175AD0E0F07900DD
:105AA300AA18AB19122C13E964017005750800805C
:105AB3000C8518828519831263A7121F5FA90874C6
:105AC3001402434C241FF582E422125AD122E0F837
:105AD300A3E0C822125E2EF8A3E0C82274EE120DD2
:105AE300B0EAFEEBFF8C088D098E828F83A37408C6
:105AF300126722E060088E828F83A37410F0EE2475
:105B03001712588D60098E828F83A3E02408F0EE6C
