:020000040000FA
:060000000216870209DC74
:03001300020B32AB
:03002B00021418A4
:03003300020C2696
:03003B00020B872E
:030053000209118E
:03005B0002118B04
:030063000211A6E1
:03006B00020BCCB9
:03007B00020BFD78
:10008300020970010020FD0002012E05000000019D
:100093006B1C771C00007D1C891C000000008F1C5A
:1000A300B31CB91CBF1C00000000000000000101CC
:1000B3000204081020408001FFFF090D0101040123
:1000C30000010000000000000006FFFFFFFFFFFF2C
:1000D3000101010400C619000000E8030000FFFF4E
:1000E300921AE803000064006400B801A0BB0D008D
:1000F300A0BB0D00020200F8FF0705021E04010564
:100103001E02051E020A0A01010808010310270244
:10011300803E0102FEFFE8030A050001FFFF010A1A
:100123001401E0C503423F1A51123FF304B53F00E7
:1001330000803E010105030101FF0F10FEFFDC39C2
:1001430000000000743900000000FF000000FF0001
:10015300C082C0831202B0600814601214601C8055
:100163002BEA6005EB42808023E85280801EEA6020
:1001730005EB42908016E852908011EBC394205017
:100183000BEA6005EB42A08003E852A002021EC006
:1001930082C0831202B0600814602C146050807B0C
:1001A300E852F374016A601274026A601574046A97
:1001B3007003EB428FEB42FD806153F7DFE8528F10
:1001C30080F343F72080F6E852F474016A601274F6
:1001D300026A601574046A7003EB42F6EB42FE8018
:1001E3003A53F7BFE852F680F343F74080F6EBC388
:1001F30094205027E852F574016A601274026A6011
:100203001574046A7003EB42F7EB42FF800D53F75A
:100213007FE852F780F343F78080F6D083D08222C1
:10022300C082C0831202B0600814602B14604E8039
:100233006CE852F352FD74016A600F74026A600F36
:1002430074046A7058EB428F805353F7DF80034383
:10025300F720E8528F8046E852F452FE74016A6038
:100263000F74026A600F74046A7032EB42F6802DD9
:1002730053F7BF800343F740E852F68020EBC39463
:1002830020501AE844E0F852F552FF74016A6010F6
:1002930074026A601374046A7003EB42F702021E6D
:1002A30053F77FE852F780F543F78080F6E9540768
:1002B300FC748C2CF582E4341DF583E0FBF4F8E93F
:1002C300C4540F540322C082C0831202B0600814C6
:1002D300601214601C802DEA6005EB42FD8025E866
:1002E30052FD8020EA6005EB42FE8018E852FE8052
:1002F30013EBC39420500DEA6005EB42FF800574B5
:10030300E04852FF02021EC082C0831202B060089E
:100313001460151460228034EA6005EB4280800388
:10032300E85280EB42FD8024EA6005EB42908003B3
:10033300E85290EB42FE8014EBC39420500EEA6027
:1003430005EB42A08003E852A0EB42FF02021EE944
:10035300C4540F54036007146013146020227801FF
:10036300E8F4FBEA602014602114601522740F592D
:10037300C394045004780280E7780480E37808800B
:10038300DFE58C586004EB528C22E8428C22121673
:1003930097601D1216A67005191919801A121528CF
:1003A300701F121500C37003E6673319191940074C
:1003B3001818182208080874FFF618F618F618F625
:1003C30022121500601712174C702192F012175564
:1003D3007019501720F014080808090909E7F618DE
:1003E30019E7F61819E7F61819E7F62212175560F8
:1003F300E6E869701F0808E62480F608E436F61874
:10040300547FB47F0CE654806007F6E418F618F6C0
:1004130022181822E9C6CC08C6CD08C6CE08C6CF16
:10042300C0E0E8C0E0EAC0E0EBC0E009E9F809E7B2
:10043300FA09E7FBE6F918E6F8C3EC98ED99EE9AAA
:10044300EBC2E7F5F0EFC2E795F0500E600CEBCF8F
:10045300FBEACEFAE9CDF9E8CCF8EAA2E7D2E7FA6B
:10046300EB33FB13F5F0EEA2E7D2E7FEEF33FFC564
:10047300F013A2E730E601B313C5F0C3C0E0C0F048
:100483007F00C39BFB605E9418600F401D14601ACD
:10049300D0E023F9D0E0F80205728AF0E94860035E
:1004A300D2F0E4AFF0FAF9F8803BEB30E40D89F0D9
:1004B300EA6003D2F0E4AFF0F9CAF8EB30E30D8859
:1004C300F0EF6002D2F0AFF0E4CAC9F8EB54076072
:1004D30014FBC3EA13FAE913F9E813F8EF13500214
:1004E300D2E0FFDBEDD0E0C0E030E739C3E49FFFAB
:1004F300F5F0EC98FC42F0ED99FD42F0EE9AFE42E5
:10050300F0D0E0F9D0E0F8E5F0607AE923F9EE20E5
:10051300E742D8028067C3EF33FFEC33FCED33FDD2
:10052300EE33FE80EAEC28FCED39FDEE3AFED0E036
:1005330023F9D0E0F84002801BC3EE13FEED13FD58
:10054300EC13FCEF135002D2E0FF08B800067F7FE4
:1005530074FF802EEF3350178CF020F00260100CE4
:10056300BC000C0DBD00080EBE000408E860DFE906
:1005730033E813FFEE2313FE4F4D4C8008E95480FC
:10058300FFE4FEFDFCEE33EF33F47004FCFD7E80EC
:10059300D0E0FBD0E0FAD0E0F8D0E0CFC618CEC66A
:1005A30018CDC618CCC6F92212169770041818185D
:1005B300221216A6700D74FFF61819F61819F618FC
:1005C30019F622E7548066F6121755700F12174C6E
:1005D30070F014F608F608F608F680D112174C707E
:1005E3000CF608F608768008E6447F80EC121503C3
:1005F300700C12152B60BFE65480F6E480BB121515
:100603002B700519191980A5E869700C763F1876C7
:100613008018F618F6E8F922E6CDC0E018ECC0E041
:10062300E633CD33CDD313F6E719FCE7191933CCF1
:1006330033C3947F400ECD9D502408E65480F6E4E6
:1006430018F6800FF4043D14501408E6447FF6189E
:100653007680E418F618F6D0E0FCD0E0FD22CCD387
:1006630013CCFD18E4C6CBC0E018E4C6CAC0E0084A
:1006730008ED08C633E613F618E433C675F003C372
:10068300CA97CA09CB97CB199C40047D08802EBD1D
:10069300000302075416B6FF050606081618C3CA58
:1006A30033CACB33CB33CA27CA09CB37CB193CC3A5
:1006B3007D08803E187D0820E75CC633C6CA33CA6E
:1006C300CB33CB33DDF1D5F0EB30E77BCA97CA09E7
:1006D300CB974ACB199C406F4B7025E620E02180D5
:1006E30066187D08C3CA97CA09CB97CB199CD3C692
:1006F30033C6CA33CACB33CB3350C9DDE7D5F0E1B8
:10070300D3E4C636C608C636C608C636C608C636D5
:10071300C61818188031C3CA97CA09CB97CB199C3E
:10072300B34097C633C6CA33CACB33CB33DD34D5D4
:10073300F02EC6A2E0C640C8CA27CA09CB37194A59
:1007430070BECB3CB480B90808E63308E633601FBB
:10075300181818D0E0FAD0E0FBD0E0FCD0E0FD227E
:10076300187D08CA27CA09CB37CB193CD38080131D
:10077300F618E4B67F11F618B6FF0EF618C6047025
:10078300D20808768080CAF618F618F680C50012DB
:100793001697604F1216A66012E7548066F612157C
:1007A30028701112174C703B090909F4F618F61852
:1007B300F618F6221215007015121755080808606E
:1007C300EAE6447FF618768018E4F618F622121744
:1007D30055601612174C7012E4F608F608F608E690
:1007E3005480F609090918181822EAC0E0EBC0E0A2
:1007F300ECC0E0EDC0E0E687F0A4FBACF008E687D0
:10080300F0A42CFCE435F0FA1809E687F0A42C4B8D
:1008130060027401CA35F0FCE433FB09E687F0D2C9
:10082300F7A42CCB35F0FC1908E687F0A42BCC35C4
:10083300F0FBE433FD0819E687F0D2E7A42C4ACB9A
:1008430035F0CD3400FC09E687F0D2E7A42DCC3592
:10085300F0FDE433FA0918E687F0D2F7A42CCD357E
:10086300F0CA3400FC08E687F0D2E7D2F7A42ACC1A
:1008730035F07A7E20E70B0ACB33CBCD33CDCC33A7
:10088300CC33CB3350147004ED30E00ED2F1E4CD11
:100893003DCDCC3CCC3B5005DA05C2F1EB547FC6D1
:1008A3003308E63392F0FBE73309E733C39A502D5D
:1008B3002B70190C0D4C4D70151806E608C33370D8
:1008C3000D20F10AA2F013F6E418800B4024E4F69D
:1008D30030F002768018F618F618F68024D33B140D
:1008E300501074FFA2F013F6187680E418F618F689
:1008F300800FA2F013F618E63303F618ECF618EDA2
:10090300F6D0E0FDD0E0FCD0E0FBD0E0FA22C0E07E
:1009130074F1120E22A2AFE433F509D2AF85A70812
:10092300AFA1EF5508FE74105E600612194D75A154
:10093300EF74085E600812195375A1F78024EFA2C3
:10094300E092F0E508A2E082F05017906198E0F899
:1009530090049CE0C398A2D265D0335002E8F075AE
:10096300A1FEE509A2E092AF7F02020E81C0E0740E
:10097300F2120E22A2AFE433FED2AF9061A4E0F8EC
:10098300759B00E59158540860087591F712199BFF
:100993008023E59158541060087591EF1219A180D6
:1009A30014E591A2E092F0E8A2E082F05007E0C2E1
:1009B300E0F0121AFD9061A3E0F8E5E958540460F1
:1009C3000E121AD375E9FB906193E0A2E640F2EEB2
:1009D300A2E092AF7F01020E81C0E074F2120E22F8
:1009E300A2AFE433FED2AF9061A5E0F8E5BF58545F
:1009F30004600675BFFB121B1580D4120A4930F040
:100A030039120A8E8034120A4920F01430E72B740D
:100A1300FFFCFBFA747F8022E4FCFBFA7480801AEB
:100A2300B48008BC00F2BB00EF800F50EBF9E4C3C5
:100A33009AFAE49BFBE49CFCE499C6CC18C6CB1859
:100A4300C6CA18C6F922E4C9C608CAC608CBC6D3A3
:100A5300330308CCC63392F0C3947F402E941840DE
:100A630019C9B90704CACBCC225025C309CA33CA52
:100A7300CB33CBCC33CC33D9F422F4600DC9CCC304
:100A830013CB13CBCA13CAD9F6CC22E4FCFBFA224C
:100A930014FCFBFA22C3E498F8E499F9120AD9800A
:100AA30026C3E49AFAE49BFBE920E7E9120AD9E4B6
:100AB30098F8E499F922C3E498F8E499F9120AD969
:100AC300E498F8E499F9C3E49AFAE49BFB22EB2057
:100AD300E7CFE920E7E0B90010BB0008E88AF0841B
:100AE300F8AAF022E4FBC8FA22EB70227B10C83389
:100AF300C8C933C9335007C39AC3DBF280069A507F
:100B0300012ADBEAC833F4C8C933F4C9FA2275F001
:100B130008E4C833C8C933C933C99AC99B5004C947
:100B23002AC93BD5F0ECFBC833F4C8E4C9FA22C0A8
:100B3300E0C0D0E8C0E0E9C0E0C082C083A8C1E85B
:100B4300C0E0900409E0F8748828F582E43403F5E2
:100B530083D0E0F0900408E0F8A3E0687006E59520
:100B630090040BF0900409E004F0C394804002E485
:100B7300F0A374C6F0D083D082D0E0F9D0E0F8D0EF
:100B8300D0D0E032C0E0C0D0E8C0E0E9C0E0C0822D
:100B9300C08390048CE0F8A3E0687008539AFBA329
:100BA30074018022C2E990048CE0F8740128F07487
:100BB3000C28F582E43404F583E0F5C190048CE05D
:100BC300C394804002E4F080ACC0E074F2120E22C1
:100BD300A2AFE433FED2AF90062FE05589600FE554
:100BE30089FA7900121D9D90062FE0F45289C2C53F
:100BF300EEA2E092AF7F01020E81C0E074F2120E0A
:100C030022A2AFE433FED2AF900630E0558A600FE4
:100C1300E58AFA7901121D9D900630E0F4528AC2EA
:100C2300EB80CDC0E074F2120E22A2AFE433FED209
:100C3300AF900631E0558B600FE58BFA7902121DF8
:100C43009D900631E0F4528BC2E880A4080808EABC
:100C5300C0E0EBC0E086F0E7A4FA180986F0E7A449
:100C63002AFA180986F0E7A42AFA180986F0E7A4F5
:100C73002AFA1986F0E7A4FBE5F02AFA190886F0A8
:100C8300E7A42BFBE5F03AFA190886F0E7A42BFB5F
:100C9300E5F03AFA18180986F0E7A4C5F02BFBE44F
:100CA3003AFA1908E7C5F0C6A426F6E5F03BFBE4DB
:100CB3003AFA1886F0E7A4F6E5F00826F6E43B08CE
:100CC300F6E43A08F6D0E0FBD0E0FA22080808E69A
:100CD30030E711121564120CE7080808C64480C6F1
:100CE30018181822181818E9799EC608CAC608CB1E
:100CF300C608CCC6C370207996CACBCC7019798E3E
:100D0300CBCC70137986CC700EF9802ACA33CACB48
:100D130033CBCC33CC331930E7F2CCCBCA335014BA
:100D23007004EA30E00DE4CA3ACACB3BCBCC3CCCEE
:100D3300500209C3E913C6CC182313C6CB18C6CA7D
:100D430018C6F922E4CFC0E0E4CEC0E0E4CDC0E0B1
:100D5300E4CCC0E075F020E626F608E633F608E6B4
:100D630033F608E633F6181818EC33FCED33FDEED2
:100D730033FEEF33FFC3EC9709ED9709EE9709EFC5
:100D830097191919400FFFEC97FC09ED97FD09EE30
:100D930097FE191906D5F0BFECF709EDF709EEF741
:100DA30009EFF7191919D0E0FCD0E0FDD0E0FED02F
:100DB300E0FF222518C582C0E0E51934FFC583C0D2
:100DC300E0E518C3958224F810AF0885831985825E
:100DD300188008858319858218D2AFCEF0A3E52049
:100DE300F0A37808E608F0A3DEFAEFF0A3E5812488
:100DF300FAF8E608F0A3E608F0A3E608F0A308086B
:100E0300E608F0A3E608F0A315811581D0E0FED033
:100E1300E0F8158115811581E8C0E0EEC0E022C03D
:100E2300D02518C582C0E0E51934FFC583C0E0E5CD
:100E330018C3958224F310AF08858319858218801F
:100E430008858319858218D2AFC8F0A3E9F0A3EA15
:100E5300F0A3EBF0A37908E709F0A3D8FAECF0A329
:100E6300EDF0A3EEF0A3EFF0A3D0E0F0A3D0E0F019
:100E7300A3D0E0F0A3E520F0A3E5F0F0A3228519C9
:100E830083851882E0C0E0A3E0F9A3E0FAA3E0FBC6
:100E9300A37808E0F608A3DFFAE0FCA3E0FDA3E0F3
:100EA300FEA3E0FFA3E0C0E0A3E0C0E0A3E0F5D031
:100EB300A3E0F520A3E0A3F5F010AF08858319851F
:100EC30082188008858319858218D2AFD082D08397
:100ED300D0E0F8D0E032121567181818120D471237
:100EE300163619191922121636191919080808E69F
:100EF30018181820E7E0120D471215671818182262
:100F0300090909E719191920E7DC080808E6181880
:100F13001820E703020D47121567181818120D471A
:100F230012156718181812163619191922121737BD
:100F3300B90003020F6FE49003317830791B80020C
:100F4300F0A3D8FCD9FA7A607B1D90008678CE791D
:100F5300018015E493A3AD82AE838A828B83F0A3D1
:100F6300AA82AB838D828E83D8E9D9E77582A17576
:100F730083BB740712138F7582E175833674001275
:100F8300138FE473FF75F0108E1A8F1B85821F85F4
:100F9300831E851882851983E0CEA3E0CF851F8247
:100FA300851E83EBC9EAC8EDCBECCAC3E833C8E9B5
:100FB30033C9EA33CAEB33CBC3EA9EF51DEB9FF586
:100FC3001CB35004AB1CAA1DEC33CCED33CDD5F0D0
:100FD300DAAE1AAF1B22121697601C1216A6601700
:100FE300121755700712174C7001D322C0D0121775
:100FF3004C7006D0D0B322C32233D0D0501430E08B
:10100300F6C3E7960809E7960809E7960809E796FD
:10101300B32220E0D5E6970809E6970809E6970882
:1010230009E697B322121697601B1216A6601612D2
:101033001755700712174C600CB322C0D012174C0F
:101043007005D0D022C32233D0D0501330E0EBC38D
:10105300E7960809E7960809E7960809E796222024
:10106300E0E4E6970809E6970809E6970809E69792
:1010730022D083D082ECC0E0EDC0E0E493A3FCE493
:1010830093A3FDED4C600D12114CEC24FFFCED34E9
:10109300FFFD80EFE493A3FCE493A3FDED4C600D0F
:1010A300121252EC24FFFCED34FFFD80EFD0E0FD83
:1010B300D0E0FCE493A3C0E0E493C0E0228519836D
:1010C300851882E0A3FEE0A3F5207808E0A3F608E4
:1010D300DFFAE0A3FFE0A3C0E0E0A3C0E0E0A3C029
:1010E300E0E0A3C0E0E0A3C0E010AF08858218856C
:1010F30083198008858218858319D2AFD083D08263
:10110300021395D083D082E9C0E0E493A3C386F0B1
:10111300C5F095F0F908E493A386F0C5F095F07057
:101123000BE493A3C3994005E9048002A3E475F09B
:1011330002A42582F582E5F03583F583D0E0F9E456
:1011430093A3C0E0E493C0E022C0E0C3E493960815
:101153007401939618400FE4936670080874019322
:10116300661870007019A3A3C3E4939608740193DF
:101173009618A3A3400DD0E0D0E0D0E00210B0A3B6
:10118300A3A3A3A3A3D0E022C0E074F2120E22C251
:10119300D9901DA91211BE4005E0F912208B7F01E1
:1011A300020E81C0E074F2120E22C2DC901DAB125B
:1011B30011BE4005E0F912208B80E3E0C39400A246
:1011C300D265D033227404800474028000CCC0E062
:1011D300EDC0E0E518C39CCCAD1950011D10AF065E
:1011E3008C188D1980068C188D19D2AF121311D05B
:1011F300E0FDD0E0FC2274028000CCC0E0EDC0E052
:10120300E518C39CCCAD1950011D10AF068C188D89
:101213001980068C188D19D2AF1212CDD0E0FDD0F3
:10122300E0FC2212169760251216A66020121755AD
:10123300700302174C080808E76670101819E76670
:10124300700A1819E76670041819E76622F422C0B9
:10125300E0C0F088F0E493667008087401936618A0
:101263007000A8F0A3A3700BD0F0D0E0D0E0D0E0E2
:101273000210B0A3A3D0F0D0E022D083D082CCC0A0
:10128300E0E493A360061213321470FAE493A360AC
:10129300061214951470FAD0E0FCE493A3C0E0E4C2
:1012A30093C0E022C008C3E096F50808A3E0964285
:1012B3000808A3E096420808A3E0964208A2D26574
:1012C300D033E5087001D3D00822CAC0E0E493A369
:1012D300C582CCC582C583CDC583F0A3C582CCC5E9
:1012E30082C583CDC583DAE5D0E0CA22A2E792D6D0
:1012F3005002F40430F70663F0FF05F0B3400384B3
:10130300800384F40430D60563F0FF05F022CAC0DD
:10131300E0E0A3C582CCC582C583CDC583F0A3C558
:1013230082CCC582C583CDC583DAE6D0E0CA22C0AC
:10133300E0E493A3D39C5010E493A3C39C400AD04E
:10134300E0D0E0D0E002129AA3A3A3D0E022700978
:10135300080808226016181818C6C333C608C6330F
:10136300C608C633C608C633C6D5E0EA22C008C3DA
:10137300E096F50808A3E096420808A3E096420821
:1013830008A3E09645087001D3D00822C09FF59FBB
:10139300E473D09F22D083D082C09FE493C0E074D3
:1013A3000193C0E0740293F59F227404800A7403CE
:1013B3008006740280027401C0E0F4041213E3D0C7
:1013C300E01216E22200C0D0251810AF08F518501D
:1013D3000C05198008F51850020519D2AFD0D02298
:1013E3002518F58210AF08F518400C15198008F57B
:1013F3001840021519D2AF85198322BB0102E722D7
:10140300C082C08389828A83BB0003E08002E493A5
:10141300D083D08222C0E0C0D0E8C0E0A8A8D2AF79
:10142300C2C7E8A2E792AFD0E0F8D0D0D0E03260F4
:1014330017080808C6A2E713C618C613C618C613AA
:10144300C618C613C6D5E0E9226016080808C6C345
:1014530013C618C613C618C613C618C613C6D5E0D6
:10146300EA22C3E0C696F608A3E0C696F608A3E010
:10147300C696F608A3E0C696F6222518F8E43519B1
:10148300F9222518FAE43519FB222518FCE435194D
:10149300FD22C0E0E493A36C7009D0E0D0E0D0E07B
:1014A30002129AA3A3D0E022251810AF08F5184022
:1014B3000C15198008F51840021519D2AF22E766FA
:1014C30070100809E766700A0809E76670040809DE
:1014D300E76622C3E09608A3E09608A3E09608A374
:1014E300E096A2D265D03322E066701008A3E066CE
:1014F300700A08A3E066700408A3E06622191919AC
:10150300E70947097009E727097005E733F422095A
:1015130022C3E096F008A3E096F008A3E096F00853
:10152300A3E096F022181818E60846087009E62684
:10153300087005E633F4220822C3E4939608740185
:1015430093960874029396087403939622C3E697BE
:10155300F60809E697F60809E697F60809E697F606
:1015630022181818E4C396F608E496F608E496F6EB
:1015730008E496F622E056F008A3E056F008A3E04C
:1015830056F008A3E056F022E667F60809E667F688
:101593000809E667F60809E667F622E493F6087495
:1015A3000193F608740293F608740393F622E65740
:1015B300F60809E657F60809E657F60809E657F666
:1015C30022E627F60809E637F60809E637F608099A
:1015D300E637F622E026F608A3E036F608A3E0365F
:1015E300F608A3E036F622E026F008A3E036F0087A
:1015F300A3E036F008A3E036F022E647F60809E652
:1016030047F60809E647F60809E647F6227004227A
:10161300600D18C6C333C608C633C6D5E0F4182216
:10162300E056F608A3E056F608A3E056F608A3E052
:1016330056F622E4C397F709E497F709E497F70905
:10164300E497F722600D08C6A2E713C618C613C6AF
:10165300D5E0F322C6F4C608C6F4C608C6F4C60825
:10166300C6F4C622C3E09608A3E09608A3E0960852
:10167300A3E09622C3E7960809E7960809E79608C8
:1016830009E7962275D00075813F751831751903E6
:1016930000020F30E6084608C3134608336002E62B
:1016A30033F422E7094709C3134709336002E733D9
:1016B300F422600C08C6C313C618C613C6D5E0F4DB
:1016C30022E6F008A3E6F008A3E6F008A3E6F0227A
:1016D300E0F608A3E0F608A3E0F608A3E0F622CAC2
:1016E300C0E0E6F0A308DAFAD0E0FA22E0FCA3E0D7
:1016F300FDA3E0FEA3E0FF22EAF0A3EBF0A3ECF0EE
:10170300A3EDF022E0FAA3E0FBA3E0FCA3E0FD22BB
:10171300E8F0A3E9F0A3EAF0A3EBF022ECF0A3EDE9
:10172300F0A3EEF0A3EFF022E0F8A3E0F9A3E0FAD0
:10173300A3E0FB22E5C754F84401F5C7790122254C
:1017430018F582E43519F58322E727194719471954
:101753004722E62618461846184622C2AF75D69F7A
:1017630002000022121398B4E40512139808E60548
:10177300121398BEE605121398BDE705121398F0ED
:10178300E8051213984CBF07121398BFBF07121333
:101793009845C00712139821FF0512139832FF05CD
:1017A300121398D0FF05121398DBFF05121398F854
:1017B3007F00121398B2D50712139831D207121370
:1017C3009841D20712139856D207121398BCD20726
:1017D300121398C6CD0712139849CE07121398AF68
:1017E300CE07121398A3B907121398DEB907121381
:1017F3009839BA0712139891BA0712139817BB07AF
:1018030012139853BB071213989FD507121398AF5F
:10181300D507121398C7FF0112139804B5071213C3
:10182300984EB507121398E4B5071213986AB607D2
:101833001213989BB607121398B3B607121398277F
:10184300B7071213983DB70712139850B70712132F
:10185300985AB70712139803D405121398B4D805EE
:10186300121398CBD905121398E7D9051213986A66
:10187300DA0512139831DD0512139800800612134E
:1018830098638006121398138106121398DE81065B
:1018930012139833830612139813840612139810A5
:1018A3008506121398E886061213980F87061213FB
:1018B300989B8706121398F588061213986B89066E
:1018C300121398A98906121398BB8906121398D587
:1018D3007700121398A37900121398DF7A0012137A
:1018E30098A47C001213981CE90612139848E90681
:1018F300121398B9EB06121398F9EB0612139839E1
:10190300EC061213984DEC0612139866EC061213AC
:101913009857ED06121398FCED0612139810EE0675
:1019230012139866C5071213988AC507121398A352
:10193300C507121398D5C50712139805C6071213C6
:101943009832C60712139894C607121398A3C607B2
:10195300121398ADC607121398BAC6071213986EDE
:10196300B2071213988EB207121398CDB20712134F
:1019730098E8B20712139807B3071213986DB307C9
:1019830012139876B307121398D3B307121398F769
:10199300B307121398B8B407121398C5B4071213F8
:1019A30098D6B407121398C6D207121398DED2073B
:1019B3001213980AD3071213980885071213985E17
:1019C30086071213986C86071213987F86071213E3
:1019D30098948607121398A98607121398BC860752
:1019E30012139830870712139895870712139837A5
:1019F3008807121398FB88071213980B8907121391
:101A0300981A890712139898D107121398BCD10713
:101A1300121398E4D1071213980CD207121398C328
:101A2300D007121398D4FD04121398FBFD0412136C
:101A33009819FE041213988CFE041213987DA907BB
:101A430012139896A907121398A2A907121398B60E
:101A5300A907121398D4A907121398DEA907121322
:101A630098E8A907121398FBA90712139885AA07E8
:101A7300121398FAAA071213982EAB071213987C25
:101A8300AB07121398C9AB07121398E4AB071213F1
:101A930098EEAB0712139814AC0712139879AC079E
:101AA3001213984DFF031213986FFF0312139874C8
:101AB300D507121398C89D06121398F29D061213A8
:101AC300980F9E06121398229E06121398389E06AC
:101AD300121398969E06121398CE9E06121398C65A
:101AE300A2061213980BA4061213983EA40612130F
:101AF30098A1A40612139824A6061213984CA606BE
:101B030012139861A60612139871A606121398B5BC
:101B1300A60612139810A70612139820A7061213ED
:101B2300985BC90712139875C9071213989DC907C3
:101B3300121398B6C907121398DAC907121398F843
:101B4300C9071213980FCA071213983DCA07121335
:101B53009858CA071213987CD407121398B8A2078F
:101B6300121398C8A207121398CFA307121398034E
:101B7300A40712139825A40712139848A407121355
:101B83009866A407121398A0A40712139805A50733
:101B930012139847A50712139886A507121398B72F
:101BA300A507121398EEA5071213989EF7021213B6
:101BB300989AF802121398B8F802121398DFF802F1
:101BC300121398A4FA02121398C3FA021213987804
:101BD300FB021213983FFC021213984EFD021213DC
:101BE3009880FE02121398A59607121398FA960787
:101BF300121398749707121398879707121398AEC6
:101C030097071213984198071213981B99071213F9
:101C13009850A7061213987BA7061213983AA806A2
:101C230012139878A806121398FEA8061213989810
:101C3300AC06121398ABAE0612139809BA0412132A
:101C43009843BA0412139843BC041213987EBE043B
:101C53001213986CC104121398DEC10412139878FE
:101C6300C2041213988EC20412139841C3041213B0
:101C7300987DC30412139894C304121398C0C30429
:101C8300121398C3C3041213981CC4041213986F3D
:101C9300C40412139827C50412139810C604121310
:101CA300989DC804121398B6CA04121398E9CA047B
:101CB30012139849CB041213989BCB041213981E4A
:101CC300CC04121398B2CC04121398BECE04121390
:101CD300985DD00412139897D10412139836D30445
:101CE30012139882D304121398C8CF07121398CDF6
:101CF300CF07121398E7CF0712139829D0071213AF
:101D03009852D0071213986CD00712139885D007F6
:101D1300121398A9D007121398538907121398A77F
:101D23008907121398778A07121398A98A0712133F
:101D330098D68A07121398278B07121398518B078B
:101D4300121398758B07121398B58B071213983FCC
:101D53008C07121398708C07121398978C07121321
:101D630098DD8C07121398FB8C071213981F8D07AD
:101D73001213983F8D07121398758D07121398C885
:101D8300C50612139802C6061213983DC70612130E
:101D93009824EE06121398D8EE06121398BFCC07B8
:101DA30012139830CD0712139892CD07121398E5AA
:101DB300DD06121398F6DE0612139807E0061213D7
:101DC3009848E1061213989EE106121398DCE10687
:101DD300121398EAE1061213987BE306121398CACA
:101DE300FC061213982CFD0612139810FF0612130B
:101DF3009815F30612139856F3061213988CF306EC
:101E0300121398B3F4061213984FF606121398EFB1
:101E1300F6061213980080071213981A83071213F9
:101E2300989A83071213989BC207121398D8C20774
:101E33001213980CC3071213981FC3071213988821
:101E4300AF071213989BB0071213985DB1071213D3
:101E5300980AB20712139835B20712139803C407EE
:101E630012139823C40712139836C507121398390F
:101E7300C50712139815C8071213984BC8071213F6
:101E83009865C807121398A7C807121398B7C8070D
:101E930012139851C907121398CDBE06121398D77F
:101EA300BE0612139811BF061213987ABF061213B7
:101EB3009897BF0612139839C00612139842C006AA
:101EC30012139887C006121398B0C006121398BD58
:101ED300C0061213982EC106121398B9C106121325
:101EE3009807C20612139845C206121398AAC2068F
:101EF300121398CDC20612139844C3061213989B6B
:101F0300C306121398D6C3061213980BC4061213F2
:101F1300981DC4061213982FC4061213984EC406B4
:101F230012139857C40612139812C5061213985E1B
:101F3300C5061213989CC506121398C4C60712133C
:101F43009804C8071213986DB707121398A3B7071D
:101F5300121398EBB70712139844B9071213984B4F
:101F6300D3071213987795051213989B96051213AE
:101F730098D596051213987F9805121398A998057A
:101F83001213981E9B051213985E9B05121398F467
:101F93009C05121398919D05121398E39D05121346
:101FA30098869E05121398BE9E05121398009F05EE
:101FB3001213986FA005121398BDA105121398EE82
:101FC300A3051213981CA40512139843A405121316
:101FD300984CA4051213989CA4051213982EA505DA
:101FE3001213985DA805121398E0A805121398DE42
:101FF300FF02121398F4FF02121398B89A071213F0
:1020030098CE9A07121398729B07121398B19B07E5
:10201300121398CE9B07121398FF9B071213984C29
:102023009C071213987F9C07121398BA9C071213EC
:1020330098AF9E0712139869D20612139894D40688
:10204300121398C6D506121398DED50612139801FB
:10205300F8061213983CF906121398CEFA061213D7
:1020630098A6B00612139862B106121398D2B2065C
:1020730012139810B406121398ADB406121398866F
:10208300BD07121398FCBD071213982DA90512134F
:1020930098FFA90512139849AA05121398FEAA05D9
:1020A3001213985DAB051213980AAD0512139876B7
:1020B300AD05121398F2AE051213981EAF05121355
:1020C3009858B10512139881B105121398E6B1051A
:1020D30012139838B20512139889B305121398DCBA
:1020E300B30512139858B40512139886E306121316
:1020F30098ADE30612139801E60612139814E60648
:1021030012139869E6061213989BE7061213981C9C
:10211300E806121398C8CE0712139827CF07121395
:102123009865CF07121398A6CF0712139855BA05CF
:10213300121398BEBA0512139809BB0512139844DB
:10214300BB05121398B9BD05121398D3C105121319
:1021530098F3C30512139801C505121398DBC5053F
:102163001213981DCC0612139850CC06121398899B
:10217300CD061213982FCF0612139848CF061213C9
:1021830098EBCF061213984ED00612139885D106FA
:10219300121398527F001213989C7F001213988B8E
:1021A300CA071213989ACA07121398DBCA071213A5
:1021B300988CD50712139883F303121398EEF30345
:1021C300121398ECF40312139871F603121398F791
:1021D300F603121398D0F703121398B0F8031213EF
:1021E30098CFF903121398E8FA0312139890FD039A
:1021F300121398AE3D00121398BA3D001213981CA7
:102203003E00121398263E00121398B93E00121393
:1022130098F53E00121398B53F00121398C23F0081
:10222300121398254000121398BA4000121398F025
:1022330040001213986D41001213980D43001213BE
:1022430098E14400121398C245001213980C4700FA
:102253001213986E4900121398D34A001213986808
:102263004B001213989B4C001213988F4D001213BE
:1022730098C84E001213985E53001213984B5400E3
:10228300121398E35400121398085500121398344C
:102293005500121398CC5500121398E255001213EF
:1022A300980456001213986A560012139889560020
:1022B300121398B25600121398D25700121398A80B
:1022C30058001213981D5A001213983E5A00121305
:1022D30098BF5A00121398655B00121398AD5B0008
:1022E3001213981E5C00121398AA5C001213980E26
:1022F3005D001213986E5D001213981D5E00121399
:1023030098895E00121398BC5E001213983A5F001E
:10231300121398966000121398066100121398988E
:102323006100121398FB6200121398826300121368
:1023330098E76300121398156600121398A16700BB
:10234300121398B16700121398E56700121398539C
:1023530068001213988E6800121398F06800121325
:1023630098856900121398606B001213982B6D0007
:10237300121398356E00121398327200121398FFDD
:102383007200121398177400121398C17500121378
:1023930098EDF101121398A4F201121398ABF30113
:1023A30012139829F4011213986BF5011213988CE8
:1023B300F50112139844F601121398EFF601121364
:1023C30098CFFA01121398EBFC0112139852FE01F5
:1023D300121398C2D407121398BDD6031213981878
:1023E300D703121398A2D70312139813D903121306
:1023F30098EBD903121398D4DA03121398EBDA0388
:102403001213983DDB03121398A1DB03121398E216
:10241300DB03121398F5DB031213984BDC0312133F
:1024230098A4DC03121398BCDC031213986CDF032B
:1024330012139801E0031213982BE00312139874FC
:10244300E00312139864E203121398CEE20312130B
:1024530098A2E303121398E5E303121398FFE3032F
:1024630012139846E40312139866E40312139810A8
:10247300E5031213980EE60312139868E60312138A
:1024830098B9E603121398C4E70312139868EA0392
:1024930012139895EA03121398FEEA031213982372
:1024A300EB031213989DEB0312139866EC031213BC
:1024B30098A3EC0312139805ED03121398C6ED03CA
:1024C300121398C9ED03121398D3ED03121398DD79
:1024D300ED03121398F0ED031213986CEE0312132D
:1024E3009895EE03121398A8EE03121398D4EE03F3
:1024F300121398FBEE031213981FEF031213985A4B
:10250300EF03121398CCEF03121398F4EF03121393
:102513009835F0031213986AF0031213988AF003A4
:10252300121398C7F003121398FEF00312139808BE
:10253300F2031213983BF30312139851F30312138C
:102543009824D4071213983CD407121398B6CB07D8
:10255300121398CDB7061213981CB806121398BC21
:10256300B90612139877BB06121398B9BB06121358
:1025730098A2BC06121398ACBD06121398CEBD06E2
:1025830012139818BE0612139899BE061213982EAA
:10259300D80212139851D80212139844D902121375
:1025A300988DD902121398E5D90212139841DA02D1
:1025B3001213988DDA0212139803DB021213988F09
:1025C300DB0212139804DC0212139847DC02121385
:1025D3009818E00212139867E202121398A1E2021C
:1025E30012139825E30212139856E602121398CB9E
:1025F300E6021213985BE80212139863E9021213BE
:102603009879EA02121398EFEA02121398B6EB02D2
:102613001213981FEC02121398869606121398F65B
:10262300EC0212139832EE02121398F2EF02121315
:1026330098EDF102121398F8F20212139894F30230
:10264300121398DFF402121398E5F5021213984857
:10265300F602121398E5F60212139800800512137E
:1026630098A080051213980A8105121398B1810569
:10267300121398108205121398BC820512139865E1
:1026830085051213988B86051213980F870512136D
:1026930098EC8805121398918905121398348A05CA
:1026A300121398938A051213984C8B05121398CB27
:1026B3008C05121398D2E105121398099005121391
:1026C3009863910512139873920512139819930541
:1026D3001213983894051213989BD4041213981369
:1026E300D5041213985BD5041213989FD5041213C3
:1026F30098E8D50412139832D60412139867D604B7
:10270300121398E5D6041213983FD704121398981E
:10271300D80412139817D9041213982EDA0412133B
:102723009850DA041213985CDB041213986DDB04DF
:1027330012139885DB04121398A5DC04121398C2B4
:10274300DC0412139895DD04121398B9DD041213F7
:1027530098D0DD04121398F1DD0412139813DE04EC
:1027630012139805DF041213985DDF04121398D334
:10277300E00412139831E10412139850E104121388
:102783009882E204121398FFE2041213986CE30494
:10279300121398ACE3041213980EE404121398BEB8
:1027A300E40412139890E6041213987BE7041213BF
:1027B3009875E8041213987BE90412139897EA04B6
:1027C300121398A5EA041213987EEB041213981EB1
:1027D300EC0412139862EC0412139877EC041213AE
:1027E3009888ED041213982BEE0412139883EE04C9
:1027F30012139846A607121398EEA707121398AB65
:10280300A80712139800A907121398BC9E07121366
:1028130098DA9E071213981E9F07121398449F0776
:102823001213986A9F07121398829F071213989A9C
:102833009F07121398B29F0712139815A00712133C
:102843009857A00712139879A10712139882A1072A
:102853001213988BA10712139894A1071213989E31
:10286300A107121398BFA1071213984B92071213D3
:10287300982B96071213983996071213983E9607CA
:1028830012139813BC07121398C3D3071213984853
:10289300D5071213980FC107121398D6FF06121308
:1028A30098008002121398578002121398C3800273
:1028B3001213984F81021213980582021213984D36
:1028C30082021213986682021213988982021213EB
:1028D30098AB8202121398E982021213983883028A
:1028E300121398638302121398C183021213986818
:1028F30084021213981085021213988C8502121306
:1029030098598602121398A08602121398EC860235
:10291300121398748702121398AD87021213980347
:1029230088021213981F88021213984E88021213FA
:10293300985A8A02121398888B02121398B48B0246
:10294300121398E88B02121398098C021213981829
:102953008C02121398238C02121398D28C02121336
:1029630098428D02121398CD8D02121398D58D02C1
:10297300121398428E021213987E8E0212139844F9
:102983008F021213981790021213986C900212136D
:10299300980B9102121398659102121398AA91024F
:1029A3001213984394021213988695021213987087
:1029B3009802121398549902121398389A02121318
:1029C30098499A02121398BB9A02121398529B02C7
:1029D300121398B79B02121398A79C02121398CC58
:1029E3009C02121398EA9C02121398069D0212137A
:1029F30098799D02121398889D02121398109E02D3
:102A03001213980D9F021213981A9F021213982300
:102A13009F0212139805A10212139827A202121300
:102A23009837A20212139865A302121398E4A30223
:102A3300121398FFA4021213983BA50212139815C0
:102A4300A702121398D2AA02121398E6AA0212132B
:102A530098F0AA02121398FAAA0212139804AB026E
:102A63001213981DAB0212139827AB0212139894FA
:102A7300AB021213989FAB02121398C7AB02121347
:102A830098D2AB0212139837AC0212139842AC02DD
:102A930012139866AC021213988AAC02121398FCB4
:102AA300AC0212139845AD0212139861AD021213D2
:102AB30098D2AD021213981EAE0212139867AE029B
:102AC300121398A5AE0212139826AF02121398CDD3
:102AD300AF021213989CB10212139801B20212139F
:102AE300982FB30212139855B3021213989DB40290
:102AF300121398D7B702121398D5B902121398A0DC
:102B0300BB0212139839BC021213983ABE02121375
:102B130098EFBE0212139828BF021213988EBF02B9
:102B230012139898BF02121398C1C102121398008E
:102B3300C30212139857C30212139802C40212134A
:102B430098B2C502121398FFC6021213981FC70248
:102B530012139874C70212139875C8021213989D22
:102B6300C802121398FCC802121398F4C902121374
:102B7300986BCA021213987ECB02121398ECCB0205
:102B8300121398EBCC0212139845CF021213986ECE
:102B9300CF02121398D4D00212139856D2021213F2
:102BA30098ADD2021213985BD30212139800D40289
:102BB30012139859D40212139817D502121398A915
:102BC300D50212139808D6021213984AD60212138A
:102BD300987BD602121398D2D7021213980080035F
:102BE3001213983280031213986B800312139829DF
:102BF3008203121398FF82031213985E8303121346
:102C030098748403121398C084031213984E870395
:102C1300121398288A031213986F8B0312139807C1
:102C23008C03121398138C031213985C8C031213E6
:102C3300989E8D03121398948E03121398BE8E03DD
:102C4300121398148F031213986D8F03121398E0C5
:102C53008F03121398169203121398989303121367
:102C630098839403121398CD950312139805980330
:102C7300121398029B03121398119B03121398A526
:102C83009B03121398509C03121398939C031213E3
:102C930098DC9C031213982C9D03121398909D03A8
:102CA300121398029E031213981E9E031213984D3B
:102CB3009E031213988C9E03121398879F0312137B
:102CC3009836A003121398B3A203121398E5A30333
:102CD300121398BDA4031213983FA50312139874FB
:102CE300A903121398A3A903121398FEA90312139D
:102CF3009831AA03121398A9AA03121398DCAA0302
:102D03001213983DAB031213988DAB031213985A09
:102D1300AC0312139813AD03121398D7AD03121318
:102D23009851B003121398B3B10312139804B30369
:102D330012139828B4031213982BB4031213985A3E
:102D4300B40312139852B60312139811B703121354
:102D53009840B7031213985EB80312139826B90369
:102D6300121398E4BA0312139816BB03121398585C
:102D7300BB0312139857BC03121398CABC03121354
:102D830098F3BE0312139852BF03121398A6BF03FE
:102D9300121398D5C103121398B8C203121398746F
:102DA300C30312139888C3031213989CC30312130B
:102DB30098C9C303121398F9C303121398B4C50334
:102DC300121398C6C6031213981BC70312139864F1
:102DD300C7031213988BC70312139853C803121314
:102DE30098F9C8031213987FCA03121398C6CA032B
:102DF30012139838CB031213988DCC031213983601
:102E0300CD031213986ACD0312139882CD031213C4
:102E13009825CE03121398A1D00312139849D20315
:102E230012139867D20312139885D2031213985181
:102E3300D3031213989FD6031213986984011213B4
:102E430098A18401121398A18901121398E78901AB
:102E53001213981D8B01121398828B01121398F78A
:102E63008C011213980190011213982A91011213E5
:102E7300983D9B01121398CD9B01121398B79E01A5
:102E8300121398C49F0112139827A0011213986F6D
:102E9300A101121398DDA3011213986FA501121358
:102EA30098FCA5011213981BA701121398A8A70158
:102EB300121398B2A701121398DAA7011213987A82
:102EC300A80112139865A90112139832AA011213CB
:102ED300984FAA0112139878AA01121398A5AA0170
:102EE300121398ECAC01121398BBAD01121398FAAC
:102EF300AD011213987CAE011213981DAF0112138A
:102F0300984FAF0112139896AF01121398C9AF01EE
:102F13001213980DB0011213985CB001121398614B
:102F2300B001121398BDB00112139801B10112132D
:102F330098DBB10112139840B201121398A6B201A3
:102F430012139821B30112139889B6011213988CA6
:102F5300B7011213980AB90112139820BC01121376
:102F630098C2BC011213980BBF01121398C6BF017C
:102F730012139805C001121398DDC101121398FAB8
:102F8300C10112139803C2011213980CC201121348
:102F93009817C20112139836C201121398DAC301AB
:102FA30012139837C40112139841C4011213984B9A
:102FB300C401121398AAC401121398F4C401121382
:102FC30098F5C5011213984CC6011213985DC701F9
:102FD300121398A6C70112139860C80112139877A9
:102FE300C9011213984CCA0112139893CB011213FF
:102FF3009897CC0112139890CD01121398A8CD0184
:10300300121398DFCD01121398E9CD01121398F32F
:10301300CD01121398FECD011213981CCE01121389
:103023009864CE01121398C2CE01121398E9CE010F
:10303300121398FBCE01121398B0CF01121398E923
:10304300CF011213980BD1011213985ED101121301
:103053009844D2011213986BD201121398DBD20158
:1030630012139857D301121398B3D401121398DA99
:10307300D5011213989CD6011213986AD701121323
:103083009828D80112139810D901121398BAD901AC
:1030930012139822DA01121398D7DA011213983314
:1030A300DB011213988BDB0112139851DC0112130D
:1030B3009874DC011213982FDD0112139851DD016E
:1030C300121398B2DD01121398E2DF01121398DB99
:1030D300E00112139887E101121398A8E301121378
:1030E30098F1E3011213983CE40112139898E40158
:1030F300121398F6E4011213981AE5011213983E7D
:10310300E50112139873E5011213989BE50112135D
:1031130098E0E50112139834E6011213988DE60145
:1031230012139887E70112139825E9011213986A7D
:10313300E90112139893E9011213981CEA0112137F
:10314300988FEA011213989DEA01121398C1EA01BC
:1031530012139817EB0112139832EB01121398ED27
:10316300EB0112139819EC011213985CEC01121382
:1031730098BFEC01121398CDEE01121398F9EE01EA
:10318300121398B4EF0112139898F0011213982CAC
:10319300F101121398A1F405121398D9F40512132F
:1031A30098FAF4051213983CF505121398A0F50547
:1031B300121398AAF505121398BAF505121398F18C
:1031C300F5051213989AF90512139862FB05121369
:1031D3009846FD05121398E8FD0512139872FE0533
:1031E300121398508004121398F98004121398D87C
:1031F3008104121398E482041213980483041213B3
:1032030098268404121398D68504121398438604CF
:103213001213981487041213981A8804121398929D
:103223008804121398CD8804121398268904121364
:1032330098618904121398AA89041213983E8A0488
:10324300121398D48A04121398A98B041213987C2E
:103253008C041213980A8D04121398308D041213E0
:10326300985D8D041213988E8D041213985B8E044F
:103273001213986B8E04121398BE8E04121398CBFC
:103283008E04121398D88E04121398E18E0412132D
:1032930098458F04121398A38F04121398EE8F048A
:1032A3001213980990041213983090041213984D36
:1032B3009004121398599004121398EA910412136C
:1032C300980392041213987F920412139892920413
:1032D300121398A29204121398469304121398B2ED
:1032E3009404121398C59504121398659604121347
:1032F300986F9604121398EE9604121398FF96048F
:103303001213983E97041213986C9704121398396A
:103313009804121398909804121398C998041213DE
:10332300981F99041213983D99041213988B9904CA
:10333300121398569A04121398A49A04121398F12C
:103343009A04121398749B041213989E9B041213ED
:1033530098D49B04121398E39B04121398429C0481
:10336300121398BA9C04121398FB9C041213984BE3
:103373009D04121398769D04121398909D041213C2
:1033830098AA9D041213987F9E04121398899E0491
:10339300121398C49E04121398D49E0412139825F2
:1033A3009F04121398399F041213985BA0041213FD
:1033B3009870A00412139803A10412139877A10420
:1033C3001213981CA20412139827A2041213988AAA
:1033D300A304121398A6A304121398F2A3041213BE
:1033E3009860A40412139892A404121398ACA40432
:1033F3001213980CA504121398ABA504121398F694
:10340300A50412139849A804121398E1A8041213EF
:103413009858A904121398B5AB04121398CDAB04B2
:10342300121398D0AB04121398DCAB04121398F068
:10343300AB04121398F8AB041213982FAC041213B5
:103443009823AD04121398ADAD041213982FAE0454
:10345300121398AFAE0412139886AF04121398A8F0
:10346300AF0412139841B0041213989EB0041213C0
:1034730098A1B00412139810B1041213985CB2040B
:103483001213986FB304121398FAB3041213980D1E
:10349300B504121398D4B50412139805B604121385
:1034A300982BB60412139834B60412139863B60417
:1034B30012139813B704121398C3B7041213983650
:1034C300B804121398D9B8041213984CB904121300
:1034D300988BB904121398D4B9041213983B960627
:1034E300121398A5950612139816940612139809A9
:1034F300FC041213988EFA041213988CF904121315
:10350300984DF704121398F7F6041213983AF5043A
:10351300121398B1F2041213982BF204121398E7C2
:10352300F004121398FEE005121398FEDF05121340
:1035330098A3EF041213981CEF041213981FDF05CE
:103543001213987ADD0612139879AD071213985166
:10355300AD07121398E4AC0712139884AC07121347
:10356300982AD30512139850D20512139886D105C1
:10357300121398F5CF05121398BECF051213989026
:10358300CF0512139844CF05121398ADCE0512132D
:10359300981DCE05121398F7CD05121398ACCD05DF
:1035A30012139876CD05121398F9CC05121398943B
:1035B300CC0512139843CC051213986BCB05121349
:1035C30098DBCA051213988FCA051213980ACA0505
:1035D300121398C5C905121398A9C9051213985156
:1035E300C805121398DBDC0612139823C8051213BF
:1035F3009819D9061213983ED80612139821D507A5
:1036030012139806D5071213986A9C061213980C86
:103613009B06121398A39A061213983A9A0612134A
:1036230098F0C70512139874C705121398229007D0
:10363300121398138F071213981A99061213984DA1
:103643008E07121398D48D0712139856F40512138C
:1036530098FDF3051213985C9806121398C8F305A6
:10366300121398888E0512139893F3051213985F1B
:10367300F305121398F2F205121398DAF2051213F6
:1036830098B5F2051213988EEF0512139861ED05A4
:1036930012139868EB05121398F4EA05121398A510
:1036A300EA051213985FEA0512139801EA0512134B
:1036B30098499006121398C58F06121398A397067C
:1036C300121398DA8E06121398628D06121398124B
:1036D3008B06121398268A0612139822EC02000016
:1036E3000080FB8F0001002C1B87000100FB1D35B0
:1036F300000400BF1D25000200C31D26000200C5F3
:103703001D27000200C71D28000100D11D2900014B
:1037130000D21D84000400D31D86000100D71D2A9A
:10372300000100D81D2B000100D91D2C000100DD74
:103733001D2D000800141B2E000100DE1D2F0001AB
:1037430000DF1D30000100E01D31000100E11D32EA
:103753000001001C1B330001001D1B34000100E2AB
:103763001D360001001E1B38000100E31D39000156
:1037730000DC1D83000200F91D63000100291B64A6
:10378300000100DA1D65000100DB1D6D0001002A48
:103793001B710008000C1B66000100F81D430001AB
:1037A30000E91D44000200EA1D45000100EC1D462E
:1037B300000200ED1D47000800211B48000100EF37
:1037C3001D4B000100F01D04000100FC1DA10001C0
:1037D30000FF1D37000100FE1D88000100FD1D3C98
:1037E3000001001F1B3D000100E41D49000200F120
:1037F3001D670001002B1B4D000200F31D4E00014D
:1038030000F51D4F000200F61D3E000100E81D51AA
:10381300000100E51D52000100E61D53000100E711
:103823001D54000100201B000000000000000136B1
:103833003601010001020100010301000104010638
:103843000605020000070100340801000F09040106
:10385300010D0100FF0E080000170200001901000E
:10386300FF1A0100011B0100FE1C0100081D0200DC
:10387300001F0100012001000121020000230100BB
:103883000F2402000026010001270100082802007E
:10389300FF2A0100072B0102402C0100002D01002B
:1038A300012E0100012F0100FF30010B1D31080023
:1038B300003A0100083B01000F3C0100013D0100FB
:1038C300FF3E04000042040000460400004A0400D6
:1038D300004E04000052040000560400005A040085
:1038E3000000000000200165840000010020016544
:1038F30084000002002001688400000300200166A8
:10390300840000040042016D800000050042017E36
:1039130080000006004201A080000007002001ABE8
:1039230080000000404201A0800000100042018F8F
:103933008000001100200101070000120010038B1A
:103943001D060000001011000008000000203300D5
:10395300000C005500393300000C001C00423300FA
:1039630000120055002001000014000E0042220046
:103973000001037103010301030103010301032296
:103983000302030103100300030003000300030009
:1039930003000300034203000324030603000300A0
:1039A300030403120325032303250323030403044E
:1039B3000300030003000344030003000323030085
:1039C300036503210035038103000305030003009E
:1039D3000300030003250323030300710030016088
:1039E30000110070003102200350048000100061B8
:1039F30000000014006300730072006200430000C3
:103A03000013000600000000000400120000000084
:103A1300000000000004000400370037003C0244AB
:103A23000000000000000000006500000035008178
:103A33000000000500000083000000010171010186
:103A43000101011101010131010101010180011095
:103A53000161013B001400630173017201620143C0
:103A6300010001130106013D0135000401120100AB
:103A73000100010001000104010401330133013C91
:103A830001440132013600000100016501000135E6
:103A9300008101000105018201830100010304711A
:103AA3000402046004110470040204020401040209
:103AB30004100461040004140463047304720462B4
:103AC3000443040004130406040004000404041261
:103AD3000400040004000400045104640000040012
:103AE300040004440400040004000400046504000A
:103AF3000435048104640005040004830400040302
:103B0300027102300160021102700201020202021C
:103B1300028002100261023A0041006302730272E2
:103B23000262024302000213023800000200020490
:103B33000212020002000200020002040204023721
:103B43000037003C02440200023900000200026513
:103B53000200023502810200020502820283020092
:103B63000236000100060000000F00000000000004
:103B73000000000000000003FFFF00000403FFFF3C
:103B83000000FFFF0FF4010005C40403200001003F
:103B9300000B000000000000000003010F00000004
:103BA3000000000000000000000000000000000012
:103BB30000000000000000000000000000000007FB
:103BC3002361230D23112213236723132373231943
:103BD300231122132367231F231122252311222BB1
:103BE30023112231231122372311223D2311224392
:103BF3002379234923112200000000000000000064
:103C03000000004F238B23552311224F238B235571
:103C1300231122432379235B2311220000792613E6
:103C23000025261F002B261F80312601007926023E
:103C330000AD250300B3250400B9250500BF250603
:103C430000CB253000E9253100E3253200F525338B
:103C530000FB25350001263400072636000D26110A
:103C630000DB3614001F261500DD25FFFF00000AC8
:103C73000000000200000004000000080000001023
:103C83000000002000000040000000800000000051
:103C93000100000002000000040000000800000012
:103CA300100000002000000040000001772E06A154
:103CB3002E089B2E0BB92E108F2B027D2E058F2ED7
:103CC30007832E0C5F2E0D6B2E648B29FF000007DC
:103CD300ECFDFDFDECDCDCCCBCACAC9C9C8C7C7CBE
:103CE3006C6C5C5C5C4C4C3C3C2C2C1C1C00160F20
:103CF30000000B150B020002220F3300000E5A695D
:103D030067426565416C6C69616E636530390103B7
:103D13000507090B0D0F00020406080A0C0D140A0F
:103D2300E5D5C5B5A5A59585857565000119161851
:103D3300161618230300303017181921301B1D1FC6
:103D430030303016181920231A1C1E3000034A493C
:103D5300434E181A25050200393D3F373C3C362CAB
:103D6300442D0C0E020B040B0A0708000F02040279
:103D7300010101010902E803000000BE040AD23C6C
:103D830000000000213D0E00FA067F00E8031E1E1E
:103D930000050C08040400102809080903010C0598
:103DA300030815120300FF0A0C1004C082C083E944
:103DB30090197CF00240B374F4120DB68A088B0993
:103DC300EB5480604D800EEEFAEFFB122271EEFA97
:103DD300EFFB121EC390197CE0F9121ED58A0A8BE1
:103DE3000BAE0AAF0BEE4F60208E828F83E0641A16
:103DF30060D5EEFAEFFB12220BE9F974FF6960CE8E
:103E0300EEFAEFFB121EC980CCAA08E5096480FB19
:103E130080047A007B0002409B74F7120DB67AFF90
:103E23000254DB74F6120DB6E9FEEAFF7A047B0056
:103E33001244AEA808A909EA496034EF8A828B8349
:103E4300A3A3A3F0EE8A828B83A3123EAAE4F0A37A
:103E5300F090198B1244CE700990198BE8F0A3E906
:103E6300803FE0FB8A828B83A3A3A3E06F70047976
:103E7300008031EAFCEBFD8A828B831244CE70E42E
:103E830074FF6F700C8C828D83123EB1E4F0A380BB
:103E93001090198B125E0290198B123EB1EAF0A3B7
:103EA300EBF07901025684A3F08A828B8322126D90
:103EB300198882898322C082C083EA126E1B3BF574
:103EC30083E0FA90198B800488828983125CA46052
:103ED3001C88828983A3A3A3E0FBEA6B600574FFBC
:103EE3006B70E588828983A3A3E0F9800279FF02DE
:103EF30040B374F4120DB6EAFEEBFF8A82F5831227
:103F03005E0212220BE9F50874FF697003023FA6F3
:103F13007A197B00121EBDEA4B7003023FA68A8208
:103F23008B837434126883A3EA2402FCE43BFD749C
:103F3300061213118E828F8312716B8882F583129E
:103F43006E2D8A828B83A3A3A3A3A3A3A3A3123F50
:103F5300ABA3A3A3A3A3A3EA240AFCE43BFD740C31
:103F63001213118E828F83125F35C8126E1B38F5C0
:103F730083E0C0E0EA2416F582E43BF583D0E0F069
:103F8300EE240CF8E43FF98882F583126E31EA24BB
:103F930017F582E43BF583123FABE4F0A3F0A908E5
:103FA300121EC9790102409BECF0A3EDF0888289CF
:103FB3008322C082C083901989125E020240B374C7
:103FC300F4120DB68A088B09ECFEEDFF7A08124055
:103FD3001570047910803812407F1240A7740C12B8
:103FE3001742125E0288828983A3A3A3A31277C513
:103FF3009019811244CE90198160111240A280035E
:10400300EAFCEB1244C970F88C828D83124079026A
:10401300409B7B00121F538A0A8B0BA80AA90BEA49
:10402300492274F4120DB689088A09ECFEEDFF7A71
:104033000A12401570047910803A12407F8A828BED
:1040430083A3A3A3E4F0A3124092E509124092A331
:10405300EEF0A3EFF09019851244CE90198560110C
:104063001240A28003EAFCEB1244C970F88C828DE3
:10407300831240798022126D197900221240832223
:104083008A828B83E4F0123EAAA3A3E508F02212EE
:1040930054CCA3A3221213C87F040210C08F83E061
:1040A300FCA3E022A3E5091254D1EEF0A3EFF02222
:1040B300D083D08202139574F2120DB6EAFEEBFFA1
:1040C3008C088D091222898B0DA90DEA4960198A82
:1040D300828B83A3A3A3EEF0A3EF1254C8E508F0E9
:1040E300A3E509F0790080027901025E8474F41279
:1040F3000DB674F71214ABE9FE8518828519837423
:1041030001F0EC7006EDC39406404D74036A4B60F6
:1041130047740112147D880A890B780A1213B57C3F
:10412300127D007A007B00EE1241661213C8E9602B
:104133001CE4F50AF50B780A1213B5740312148DF7
:1041430074021214851222DD74021213C8851882B8
:10415300851983E064017004790180027900740990
:10416300024098F912228F74022274E8120DB67479
:10417300FA1214AB89128A168B178C088D09123622
:104183007B8A148B15EA4B700579020242FCAA085C
:10419300AB09A9121222A7E9F50FA2E6401C901958
:1041A30089125CA46014E82419F582E439F583E0EC
:1041B30064017006E50FD2E6F50F7C067D007900F9
:1041C300AA18AB19121EAB741F12174212430160D7
:1041D30009E054FCF0E044018003E054FC12721344
:1041E300125CA4602B741E121742E0FE888289833E
:1041F300A31211CCEEFD7402121742E05403FCAA81
:1042030008AB09A91212222F74021213C8E9700510
:1042130079010242FC7422121742125CA4601285D7
:104223001882851983E04404F07402121742126D58
:104233001574201217421243016005E044088003FD
:10424300E054F7F074211217421243016005E04471
:10425300108003E054EFF07424121742E0C0E074BE
:1042630004121742D0E0F07405121742EEF07803FF
:10427300851882851983E054046002780574251239
:1042830017421248F5E82510FEE43511FF12459355
:104293006063AC0AAD0BAA18AB1912227D74271206
:1042A3001742125E141213B1AC10AD1112608312D7
:1042B30013C8750C1E780C1213B9750C7F750D1984
:1042C300780C1213B5780A1213B58E0C8F0D780C77
:1042D3001213B578081213B5A90FAC14AD15AA16AD
:1042E300AB1712368774091213C8E9FEAA0AAB0B7F
:1042F300121F5980027E10EEF97406026D231243D9
:104303000522E08518828519832274EA120DB6749A
:10431300FE1214AB890B8A148B158C0E8D0F7E0045
:104323007F00750A0074181217421248F5801112A3
:1043330044BF1222E98B09EE2AFEEF3509FF050A75
:10434300126B2E502EE50A75F0061248AC2403FEBC
:10435300E43FFFA3A3E070E60EEE70010F888289AD
:1043630083A3A3A3A31244CE8882898360C1125C72
:104373001580C2EEFAEFFB1244AE8A0C8B0DEA4BAA
:1043830070030244A2750A008030A818A919881284
:10439300891378121213B578081213B58A828B83A6
:1043A3001244BF1222EF74041213C8127165E50898
:1043B30028F508E50939F509050A126B2E507CE545
:1043C3000A75F006A4F8A9F0E51028F582E51112A4
:1043D3006B151244B68A828B83A312543CF0125499
:1043E300B0125437F0E5082403F508500205098894
:1043F300828983E070C2EA240308E43BF98882F5EA
:10440300831244B6A38582088583098A828B83A39A
:10441300A3A3A31240A28C82F583E5824583700394
:1044230002438DAC08AD09AA82AB8388828983E0FD
:10443300F91222BF8A088B090243BB780C1213B509
:104443008E088F0978081213B57420121742124888
:10445300EB1213B9E4F508F50978081213B57422C1
:104463001217421248EB1213B97422121742124860
:10447300EB1213B975080078081213B9750801789F
:10448300081213B9AC0EAD0FAA14AB15A90B124D3C
:10449300891213C8E9FEAA0CAB0D121F5980027EC4
:1044A30010EEF974021213C80244DC121F538A0877
:1044B3008B0922E0850882850983F022127201AA02
:1044C3000EAB0FA90B22FD8C828D83125E0AEA4B81
:1044D30022EEF98004AA12AB137F0E0210C074EC13
:1044E300120DB6890A8A108B11ECFEEDFF741412BB
:1044F30017421246E77003024584A808A9097C0005
:10450300800D1246CA50010B1246FA5001090C8560
:104513000C82850D83E0FAECC39A40E674016A705D
:104523000AA3E07006750E01750F0078081213B523
:10453300780E1213B5741C1217421246C41213B923
:10454300E4F50CF50D780C1213B5741E1217421214
:1045530046C41213B9741E1217421246C41213B979
:10456300750B00780B1213B9750B04780B1213B982
:10457300124D7F1213C8E9FEAA08AB09121F598016
:10458300027E100246AD740A1213C87F0C0210C0DB
:10459300EEFAEFFB121F538A0A8B0BEA4B22F583C9
:1045A3001257CC22F8E4350DF98882F5831248DBE3
:1045B300A322851082851183E0F8E508C39822744D
:1045C300EC120DB6890A8A108B11ECFEEDFF741400
:1045D3001217421246B2F5087509007402780812E0
:1045E300161085080E85090FAA0EAB0F1273D07033
:1045F300030246AB7900803EE9F51275130074029D
:104603007812121610E50C2512FCE50D3513FD8CFE
:1046130082F583A31245A3124EB5A31245A3A3F0BB
:10462300EC2403FC50010DF5828D83E0124EAF1292
:104633004E8950010B09850C82850D83E0F8E9C38F
:104643009840B5740168700AA3E07006750E017591
:104653000F0078081213B5780E1213B5741C1217D5
:10466300421246C41213B9E4F50CF50D780C12137B
:10467300B5741E1217421246C41213B9741E1217D0
:10468300421246C41213B9750B00780B1213B97595
:104693000B07780B1213B9124D7F1213C8E9FEAA48
:1046A30008AB09121F5980027E10EEF902458E12E3
:1046B30046B622E0F50CA3E0F50D850C82F583E008
:1046C30022E0F50B780B22EC75F003A4FAABF0E5CE
:1046D3000C2AFAE50D3BFB8A82F583124908F0EABE
:1046E3002402FA221246B675F003A4F50EE5F0F59E
:1046F3000FAA0E1271BE22F5828B83124ABF124992
:1047030001A3A3F0E82403F82274E8120DB674FEA3
:104713001214AB1249531217421248F58009EE24C2
:1047230002FEE43FFF05081245B55037E50875F072
:104733000D1248AC2404FEE43FFFE070E8A3E070F0
:10474300DDEE2405FEE43FFFE82404F50AE4391214
:1047530048C760D1850A82850B83E0F91222D1EE26
:104763002980BE12459370030248A78A0E8B0F75EA
:1047730008008018E50C2409FAE4350DFB8A82123F
:1047830048D51248FDF08C0E8D0F05081245B54033
:1047930003024844E50875F00D12490FAA82AB8362
:1047A3001245B0F0E50C24021245A7124924A3F0E8
:1047B300E50E2404F50E5002050F850C82850D834A
:1047C300E070C7E50E2402FCE4350FFD850E8285FB
:1047D3000F83A3A882A9838A828B83E07096E50C5A
:1047E3002404F512E4350DF5138512821248D5F031
:1047F300E50C2405F516E4350DF5178516821273BD
:10480300D41249362407F8E4350DF988821248D5C5
:1048130012494BF0E50E2405F50E5002050F8512E3
:10482300828513831248CE700302478DAC0EAD0F01
:10483300E50C240BF582E4350DF5831248E30247BA
:104843008D780A1213B58E0C8F0D780C1213B57474
:10485300221217421248EB1213B9E4F50CF50D7846
:104863000C1213B574241217421248EB1213B974C5
:10487300241217421248EB1213B975080078081274
:1048830013B975080978081213B9AC14AD15740B74
:104893001217421248BC1213C8E9FEAA0AAB0B1244
:1048A3001F5980027E10026D1FA4F8A9F0E510289D
:1048B300F582E511124A5AEE22125E0AA909122262
:1048C30035740B22F50B850A82F583E0F91222C5B4
:1048D300E922F5831248DB22E0850E82850F8322CD
:1048E300124AC48A0E8B0F22E0F5087808228E82C2
:1048F3008F83E0F510A3E0F5112212490122123E45
:10490300AB12490822A3E08882898322126CE385D3
:10491300820C85830D1248DBF0850C82850D83A301
:104923002212492822A3124B61E0850E82850F8350
:10493300A3A322F0851682851783124944F0E50C60
:1049430022A3E08C828D8322A3A3124928A3A3224E
:10495300851882851983EAF0A3EBF089098C148DFD
:10496300157E007F00750800741A2274EA120DB6D2
:10497300890B8A108B118C0E8D0F7E007F00750AB8
:104983000074161217421252F78003124A27850C3D
:1049930082850D83126B3440F2EEFAEF1273CF600F
:1049A3007EA808A909750A008003124A63850C8250
:1049B300850D83E0FAE50AC39A40EF78081213B530
:1049C3008E0C8F0D780C1213B5741E121742126BD6
:1049D3005A1213B9E4F50CF50D780C1213B57420C3
:1049E300121742126B5A1213B97420121742126B28
:1049F3005A1213B9750A00780A1213B9750A0A789C
:104A03000A1213B9AC0EAD0FAA10AB11A90B124DBC
:104A1300891213C8E9FEAA08AB09121F5980027E46
:104A2300100244D4E50A75F005A4F8A9F0E50C28B2
:104A3300F582E50D124A5AA3A3A31277CDA3A3E0EF
:104A4300F91222D78B09EA2403F8E43509F9EE2891
:104A5300FEEF39FF050A2239F583A3A882A9832231
:104A6300E50A75F005A4FAABF0124AB38582148502
:104A73008315124909124EAA88828983A3F0E5148B
:104A830012751035158A12F5138A82F583124ABFFF
:104A9300A3F0E82403FCE439FD851482851583A380
:104AA300A3A3124AC48A128B13A812A913050A22BC
:104AB300E50C2AF582E50D3BF583A322124909A3F0
:104AC30022125E0E851282851383E0F91222BF2221
:104AD30074F6120DB674FE1214ABE9FE740C1217C1
:104AE30042124B52C0E07401121742D0E0F0A818F2
:104AF300A9198808890978081213B5750802750978
:104B03000078081213B574161217421248EB1213E9
:104B1300B974151217421211CC74161217421248A7
:104B2300EB1213B974161217421248EB1213B9752C
:104B3300080078081213B975080B78081213B9EE38
:104B4300F9124D891213C874021213C80256841243
:104B5300722D8882F583124305124B61E022F0889F
:104B6300828983A32274EA120DB689138A108B11EA
:104B7300ECFEEDFF741612174212752EE50A24029D
:104B8300F50CE4350BF50D850C82F583E004751205
:104B930000F50E750F00FAAB0F1273D07003024CC1
:104BA30093850A82850B83124D73801EEAFC850A66
:104BB30082850B83A3A3A3E02CFBA3E034008B82A9
:104BC3001273D4F0A3A882A9830A850C82850D836E
:104BD300E0FBEAC39B40D5850A82850B83A3E0F8FB
:104BE3007418121742E0F97419121742E0FA741A92
:104BF300121742E0FB741168703978081213B57804
:104C03000E1213B5EBF50A780A1213B9E4F50AF597
:104C13000B780A1213B5EAF50A780A1213B9E9F503
:104C23000A780A1213B9750A00780A1213B9750AB9
:104C330012803C741368704F78081213B5780E1203
:104C430013B5EBF50A780A1213B9E4F50AF50B78F4
:104C53000A1213B5EAF50A780A1213B9E9F50A78C4
:104C63000A1213B9750A00780A1213B9750A14786F
:104C73000A1213B9EEFCEFFDAA10AB11A913124DE2
:104C8300891213C8E9F512AA08AB09121F59800348
:104C9300751210A9120244DC74E8120DB689108A49
:104CA300128B13ECFEEDFF7418121742124E95751A
:104CB300F003A4A9F02401F50EE4391273CB7003B9
:104CC300024D6C850C82850D83124D73802EEA751F
:104CD300F003A4FCADF0E50C2CFCE50D3D124E7B7E
:104CE3001273D4124EA688828983124EBC8882899D
:104CF30083A3A3F0E82403F85001090A850A8285F7
:104D03000B83E0FBEAC39B40C578081213B5780E0A
:104D13001213B57420121742126B5A1213B9E4F529
:104D23000AF50B780A1213B57422121742126B5A42
:104D33001213B97422121742126B5A1213B9750A5D
:104D430000780A1213B9750A0D780A1213B9EEFC2A
:104D5300EFFDAA12AB13A910124D891213C8E9FE75
:104D6300AA08AB09121F5980027E10EEF9026D26C4
:104D73001257CCF0A3A882A9837A0022EEFCEFFDA0
:104D8300AA10AB11A90A122235740B2274E8120D72
:104D9300B689128A108B11ECFEEDFF7418121742BC
:104DA300124E95F50875090074027808121610E57D
:104DB300082401F50EE435091273CB7003024E7615
:104DC300850C82850D831257C3A3AA82AB83790016
:104DD3008034E9F51475150074027814121610E581
:104DE3000C2514FCE50D3515124E7B1245A1124E10
:104DF300A68A828B83124EBC124EAFA3A3A3A31227
:104E03004E8950010B09850A82850B83E0F8E9C3BB
:104E13009840BF78081213B5780E1213B574201298
:104E23001742126B5A1213B9E4F50AF50B780A12FA
:104E330013B57422121742126B5A1213B974221249
:104E43001742126B5A1213B9750A00780A1213B972
:104E5300750A16780A1213B9EEFCEFFDAA10AB110E
:104E6300A912124D891213C8E9FEAA08AB09121F31
:104E73005980027E10024D6EFDEC2402F514E43DD0
:104E8300F515851482221257CCA3A3A3F0EA2404B8
:104E9300FA221252FB850C82F583A385820A85834D
:104EA3000BE022124EAA22127219E0228A828B830D
:104EB300A3A3F08C828D83A322A3F08C828D83A382
:104EC300A3A3A3E02274F1120DB674EB1214ABEAA0
:104ED300FEEBFFC200EA2420F8E43F8808F50988C6
:104EE30082F583C3E09403A3E094005005790102A3
:104EF30052EF9019891277C774021217421277C7BB
:104F0300740E121742E4F0A3F0740A121742E4F08D
:104F1300A3F0740C121742E4F0A3F0EA2422F8E49D
:104F23003F880AF50B8882F583126E3174041217D9
:104F330042AA82AB831222778A0C8B0DA80CA90D8F
:104F4300740A1217421277C7850882850983125E95
:104F530002EAC398F8EB99F9850A82850B83E02866
:104F6300F8A3E039F9740C121742126D1574081284
:104F73001742E0901980F0EE2414F508E43FF50998
:104F8300850882F583E0F912367B8A828B83E5827A
:104F93004583700C901989E4F0A3F079020252EF73
:104FA30012533D602BEE2404F50AE43FF50BA312E4
:104FB30011CC740B121742E0FD7406121742E05431
:104FC30003FC12534C12222F74021213C8E9700C03
:104FD300901989E4F0A3F079030252EF12534C12B3
:104FE30022A7E9F50E850A82850B83125E02EAFC8D
:104FF300EBFD901981800488828983125CA470037D
:105003000250EB88828983A3A31252F7C3EA950C5B
:10501300EB950D40E288828983A3A3A3A3C3E09CFD
:10502300A3E09D40D2E8FCE9FD7404121742E0546A
:1050330007700D7409121742E0640B70030250EFFE
:10504300E50EA2E640030250EFEE2419F582E43F99
:10505300F583E060030250EF7402121742125315F6
:10506300707A7402121742125C9F70707C0085087C
:1050730082850983E0F91222AD740112174274018B
:10508300F07409121742125303121742E0F50C7819
:105093000C1213B974071217421211CC750C017854
:1050A3000C1213B974081217421273E01213B97475
:1050B3000512147D880C890D780C1213B57409122E
:1050C3001742125334121742125309121742125342
:1050D300231213C87C0112534C1222AD901989E498
:1050E300F0A3F079050252EF7C007D0074041217DF
:1050F30042E0F85403600302520AE8540460057E58
:10510300840252497409121742E0F8C3941740030A
:10511300025206E8F50A750B007402780A1216109B
:1051230074C2250AF582743B350B1257ABE84970FC
:1051330003025206850882850983E0C0E0741012D9
:105143001742D0E0F0740C121742125E027411126F
:1051530017421277C7740A121742125E02741312AF
:1051630017421277C7741012148588828983120F2D
:10517300858B09A909740E1217421277C7EA496091
:10518300487409121742E0F508750900740278089B
:1051930012161074C42508F582743B3509F583E4AF
:1051A30093F87401938882F583E5824583601274D2
:1051B30002121485120F85740E121742125CA4603A
:1051C30008740E1217421277767409121742E0F828
:1051D3006054740268604F740368604A74066860C0
:1051E300457408686040740C68603B7411686036ED
:1051F3007413686031741568602C740B6860277EC3
:105203000080437E82803FEC4D602B8C828D83A394
:10521300A3A312533D601F7402121485120F85E974
:10522300FE74FF6E700B901989E4F0A3F0F902523B
:10523300EF74016E70107404121742E0540460049A
:105243007E8380027E817402121742125315707599
:105253007402121742125C9F706B7404121742E0BF
:10526300FA541070607401121742EEF074091217A9
:10527300421253031217421248EB1213B974071266
:1052830017421211CC75080178081213B9EA1313E7
:1052930013541F64015401F50878081213B97405F7
:1052A30012147D8808890978081213B57409121736
:1052B3004212533412174212530912174212532344
:1052C3001213C8D200901989E4F0A3F0EE700479A8
:1052D30000801974846EA200700A50047907800C50
:1052E300790680085004790980027908741512132D
:1052F300C8025C0F1252FB22E0F50CA3E0F50D226D
:10530300127771740822E02406FAA3E03400FB74D8
:105313000922125F35C82415F582E438F583E022AB
:10532300A3E0C8126E1F38F583E0F91222597407FF
:10533300221271111271FD740922A3A3A3125F3506
:105343008882F583E582458322850A82850B831251
:105353005E0A850882850983E0F92274F4120DB68A
:105363008A088B09ECFEEDFF7C067D007900121E96
:10537300AB850882850983E054FCF8A3E0F98E82AB
:105383008F83E05403FAE84A850882850983F0A3F2
:10539300E91277BDA2E25004D2F08002C2F0850880
:1053A30082850983E054FBF0A2F0E433F50A750B20
:1053B300007402780A121610E0450A1277BDA2E3C0
:1053C300850882850983E050044408800254F7125B
:1053D30077BDA2E45004D2F08002C2F08508828532
:1053E3000983E054EFF0A2F0E433F50A7404780A79
:1053F300121610E0450A126089850882850983E048
:10540300540460108E828F83E0FAA3E0F9EA1265F8
:10541300DA50010F8E828F83125437A312544585BD
:105423000882850983A3A3A3A3A3F0EE1275103FFB
:10543300FB02409B12543CA322E08508828509832A
:10544300A322A3126883E02274F7120DB68A828B1B
:1054530083E054038C828D831254C354041254BCCE
:1054630054081254BC5410F88C828D83E048F0A386
:10547300AC82AD838A828B83E0540460161254B0ED
:10548300124945124B5C8C828D83A3F0EC2402FC01
:1054930050010D8A828B83A3A3A31249441254C8DB
:1054A300124945A3F0EC1275103DFB802EEA24024D
:1054B300F8E43BF98882F58322F88C828D83E048F7
:1054C300123EABE0221254CC221254D1A322F08A12
:1054D300828B83A3A3A3A3221222057F010210C000
:1054E300C082C08390198380048A828B831244CE46
:1054F300600C8A828B83A3A3E06970ED80047A0039
:105503007B000240B3C082C08390198580048A82E5
:105513008B831244CE60138A828B83A3A3E0F8E9C2
:1055230068600B74FF6870E680047A007B000240B9
:10553300B374F0120DB68A088B09ECFEEDFF12224C
:10554300898A0C8B0DEA4B60627C0080010C850C10
:1055530082850D83A3A3A3A3A3A3A3125F1B504B15
:10556300ECF50E750F007403780E121610850C827D
:10557300850D83A3A3A3A31257B58882F583E49370
:10558300FA740193FBE5086A7003E5096B70BEA327
:10559300A31255B27002EF6B70B37410121742125C
:1055A30055BC74081212CD7901800279008015E48C
:1055B30093FA740193FBEE6A221272018983888243
:1055C300221213C87F080210C074F6120DB61255CA
:1055D300F86005125DFF80047A007B000256847434
:1055E300F6120DB61255F86005125DFD80047A00BF
:1055F3007B000256841222898A828B83E58245834B
:105603002274F7120DB6E9FFEAFCEBFD90198780CF
:105613000488828983125CA4604688828983A3A359
:10562300E06F70ED7E0080010E88828983A3A3A3BF
:10563300E0FAEEC39A50DAEE75F003A4FA85F008A7
:10564300AB0888828983A3A3A3A3E02AFAA3E03B40
:10565300FB8A82F583E06C7003A3E06D70CA80045B
:105663007A007B000254DE74F6120DB61222A18A70
:10567300828B83E58245836006A3A3E0F9800279E8
:10568300007F020210C074F6120DB6ECFF1222A1C5
:105693008B09A909EA496015EA2402F582E439F580
:1056A30083EF6005E0D2E68003E0C2E6F080D274C7
:1056B300F0120DB6EAFEEBFF8C098D0A1222838AE3
:1056C3000C8B0DEA4B70030257A0750B007410127C
:1056D3001742126B29FAE9FB80128C828D83A3A3F4
:1056E300A3E493A2E35003025786050B850C82853E
:1056F3000D83A3A3A3E0F8E50BC39840030257A0CF
:10570300E50BF50E750F007402780E121610850C5A
:1057130082850D831257B51257A5EE687002EF69A3
:1057230070C88A828B83E0F88C828D83A3A3E49371
:10573300C39840B67411650970197401650A609ABB
:10574300E50A70A68C828D83A3A3A3E493A2E2400F
:10575300328097741365097044E50A700D8C828D4D
:1057630083A3A3A3E493A2E080E57401650A600325
:105773000256ED8C828D83A3A3A3E493A2E140039D
:105783000256ED741212174212589C74041212CD71
:1057930088828983A3A31257C37901800279000207
:1057A30055C7E8FCE9FD8882F583E493F874019317
:1057B300F922A3A3A3A3E0250EF8A3E0350FF92252
:1057C3001257CCF0228E828F83E08A828B832274DD
:1057D300F0120DB68A088B098C0B1222898A0E8B64
:1057E3000FEA4B70030258897A007B00741012177A
:1057F30042125F2880050AEA70010B850E82850F2D
:1058030083A3A3A3A3A3A3A3E0F8C3EA98EB940001
:1058130050748A0C8B0D7403780C121610850E824B
:10582300850F83A3A3A3A312588E1257A5E5086877
:105833007003E5096970BFA3A3E493F50C740193A6
:10584300F50D8E828F8312716BC3E50C98E50D996C
:1058530040A48C828D83A3A3A3A3A3E493A2E7E430
:1058630033650B7091741212174212589C7408120C
:1058730012CD88828983A3A312716B8E828F8312C8
:105883006D157901800279000255C7A3A3A3A3E094
:10589300250CF8A3E0350DF92212722D8C828D832D
:1058A300E8FCE9FD2274F1120DB6EAFEEBFFECFA17
:1058B300EDFBEE4F7003025A1AEC2402F50CE43BA5
:1058C300F50D8C828D83A3AC82AD838E088F097511
:1058D3000A00E912127D044142E7594344F959E0B1
:1058E300E2B259E8E95E5921085059095E590A7430
:1058F300590BB259105059185059195E591A745905
:105903001BB259205059215E5922745923B259248C
:10591300C35925CC5926D55927DE59285059295E14
:10592300592A74592BB2592CC3592DCC592ED559F8
:105933002FDE59305059315E59385E5939B2593AD0
:10594300DE59EAB259F0DE59F10B5A1A5A8E828F98
:10595300831257C3ECFAEDFB025A1A8E828F83121D
:1059630045A31254468C828D83F00A0AAB0D025A6A
:105973001A8E828F8378081216D38A828B83E50866
:1059830012688878081216D3E5098C828D83126811
:105993008878081216D37410780812144C850C8278
:1059A300850D83E508F0EA2403FA506B0B80688EBB
:1059B300828F831211C8121F2974041213C88057CF
:1059C30078081213B17C05804678081213B17C065F
:1059D300803D78081213B17C07803478081213B124
:1059E3007C08802B78081213B18E828F83E0240108
:1059F300FCE43400800F78081213B18E828F831277
:105A03005BA4FCE439FD800978081213B17C107D96
:105A1300001260831213C8025C0FC082C083E912B4
:105A2300127D03202F355A383A355AE0E2355A00B1
:105A3300395A7901800279000240B374F2120DB62B
:105A430074FE1214ABEAFEEBFF8C088D091222D709
:105A53008518828519837401F0A3E4F08518828583
:105A63001983E0600C750C01750D007800790080D6
:105A730033750CFF750DFFEA24FFF8EB34FF802329
:105A8300850882850983E0C0E0EE28F582EF39F5C9
:105A930083D0E01272F6858208858309E8250CF825
:105AA300E9350DF9EAFCEBFDEC24FF1AED34FFFBBD
:105AB300EC4D70CC74021213C8025E84E924F860C2
:105AC3007814607914607A14607B24FB606B24F88B
:105AD300606714606814606914606A24FB605A1478
:105AE300605B14605C14605D14605E14605F14603E
:105AF3006014606114604214604314604414604590
:105B030014604614604714604814604914602A14F2
