:020000040000FA
:0600000002169F0209D662
:030013000209F8E7
:03002B0002144A72
:03003300020C209C
:03003B00020A4D69
:03004B0002132A73
:0300530002090B94
:03005B000211830C
:0300630002119EE9
:03006B00020BC6BF
:03007B00020BF77E
:1000830002096A010020FD0002012E0500000001A3
:10009300771C831C0000891C951C000000009B1C1E
:1000A300BF1CC51CCB1C00000000000000000101A8
:1000B3000204081020408001FFFF090D0101040123
:1000C3000001000000000000000612FFFFFFFFFF19
:1000D300FF0101010400FA11000000E8030000FF22
:1000E300FFA212E803000064006400B801A0BB0D86
:1000F30000A0BB0D00020200F8FF0705021E040169
:10010300051E02051E020A0A010108080310270240
:10011300803E0102FEFFE8030A050001FFFF020A19
:100123001401E0C503423F1A51123FF304B53F00E7
:1001330000803E05030101FFBF3700000000933636
:1001430000000000FF000000FF00C082C083120215
:10015300AA600814601214601C802BEA6005EB424D
:10016300808023E85280801EEA6005EB429080166F
:10017300E852908011EBC39420500BEA6005EB42E8
:10018300A08003E852A0020218C082C0831202AA10
:10019300600814602C146050807BE852F374016A89
:1001A300601274026A601574046A7003EB428FEB89
:1001B30042FD806153F7DFE8528F80F343F72080DD
:1001C300F6E852F474016A601274026A60157404EA
:1001D3006A7003EB42F6EB42FE803A53F7BFE852F4
:1001E300F680F343F74080F6EBC394205027E852A0
:1001F300F574016A601274026A601574046A70030C
:10020300EB42F7EB42FF800D53F77FE852F780F3A1
:1002130043F78080F6D083D08222C082C08312024B
:10022300AA600814602B14604E806CE852F352FDF0
:1002330074016A600F74026A600F74046A7058EB89
:10024300428F805353F7DF800343F720E8528F80B8
:1002530046E852F452FE74016A600F74026A600F3A
:1002630074046A7032EB42F6802D53F7BF80034368
:10027300F740E852F68020EBC39420501AE844E09C
:10028300F852F552FF74016A601074026A601374C5
:10029300046A7003EB42F702021853F77FE852F740
:1002A30080F543F78080F6E95407FC743D2CF58212
:1002B300E43415F583E0FBF4F8E9C4540F54032246
:1002C300C082C0831202AA600814601214601C80EA
:1002D3002DEA6005EB42FD8025E852FD8020EA60AF
:1002E30005EB42FE8018E852FE8013EBC3942050C6
:1002F3000DEA6005EB42FF800574E04852FF0202FD
:1003030018C082C0831202AA600814601514602208
:100313008034EA6005EB42808003E85280EB42FDC3
:100323008024EA6005EB42908003E85290EB42FEA2
:100333008014EBC39420500EEA6005EB42A08003C7
:10034300E852A0EB42FF020218E9C4540F540360C1
:1003530007146013146020227801E8F4FBEA60209C
:1003630014602114601522740F59C3940450047847
:100373000280E7780480E3780880DFE58C58600426
:10038300EB528C22E8428C221216AF601D1216BE6D
:100393007005191919801A121518701F121540C308
:1003A3007003E6673319191940071818182208084B
:1003B3000874FFF618F618F618F62212154060179F
:1003C300121764702192F012176D7019501720F0F4
:1003D30014080808090909E7F61819E7F61819E7D0
:1003E300F61819E7F62212176D60E6E869701F0820
:1003F30008E62480F608E436F618547FB47F0CE64A
:1004030054806007F6E418F618F622181822E9C695
:10041300CC08C6CD08C6CE08C6CFC0E0E8C0E0EA27
:10042300C0E0EBC0E009E9F809E7FA09E7FBE6F900
:1004330018E6F8C3EC98ED99EE9AEBC2E7F5F0EF06
:10044300C2E795F0500E600CEBCFFBEACEFAE9CD94
:10045300F9E8CCF8EAA2E7D2E7FAEB33FB13F5F0BD
:10046300EEA2E7D2E7FEEF33FFC5F013A2E730E6D3
:1004730001B313C5F0C3C0E0C0F07F00C39BFB60B2
:100483005E9418600F401D14601AD0E023F9D0E089
:10049300F802056C8AF0E9486003D2F0E4AFF0FAA1
:1004A300F9F8803BEB30E40D89F0EA6003D2F0E425
:1004B300AFF0F9CAF8EB30E30D88F0EF6002D2F049
:1004C300AFF0E4CAC9F8EB54076014FBC3EA13FAAC
:1004D300E913F9E813F8EF135002D2E0FFDBEDD094
:1004E300E0C0E030E739C3E49FFFF5F0EC98FC424D
:1004F300F0ED99FD42F0EE9AFE42F0D0E0F9D0E043
:10050300F8E5F0607AE923F9EE20E742D802806744
:10051300C3EF33FFEC33FCED33FDEE33FE80EAEC47
:1005230028FCED39FDEE3AFED0E023F9D0E0F840A7
:1005330002801BC3EE13FEED13FDEC13FCEF13500F
:1005430002D2E0FF08B800067F7F74FF802EEF33EE
:1005530050178CF020F00260100CBC000C0DBD0095
:10056300080EBE000408E860DFE933E813FFEE235A
:1005730013FE4F4D4C8008E95480FFE4FEFDFCEE72
:1005830033EF33F47004FCFD7E80D0E0FBD0E0FA5F
:10059300D0E0F8D0E0CFC618CEC618CDC618CCC66A
:1005A300F9221216AF7004181818221216BE700D15
:1005B30074FFF61819F61819F61819F622E754807D
:1005C30066F612176D700F12176470F014F608F6C2
:1005D30008F608F680D1121764700CF608F6087650
:1005E3008008E6447F80EC121543700C12151B60E3
:1005F300BFE65480F6E480BB12151B700519191968
:1006030080A5E869700C763F18768018F618F6E82E
:10061300F922E6CDC0E018ECC0E0E633CD33CDD30C
:1006230013F6E719FCE7191933CC33C3947F400E53
:10063300CD9D502408E65480F6E418F6800FF404A8
:100643003D14501408E6447FF6187680E418F61833
:10065300F6D0E0FCD0E0FD22CCD313CCFD18E4C6E9
:10066300CBC0E018E4C6CAC0E00808ED08C633E60C
:1006730013F618E433C675F003C3CA97CA09CB97B8
:10068300CB199C40047D08802EBD000302074E1643
:10069300B6FF050606081618C3CA33CACB33CB33D5
:1006A300CA27CA09CB37CB193CC37D08803E187DC6
:1006B3000820E75CC633C6CA33CACB33CB33DDF17C
:1006C300D5F0EB30E77BCA97CA09CB974ACB199C85
:1006D300406F4B7025E620E0218066187D08C3CA71
:1006E30097CA09CB97CB199CD3C633C6CA33CACB97
:1006F30033CB3350C9DDE7D5F0E1D3E4C636C608C2
:10070300C636C608C636C608C636C6181818803197
:10071300C3CA97CA09CB97CB199CB34097C633C6B4
:10072300CA33CACB33CB33DD34D5F02EC6A2E0C6F1
:1007330040C8CA27CA09CB37194A70BECB3CB4801C
:10074300B90808E63308E633601F181818D0E0FA32
:10075300D0E0FBD0E0FCD0E0FD22187D08CA27CA18
:1007630009CB37CB193CD3808013F618E4B67F113D
:10077300F618B6FF0EF618C60470D2080876808005
:10078300CAF618F618F680C5001216AF604F121697
:10079300BE6012E7548066F61215187011121764C2
:1007A300703B090909F4F618F618F618F622121523
:1007B30040701512176D08080860EAE6447FF618C2
:1007C300768018E4F618F62212176D601612176475
:1007D3007012E4F608F608F608E65480F6090909EB
:1007E30018181822EAC0E0EBC0E0ECC0E0EDC0E06E
:1007F300E687F0A4FBACF008E687F0A42CFCE43514
:10080300F0FA1809E687F0A42C4B60027401CA358C
:10081300F0FCE433FB09E687F0D2F7A42CCB35F0E8
:10082300FC1908E687F0A42BCC35F0FBE433FD0874
:1008330019E687F0D2E7A42C4ACB35F0CD3400FC7F
:1008430009E687F0D2E7A42DCC35F0FDE433FA09AD
:1008530018E687F0D2F7A42CCD35F0CA3400FC0893
:10086300E687F0D2E7D2F7A42ACC35F07A7E20E7E8
:100873000B0ACB33CBCD33CDCC33CC33CB3350146A
:100883007004ED30E00ED2F1E4CD3DCDCC3CCC3B59
:100893005005DA05C2F1EB547FC63308E63392F014
:1008A300FBE73309E733C39A502D2B70190C0D4C1A
:1008B3004D70151806E608C333700D20F10AA2F037
:1008C30013F6E418800B4024E4F630F00276801827
:1008D300F618F618F68024D33B14501074FFA2F0D8
:1008E30013F6187680E418F618F6800FA2F013F6C4
:1008F30018E63303F618ECF618EDF6D0E0FDD0E079
:10090300FCD0E0FBD0E0FA22C0E074F1120E1CA28E
:10091300AFE433F509D2AF85A708AFA1EF5508FEC1
:1009230074105E600612195F75A1EF74085E6008AB
:1009330012196575A1F78024EFA2E092F0E508A2F1
:10094300E082F05017906198E0F890049CE0C3981F
:10095300A2D265D0335002E8F075A1FEE509A2E00A
:1009630092AF7F02020E7BC0E074F2120E1CA2AFA4
:10097300E433FED2AF9061A4E0F8759B00E5915893
:10098300540860087591F71219AD8023E591585406
:100993001060087591EF1219B38014E591A2E092EB
:1009A300F0E8A2E082F05007E0C2E0F0121B0990E9
:1009B30061A3E0F8E5E9585404600E121ADF75E903
:1009C300FB906193E0A2E640F2EEA2E092AF7F01DA
:1009D300020E7BC0E074F2120E1CA2AFE433FED20F
:1009E300AF9061A5E0F8E5BF585404600675BFFBFE
:1009F300121B2180D4C0E0C0D0E8C0E0E9C0E0C051
:100A030082C083A8C1E8C0E0900409E0F874882894
:100A1300F582E43403F583D0E0F0900408E0F8A312
:100A2300E0687006E59590040BF0900409E004F08B
:100A3300C394804002E4F0A374C6F0D083D082D084
:100A4300E0F9D0E0F8D0D0D0E032C0E0C0D0E8C0C8
:100A5300E0E9C0E0C082C08390048CE0F8A3E068C2
:100A63007008539AFBA374018022C2E990048CE0BE
:100A7300F8740128F0740C28F582E43404F583E05B
:100A8300F5C190048CE0C394804002E4F080AC1282
:100A93000ADD30F039120B228034120ADD20F01403
:100AA30030E72B74FFFCFBFA747F8022E4FCFBFA33
:100AB3007480801AB48008BC00F2BB00EF800F5032
:100AC300EBF9E4C39AFAE49BFBE49CFCE499C6CCFF
:100AD30018C6CB18C6CA18C6F922E4C9C608CAC6BE
:100AE30008CBC6D3330308CCC63392F0C3947F40FC
:100AF3002E94184019C9B90704CACBCC225025C378
:100B030009CA33CACB33CBCC33CC33D9F422F46008
:100B13000DC9CCC313CB13CBCA13CAD9F6CC22E469
:100B2300FCFBFA2214FCFBFA22C3E498F8E499F9DB
:100B3300120B6D8026C3E49AFAE49BFBE920E7E9F4
:100B4300120B6DE498F8E499F922C3E498F8E49958
:100B5300F9120B6DE498F8E499F9C3E49AFAE49B6B
:100B6300FB22EB20E7CFE920E7E0B90010BB000848
:100B7300E88AF084F8AAF022E4FBC8FA22EB702298
:100B83007B10C833C8C933C9335007C39AC3DBF2D8
:100B930080069A50012ADBEAC833F4C8C933F4C982
:100BA300FA2275F008E4C833C8C933C933C99AC9EE
:100BB3009B5004C92AC93BD5F0ECFBC833F4C8E405
:100BC300C9FA22C0E074F2120E1CA2AFE433FED2C3
:100BD300AF90062FE05589600FE589FA7900121D61
:100BE300A990062FE0F45289C2C5EEA2E092AF7F2E
:100BF30001020E7BC0E074F2120E1CA2AFE433FEBE
:100C0300D2AF900630E0558A600FE58AFA79011277
:100C13001DA9900630E0F4528AC2EB80CDC0E07487
:100C2300F2120E1CA2AFE433FED2AF900631E055B0
:100C33008B600FE58BFA7902121DA9900631E0F45F
:100C4300528BC2E880A4080808EAC0E0EBC0E08643
:100C5300F0E7A4FA180986F0E7A42AFA180986F03F
:100C6300E7A42AFA180986F0E7A42AFA1986F0E716
:100C7300A4FBE5F02AFA190886F0E7A42BFBE5F0BC
:100C83003AFA190886F0E7A42BFBE5F03AFA1818AC
:100C93000986F0E7A4C5F02BFBE43AFA1908E7C587
:100CA300F0C6A426F6E5F03BFBE43AFA1886F0E733
:100CB300A4F6E5F00826F6E43B08F6E43A08F6D095
:100CC300E0FBD0E0FA22080808E630E71112157CB1
:100CD300120CE1080808C64480C618181822181810
:100CE30018E9799EC608CAC608CBC608CCC6C37025
:100CF300207996CACBCC7019798ECBCC70137986B8
:100D0300CC700EF9802ACA33CACB33CBCC33CC3365
:100D13001930E7F2CCCBCA3350147004EA30E00D3B
:100D2300E4CA3ACACB3BCBCC3CCC500209C3E9134F
:100D3300C6CC182313C6CB18C6CA18C6F922E4CFEB
:100D4300C0E0E4CEC0E0E4CDC0E0E4CCC0E075F0A8
:100D530020E626F608E633F608E633F608E633F629
:100D6300181818EC33FCED33FDEE33FEEF33FFC3FD
:100D7300EC9709ED9709EE9709EF97191919400FA9
:100D8300FFEC97FC09ED97FD09EE97FE191906D5BF
:100D9300F0BFECF709EDF709EEF709EFF7191919A9
:100DA300D0E0FCD0E0FDD0E0FED0E0FF222518C566
:100DB30082C0E0E51934FFC583C0E0E518C395821E
:100DC30024F810AF08858319858218800885831954
:100DD300858218D2AFCEF0A3E520F0A37808E60809
:100DE300F0A3DEFAEFF0A3E58124FAF8E608F0A316
:100DF300E608F0A3E608F0A30808E608F0A3E6086F
:100E0300F0A315811581D0E0FED0E0F8158115819E
:100E13001581E8C0E0EEC0E022C0D02518C582C02D
:100E2300E0E51934FFC583C0E0E518C3958224F3D8
:100E330010AF0885831985821880088583198582F8
:100E430018D2AFC8F0A3E9F0A3EAF0A3EBF0A379BB
:100E530008E709F0A3D8FAECF0A3EDF0A3EEF0A3B2
:100E6300EFF0A3D0E0F0A3D0E0F0A3D0E0F0A3E54F
:100E730020F0A3E5F0F0A322851983851882E0C052
:100E8300E0A3E0F9A3E0FAA3E0FBA37808E0F60807
:100E9300A3DFFAE0FCA3E0FDA3E0FEA3E0FFA3E0F1
:100EA300C0E0A3E0C0E0A3E0F5D0A3E0F520A3E019
:100EB300A3F5F010AF088583198582188008858310
:100EC30019858218D2AFD082D083D0E0F8D0E03237
:100ED30012157F181818120D4112164E19191922DE
:100EE30012164E191919080808E618181820E7E011
:100EF300120D4112157F18181822090909E719194B
:100F03001920E7DC080808E618181820E703020D83
:100F13004112157F181818120D4112157F18181851
:100F230012164E1919192212174FB90003020F692D
:100F3300E490033178E179128002F0A3D8FCD9FA66
:100F43007A117B1590008678C879018015E493A304
:100F5300AD82AE838A828B83F0A3AA82AB838D8218
:100F63008E83D8E9D9E77582537583A97406121362
:100F7300A775826D75833274001213A70475F01080
:100F83008E1A8F1B85821F85831E85188285198380
:100F9300E0CEA3E0CF851F82851E83EBC9EAC8EDAF
:100FA300CBECCAC3E833C8E933C9EA33CAEB33CB62
:100FB300C3EA9EF51DEB9FF51CB35004AB1CAA1DA1
:100FC300EC33CCED33CDD5F0DAAE1AAF1B221216CB
:100FD300AF601C1216BE601712176D7007121764EC
:100FE3007001D322C0D01217647006D0D0B322C3CD
:100FF3002233D0D0501430E0F6C3E7960809E796C1
:101003000809E7960809E796B32220E0D5E6970892
:1010130009E6970809E6970809E697B3221216AF7F
:10102300601B1216BE601612176D700712176460EC
:101033000CB322C0D01217647005D0D022C3223360
:10104300D0D0501330E0EBC3E7960809E7960809C0
:10105300E7960809E7962220E0E4E6970809E69771
:101063000809E6970809E69722D083D082ECC0E00E
:10107300EDC0E0E493A3FCE493A3FDED4C600D12FB
:101083001144EC24FFFCED34FFFD80EFE493A3FC5B
:10109300E493A3FDED4C600D12124AEC24FFFCED2A
:1010A30034FFFD80EFD0E0FDD0E0FCE493A3C0E08B
:1010B300E493C0E022851983851882E0A3FEE0A3B0
:1010C300F5207808E0A3F608DFFAE0A3FFE0A3C069
:1010D300E0E0A3C0E0E0A3C0E0E0A3C0E0E0A3C081
:1010E300E010AF08858218858319800885821885EA
:1010F3008319D2AFD083D0820213ADD083D082E9DB
:10110300C0E0E493A3C386F0C5F095F0F908E49337
:10111300A386F0C5F095F0700BE493A3C399400543
:10112300E9048002A3E475F002A42582F582E5F0C8
:101133003583F583D0E0F9E493A3C0E0E493C0E002
:1011430022C0E0C3E49396087401939618400FE419
:101153009366700808740193661870007019A3A34E
:10116300C3E49396087401939618A3A3400DD0E0AB
:10117300D0E0D0E00210A8A3A3A3A3A3A3D0E022AE
:10118300C0E074F2120E1CC2D990155B1211B64066
:1011930005E0F91220917F01020E7BC0E074F21288
:1011A3000E1CC2DC90155D1211B64005E0F9122049
:1011B3009180E3E0C39400A2D265D033227404800B
:1011C3000474028000CCC0E0EDC0E0E518C39CCC01
:1011D300AD1950011D10AF068C188D1980068C189F
:1011E3008D19D2AF121309D0E0FDD0E0FC227402B6
:1011F3008000CCC0E0EDC0E0E518C39CCCAD195035
:10120300011D10AF068C188D1980068C188D19D20C
:10121300AF1212C5D0E0FDD0E0FC221216AF60255C
:101223001216BE602012176D7003021764080808B7
:10123300E76670101819E766700A1819E7667004F4
:101243001819E76622F422C0E0C0F088F0E4936640
:1012530070080874019366187000A8F0A3A3700BBC
:10126300D0F0D0E0D0E0D0E00210A8A3A3D0F0D01B
:10127300E022D083D082CCC0E0E493A360061213B3
:10128300881470FAE493A360061214AD1470FAD0B4
:10129300E0FCE493A3C0E0E493C0E022C008C3E011
:1012A30096F50808A3E096420808A3E096420808CA
:1012B300A3E0964208A2D265D033E5087001D3D0EB
:1012C3000822CAC0E0E493A3C582CCC582C583CDFE
:1012D300C583F0A3C582CCC582C583CDC583DAE5BA
:1012E300D0E0CA22A2E792D65002F40430F7066394
:1012F300F0FF05F0B3400384800384F40430D60583
:1013030063F0FF05F022CAC0E0E0A3C582CCC5822A
:10131300C583CDC583F0A3C582CCC582C583CDC5A6
:1013230083DAE6D0E0CA22C0E0C0D0C082C08375B1
:10133300AF0090066DE02401F0A3E03400F0D08309
:10134300D082D0D0D0E03270090808082260161885
:101353001818C6C333C608C633C608C633C608C67C
:1013630033C6D5E0EA22C008C3E096F50808A3E037
:1013730096420808A3E096420808A3E09645087041
:1013830001D3D00822C0E0E493A3D39C5010E4938C
:10139300A3C39C400AD0E0D0E0D0E0021292A3A302
:1013A300A3D0E022C09FF59FE473D09F22D083D0C7
:1013B30082C09FE493C0E0740193C0E0740293F58C
:1013C3009F222518F58210AF08F518400C151980D7
:1013D30008F51840021519D2AF8519832200C0D031
:1013E300251810AF08F518500C05198008F518508A
:1013F300020519D2AFD0D0227404800A7403800688
:10140300740280027401C0E0F4041213C5D0E01228
:1014130016FA226017080808C6A2E713C618C613EF
:10142300C618C613C618C613C6D5E0E922BB010207
:10143300E722C082C08389828A83BB0003E08002E3
:10144300E493D083D08222C0E0C0D0E8C0E0A8A853
:10145300D2AFC2C7E8A2E792AFD0E0F8D0D0D0E0D5
:10146300326016080808C6C313C618C613C618C6C2
:1014730013C618C613C6D5E0EA22C3E0C696F6081B
:10148300A3E0C696F608A3E0C696F608A3E0C696C0
:10149300F6222518F8E43519F9222518FAE4351946
:1014A300FB222518FCE43519FD22C0E0E493A36C6C
:1014B3007009D0E0D0E0D0E0021292A3A3D0E022E2
:1014C300251810AF08F518400C15198008F51840B9
:1014D300021519D2AF22C3E09608A3E09608A3E051
:1014E3009608A3E096A2D265D03322E7667010086F
:1014F30009E766700A0809E76670040809E76622C7
:10150300E066701008A3E066700A08A3E066700442
:1015130008A3E06622181818E60846087009E626AC
:10152300087005E633F4220822C3E4939608740195
:1015330093960874029396087403939622191919C3
:10154300E70947097009E727097005E733F422091A
:1015530022C3E096F008A3E096F008A3E096F00813
:10156300A3E096F022C3E697F60809E697F6080982
:10157300E697F60809E697F622181818E4C396F6D4
:1015830008E496F608E496F608E496F622E026F6D2
:1015930008A3E036F608A3E036F608A3E036F62201
:1015A300E627F60809E637F60809E637F60809E6F6
:1015B30037F622E493F608740193F608740293F65F
:1015C30008740393F622E657F60809E657F6080966
:1015D300E657F60809E657F622E056F008A3E05668
:1015E300F008A3E056F008A3E056F022E647F60819
:1015F30009E647F60809E647F60809E647F62270C2
:101603000422600D18C6C333C608C633C6D5E0F43A
:101613001822E667F60809E667F60809E667F6089A
:1016230009E667F622E026F008A3E036F008A3E017
:1016330036F008A3E036F022E056F608A3E056F6AB
:1016430008A3E056F608A3E056F622E4C397F70989
:10165300E497F709E497F709E497F722600D08C6C2
:10166300A2E713C618C613C6D5E0F322C6F4C6080C
:10167300C6F4C608C6F4C608C6F4C622C3E0960874
:10168300A3E09608A3E09608A3E09622C3E7960892
:1016930009E7960809E7960809E7962275D00075C9
:1016A300813F75183175190300020F2AE6084608B1
:1016B300C3134608336002E633F422E7094709C33C
:1016C300134709336002E733F422600C08C6C313DF
:1016D300C618C613C6D5E0F422E6F008A3E6F00860
:1016E300A3E6F008A3E6F022E0F608A3E0F608A3D9
:1016F300E0F608A3E0F622CAC0E0E6F0A308DAFAAF
:10170300D0E0FA22E0FCA3E0FDA3E0FEA3E0FF2289
:10171300EAF0A3EBF0A3ECF0A3EDF022E0FAA3E0F0
:10172300FBA3E0FCA3E0FD22E8F0A3E9F0A3EAF0C9
:10173300A3EBF022ECF0A3EDF0A3EEF0A3EFF02285
:10174300E0F8A3E0F9A3E0FAA3E0FB22E5C754F82D
:101753004401F5C77901222518F582E43519F5838B
:1017630022E72719471947194722E626184618463C
:10177300184622C2AF75D69F020000221213B00F83
:10178300D4041213B0C5D4041213B0C4D504121375
:10179300B0F7D6041213B0FFAC061213B072AD0645
:1017A3001213B0F8AD061213B02DFF031213B03E9F
:1017B300FF031213B0DCFF031213B0E7FF0312138E
:1017C300B0F87F001213B081C0061213B01EBD061D
:1017D3001213B02EBD061213B043BD061213B0A9E7
:1017E300BD061213B02BB8061213B0AEB80612130F
:1017F300B014B9061213B055A7061213B090A7067A
:101803001213B0EBA7061213B043A8061213B0C904
:10181300A8061213B005A9061213B094C00612133A
:10182300B0A4C0061213B0FBBF061213B093A006F8
:101833001213B0DDA0061213B073A1061213B0F990
:10184300A1061213B02AA2061213B042A206121363
:10185300B0B6A2061213B0CCA2061213B0DFA206D2
:101863001213B0E9A2061213B00AC2041213B0BBDA
:10187300C6041213B0D2C7041213B0EEC704121376
:10188300B071C8041213B038CB041213B028ED049E
:101893001213B08BED041213B03BEE041213B00617
:1018A300EF041213B05BF0041213B03BF1041213F4
:1018B300B038F2041213B010F4041213B037F40466
:1018C3001213B0C3F4041213B01DF6041213B09331
:1018D300F6041213B0D1F6041213B0E3F604121394
:1018E300B04EF7041213B01CF9041213B058FA04E3
:1018F3001213B01DFC041213B0A1D1051213B0CD05
:10190300D1051213B03ED4051213B07ED4051213C1
:10191300B0BED4051213B0D2D4051213B0EBD40564
:101923001213B0DCD5051213B081D6051213B0958E
:10193300D6051213B0B6B1061213B0DAB1061213FC
:10194300B0F3B1061213B025B2061213B055B206A6
:101953001213B082B2061213B0E4B2061213B0F33C
:10196300B2061213B0FDB2061213B00AB306121375
:10197300B0FD9D061213B01D9E061213B05C9E06A9
:101983001213B0779E061213B0969E061213B0FC84
:101993009E061213B0059F061213B0629F06121320
:1019A300B0869F061213B047A0061213B054A006C8
:1019B3001213B065A0061213B03ABE061213B0524A
:1019C300BE061213B07EBE061213B070EA051213E0
:1019D300B0C4EB051213B0D2EB051213B0E5EB055F
:1019E3001213B0FAEB051213B00FEC051213B02269
:1019F300EC051213B096EC051213B0FBEC051213B1
:101A0300B09DED051213B061EE051213B071EE0532
:101A13001213B080EE051213B085BC061213B0A9E1
:101A2300BC061213B0D1BC061213B0F9BC061213D4
:101A3300B032A5061213B059A5061213B077A50646
:101A43001213B0EAA5061213B00C95061213B025B3
:101A530095061213B03195061213B045950612136D
:101A6300B06395061213B06D95061213B077950601
:101A73001213B08A95061213B01496061213B08986
:101A830096061213B0BD96061213B00B97061213E7
:101A9300B05897061213B07397061213B07D9706CA
:101AA3001213B0A397061213B00898061213B028A6
:101AB300BB061213B04ABB061213B051C006121371
:101AC300B0A293051213B0CC93051213B0E993059A
:101AD3001213B0FC93051213B01294051213B070D5
:101AE30094051213B0A894051213B0A0980512130D
:101AF300B0E599051213B0189A051213B07B9A0535
:101B03001213B0FE9B051213B0269C051213B03BB3
:101B13009C051213B04B9C051213B08F9C05121336
:101B2300B0EA9C051213B0FA9C051213B0CBFE0465
:101B33001213B0E5FE041213B00DFF041213B02606
:101B4300FF041213B04AFF041213B068FF04121308
:101B5300B07FFF041213B0ADFF041213B0C8FF042B
:101B63001213B075BF061213B01788061213B027ED
:101B730088061213B02E89061213B0628906121357
:101B8300B08489061213B0A789061213B0C589065B
:101B93001213B0FF89061213B0648A061213B0A69B
:101BA3008A061213B0E58A061213B0168B061213B7
:101BB300B04D8B061213B0EDF6031213B0E9F70321
:101BC3001213B007F8031213B02EF8031213B0F375
:101BD300F9031213B012FA031213B0C7FA03121364
:101BE300B08EFB031213B09DFC031213B0CFFD03A1
:101BF3001213B00080061213B05580061213B0CF33
:101C030080061213B0E280061213B0098106121384
:101C1300B09C81061213B07682061213B02A9D057A
:101C23001213B0559D051213B0149E051213B05232
:101C33009E051213B0D89E051213B072A20512139B
:101C4300B085A4051213B00080031213B03A8003C9
:101C53001213B03A82031213B06984031213B057FC
:101C630087031213B0C987031213B06388031213D7
:101C7300B07988031213B03089031213B06C89034F
:101C83001213B08389031213B0AF89031213B0B2D6
:101C930089031213B00B8A031213B05E8A03121363
:101CA300B0168B031213B0FF8B031213B0B58E0360
:101CB3001213B0CE90031213B00191031213B0614B
:101CC30091031213B0B391031213B036920312139C
:101CD300B0CA92031213B0D694031213B0759603CD
:101CE3001213B0AF97031213B04A99031213B096AD
:101CF30099031213B02DBA061213B032BA06121397
:101D0300B04CBA061213B08EBA061213B0B7BA06A5
:101D13001213B0D1BA061213B0EABA061213B00EF8
:101D2300BB061213B0777B001213B0CB7B001213E8
:101D3300B09B7C001213B0CD7C001213B0FA7C0070
:101D43001213B04B7D001213B0757D001213B099BE
:101D53007D001213B0D97D001213B0637E001213FD
:101D6300B0947E001213B0BB7E001213B0017F004B
:101D73001213B01F7F001213B0437F001213B0631E
:101D83007F001213B0997F001213B06FF901121381
:101D9300B0A9F9011213B0E4FA011213B0A9D605E0
:101DA3001213B05DD7051213B0ECFE021213B05D2F
:101DB300FF021213B0BFFF021213B06AC60512135B
:101DC300B07BC7051213B08CC8051213B0CDC9057B
:101DD3001213B023CA051213B061CA051213B06FF0
:101DE300CA051213B000CC051213B00092061213E9
:101DF300B06292061213B04694061213B09ADB0532
:101E03001213B0DBDB051213B011DC051213B0386B
:101E1300DD051213B0D4DE051213B074DF051213FF
:101E2300B086E0051213B0B8E3051213B038E40529
:101E33001213B04EB0061213B08BB0061213B0BF1C
:101E4300B0061213B0D2B0061213B0179B061213CA
:101E5300B02A9C061213B0EC9C061213B0999D068F
:101E63001213B0C49D061213B014B3061213B02696
:101E7300B3061213B039B4061213B03CB4061213EE
:101E8300B0BAB5061213B0F0B5061213B00AB6060F
:101E93001213B04CB6061213B05CB6061213B0F6AA
:101EA300B6061213B0A7AD051213B0B1AD051213E8
:101EB300B0EBAD051213B054AE051213B071AE05FD
:101EC3001213B013AF051213B01CAF051213B06198
:101ED300AF051213B08AAF051213B097AF051213F3
:101EE300B008B0051213B093B0051213B0E1B005FA
:101EF3001213B01FB1051213B084B1051213B0A7AA
:101F0300B1051213B01EB2051213B075B205121348
:101F1300B0B0B2051213B0E5B2051213B0F7B205B3
:101F23001213B009B3051213B028B3051213B0315D
:101F3300B3051213B0ECB3051213B038B405121382
:101F4300B076B4051213B069B4061213B0A9B5067E
:101F53001213B0FCA2061213B032A3061213B07A06
:101F6300A3061213B0D3A4061213B0BFBE061213F6
:101F7300B035AF031213B059B0031213B093B003CB
:101F83001213B03DB2031213B067B2031213B0DCE5
:101F9300B4031213B01CB5031213B0B2B603121379
:101FA300B04FB7031213B0A1B7031213B044B80371
:101FB3001213B07CB8031213B0BEB8031213B02DC2
:101FC300BA031213B07BBB031213B0ACBD031213DD
:101FD300B0DABD031213B001BE031213B00ABE037D
:101FE3001213B05ABE031213B0ECBE031213B01B8C
:101FF300C2031213B09EC2031213B06BC0061213B6
:10200300B01384061213B02984061213B0CD8406CC
:102013001213B00C85061213B02985061213B05A99
:1020230085061213B0A785061213B0DA85061213BC
:10203300B01586061213B00A88061213B0EEBA055D
:102043001213B019BD051213B04BBE051213B063C2
:10205300BE051213B065E5051213B0A0E605121311
:10206300B032E8051213B080A6051213B03CA705E1
:102073001213B0ACA8051213B0EAA9051213B08766
:10208300AA051213B039AB061213B0AFAB06121385
:10209300B036D6031213B008D7031213B052D703C6
:1020A3001213B007D8031213B066D8031213B01378
:1020B300DA031213B07FDA031213B0FBDB0312133C
:1020C300B027DC031213B061DE031213B08ADE0300
:1020D3001213B0EFDE031213B041DF031213B092F9
:1020E300E0031213B0E5E0031213B061E10312132E
:1020F300B00BCC051213B032CC051213B086CE054B
:102103001213B099CE051213B0EECE051213B02000
:10211300D0051213B0A1D0051213B02DB9061213B6
:10212300B08CB9061213B0CAB9061213B00BBA06B3
:102133001213B0929C041213B0FB9C041213B0460A
:102143009D041213B0819D041213B0F69F04121361
:10215300B010A4041213B030A6041213B03EA704A7
:102163001213B018A8041213B0A2B4051213B0D5F9
:10217300B4051213B00EB6051213B0B4B70512139B
:10218300B0CDB7051213B070B8051213B0D3B805AC
:102193001213B00ABA051213B0D8BB061213B02239
:1021A300BC061213B000B7061213B00FB706121312
:1021B300B050B7061213B0A7C0061213B040B6044E
:1021C3001213B0ABB6041213B0A9B7041213B02E96
:1021D300B9041213B0B4B9041213B08DBA041213B4
:1021E300B06DBB041213B08CBC041213B0A5BD04B4
:1021F3001213B04DC0041213B00080021213B00CBE
:1022030080021213B06E80021213B0788002121390
:10221300B00B81021213B04781021213B00782027E
:102223001213B01482021213B07782021213B00C8D
:1022330083021213B04283021213B0BF830212133C
:10224300B05F85021213B03387021213B0148802F1
:102253001213B05E89021213B0C08B021213B025A1
:102263008D021213B0BA8D021213B0ED8E02121347
:10227300B0E18F021213B01A91021213B0B095029B
:102283001213B09D96021213B03597021213B05A6F
:1022930097021213B08697021213B01E98021213FC
:1022A300B03498021213B05698021213B0BC9802BD
:1022B3001213B0DB98021213B00499021213B02464
:1022C3009A021213B0FA9A021213B06F9C021213FD
:1022D300B0909C021213B0119D021213B0B79D026D
:1022E3001213B0FF9D021213B0709E021213B0FCC2
:1022F3009E021213B0609F021213B0C09F0212130A
:10230300B06FA0021213B0DBA0021213B00EA10231
:102313001213B08CA1021213B0E8A2021213B05828
:10232300A3021213B0EAA3021213B04DA5021213B3
:10233300B0D4A5021213B039A6021213B067A802D3
:102343001213B0F3A9021213B003AA021213B03787
:10235300AA021213B0A5AA021213B0E0AA02121322
:10236300B042AB021213B0D7AB021213B0B2AD023C
:102373001213B07DAF021213B087B0021213B084F0
:10238300B4021213B051B5021213B069B60212139C
:10239300B013B8021213B0FDFB051213B06DFC05A8
:1023A3001213B07BFC051213B089FD051213B0B8EC
:1023B3008E041213B06F8F041213B07690041213AD
:1023C300B0F490041213B03692041213B05792046F
:1023D3001213B00F93041213B0BA93041213B09AEA
:1023E30097041213B0B699041213B07D8D0512131E
:1023F300B031BF061213B07AE5021213B0D2E50270
:102403001213B058E6021213B06AE7021213B0B700
:10241300E7021213B09DE8021213B0B4E8021213DC
:10242300B006E9021213B03EE9021213B051E902F9
:102433001213B0A7E9021213B000EA021213B01884
:10244300EA021213B0ADEC021213B044ED02121300
:10245300B06EED021213B0A6ED021213B0CCEF0270
:102463001213B012F0021213B05CF0021213B03068
:10247300F1021213B071F1021213B094F1021213AC
:10248300B0BBD2041213B0FBF1021213B07CF20200
:102493001213B000F3021213B05AF3021213B0A2D4
:1024A300F3021213B0ABF4021213B06BF702121360
:1024B300B097F8021213B0D4F8021213B09BF902CA
:1024C3001213B0DBF9021213B0DEF9021213B0E8F3
:1024D300F9021213B0FBF9021213B080FA021213BD
:1024E300B0B6FA021213B0E2FA021213B009FB02F9
:1024F3001213B02DFB021213B0C4FB021213B0DD92
:10250300FB021213B010FC021213B030FC021213C0
:10251300B06DFC021213B0A4FC021213B0A3FD02AF
:102523001213B0D6FE021213B0B3BD061213B0BF1E
:10253300BD061213B005BE061213B0B9EE05121391
:10254300B0F7EE051213B083EF051213B08EF0054A
:102553001213B0AAF2051213B0EBC2031213B00E9A
:10256300C3031213B0E5C3031213B02EC403121333
:10257300B086C4031213B0E0C4031213B02CC50316
:102583001213B0A2C5031213B030C6031213B0A8BE
:10259300C6031213B0EBC6031213B0B9CA03121366
:1025A300B000CD031213B03ACD031213B0C4CD0360
:1025B3001213B043CE031213B010CF031213B03C67
:1025C300D0031213B027D1031213B0FBD10312139C
:1025D300B07FD3031213B015D4031213B05EE70315
:1025E3001213B0FEE7031213B068E8031213B00F1F
:1025F300E9031213B073E9031213B0A6EA0312132B
:10260300B0CCEB031213B045EC031213B01DEE0371
:102613001213B0BDEE031213B060EF031213B0BF79
:10262300EF031213B07AF0031213B040F203121344
:10263300B0E3F3031213B08FF4031213B0A4F50342
:102643001213B0AF9A031213B0279B031213B06F88
:102653009B031213B0B39B031213B0FC9B0312131F
:10266300B0469C031213B07B9C031213B0F99C0376
:102673001213B0539D031213B0AC9E031213B03563
:102683009F031213B0919F031213B0AB9F03121356
:10269300B0D29F031213B02AA0031213B094A10364
:1026A3001213B0B3A1031213B0DBA2031213B05879
:1026B300A3031213B0C5A3031213B027A403121369
:1026C300B0D7A4031213B0A9A6031213B094A7039F
:1026D3001213B08EA8031213B094A9031213B0B04F
:1026E300AA031213B0BEAA031213B097AB031213BB
:1026F300B037AC031213B07BAC031213B090AC032E
:102703001213B0A1AD031213B044AE031213B09C65
:10271300AE031213B0A58B061213B04D8D06121320
:10272300B00A8E061213B05F8E061213B0DC8E064B
:102733001213B0F78E061213B03B8F061213B0615B
:102743008F061213B0878F061213B09F8F061213D2
:10275300B00290061213B01790061213B039910607
:102763001213B04291061213B04B91061213B054D8
:1027730091061213B05E91061213B0AFF705121350
:10278300B08FFB051213B094FB051213B096FB0533
:102793001213B0C6A9061213B09FFF051213B0D0CF
:1027A300FF011213B0C2AE061213B033C0061213E8
:1027B300B080D5011213B0D7D5011213B043D6019F
:1027C3001213B0CFD6011213B085D7011213B0CDB7
:1027D300D7011213B0E6D7011213B009D8011213AF
:1027E300B02BD8011213B069D8011213B0B8D801B5
:1027F3001213B0E3D8011213B041D9011213B0E898
:10280300D9011213B090DA011213B00CDB011213C9
:10281300B0D9DB011213B025DC011213B0ADDC011A
:102823001213B0E6DC011213B077DD011213B08886
:10283300DD011213B0FADD011213B093DE0112139E
:10284300B0FDDE011213B0EDDF011213B012E0018F
:102853001213B00FE1011213B01CE1011213B025E2
:10286300E1011213B00EE3011213B02AE4011213B3
:10287300B0BBE4011213B02CE5011213B006E7015B
:102883001213B0D1EA011213B0E5EA011213B0F545
:10289300EA011213B0FFEA011213B008EB0112139D
:1028A300B011EB011213B01BEB011213B04AEB0191
:1028B3001213B078EB011213B083EB011213B0A71C
:1028C300EB011213B0CBEB011213B03DEC01121369
:1028D300B086EC011213B0A2EC011213B013ED0198
:1028E3001213B05FED011213B0A8ED011213B0E69D
:1028F300ED011213B067EE011213B032F00112139F
:10290300B0D1F0011213B099F1011213B025F40103
:102913001213B07AF4011213B0A2F4011213B0D55A
:10292300F5011213B01AF6011213B06FF601121368
:10293300B01DF7011213B0C2F7011213B0F7F7017C
:102943001213B097F8011213B013F9011213B05711
:1029530084011213B08984011213B0BD84011213D0
:10296300B07186011213B04587011213B0A4870119
:102973001213B0BA88011213B00689011213B0A35F
:102983008B011213B0188E011213B0648F0112134E
:10299300B0FC8F011213B00890011213B0519001D3
:1029A3001213B08490011213B01091011213B022CC
:1029B30092011213B06393011213B06294011213C4
:1029C300B08C94011213B0F794011213B050950117
:1029D3001213B0C395011213B0F997011213B07F0C
:1029E30099011213B06A9A011213B0B89B01121322
:1029F300B0F09D011213B0E7A0011213B0F6A001CD
:102A03001213B08AA1011213B035A2011213B078C8
:102A1300A2011213B0C1A2011213B011A301121328
:102A2300B07EA3011213B0EAA3011213B006A401EE
:102A33001213B035A4011213B074A4011213B05CC5
:102A4300A5011213B00BA6011213B082A801121331
:102A5300B0B4A9011213B083AA011213B005AB01DC
:102A63001213B051AF011213B080AF011213B0DBD8
:102A7300AF011213B00EB0011213B069B0011213FB
:102A8300B085B0011213B0E6B0011213B036B10134
:102A93001213B0E5B1011213B0A8B2011213B07052
:102AA300B3011213B0BCB5011213B048B70112132E
:102AB300B09FB8011213B0BBB9011213B0BEB90174
:102AC3001213B0EDB9011213B0DCBB011213B0A5A0
:102AD300BC011213B0E6BC011213B03CBE011213C9
:102AE300B0B2BE011213B0E5BE011213B049BF016B
:102AF3001213B06AC1011213B0C9C1011213B09FFE
:102B0300C2011213B0B3C2011213B0C7C201121330
:102B1300B0F4C2011213B024C3011213B0C8C4012C
:102B23001213B0C5C5011213B013C6011213B03A84
:102B3300C6011213B015C7011213B0BBC70112139C
:102B4300B041C9011213B088C9011213B0F5C9010C
:102B53001213B04ACB011213B0F3CB011213B027F7
:102B6300CC011213B03FCC011213B0E2CC0112130B
:102B7300B05ECF011213B006D1011213B02AD101F6
:102B83001213B048D1011213B014D2011213B06260
:102B9300D5011213B02D3A001213B05F3A0012138D
:102BA300B0DF3E001213B02E3F001213B0743F008B
:102BB3001213B01740001213B07C40001213B0C0C0
:102BC30040001213B02742001213B05343001213F4
:102BD300B05047001213B0CF47001213B0F54800AE
:102BE3001213B05849001213B0A44A001213B03C98
:102BF3004D001213B0C94D001213B0D34D00121380
:102C0300B0FB4D001213B0C34E001213B0584F0067
:102C13001213B0814F001213B0AE4F001213B00362
:102C230052001213B0D052001213B00F53001213FC
:102C3300B09153001213B03C54001213B06E540001
:102C43001213B0B954001213B0F254001213B0416E
:102C530055001213B09D55001213B01F56001213E6
:102C6300B08456001213B0FC56001213B0A55800DE
:102C73001213B09D59001213B0DE5A001213B03272
:102C83005E001213B08E60001213B047610012137E
:102C9300B08F61001213B07063001213B0AB630006
:102CA3001213B0B463001213B0BD63001213B0C8A3
:102CB30063001213B0E763001213B09A6400121397
:102CC300B0F764001213B00165001213B00B650076
:102CD3001213B05765001213B09F65001213B0A30F
:102CE30066001213B03C67001213B003680012139E
:102CF300B02D69001213B0586A001213B04E6B0066
:102D03001213B0666B001213B09A6B001213B0B8B3
:102D13006B001213B0006C001213B0396C00121365
:102D2300B0F06C001213B0B16D001213B0246E003A
:102D33001213B0A06E001213B03C6F001213B062F6
:102D430070001213B01E71001213B0BE7100121383
:102D5300B0AB72001213B00373001213B0C9730047
:102D63001213B0EC73001213B00175001213B04CC0
:102D730075001213B0A875001213B0107600121369
:102D8300B03476001213B05C76001213B0A1760053
:102D93001213B0C576001213B04977001213B03284
:102DA30078001213B07778001213B0A078001213D2
:102DB300B03E79001213B0A979001213B0D579008F
:102DC3001213B0B67A001213B0A8E2041213B0E0E3
:102DD300E2041213B001E3041213B043E304121329
:102DE300B0A7E3041213B0B1E3041213B0C1E304B8
:102DF3001213B0F8E3041213B0A1E7041213B0697D
:102E0300E9041213B04DEB041213B0EFEB041213E9
:102E1300B079EC041213B056BB021213B0BABB0262
:102E23001213B018BC021213B063BC021213B07EAB
:102E3300BC021213B0A5BC021213B0C2BC0212131F
:102E4300B0CEBC021213B05FBE021213B078BE0242
:102E53001213B0F4BE021213B007BF021213B0175D
:102E6300BF021213B0BBBF021213B027C102121369
:102E7300B03AC2021213B0DAC2021213B0E4C202B1
:102E83001213B063C3021213B074C3021213B0B3AC
:102E9300C3021213B0E1C3021213B0AEC402121381
:102EA300B005C5021213B03EC5021213B094C50299
:102EB3001213B0B2C5021213B000C6021213B0CB84
:102EC300C6021213B019C7021213B066C702121357
:102ED300B0E9C7021213B013C8021213B049C802F3
:102EE3001213B058C8021213B0B7C8021213B02F8E
:102EF300C9021213B070C9021213B0C0C90212136F
:102F0300B0EBC9021213B005CA021213B01FCA02F2
:102F13001213B0F4CA021213B0FECA021213B0396C
:102F2300CB021213B049CB021213B052CB021213CD
:102F3300B0A3CB021213B0B7CB021213B0D9CC0299
:102F43001213B0EECC021213B081CD021213B0F5FE
:102F5300CD021213B09ACE021213B0A5CE021213F1
:102F6300B005D0021213B021D0021213B06DD002FB
:102F73001213B0DBD0021213B00DD1021213B0271B
:102F8300D1021213B069D1021213B0BCD3021213CF
:102F9300B054D4021213B0CBD4021213B028D70208
:102FA3001213B040D7021213B043D7021213B04F1B
:102FB300D7021213B063D7021213B06BD7021213E6
:102FC300B0A2D7021213B096D8021213B020D902BE
:102FD3001213B0A2D9021213B022DA021213B0F9FB
:102FE300DA021213B01BDB021213B0B4DB021213AA
:102FF300B011DC021213B014DC021213B083DC0232
:103003001213B0CFDD021213B0E2DE021213B06D61
:10301300DF021213B080E0021213B045E102121373
:10302300B076E1021213B09CE1021213B0A5E102E3
:103033001213B0D4E1021213B084E2021213B034BB
:10304300E3021213B0A7E3021213B04AE40212130D
:10305300B0BDE4021213B0FCE4021213B045E50262
:103063001213B0608C051213B0158C051213B07FC8
:103073008B051213B0F089051213B0ED8C041213F3
:10308300B0728B041213B0708A041213B031880427
:103093001213B0DB87041213B01E86041213B0950B
:1030A30083041213B00F83041213B0D9CF04121385
:1030B300B005CF041213B0CB81041213B087800480
:1030C3001213B005CE041213B026CD041213B000B0
:1030D30080041213B00899061213B0E09806121375
:1030E300B07398061213B01398061213B067B504A1
:1030F3001213B08DB4041213B0C3B3041213B0325D
:10310300B2041213B0FBB1041213B0CDB104121305
:10311300B081B1041213B0EAB0041213B05AB00470
:103123001213B034B0041213B0E9AF041213B0B3E6
:10313300AF041213B036AF041213B0D1AE0412139E
:10314300B080AE041213B0A8AD041213B018AD04CE
:103153001213B0CCAC041213B047AC041213B00278
:10316300AC041213B0E6AB041213B0FFC50512137F
:10317300B08EAA041213B060C5051213B09EC10528
:103183001213B0C3C0051213B0D4BF061213B0B9E3
:10319300BF061213B04492051213B0E69005121342
:1031A300B07D90051213B060AA041213B02DAA04C7
:1031B3001213B0B1A9041213B086F5051213B0149B
:1031C30090051213B077F4051213B0B1F30512137F
:1031D300B038F3051213B05DE2041213B0F48E0598
:1031E3001213B004E2041213B0DBF1021213B0CFD6
:1031F300E1041213B09AE1041213B066E10412134E
:10320300B0F9E0041213B0E1E0041213B0BCE0041F
:103213001213B095DD041213B068DB041213B06F00
:10322300D9041213B0FBD8041213B0ACD804121390
:10323300B066D8041213B008D8041213B02386055D
:103243001213B0368E051213B09F85051213B0B456
:1032530084051213B03C83051213B0EC80051213DE
:10326300B00080051213B01D9B0400000080FBE436
:10327300730000000020015384000001002001536B
:103283008400000200200156840000030020015442
:10329300840000040042016D800000050042017EAD
:1032A30080000006004201A080000007002001AB5F
:1032B30080000000404201A0800000100042018F06
:1032C3008000001100200103070000120010033CDE
:1032D3001506000000101100000800000020330054
:1032E300000C005500393300000C001C0042330071
:1032F30000120055002001000014000E00422200BD
:1033030000050B000021010000050B010021010055
:1033130000050B000123010000050B01012301003F
:1033230000050B020123010000050B03012301002B
:1033330000050B040121010000050B05012101001B
:1033430000050B060121010000050B070121010007
:1033530000050B080121010000050B0901210100F3
:1033630000050B0A0121010000050B0B01210100DF
:1033730000050B0C0121010000050B0D01210100CB
:1033830000050B0E0121010000050B0F01210100B7
:1033930000050B100121010000050B1101210100A3
:1033A30000050B120121010000050B13012101008F
:1033B30000050B140121010000050B15012101007B
:1033C30000050B160121010000050B170121010067
:1033D30000050B180121010000050B190121010053
:1033E30000050B1A0121010000050B1B012101003F
:1033F30000050B1C0120010000050B1D0128010025
:10340300008F0001003F1387000100AC1535000455
:103413000071152500020075152600020077152797
:10342300000200791528000100831529000100849A
:10343300158400040085158600010089152A000102
:10344300008A152B0001008B152C0001008F152D10
:1034530000080022132E00010090152F0001009197
:10346300153000010092153100010093153200015F
:10347300002A13330001002B133400010094153686
:103483000001002C13380001009515390001008E4E
:103493001583000200AA15630001003C13640001B8
:1034A300008C15650001008D156D0001003D137141
:1034B3000008001A1366000100A915430001009AD1
:1034C30015440002009B15450001009D15460002AE
:1034D300009E1547000800341348000100A0154B57
:1034E300000100A11504000100AD15A1000100B009
:1034F3001537000100AF1588000100AE153C00012F
:10350300002D133D000100961549000200A2156726
:103513000001003E134D000200A4154E000100A659
:10352300154F000200A7153E00010033135100019F
:103533000097155200010098155300010099155486
:103543000001002E130000000000000001363601C8
:103553000100010201000103010001040106060547
:10356300020000070100340801000F090401010DE6
:103573000100FF0E08000017020000190100FF1AE6
:103583000100011B0100FE1C0100081D0200001FB9
:1035930001000120010001210200002301000F248A
:1035A3000200002601000127010008280200FF2A6B
:1035B3000100072B0102402C0100002D0100012E08
:1035C3000100012F0100FF30010B1D310800003AFB
:1035D3000100083B01000F3C0100013D0100FF3EDB
:1035E30004000042040000460400004A0400004EA8
:1035F30004000052040000560400005A04000000B6
:1036030000210100010021020000012366000101E5
:1036130023670002012368000301236900040121D9
:103623006A000501216B000601212C010701212DF0
:10363300010801212E010901212F010A0121300175
:103643000B012131010C0121C8000D0121C9000E1C
:103653000121CA000F0121CB00100121CC0011016F
:1036630021CD00120121CE001301213201140121C9
:103673003301150121CF001601213401170121D097
:1036830000180121D100190121D2001A0121D30010
:103693000103710301030103010301030103220376
:1036A30002030103100300030003000300030003EC
:1036B3000003000342030003240306030003000383
:1036C3000403120325032303250323030403040331
:1036D3000003000300034403000300032303000368
:1036E3006503210035038103000305030003000381
:1036F30000030003250323030101710101010101FB
:103703001101010131010101010180011001610178
:103713003B00140063017301720162014301000164
:10372300130106013D0135000401120100010001EE
:103733000001000104010401330133013C01440190
:1037430032013600000100016501000135008101ED
:1037530000010501820183010001030271023001AE
:1037630060021102700201020202020280021002D0
:1037730061023A0041006302730272026202430271
:1037830000021302380000020002040212020002C7
:1037930000020002000204020402370037003C0268
:1037A30044020002390000020002650200023502F1
:1037B30081020002050282028302000203007100FB
:1037C30030016000110070003102200350048000BA
:1037D30010006100000014006300730072006200B7
:1037E3004300000013000600000000000400120064
:1037F3000000000000000000040004003700370050
:103803003C024400000000000000000065000000CE
:103813003500810000000500000083000000360031
:103823000100060000000F0000000000000000007F
:103833000000000003FFFF00000403FFFF0000FF80
:10384300FF0FF4010005C4040320000100000B0076
:103853000000000000000003010F00000000000052
:103863000000000000000000000000000000000055
:103873000000000000000000000000000D2367238B
:103883001323172219236D23192379231F231722A7
:1038930019236D23252317222B23172231231722C4
:1038A300372317223D2317224323172249237F233C
:1038B3004F2317220000000000000000000000005A
:1038C300552391235B231722552391235B2317222F
:1038D30049237F23612317220A000000020000000E
:1038E3000400000008000000100000002000000099
:1038F3004000000080000000000100000002000002
:103903000004000000080000001000000020000078
:10391300004000000100F5250200772503007D2506
:103923000400832505008925060095253000AD2573
:103933003300B9253400BF251100C5251400CB255C
:103943001500A725FFFF000007ECFDFDFDECDCDC07
:10395300CCBCACAC9C9C8C7C7C6C6C5C5C5C4C4C44
:103963003C3C2C2C1C1C0A072C02D72B05E92B07EB
:10397300DD2B0CBF2B0DCB2BFF000000160F00001F
:103983000B150B020002220F3300000E5A69674227
:103993006565416C6C69616E6365303901030507C8
:1039A300090B0D0F00020406080A0C0D140AE5D5D5
:1039B300C5B5A5A5958585756500393D3F373C3C63
:1039C300362C442D303016181920231A1C1E3000B3
:1039D3000119161816161823030000034A49434E0B
:1039E300181A250502303017181921301B1D1F30F6
:1039F3000C0E020B040B0A0708000F02040201015C
:103A03000101090200BE040AE8030000FA064B396B
:103A1300E803AF390E001003030A0C0408280C0551
:103A23000908321E00FF04FF041E74F7120DB0E9EB
:103A330090140AF09013BFE4F0121E69901413E47B
:103A4300F0A3F090140BF0A3F0122D69121E6F90E7
:103A5300134FE4F0A3F012275D02559874EC120D96
:103A6300B074D71214C3EAFEEBFF5480606890145D
:103A73000AE0F9121EE18A088B09EA4509604F7CC6
:103A83000080010CEC75F003A4F8A9F0746928F523
:103A930082743939F583E493F4602CE493F8850850
:103AA300828B83E06870DCAA08EC75F003A4F874D9
:103AB3006A28F582743939F583E493C0E07401937D
:103AC300F583D082123272AA08AB09121ECFEEFA26
:103AD300EF6480023EC1EF5420601E122C618A08FD
:103AE3008B09EA4509600A122BCBAA08AB09121EFF
:103AF300CFEEFAEF6420023EC1EEA2E0501F901316
:103B0300C4E0640F70117900122BA1E960099015CC
:103B13007112171F122BB9EE6401023E96EF544047
:103B2300604F901561E064067028740BF09015895E
:103B3300E0F9750801750900750A00750B0090130B
:103B4300B2E0780812134AAA08AB09AC0AAD0B120B
:103B5300284D90132F1211C07A007B4090140AE075
:103B6300F912201F74041213E0EEFAEF6440023ED0
:103B7300C1EE54207003023E9A7A207B0090140A0F
:103B8300E0F912202BEA4B4C4D701A90140F1217C8
:103B930043E8494A4B700E750C01750D00750E0014
:103BA300750F008061750C00750D00750E00750FA3
:103BB300001220378A088B098C0A8D0B90140F1280
:103BC3001743E8494A4B602A90140F780812136987
:103BD300400E750CFF750DFF750EFF750FFF8012FC
:103BE30085080C85090D8C0E8D0F90140F780C121F
:103BF300147D7401780C121464E50C450D450E45D3
:103C03000F7003023DC77C0079047A007B00122CFD
:103C13003D8A088B09023CEE85188285198374FF5F
:103C2300F0740112175A74FFF0740212175A74FFDA
:103C3300124A87FAA3E0FB74031214A5126B331222
:103C430063A4122C7FE964016003023CD0E50812EF
:103C530059901251D74480F8A3E0F9742412175AEB
:103C6300E8F0A3E912630FA3A3A3E0C0E074261254
:103C7300175AD0E0126925A3E05408601674241281
:103C8300175AA3E04401123ED9C0E0742812175A10
:103C9300D0E0F012771E3509126C31601812771ECE
:103CA3001262C5A3E0C8127A35E0F8741212175AEB
:103CB300E8F0A3E4F090838B1211C074041214A5EE
:103CC300740712149D12287D74041213E085088270
:103CD300850983A3A3A3A3A3A3A3A3A37406123E4B
:103CE300D9F9122C1F850A08850B09E508450970C7
:103CF30003023DC77C007904AA08AB09122C3D8A54
:103D03000A8B0B850882850983A3A3A3A3E0F5107F
:103D1300A3E0F511E4F512F513780C791012168F60
:103D23004029E5082404F8E43509F9850C10850DCC
:103D33001188828983C3E09510F0A3E095111242A4
:103D430022F8A3E0F9E849709C800E850882850972
:103D530083A3A3A3A3E4F0A3F0850882850983A327
:103D6300A3A3A3A3A3A3A3A3A3E0640185088285BC
:103D73000983A3A3A3A3A3A3702BE05404600302AA
:103D83003C1B850882850983A3A3A3A3A3A3A3A3A1
:103D9300A37406F07AB785088285098312400E1250
:103DA3002BB3023CE8A3A3A3A3E06003023C1B855F
:103DB3000882850983A3A3A3A3A3A3A3A3A3740135
:103DC300F0023CE8122C0D7C0079017A007B001292
:103DD3002C3D8B09EA4509600C7A207B0090140A7C
:103DE300E0F9121F0B850C0A850D0B7C0079047A10
:103DF300007B00122C3DEA4B701580538A828B8323
:103E0300A3A3A3A31274C9E50898E5099940078AF7
:103E1300828B831256037C007904122C3D8B0DA9EF
:103E23000DEA4970D7C3E50A9508E50B95095013C8
:103E3300C3E508950AF508E509950BF509E5084575
:103E43000970167A207B0090140AE0F9121F0B9078
:103E5300140F123ED2A3F08037E50825E0F508E5FC
:103E63000933F509E4F50AF50B78081213FB7A20F8
:103E73007B0090140AE0F912201974041213E01263
:103E83002037EAF8EBF9ECFAEDFB90140F12172B3D
:103E9300EE6420FAEF8027EF5402600A122D63EEDE
:103EA300FAEF64028018EF540460161267E6790192
:103EB3009013BD1263A612288FEEFAEF6404FB8001
:103EC300047A007B0074291213E07F0C0210B8E41B
:103ED300F0A3F0A3F022126313A3E022C082C083F5
:103EE30074EA1214C37C167D007900AA18AB191268
:103EF3001EB7740812175A7402F09013B3126B446E
:103F0300123F22740912175A126A52741312175A63
:103F1300E412673612275174161213E0026386E81F
:103F2300F0A3E9F09013BD125E232274F7120DB0D3
:103F330074DA1214C3EAFEEBFFEE4F602DAC18AD3A
:103F430019122C7F740612175AE0601E7417121789
:103F53005AE0FD740112175AE0FCEEFAEFFB790008
:103F6300122B77E9600479A4800279007426025544
:103F73009574F7120DB0EAFEEBFF8E828F83A3A335
:103F8300A3A3A3A3E05440601712748D1263A61277
:103F93002D0FE960067AFF7BFF801512748D800375
:103FA3009013B31263A674FE6A700374FF6B6047C9
:103FB30012748D12705C122D0FE98E828F83600E46
:103FC300125ACC12599038F583E4F0A38003127A85
:103FD30060F07CA77D2B8E828F831263A6122757F6
:103FE300E9F5087015EE4F60097901EEFAEFFB125F
:103FF3002C19A9080255987508CDAA0812400A126F
:104003002BB3E960E080EB8E828F83125AD0127A51
:1040130018E0F92274F6120DB0E9FEEAFF7A0F7B7D
:1040230000121EC9EA4B601F8A828B83740CF0EE68
:10403300A3A3F0EF8A828B8312537590140AE0F9DD
:10404300121ED57900802FEEF9122C438A088B09B2
:10405300A808A909E849601C88828983A3A3A3A3AC
:10406300A3A3A3A3A37406127726E0F912291FEED4
:10407300F9122C1F79100266F474F4120DB08A0839
:104083008B098C0A8D0B9013C4E0640F702CEA45E6
:1040930009450A450B60239013BFE064086005E0FF
:1040A3006404701678081213FB7A017B0090140ADB
:1040B300E0F912201974041213E002434E74F4124F
:1040C3000DB074FC1214C3EAFEEBFF8E828F83A340
:1040D300A3E0F9122C438A088B09EA45097003020D
:1040E30041FD8E828F83A3A882A983E0C0E0EA24E6
:1040F3000B1262C2D0E012422264F160288E828FDA
:1041030083A3E064CD601E8E828F83A3E0641A6074
:10411300148E828F83A3E064E9600A8E828F83A367
:10412300E064E170367900122C19E9602EE5082469
:1041330004F50AE43509F50B8508828509831242E3
:104143000EA3E0F9850A82850B831263A6121E7BF8
:10415300850A82850B8312705C806E8E828F83A3A7
:10416300E0C0E0740212175AD0E0124D30127AA266
:10417300124D22C0E0740312175AD0E0F0E5082470
:104183000C1251D4AA18AB197005122877800312A8
:104193002CF7740212175AE064E9702D85088285A2
:1041A3000983124A9C750A01780A121407750AE9F1
:1041B300780A1214071251CA124D121255D71263FC
:1041C300A6122CB574021213E0850882850983A315
:1041D300A3A3A3A3A3A3A3A3E064027012850882ED
:1041E300850983A3A3A3A3A3A3A3A3A37406F08E08
:1041F300828F83A3A3E0F9122C1F122C0D90157745
:1042030012473E122BB9740402434BA3A3A3A3A3E7
:10421300A312421822E0FCA3E0FD8E828F832212B8
:104223007736E02274F4120DB0EAFEEBFF75080056
:104233008E828F83A3A3A3A3A3E060487508088E8F
:10424300828F83A3A3A3A3A3A3A3A3A31263A67988
:10425300FF122A098B0BEA450B601075082C8E821E
:104263008F83A3A3A3A3A3E0D2E0F08E828F83A3C3
:10427300A3A3A3A3E05403640160030243474308D9
:1042830011024347EE241812588C6038EE241A1298
:10429300588C6003F470131273B37003A3E0696066
:1042A30003024347750822024347EE241B12729B05
:1042B300EE241A12588CFAEE241912588CF912298A
:1042C3000D0243478E828F83A3A3A3A3A3A3A3A318
:1042D300A31263A6122D0FE964027003750801127D
:1042E30073B37003A3E0697006E508D2E1F508E54E
:1042F3000860158E828F83A3A3E07006E508D2E5DC
:104303008004E508D2E6F5088E828F83A3A3A3A3D6
:10431300A3A3A3A3A31263A6122D0FE9640170063E
:10432300E508D2E0F5088E828F83A3A3E06015EE43
:10433300241D1256EAF9122CFDE964016006E50812
:10434300C2E0F508A90880031213E07F040210B845
:1043530074F0120DB074D71214C3EAFEEBFF8E8211
:104363008F83A3A3A3A3E06011901575126C336030
:104373000990157512473E122BB974031214A58EBA
:10438300828F83A3A3A3A3124D031263A6122C7FD0
:10439300E970030244EC7801740512175AE0C394E0
:1043A3000240027800740712175AE0C394024002D5
:1043B3007800740C12175AE064F87003A3E0F470E9
:1043C300030244EC740C12175AE064F97003A3E07F
:1043D300F470030244EC740C12175AE064FA70038D
:1043E300A3E0F470030244EC740C12175AE064FB6C
:1043F3007003A3E0F470030244EC740612175AE04E
:10440300F99013ADE06960030244ECE8A2E04003D5
:104413000244EC742712175AE060030244ECEE24C2
:1044230013125E19742212175A12690D241C125E9C
:1044330019741012175A126A52740912175AE0604B
:104443001F741A12175AE0FD740412175AE0FC8EF7
:10445300828F83A3A31263A67901122B77E9703DA0
:10446300740312149D122BC5E9F508740912175A27
:10447300E0702E9013A7E060287422550864226030
:10448300207442550864427014742012175A12475C
:104493004A600E742012175A12472760047ACF809D
:1044A3004AE9A2E6504D742012175A1256F024FD21
:1044B300600F14600C24FD600824FD600424FE706A
:1044C30028742012175A124720700E742012175A9C
:1044D30012669EA3E0640D601A740312149D122DDC
:1044E30027E96401700D0247137AD37B0012254735
:1044F300024713EE242DF582E43FF583124A7A70C6
:1045030003A3E0697022750900780912140778097A
:10451300121407EE242F12588CF912472E1263A09F
:10452300122CB574021213E0740912175AE07003C7
:104533000245CF12472E1263A0122D8D8A0A8B0BD0
:10454300EA450B700302466C740412175AE0F88EA6
:10455300828F83A3A3E028F8A3E03400F9E8240DB5
:10456300124718F88A828B83A3A3A3E068600EE83E
:104573008A828B83A3A3A312536E123ED37904E9D9
:1045830012175A124CFAE02AF8A3E034008882F595
:1045930083A3AA82AB83121EBD8A0C8B0D8C0E8D56
:1045A3000F850A82850B83A3A3A3A3780C12136937
:1045B30040030247139083EB780C121590850A820F
:1045C300850B83A3A3A3A3780C1216DC9013BFE07F
:1045D30064046008E064096003024713E508A2E588
:1045E30040030246A6EE242F12588C8518828519A3
:1045F30083F0EE243012588CC0E0740112175AD0A5
:10460300E0F0EE243112588CC0E0740212175AD035
:10461300E0F0741412175AE06401702C740E121730
:104623005A1251E4241312588C687003A3E0697082
:1046330017740C12175A1263A6122D0FE964027035
:1046430007741412175AE4F0EE2425F582E43FF5BB
:10465300831211C074041214A5740712149D122836
:104663007D74041213E0024713901404E0640160A4
:10467300030245CF742012175A12474A7009E508FE
:10468300A2E650030245CF741012175AE0F47003E8
:10469300A3E0F4607BEEFCEFFD740312149D122B78
:1046A300D1806DA2E65069742012175A126B1A70EA
:1046B30016741A12175AE064027055740312149D8B
:1046C3007900122CF18049742012175A124727706F
:1046D30014741A12175AE064047035740312149D8B
:1046E300122CE5802B742012175A124720700C7974
:1046F30000740312149D122D338015742012175A5F
:1047030012669EE0640C7008740312149D122D4B04
:1047130074290251FBF582E439F583E02212749780
:10472300E0640322127497E0640722EE242BF582DF
:10473300E43FF5831272A5EE241322E0F508A3E00B
:10474300AA08FBE4FCFD221255F364062274F4125A
:104753000DB0EAFEEBFF8C088D0990132AE0600F81
:104763001273B37003A3E06970051228FB805A79B2
:10477300008E828F83A3A3A3A3A3A3A3A3A31263E4
:10478300A612292B8A828B83E58245836033A3A3F8
:10479300A3A3A3A3E054186028E508241C1262C253
:1047A3001211C4E50824131262C21211C4EE2418B4
:1047B30012588CF912638D12293D74041213E08090
:1047C30008790012638D12290102434E74F7120D0A
:1047D300B074F71214C3EAFEEBFF9013BFE0640357
:1047E300600DE064016008E0640960030248E78E3D
:1047F300828F83A3E060030248AD7C007D007A02D0
:104803007B00121E751274D38A828B83125E1F90F3
:1048130013B0126A52795312273F9013BFE0640911
:1048230060099013BD1263A6122D8785188285191E
:10483300837401126736794212273F9013BF7404C1
:10484300F0740112149D794A12273974011214A5C8
:104853007AB57B1312212D901561E0640B700574FA
:1048630006F0800B79009013BD1263A612288F9077
:1048730013B01272A17A037B00121E759013B31248
:1048830072A17A047B00121E759013AAE0A2E35072
:1048930004D2F08002C2F012672C795212273F90A3
:1048A300157112171F122BB98037FC7D007A037B19
:1048B30010121E75901561E0640B7003740AF0907A
:1048C3001597E4F0FA7B4090140AE0F91220258E44
:1048D300828F831248EE1263A612288F9013BFE4CF
:1048E300F0122BFB7409025595E0F8A3E0F990133D
:1048F300BD22C082C08390134F126C33701F90137C
:10490300BFE014600924FC600A14600C800F90134C
:10491300598034901355802F901357802AE84960AB
:1049230008901350124D0C700C8A828B83A3E0F90C
:10493300122883801D90134F126B2064027005129E
:104943002D57800E90142E126C33600612669F1240
:10495300327202638674F4120DB074FE1214C38AA9
:10496300088B097A007B0490140AE0F9122025AA27
:1049730018AB1979501227397A0F7B00121EC98A96
:104983000A8B0BAE0AAF0BEE4F60208508828509B8
:1049930083A3E070169013BDE0F47003A3E0F4600A
:1049A3003B124A747003A3E069603185088285096C
:1049B30083A374EA124D2812273F7AB37B13794BF2
:1049C30012273F7ABD7B13795012273F7AB27B13AC
:1049D30079E112273FEE4F7003024A688E828F837C
:1049E3007402F09013BDE0F47003A3E0F4600A12C4
:1049F3004A747003A3E069704F8518828519831286
:104A030048ECE8F0A3E9124D281227399013B012AD
:104A130051E9126A527AB37B13794B1227397AB26E
:104A23007B1379E1122739750A00780A1214077883
:104A33000A1214079015571248EF124F491263A632
:104A4300122CB574021213E0850882850983124A79
:104A53006DA3F09013BF7403F0EEFAEFFB90140A0A
:104A6300E0F9121ED5740202434BA3E08E828F83BA
:104A730022851882851983125E239013BDE0682274
:104A8300E8F0A3E9124A8B22F0850882850983E0C6
:104A930022F582E43BF583E022125E23E8FAE9FB88
:104AA3002274F5120DB074D11214C38A088B098ACB
:104AB300828B831256E2741C1214A58A828B83A301
:104AC300A3A3A3A3A3A3A3124D121263A6122C01A3
:104AD300741C12175AE0702C850882850983A3A3DE
:104AE300A3A3A3A3A3A3E0C3940B40188E828F8335
:104AF300A3A3A3A3A3A3A3A3E064027007126A3E24
:104B0300E0F46003024CF59013BFE064027003020B
:104B13004BDCE064067003024BDC90134F126C33E2
:104B23006008124D0C7003024C0C9013BFE0640834
:104B33006008E064046003024CF5741E12175A12F5
:104B43004CFAA3A3A3A31256E290134FE0F84960D3
:104B530007126B26640260779013BDE06E7003A3A7
:104B6300E06F6003024CF574016A60167423121738
:104B73005AAC82AD837AD17B13122127E9600302F9
:104B83004CF57A007B0290140AE0F912202BEA4BD1
:104B93004C4D6003024CF59013C0121743851882E5
:104BA30085198312172B9013C6E0C0E07404121703
:104BB3005AD0E0F0740512175A7401F074061217F4
:104BC3005A7402126736122841E96003024CF2EE6E
:104BD300FAEFFB122D51024CF590134F126C337008
:104BE3002875080078081214077808121407EE24B1
:104BF30010F582E43FF583124D03A312420E1263B4
:104C0300A6122CB574021213E08E828F83125E1FDC
:104C1300740712175AE8F0A3E91251EF125E1F74DA
:104C23000912175A12690D125DB8C0E0740B1217FE
:104C33005AD0E0124D22F508A3E0F509740F780865
:104C43001216CD740C12175AE508F0742012175A75
:104C5300E0C0E0740D12175AD0E0F0742212175A14
:104C6300E0C0E0740E12175AD0E0F0741D12175A08
:104C7300E0C0E0741012175AD0E0F0741E12175AF5
:104C8300E0C0E0740F12175AD0E0F0EE241012586F
:104C93008CC0E0741112175AD0E0F0742112175A25
:104CA300E0C0E0741212175AD0E0F0742E12175AB3
:104CB300E0C0E0741312175AD0E0F0742312175AAD
:104CC300A982AA8389088A09750A0078081213FF42
:104CD3007C087D00741712175AAA82AB83121EAB8D
:104CE30074031213E0740712149D122889800312AF
:104CF3002847742F0256F4E0FA8E828F83A3A322EF
:104D0300E0F98E828F83A3A322126B27640122E032
:104D1300F98A828B83A3A3A3A3A3A3A3A3A322F0B0
:104D2300126A42E022F07AB07B13795322124D3497
:104D330022F08518828519832274F2120DB074F85B
:104D43001214C3EAFEEBFF8C0A8D0B890D90826D62
:104D5300AC18AD197408121309750C00EEFCEFFDC5
:104D6300AA18AB19122127E97003750C0190140BD3
:104D7300801AEEFCEFFDE508240BFAE43509FB127B
:104D83002127E97023E50824141262C2124DC16081
:104D930024E50CA2E040DB850882850983E0650AEF
:104DA3007004A3E0650B70DD850882850983A3A3E6
:104DB300E0650D70D0AA08AB097408025389125636
:104DC3000BE508450922C082C08390140B0263835C
:104DD30074F7120DB090140B127744800C126E917D
:104DE3001256E5121F65EEFAEFFBEA4B70EF9014D3
:104DF3000BE4F0A3F002559874F1120DB0EAFEEB48
:104E0300FF890A8C088D098E828F83E08C828D83C3
:104E1300125DE7AE82AF83E012612C126333C412DA
:104E2300612C124EBAE0126133126331A2E2E43311
:104E33008C828D83126330131313541F12612C124F
:104E4300632FA2E7E4338C828D83A3A3A3A3124E23
:104E5300BA8E0C8F0D750E00780C1213FF7C087D33
:104E630000E5082407FAE43509FB121EAB740312AC
:104E730013E0EE2408FE50010F8E0C8F0D780C12F8
:104E830013FF7C037D00E508240FFAE43509FB12C8
:104E93001EAB74031213E0E50AC3940F40118E8214
:104EA3008F83A3A3A3E0C0E01262BED0E08004120C
:104EB30062BEE4F00274CEA3A3125DEB0EAF8322B5
:104EC30074F5120DB08A088B098A828B83A3AE8294
:104ED300AF83E0F91228A78E828F83E064EB60240E
:104EE300850882850983A3E064E1601885088285CB
:104EF3000983A3E064F1600C850882850983A3E03C
:104F0300641A7009850882850983A3E4F0901571FA
:104F130012171F122BB9750A01780A121407850894
:104F230082850983A3E0F5087808121407790090B5
:104F330013BD124F491263A6122CB574021213E06B
:104F4300122C0D0256F71272A59013B322EAF0A3A6
:104F5300EBF002638674F6120DB090140EE0701B32
:104F63007C0079017A007B00122C3DEA4B600C8AAD
:104F7300828B83126C336003122BAD0266F4C08202
:104F8300C0837904122C37E9F8903A22E493C3984A
:104F9300401079FF122C37E9F8903A21E493C39833
:104FA300500479018002790002638674F0120DB017
:104FB3008A088B09890B750C008A828B83A3A3A3B0
:104FC300A3A3A3A3A3E0F9122C438A0E8B0FAE0E67
:104FD300AF0F750A01EE4F60030250A88508828562
:104FE3000983A3A3A3A3A3A31272A185088285099E
:104FF30083A3A3A3A3A3A3A3A3E0F985088285099D
:10500300831263A6122C2B8A0C8B0DAE0CAF0DEE04
:105013004F70030251C38E828F83A3A3A3A3E4F033
:10502300A3F0E508240CFAE43509FB8A828B83E0BC
:10503300C0E01251CAD0E0F0E508240D1251DD247E
:105043000D126A4C122D15EE240F127056E508242A
:10505300111251DD2411126A4CE50824131251D4A4
:10506300C0E01268F6D0E0F0750C01EE2406125D84
:10507300AC547FF0A3E054FC1242225404600302B8
:10508300511D901583E0F50875090074077808121F
:1050930016028E828F83A3A3A3A3A3A3E04508F0E4
:1050A300A3E04509F08E828F83A3A31256037407EE
:1050B30078081216CDE5085407FCE50B606C8E8268
:1050C3008F83A3A3A3A3A3A3A3A3A37402126334F1
:1050D3001254AE600B9013AB1251E9A3A3126A52A0
:1050E300EC7003025191EE2406127A21547FF508E5
:1050F300A3E054FCF509EC24FFF50EE434FFF50FAF
:105103007407780E121602E508450EF8E509450FF7
:10511300F98A828B83126A5280748E828F83A3A34F
:10512300A3A3A3A3E044800250A7EC7005750A0073
:10513300805C8E828F83A3A3A3A3A3A3E0542060E8
:105143000C121EC3EA547F7900245F80198E828F6C
:1051530083A3A3A3A3A3A3E05410601A121EC3EA5C
:10516300540F7900240A5001098E828F83A3A3A3CD
:10517300A3F0A3E9800D8E828F83A3A3A3A374015D
:10518300F0A3E41251EF7404125431121F0BE50C17
:10519300A2E0502F8E828F83A3A3A3A3126E17E0E6
:1051A300F9EEFAEFFB122C31E96018126C2A600950
:1051B300EE240F1263A0121F65EEFAEFFB121F65B8
:1051C300750A00A90A8034EE240CF582E43FF583C6
:1051D30022F582E43509F583E022F582E43509F509
:1051E30083125E23EE221274F7A3A3221251F32239
:1051F30012606FA3A3A3A3221213E07F080210B8C7
:1052030074F4120DB074F71214C37E00122C43EA27
:105213004B70030252C98A828B83A3A3A3A3A3A3C4
:10522300A3A3A3E0640660030252C98A828B83A30B
:10523300A3A3A3A3A3A3E0FF8A828B83127A45E0EF
:10524300C0E0740812175AD0E01255EAF8A3E0F947
:10525300851882851983126A52122C55EF540860FF
:10526300638518828519831272A17A007B00122C40
:10527300258B0BEA450B704C127A941227697C003C
:105283007D007A007B0080288E828F831256F0F493
:105293007003A3E0F4602D9013BD1242141263A6B1
:1052A300122763E9641A601C7C007D00EEFAEFFBB1
:1052B300122C258A0A8B0BAE0AAF0BEE4F70C979FD
:1052C3000012276F7E01EEF9740902434BC082C0BE
:1052D30083EA4B700590141380068A828B83A3A301
:1052E3001254E660208A828B83A3A3A3A3A3A3A360
:1052F300E0540860E5EC4D60101254ED7003A3E038
:105303006D70D780047A007B0002638674F2120DFD
:10531300B0EAFEEBFF890A8C088D097A147B001230
:105323001F5FEA4B603A8A828B83A3A3A3A3A3A341
:10533300A3A3A3E41255DFA3E50A12749EA3127A72
:10534300A012536E1255FD1253758A828B83127409
:10535300BBEA1277203BF583E4F0125365F0A3F028
:105363008027A3F08A828B83A3A3221274B2E4F072
:10537300A322A3F01253803BF583E4F022EA1267E1
:105383001B22A90A74031213E07F060210B874F4F7
:10539300120DB0EAFEEBFF89088C0A8D0BEE4F70FD
:1053A3000302542C7401650870127901122C37E939
:1053B300F8903A24E493C398502280167404650845
:1053C30070147904122C37E9F8903A22E493C398C5
:1053D300500A7911805574026508704D8E828F834F
:1053E300A3A3A3A3A3A3A3A3A3E508125DE7A31207
:1053F30070F5E4F0A3F0901413126C33601A800379
:10540300E0F8A3E0F988828983A3A31254E6888293
:105413008983A3A370EA8003901413EEF0A3EF1221
:105423005431121F0B7900800279C102434EF07A86
:10543300207B0090140AE0F922C082C083E9F87946
:1054430000901413801D8A828B83A3A3A3A3A3A319
:10545300A3A3A3E068600574FF687001098A828BC7
:1054630083A3A31254E670DE02638674F7120DB0B1
:10547300EA4B700590141380068A828B83A3A312D0
:1054830054E660208A828B83A3A3A3A3A3A3A3A32D
:10549300A3E06970E4EC60108A828B83E01254AE5F
:1054A30070D780047A007B00025598F8A3E0C812F5
:1054B3007A6CE0540422C082C08390141380068A5D
:1054C300828B83A3A31254E660128A828B83A3A3E5
:1054D300A3A3A3A3A3A3E06970E580047A007B00E0
:1054E300026386127744FBEA4B221255EF6C227457
:1054F300F2120DB08A0A8B0B8C0C8D0D750800759A
:105503000900EA450B603090141380068E828F8366
:10551300A3A31256E5EE4F601EAC0CAD0DEEFAEFF1
:10552300FB850A82850B83123272E9640170DDEE1A
:10553300F8EFF988088909AA08AB0902538C74F7B4
:10554300120DB0901413125E1F7C007D00800DE8D5
:10555300FCE9FD88828983A3A3125E1FE8496030BA
:10556300EA687002EB6970E79014131263A6E86AA5
:105573007002E96B88828983A3A37008125E1F906F
:1055830014138009125E1F8C828D83A3A3126A52A7
:1055930080031213E07F010210B874F7120DB0EA12
:1055A300FEEBFFEE4F602B122C4F1256131263A427
:1055B300121F658E828F831263A6121F65126C2AD7
:1055C3006009EE240F1263A0121F65EEFAEFFB12BF
:1055D3001F6580C11272A58A828B83221255E32232
:1055E3001274B6A3A3A322F01255EF228A828B83EF
:1055F300E0F8A3E0F5838882E0221255E3A3A32217
:10560300A3A3A3A312560B22E0F508A3E0F50922F6
:105613008E828F83125AD0125AC63822C082C08318
:10562300EAFCEBFDEC4D6017EC24FBF582ED34FF57
:10563300126C317007125679E0F46007121ECF79AD
:1056430005803090140AE0C0E0125679D0E0F09063
:105653003A1CE493F97A157B14121F05E96401706F
:10566300107A007B2090140AE0F9121F0B79008056
:10567300027904026386EC24FFF582ED34FFF5839F
:105683002274F4120DB0A2AFE433F508C2AF901444
:10569300151256E5EE4F603AEE24FBF582EF34FF28
:1056A300126C317A007B2090140A6007E0F9121F14
:1056B3000B8005E0F9121F11E4F50AF50B780A12C5
:1056C3001403EEFCEFFD7A157B14121EFF74021215
:1056D30013E0E508A2E092AFEEFAEFFB02434EA31C
:1056E300A3A312710DFF22F582E43FF5831255F354
:1056F300221213E07F030210B874F2120DB074FA91
:105703001214C3EAFEEBFF750AFE750BFF122C138E
:10571300E960057911025884EE241512588C60351E
:105723009015A1E0C43354E0F8E0333354FC48C08F
:10573300E0126035D0E0127A75FAA3E0FB79FF122C
:105743002A098B09EA4509600C750AFF1268FA12E7
:1057530067E0D2E0F08E828F83A3A31263A6122D9B
:105763000FE96006EE2412126703EE241312588C1D
:10577300700D903A26E493C0E01268F6D0E0F08E04
:10578300828F83E0A2E7500454038019EE2414129D
:10579300588C701290139CE0C0E0125DA2D0E0F030
:1057A30090139CE004F01258896401701690158CD4
:1057B300E0600D9013A7E0700A8E828F83E0700380
:1057C3001267008E828F83E064017011EE240B1246
:1057D30056EA640270071258A0E04440F0AC18ADDA
:1057E30019EEFAEFFB122C798A088B0974FE650A0D
:1057F300700374FFF4700D8E828F83A3A3E0F50A08
:10580300A3E0F50BEA450960748E828F83E0C0E064
:10581300740112175AD0E0F0740412175A1274BBB1
:10582300EE241E125E19740212175A126A52740180
:10583300121495880C890D780C121403EE2420128F
:1058430058941214071258A01211C4EE240E1258C1
:10585300941214079013B01211C4740812175AE06B
:10586300F9AC0AAD0B122C7374081213E0E9FE7441
:10587300106E700BAA08AB09121F6580027E10EE32
:10588300F97406025389EE2411F582E43FF583E0AF
:1058930022F582E43FF583E0F50C780C22EE1269E1
:1058A3000222C082C08374D71214C39081C97403C7
:1058B3001214A574261213098A828B83A3A3A3A3AC
:1058C300125E1F740E12175AE8F0A3E91253661200
:1058D3005E1F740C12175A125996125990124A9756
:1058E300C0E0741A12175AD0E0F0126E9B125E1DBC
:1058F300742012175A1259962415124A94C0E07450
:105903000812175AD0E0F0EA241CF582E43B125E39
:105913001D741212175A1259962411124A94C0E098
:10592300740912175AD0E0F0EA2412124A94C0E024
:10593300740712175AD0E0F0EA241EF582E43B12F2
:105943005E1D742412175A1259962420124A94C0C9
:10595300E0742612175AD0E0124D3074FFF0740130
:1059630012175A74FFF0740212175A74FFF09083DF
:105973008B1211C074041214A5740712149D1228FB
:105983007D74041213E079007429023F1C240DF581
:1059930082E422E8F0A3E9F0EA2274F4120DB07471
:1059A300EC1214C3EAFEEBFF8C0A8D0B8909750810
:1059B300107A217B00121F5F85188285198312706C
:1059C3005C851882851983126C337003025ABF7C7D
:1059D300217D007900851882851983E0FA121EB7AC
:1059E3009013BD1263A6851882851983125ACC249D
:1059F30009F582E43812705A742012175A125E1F86
:105A0300741112175AE8F0A3E9125AD6127A2F1218
:105A13005AD6127A4C7402125E29F812669EE50A6F
:105A2300F0A3E50B125AD6127A3CE509F074221260
:105A3300175AE0F8851882851983E0F9A3E0C92491
:105A43000CF582E439F583E8125E29F9A3E0C91263
:105A53005AC639F5831274BB742312175A1263A6FC
:105A6300740612175A12705C740812175AE8F0740D
:105A73002612175A127491C082C083740C12175ADB
:105A8300AC82AD83D083D0827405121309742512BE
:105A9300175AE0C0E0741312175AD0E0F07900AA45
:105AA30018AB19122C19E964017005750800800CF4
:105AB3008518828519831263A6121F65A9087414B9
:105AC30002434B241FF582E422125AD022E0F8A3AA
:105AD300E0C822125E2DF8A3E0C82274EE120DB0C6
:105AE300EAFEEBFF8C088D098E828F83A374081264
:105AF3006721E060088E828F83A37410F0EE241771
:105B030012588C60098E828F83A3E02408F0EE2460
