:020000040000FA
:0600000002169F0209D662
:030013000209F8E7
:03002B0002144A72
:03003300020C209C
:03003B00020A4D69
:03004B0002132A73
:0300530002090B94
:03005B000211830C
:0300630002119EE9
:03006B00020BC6BF
:03007B00020BF77E
:1000830002096A010020FD0002012E0500000001A3
:100093007D1C891C00008F1C9B1C00000000A11C00
:1000A300C51CCB1CD11C0000000000000000010196
:1000B3000204081020408001FFFF090D0101040123
:1000C3000001000000000000000612FFFFFFFFFF19
:1000D300FF0101010400FA11000000E8030000FF22
:1000E300FFA212E803000064006400B801A0BB0D86
:1000F30000A0BB0D00020200F8FF0705021E040169
:10010300051E02051E020A0A010108080310270240
:10011300803E0102FEFFE8030A050001FFFF020A19
:100123001401E0C503423F1A51123FF304B53F00E7
:1001330000803E05030101FFC5370000000099362A
:1001430000000000FF000000FF00C082C083120215
:10015300AA600814601214601C802BEA6005EB424D
:10016300808023E85280801EEA6005EB429080166F
:10017300E852908011EBC39420500BEA6005EB42E8
:10018300A08003E852A0020218C082C0831202AA10
:10019300600814602C146050807BE852F374016A89
:1001A300601274026A601574046A7003EB428FEB89
:1001B30042FD806153F7DFE8528F80F343F72080DD
:1001C300F6E852F474016A601274026A60157404EA
:1001D3006A7003EB42F6EB42FE803A53F7BFE852F4
:1001E300F680F343F74080F6EBC394205027E852A0
:1001F300F574016A601274026A601574046A70030C
:10020300EB42F7EB42FF800D53F77FE852F780F3A1
:1002130043F78080F6D083D08222C082C08312024B
:10022300AA600814602B14604E806CE852F352FDF0
:1002330074016A600F74026A600F74046A7058EB89
:10024300428F805353F7DF800343F720E8528F80B8
:1002530046E852F452FE74016A600F74026A600F3A
:1002630074046A7032EB42F6802D53F7BF80034368
:10027300F740E852F68020EBC39420501AE844E09C
:10028300F852F552FF74016A601074026A601374C5
:10029300046A7003EB42F702021853F77FE852F740
:1002A30080F543F78080F6E95407FC743D2CF58212
:1002B300E43415F583E0FBF4F8E9C4540F54032246
:1002C300C082C0831202AA600814601214601C80EA
:1002D3002DEA6005EB42FD8025E852FD8020EA60AF
:1002E30005EB42FE8018E852FE8013EBC3942050C6
:1002F3000DEA6005EB42FF800574E04852FF0202FD
:1003030018C082C0831202AA600814601514602208
:100313008034EA6005EB42808003E85280EB42FDC3
:100323008024EA6005EB42908003E85290EB42FEA2
:100333008014EBC39420500EEA6005EB42A08003C7
:10034300E852A0EB42FF020218E9C4540F540360C1
:1003530007146013146020227801E8F4FBEA60209C
:1003630014602114601522740F59C3940450047847
:100373000280E7780480E3780880DFE58C58600426
:10038300EB528C22E8428C221216AF601D1216BE6D
:100393007005191919801A121518701F121540C308
:1003A3007003E6673319191940071818182208084B
:1003B3000874FFF618F618F618F62212154060179F
:1003C300121764702192F012176D7019501720F0F4
:1003D30014080808090909E7F61819E7F61819E7D0
:1003E300F61819E7F62212176D60E6E869701F0820
:1003F30008E62480F608E436F618547FB47F0CE64A
:1004030054806007F6E418F618F622181822E9C695
:10041300CC08C6CD08C6CE08C6CFC0E0E8C0E0EA27
:10042300C0E0EBC0E009E9F809E7FA09E7FBE6F900
:1004330018E6F8C3EC98ED99EE9AEBC2E7F5F0EF06
:10044300C2E795F0500E600CEBCFFBEACEFAE9CD94
:10045300F9E8CCF8EAA2E7D2E7FAEB33FB13F5F0BD
:10046300EEA2E7D2E7FEEF33FFC5F013A2E730E6D3
:1004730001B313C5F0C3C0E0C0F07F00C39BFB60B2
:100483005E9418600F401D14601AD0E023F9D0E089
:10049300F802056C8AF0E9486003D2F0E4AFF0FAA1
:1004A300F9F8803BEB30E40D89F0EA6003D2F0E425
:1004B300AFF0F9CAF8EB30E30D88F0EF6002D2F049
:1004C300AFF0E4CAC9F8EB54076014FBC3EA13FAAC
:1004D300E913F9E813F8EF135002D2E0FFDBEDD094
:1004E300E0C0E030E739C3E49FFFF5F0EC98FC424D
:1004F300F0ED99FD42F0EE9AFE42F0D0E0F9D0E043
:10050300F8E5F0607AE923F9EE20E742D802806744
:10051300C3EF33FFEC33FCED33FDEE33FE80EAEC47
:1005230028FCED39FDEE3AFED0E023F9D0E0F840A7
:1005330002801BC3EE13FEED13FDEC13FCEF13500F
:1005430002D2E0FF08B800067F7F74FF802EEF33EE
:1005530050178CF020F00260100CBC000C0DBD0095
:10056300080EBE000408E860DFE933E813FFEE235A
:1005730013FE4F4D4C8008E95480FFE4FEFDFCEE72
:1005830033EF33F47004FCFD7E80D0E0FBD0E0FA5F
:10059300D0E0F8D0E0CFC618CEC618CDC618CCC66A
:1005A300F9221216AF7004181818221216BE700D15
:1005B30074FFF61819F61819F61819F622E754807D
:1005C30066F612176D700F12176470F014F608F6C2
:1005D30008F608F680D1121764700CF608F6087650
:1005E3008008E6447F80EC121543700C12151B60E3
:1005F300BFE65480F6E480BB12151B700519191968
:1006030080A5E869700C763F18768018F618F6E82E
:10061300F922E6CDC0E018ECC0E0E633CD33CDD30C
:1006230013F6E719FCE7191933CC33C3947F400E53
:10063300CD9D502408E65480F6E418F6800FF404A8
:100643003D14501408E6447FF6187680E418F61833
:10065300F6D0E0FCD0E0FD22CCD313CCFD18E4C6E9
:10066300CBC0E018E4C6CAC0E00808ED08C633E60C
:1006730013F618E433C675F003C3CA97CA09CB97B8
:10068300CB199C40047D08802EBD000302074E1643
:10069300B6FF050606081618C3CA33CACB33CB33D5
:1006A300CA27CA09CB37CB193CC37D08803E187DC6
:1006B3000820E75CC633C6CA33CACB33CB33DDF17C
:1006C300D5F0EB30E77BCA97CA09CB974ACB199C85
:1006D300406F4B7025E620E0218066187D08C3CA71
:1006E30097CA09CB97CB199CD3C633C6CA33CACB97
:1006F30033CB3350C9DDE7D5F0E1D3E4C636C608C2
:10070300C636C608C636C608C636C6181818803197
:10071300C3CA97CA09CB97CB199CB34097C633C6B4
:10072300CA33CACB33CB33DD34D5F02EC6A2E0C6F1
:1007330040C8CA27CA09CB37194A70BECB3CB4801C
:10074300B90808E63308E633601F181818D0E0FA32
:10075300D0E0FBD0E0FCD0E0FD22187D08CA27CA18
:1007630009CB37CB193CD3808013F618E4B67F113D
:10077300F618B6FF0EF618C60470D2080876808005
:10078300CAF618F618F680C5001216AF604F121697
:10079300BE6012E7548066F61215187011121764C2
:1007A300703B090909F4F618F618F618F622121523
:1007B30040701512176D08080860EAE6447FF618C2
:1007C300768018E4F618F62212176D601612176475
:1007D3007012E4F608F608F608E65480F6090909EB
:1007E30018181822EAC0E0EBC0E0ECC0E0EDC0E06E
:1007F300E687F0A4FBACF008E687F0A42CFCE43514
:10080300F0FA1809E687F0A42C4B60027401CA358C
:10081300F0FCE433FB09E687F0D2F7A42CCB35F0E8
:10082300FC1908E687F0A42BCC35F0FBE433FD0874
:1008330019E687F0D2E7A42C4ACB35F0CD3400FC7F
:1008430009E687F0D2E7A42DCC35F0FDE433FA09AD
:1008530018E687F0D2F7A42CCD35F0CA3400FC0893
:10086300E687F0D2E7D2F7A42ACC35F07A7E20E7E8
:100873000B0ACB33CBCD33CDCC33CC33CB3350146A
:100883007004ED30E00ED2F1E4CD3DCDCC3CCC3B59
:100893005005DA05C2F1EB547FC63308E63392F014
:1008A300FBE73309E733C39A502D2B70190C0D4C1A
:1008B3004D70151806E608C333700D20F10AA2F037
:1008C30013F6E418800B4024E4F630F00276801827
:1008D300F618F618F68024D33B14501074FFA2F0D8
:1008E30013F6187680E418F618F6800FA2F013F6C4
:1008F30018E63303F618ECF618EDF6D0E0FDD0E079
:10090300FCD0E0FBD0E0FA22C0E074F1120E1CA28E
:10091300AFE433F509D2AF85A708AFA1EF5508FEC1
:1009230074105E600612195F75A1EF74085E6008AB
:1009330012196575A1F78024EFA2E092F0E508A2F1
:10094300E082F05017906198E0F890049CE0C3981F
:10095300A2D265D0335002E8F075A1FEE509A2E00A
:1009630092AF7F02020E7BC0E074F2120E1CA2AFA4
:10097300E433FED2AF9061A4E0F8759B00E5915893
:10098300540860087591F71219AD8023E591585406
:100993001060087591EF1219B38014E591A2E092EB
:1009A300F0E8A2E082F05007E0C2E0F0121B0F90E3
:1009B30061A3E0F8E5E9585404600E121AE575E9FD
:1009C300FB906193E0A2E640F2EEA2E092AF7F01DA
:1009D300020E7BC0E074F2120E1CA2AFE433FED20F
:1009E300AF9061A5E0F8E5BF585404600675BFFBFE
:1009F300121B2780D4C0E0C0D0E8C0E0E9C0E0C04B
:100A030082C083A8C1E8C0E0900409E0F874882894
:100A1300F582E43403F583D0E0F0900408E0F8A312
:100A2300E0687006E59590040BF0900409E004F08B
:100A3300C394804002E4F0A374C6F0D083D082D084
:100A4300E0F9D0E0F8D0D0D0E032C0E0C0D0E8C0C8
:100A5300E0E9C0E0C082C08390048CE0F8A3E068C2
:100A63007008539AFBA374018022C2E990048CE0BE
:100A7300F8740128F0740C28F582E43404F583E05B
:100A8300F5C190048CE0C394804002E4F080AC1282
:100A93000ADD30F039120B228034120ADD20F01403
:100AA30030E72B74FFFCFBFA747F8022E4FCFBFA33
:100AB3007480801AB48008BC00F2BB00EF800F5032
:100AC300EBF9E4C39AFAE49BFBE49CFCE499C6CCFF
:100AD30018C6CB18C6CA18C6F922E4C9C608CAC6BE
:100AE30008CBC6D3330308CCC63392F0C3947F40FC
:100AF3002E94184019C9B90704CACBCC225025C378
:100B030009CA33CACB33CBCC33CC33D9F422F46008
:100B13000DC9CCC313CB13CBCA13CAD9F6CC22E469
:100B2300FCFBFA2214FCFBFA22C3E498F8E499F9DB
:100B3300120B6D8026C3E49AFAE49BFBE920E7E9F4
:100B4300120B6DE498F8E499F922C3E498F8E49958
:100B5300F9120B6DE498F8E499F9C3E49AFAE49B6B
:100B6300FB22EB20E7CFE920E7E0B90010BB000848
:100B7300E88AF084F8AAF022E4FBC8FA22EB702298
:100B83007B10C833C8C933C9335007C39AC3DBF2D8
:100B930080069A50012ADBEAC833F4C8C933F4C982
:100BA300FA2275F008E4C833C8C933C933C99AC9EE
:100BB3009B5004C92AC93BD5F0ECFBC833F4C8E405
:100BC300C9FA22C0E074F2120E1CA2AFE433FED2C3
:100BD300AF90062FE05589600FE589FA7900121D61
:100BE300AF90062FE0F45289C2C5EEA2E092AF7F28
:100BF30001020E7BC0E074F2120E1CA2AFE433FEBE
:100C0300D2AF900630E0558A600FE58AFA79011277
:100C13001DAF900630E0F4528AC2EB80CDC0E07481
:100C2300F2120E1CA2AFE433FED2AF900631E055B0
:100C33008B600FE58BFA7902121DAF900631E0F459
:100C4300528BC2E880A4080808EAC0E0EBC0E08643
:100C5300F0E7A4FA180986F0E7A42AFA180986F03F
:100C6300E7A42AFA180986F0E7A42AFA1986F0E716
:100C7300A4FBE5F02AFA190886F0E7A42BFBE5F0BC
:100C83003AFA190886F0E7A42BFBE5F03AFA1818AC
:100C93000986F0E7A4C5F02BFBE43AFA1908E7C587
:100CA300F0C6A426F6E5F03BFBE43AFA1886F0E733
:100CB300A4F6E5F00826F6E43B08F6E43A08F6D095
:100CC300E0FBD0E0FA22080808E630E71112157CB1
:100CD300120CE1080808C64480C618181822181810
:100CE30018E9799EC608CAC608CBC608CCC6C37025
:100CF300207996CACBCC7019798ECBCC70137986B8
:100D0300CC700EF9802ACA33CACB33CBCC33CC3365
:100D13001930E7F2CCCBCA3350147004EA30E00D3B
:100D2300E4CA3ACACB3BCBCC3CCC500209C3E9134F
:100D3300C6CC182313C6CB18C6CA18C6F922E4CFEB
:100D4300C0E0E4CEC0E0E4CDC0E0E4CCC0E075F0A8
:100D530020E626F608E633F608E633F608E633F629
:100D6300181818EC33FCED33FDEE33FEEF33FFC3FD
:100D7300EC9709ED9709EE9709EF97191919400FA9
:100D8300FFEC97FC09ED97FD09EE97FE191906D5BF
:100D9300F0BFECF709EDF709EEF709EFF7191919A9
:100DA300D0E0FCD0E0FDD0E0FED0E0FF222518C566
:100DB30082C0E0E51934FFC583C0E0E518C395821E
:100DC30024F810AF08858319858218800885831954
:100DD300858218D2AFCEF0A3E520F0A37808E60809
:100DE300F0A3DEFAEFF0A3E58124FAF8E608F0A316
:100DF300E608F0A3E608F0A30808E608F0A3E6086F
:100E0300F0A315811581D0E0FED0E0F8158115819E
:100E13001581E8C0E0EEC0E022C0D02518C582C02D
:100E2300E0E51934FFC583C0E0E518C3958224F3D8
:100E330010AF0885831985821880088583198582F8
:100E430018D2AFC8F0A3E9F0A3EAF0A3EBF0A379BB
:100E530008E709F0A3D8FAECF0A3EDF0A3EEF0A3B2
:100E6300EFF0A3D0E0F0A3D0E0F0A3D0E0F0A3E54F
:100E730020F0A3E5F0F0A322851983851882E0C052
:100E8300E0A3E0F9A3E0FAA3E0FBA37808E0F60807
:100E9300A3DFFAE0FCA3E0FDA3E0FEA3E0FFA3E0F1
:100EA300C0E0A3E0C0E0A3E0F5D0A3E0F520A3E019
:100EB300A3F5F010AF088583198582188008858310
:100EC30019858218D2AFD082D083D0E0F8D0E03237
:100ED30012157F181818120D4112164E19191922DE
:100EE30012164E191919080808E618181820E7E011
:100EF300120D4112157F18181822090909E719194B
:100F03001920E7DC080808E618181820E703020D83
:100F13004112157F181818120D4112157F18181851
:100F230012164E1919192212174FB90003020F692D
:100F3300E490033178E179128002F0A3D8FCD9FA66
:100F43007A117B1590008678C879018015E493A304
:100F5300AD82AE838A828B83F0A3AA82AB838D8218
:100F63008E83D8E9D9E77582537583A97406121362
:100F7300A775827375833274001213A70475F0107A
:100F83008E1A8F1B85821F85831E85188285198380
:100F9300E0CEA3E0CF851F82851E83EBC9EAC8EDAF
:100FA300CBECCAC3E833C8E933C9EA33CAEB33CB62
:100FB300C3EA9EF51DEB9FF51CB35004AB1CAA1DA1
:100FC300EC33CCED33CDD5F0DAAE1AAF1B221216CB
:100FD300AF601C1216BE601712176D7007121764EC
:100FE3007001D322C0D01217647006D0D0B322C3CD
:100FF3002233D0D0501430E0F6C3E7960809E796C1
:101003000809E7960809E796B32220E0D5E6970892
:1010130009E6970809E6970809E697B3221216AF7F
:10102300601B1216BE601612176D700712176460EC
:101033000CB322C0D01217647005D0D022C3223360
:10104300D0D0501330E0EBC3E7960809E7960809C0
:10105300E7960809E7962220E0E4E6970809E69771
:101063000809E6970809E69722D083D082ECC0E00E
:10107300EDC0E0E493A3FCE493A3FDED4C600D12FB
:101083001144EC24FFFCED34FFFD80EFE493A3FC5B
:10109300E493A3FDED4C600D12124AEC24FFFCED2A
:1010A30034FFFD80EFD0E0FDD0E0FCE493A3C0E08B
:1010B300E493C0E022851983851882E0A3FEE0A3B0
:1010C300F5207808E0A3F608DFFAE0A3FFE0A3C069
:1010D300E0E0A3C0E0E0A3C0E0E0A3C0E0E0A3C081
:1010E300E010AF08858218858319800885821885EA
:1010F3008319D2AFD083D0820213ADD083D082E9DB
:10110300C0E0E493A3C386F0C5F095F0F908E49337
:10111300A386F0C5F095F0700BE493A3C399400543
:10112300E9048002A3E475F002A42582F582E5F0C8
:101133003583F583D0E0F9E493A3C0E0E493C0E002
:1011430022C0E0C3E49396087401939618400FE419
:101153009366700808740193661870007019A3A34E
:10116300C3E49396087401939618A3A3400DD0E0AB
:10117300D0E0D0E00210A8A3A3A3A3A3A3D0E022AE
:10118300C0E074F2120E1CC2D990155B1211B64066
:1011930005E0F91220977F01020E7BC0E074F21282
:1011A3000E1CC2DC90155D1211B64005E0F9122049
:1011B3009780E3E0C39400A2D265D0332274048005
:1011C3000474028000CCC0E0EDC0E0E518C39CCC01
:1011D300AD1950011D10AF068C188D1980068C189F
:1011E3008D19D2AF121309D0E0FDD0E0FC227402B6
:1011F3008000CCC0E0EDC0E0E518C39CCCAD195035
:10120300011D10AF068C188D1980068C188D19D20C
:10121300AF1212C5D0E0FDD0E0FC221216AF60255C
:101223001216BE602012176D7003021764080808B7
:10123300E76670101819E766700A1819E7667004F4
:101243001819E76622F422C0E0C0F088F0E4936640
:1012530070080874019366187000A8F0A3A3700BBC
:10126300D0F0D0E0D0E0D0E00210A8A3A3D0F0D01B
:10127300E022D083D082CCC0E0E493A360061213B3
:10128300881470FAE493A360061214AD1470FAD0B4
:10129300E0FCE493A3C0E0E493C0E022C008C3E011
:1012A30096F50808A3E096420808A3E096420808CA
:1012B300A3E0964208A2D265D033E5087001D3D0EB
:1012C3000822CAC0E0E493A3C582CCC582C583CDFE
:1012D300C583F0A3C582CCC582C583CDC583DAE5BA
:1012E300D0E0CA22A2E792D65002F40430F7066394
:1012F300F0FF05F0B3400384800384F40430D60583
:1013030063F0FF05F022CAC0E0E0A3C582CCC5822A
:10131300C583CDC583F0A3C582CCC582C583CDC5A6
:1013230083DAE6D0E0CA22C0E0C0D0C082C08375B1
:10133300AF0090066DE02401F0A3E03400F0D08309
:10134300D082D0D0D0E03270090808082260161885
:101353001818C6C333C608C633C608C633C608C67C
:1013630033C6D5E0EA22C008C3E096F50808A3E037
:1013730096420808A3E096420808A3E09645087041
:1013830001D3D00822C0E0E493A3D39C5010E4938C
:10139300A3C39C400AD0E0D0E0D0E0021292A3A302
:1013A300A3D0E022C09FF59FE473D09F22D083D0C7
:1013B30082C09FE493C0E0740193C0E0740293F58C
:1013C3009F222518F58210AF08F518400C151980D7
:1013D30008F51840021519D2AF8519832200C0D031
:1013E300251810AF08F518500C05198008F518508A
:1013F300020519D2AFD0D0227404800A7403800688
:10140300740280027401C0E0F4041213C5D0E01228
:1014130016FA226017080808C6A2E713C618C613EF
:10142300C618C613C618C613C6D5E0E922BB010207
:10143300E722C082C08389828A83BB0003E08002E3
:10144300E493D083D08222C0E0C0D0E8C0E0A8A853
:10145300D2AFC2C7E8A2E792AFD0E0F8D0D0D0E0D5
:10146300326016080808C6C313C618C613C618C6C2
:1014730013C618C613C6D5E0EA22C3E0C696F6081B
:10148300A3E0C696F608A3E0C696F608A3E0C696C0
:10149300F6222518F8E43519F9222518FAE4351946
:1014A300FB222518FCE43519FD22C0E0E493A36C6C
:1014B3007009D0E0D0E0D0E0021292A3A3D0E022E2
:1014C300251810AF08F518400C15198008F51840B9
:1014D300021519D2AF22C3E09608A3E09608A3E051
:1014E3009608A3E096A2D265D03322E7667010086F
:1014F30009E766700A0809E76670040809E76622C7
:10150300E066701008A3E066700A08A3E066700442
:1015130008A3E06622181818E60846087009E626AC
:10152300087005E633F4220822C3E4939608740195
:1015330093960874029396087403939622191919C3
:10154300E70947097009E727097005E733F422091A
:1015530022C3E096F008A3E096F008A3E096F00813
:10156300A3E096F022C3E697F60809E697F6080982
:10157300E697F60809E697F622181818E4C396F6D4
:1015830008E496F608E496F608E496F622E026F6D2
:1015930008A3E036F608A3E036F608A3E036F62201
:1015A300E627F60809E637F60809E637F60809E6F6
:1015B30037F622E493F608740193F608740293F65F
:1015C30008740393F622E657F60809E657F6080966
:1015D300E657F60809E657F622E056F008A3E05668
:1015E300F008A3E056F008A3E056F022E647F60819
:1015F30009E647F60809E647F60809E647F62270C2
:101603000422600D18C6C333C608C633C6D5E0F43A
:101613001822E667F60809E667F60809E667F6089A
:1016230009E667F622E026F008A3E036F008A3E017
:1016330036F008A3E036F022E056F608A3E056F6AB
:1016430008A3E056F608A3E056F622E4C397F70989
:10165300E497F709E497F709E497F722600D08C6C2
:10166300A2E713C618C613C6D5E0F322C6F4C6080C
:10167300C6F4C608C6F4C608C6F4C622C3E0960874
:10168300A3E09608A3E09608A3E09622C3E7960892
:1016930009E7960809E7960809E7962275D00075C9
:1016A300813F75183175190300020F2AE6084608B1
:1016B300C3134608336002E633F422E7094709C33C
:1016C300134709336002E733F422600C08C6C313DF
:1016D300C618C613C6D5E0F422E6F008A3E6F00860
:1016E300A3E6F008A3E6F022E0F608A3E0F608A3D9
:1016F300E0F608A3E0F622CAC0E0E6F0A308DAFAAF
:10170300D0E0FA22E0FCA3E0FDA3E0FEA3E0FF2289
:10171300EAF0A3EBF0A3ECF0A3EDF022E0FAA3E0F0
:10172300FBA3E0FCA3E0FD22E8F0A3E9F0A3EAF0C9
:10173300A3EBF022ECF0A3EDF0A3EEF0A3EFF02285
:10174300E0F8A3E0F9A3E0FAA3E0FB22E5C754F82D
:101753004401F5C77901222518F582E43519F5838B
:1017630022E72719471947194722E626184618463C
:10177300184622C2AF75D69F020000221213B00F83
:10178300D4041213B0C5D4041213B0C4D504121375
:10179300B0F7D6041213B0FEAC061213B071AD0647
:1017A3001213B0F7AD061213B02DFF031213B03EA0
:1017B300FF031213B0DCFF031213B0E7FF0312138E
:1017C300B0FCFF011213B079C1061213B0EDBD06D0
:1017D3001213B0FDBD061213B012BE061213B07879
:1017E300BE061213B02AB8061213B0ADB806121310
:1017F300B013B9061213B055A7061213B090A7067B
:101803001213B0EBA7061213B043A8061213B0C904
:10181300A8061213B005A9061213B066C106121367
:10182300B076C1061213B0E7C0061213B093A00638
:101833001213B0DDA0061213B073A1061213B0F990
:10184300A1061213B02AA2061213B042A206121363
:10185300B0B6A2061213B0CCA2061213B0DFA206D2
:101863001213B0E9A2061213B00AC2041213B0BBDA
:10187300C6041213B0D2C7041213B0EEC704121376
:10188300B071C8041213B038CB041213B028ED049E
:101893001213B08BED041213B03BEE041213B00617
:1018A300EF041213B05BF0041213B03BF1041213F4
:1018B300B038F2041213B010F4041213B037F40466
:1018C3001213B0C3F4041213B01DF6041213B09331
:1018D300F6041213B0D1F6041213B0E3F604121394
:1018E300B04EF7041213B01CF9041213B058FA04E3
:1018F3001213B01DFC041213B0A1D1051213B0CD05
:10190300D1051213B03ED4051213B07ED4051213C1
:10191300B0BED4051213B0D2D4051213B0EBD40564
:101923001213B0DCD5051213B081D6051213B0958E
:10193300D6051213B0B5B1061213B0D9B1061213FE
:10194300B0F2B1061213B024B2061213B054B206A9
:101953001213B081B2061213B0E3B2061213B0F23F
:10196300B2061213B0FCB2061213B009B306121377
:10197300B0FD9D061213B01D9E061213B05C9E06A9
:101983001213B0779E061213B0969E061213B0FC84
:101993009E061213B0059F061213B0629F06121320
:1019A300B0869F061213B047A0061213B054A006C8
:1019B3001213B065A0061213B009BF061213B021AB
:1019C300BF061213B04DBF061213B070EA0512130F
:1019D300B0C6EB051213B0D4EB051213B0E7EB0559
:1019E3001213B0FCEB051213B011EC051213B02463
:1019F300EC051213B098EC051213B0FDEC051213AD
:101A0300B09FED051213B063EE051213B073EE052C
:101A13001213B082EE051213B054BD061213B07840
:101A2300BD061213B0A0BD061213B0C8BD06121333
:101A3300B027BB061213B032A5061213B059A50680
:101A43001213B077A5061213B0EAA5061213B00C51
:101A530095061213B02595061213B031950612138D
:101A6300B04595061213B06395061213B06D950633
:101A73001213B07795061213B08A95061213B01499
:101A830096061213B08996061213B0BD960612136A
:101A9300B00B97061213B05897061213B07397063C
:101AA3001213B07D97061213B0A397061213B00852
:101AB30098061213B0F5BB061213B017BC06121327
:101AC300B0E7FF051213B0A293051213B0CC930530
:101AD3001213B0E993051213B0FC93051213B0125D
:101AE30094051213B07094051213B0A89405121341
:101AF300B0A098051213B0E599051213B0189A0512
:101B03001213B07B9A051213B0FE9B051213B02675
:101B13009C051213B03B9C051213B04B9C0512138A
:101B2300B08F9C051213B0EA9C051213B0FA9C0502
:101B33001213B0CBFE041213B0E5FE041213B00D62
:101B4300FF041213B026FF041213B04AFF0412134A
:101B5300B068FF041213B07FFF041213B0ADFF048B
:101B63001213B0C8FF041213B0A1FF051213B0176C
:101B730088061213B02788061213B02E8906121393
:101B8300B06289061213B08489061213B0A78906BE
:101B93001213B0C589061213B0FF89061213B0647D
:101BA3008A061213B0A68A061213B0E58A06121328
:101BB300B0168B061213B04D8B061213B0EDF6035D
:101BC3001213B0E9F7031213B007F8031213B02E80
:101BD300F8031213B0F3F9031213B012FA0312133A
:101BE300B0C7FA031213B08EFB031213B09DFC03AC
:101BF3001213B0CFFD031213B00080061213B055B9
:101C030080061213B0CF80061213B0E280061213BF
:101C1300B00981061213B09C81061213B0768206B6
:101C23001213B02A9D051213B0559D051213B0145B
:101C33009E051213B0529E051213B0D89E051213BF
:101C4300B072A2051213B085A4051213B00080036D
:101C53001213B03A80031213B03A82031213B0691D
:101C630084031213B05787031213B0C987031213E7
:101C7300B06388031213B07988031213B030890359
:101C83001213B06C89031213B08389031213B0AF1C
:101C930089031213B0B289031213B00B8A03121310
:101CA300B05E8A031213B0168B031213B0FF8B03BB
:101CB3001213B0B58E031213B0CE90031213B001FA
:101CC30091031213B06191031213B0B39103121372
:101CD300B03692031213B0CA92031213B0D6940310
:101CE3001213B07596031213B0AF97031213B04AD1
:101CF30099031213B09699031213B02CBA06121358
:101D0300B031BA061213B04BBA061213B08DBA062D
:101D13001213B0B6BA061213B0D0BA061213B0E952
:101D2300BA061213B00DBB061213B07D7B0012135B
:101D3300B0D17B001213B0A17C001213B0D37C008E
:101D43001213B0007D001213B0517D001213B07B4B
:101D53007D001213B09F7D001213B0DF7D001213BC
:101D6300B0697E001213B09A7E001213B0C17E00D8
:101D73001213B0077F001213B0257F001213B0496E
:101D83007F001213B0697F001213B09F7F001213FC
:101D9300B06FF9011213B0A9F9011213B0E4FA01FB
:101DA3001213B0A9D6051213B05DD7051213B0EC08
:101DB300FE021213B05DFF021213B0BFFF02121333
:101DC300B06AC6051213B07BC7051213B08CC805E1
:101DD3001213B0CDC9051213B023CA051213B06193
:101DE300CA051213B06FCA051213B000CC05121343
:101DF300B00092061213B06292061213B046940614
:101E03001213B09ADB051213B0DBDB051213B0110A
:101E1300DC051213B038DD051213B0D4DE0512133E
:101E2300B074DF051213B086E0051213B0B8E305F2
:101E33001213B038E4051213B04DB0061213B08A72
:101E4300B0061213B0BEB0061213B0D1B00612130F
:101E5300B0179B061213B02A9C061213B0EC9C0613
:101E63001213B0999D061213B0C49D061213B0133A
:101E7300B3061213B025B3061213B038B406121307
:101E8300B03BB4061213B0B9B5061213B0EFB506E2
:101E93001213B009B6061213B04BB6061213B05B99
:101EA300B6061213B0F5B6061213B0A7AD0512139A
:101EB300B0B1AD051213B0EBAD051213B054AE05BE
:101EC3001213B071AE051213B013AF051213B01C89
:101ED300AF051213B061AF051213B08AAF05121329
:101EE300B097AF051213B008B0051213B093B00545
:101EF3001213B0E1B0051213B01FB1051213B08471
:101F0300B1051213B0A7B1051213B01EB205121317
:101F1300B075B2051213B0B0B2051213B0E5B20535
:101F23001213B0F7B2051213B009B3051213B02898
:101F3300B3051213B031B3051213B0ECB30512138A
:101F4300B038B4051213B076B4051213B068B406F2
:101F53001213B0A8B5061213B0FCA2061213B032C6
:101F6300A3061213B07AA3061213B0D3A406121356
:101F7300B08EBF061213B035AF031213B059B003BE
:101F83001213B093B0031213B03DB2031213B06730
:101F9300B2031213B0DCB4031213B01CB503121353
:101FA300B0B2B6031213B04FB7031213B0A1B70305
:101FB3001213B044B8031213B07CB8031213B0BEAB
:101FC300B8031213B02DBA031213B07BBB03121361
:101FD300B0ACBD031213B0DABD031213B001BE03DC
:101FE3001213B00ABE031213B05ABE031213B0EC9D
:101FF300BE031213B01BC2031213B09EC20312130B
:10200300B03DC1061213B01384061213B02984061F
:102013001213B0CD84061213B00C85061213B02927
:1020230085061213B05A85061213B0A7850612133C
:10203300B0DA85061213B01586061213B00A8806A5
:102043001213B0EEBA051213B019BD051213B04B3B
:10205300BE051213B063BE051213B065E505121376
:10206300B0A0E6051213B032E8051213B080A6053E
:102073001213B03CA7051213B0ACA8051213B0EAB3
:10208300A9051213B087AA051213B038AB061213B1
:10209300B0AEAB061213B036D6031213B008D70393
:1020A3001213B052D7031213B007D8031213B0663A
:1020B300D8031213B013DA031213B07FDA03121327
:1020C300B0FBDB031213B027DC031213B061DE0392
:1020D3001213B08ADE031213B0EFDE031213B04102
:1020E300DF031213B092E0031213B0E5E0031213FF
:1020F300B061E1031213B00BCC051213B032CC055F
:102103001213B086CE051213B099CE051213B0EE9A
:10211300CE051213B020D0051213B0A1D0051213AF
:10212300B02CB9061213B08BB9061213B0C9B90695
:102133001213B00ABA061213B0929C041213B0FB26
:102143009C041213B0469D041213B0819D04121314
:10215300B0F69F041213B010A4041213B030A604F7
:102163001213B03EA7041213B018A8041213B0A29E
:10217300B4051213B0D5B4051213B00EB60512137D
:10218300B0B4B7051213B0CDB7051213B070B805CC
:102193001213B0D3B8051213B00ABA051213B0A7BD
:1021A300BC061213B0F1BC061213B0FFB60612132D
:1021B300B00EB7061213B04FB7061213B053C106D1
:1021C3001213B040B6041213B0ABB6041213B0A985
:1021D300B7041213B02EB9041213B0B4B904121316
:1021E300B08DBA041213B06DBB041213B08CBC04CF
:1021F3001213B0A5BD041213B04DC0041213B000E6
:1022030080021213B00C80021213B06E80021213FC
:10221300B07880021213B00B81021213B04781020F
:102223001213B00782021213B01482021213B07792
:1022330082021213B00C83021213B04283021213F0
:10224300B0BF83021213B05F85021213B03387024B
:102253001213B01488021213B05E89021213B0C0B5
:102263008B021213B0258D021213B0BA8D02121312
:10227300B0ED8E021213B0E18F021213B01A910265
:102283001213B0B095021213B09D96021213B0351B
:1022930097021213B05A97021213B08697021213C1
:1022A300B01E98021213B03498021213B05698025B
:1022B3001213B0BC98021213B0DB98021213B004CD
:1022C30099021213B0249A021213B0FA9A0212134B
:1022D300B06F9C021213B0909C021213B0119D02B6
:1022E3001213B0B79D021213B0FF9D021213B07008
:1022F3009E021213B0FC9E021213B0609F021213CF
:10230300B0C09F021213B06FA0021213B0DBA00281
:102313001213B00EA1021213B08CA1021213B0E873
:10232300A2021213B058A3021213B0EAA3021213AB
:10233300B04DA5021213B0D4A5021213B039A602F0
:102343001213B067A8021213B0F3A9021213B00359
:10235300AA021213B037AA021213B0A5AA021213CB
:10236300B0E0AA021213B042AB021213B0D7AB0211
:102373001213B0B2AD021213B07DAF021213B087C5
:10238300B0021213B084B4021213B051B502121387
:10239300B069B6021213B013B8021213B0FFFB05F3
:1023A3001213B06FFC051213B07DFC051213B08B32
:1023B300FD051213B0B88E041213B06F8F041213FD
:1023C300B07690041213B0F490041213B036920452
:1023D3001213B05792041213B00F93041213B0BA2E
:1023E30093041213B09A97041213B07D8D05121340
:1023F300B01D9B041213B061C0061213B07AE5023C
:102403001213B0D2E5021213B058E6021213B06AE7
:10241300E7021213B0B7E7021213B09DE8021213DA
:10242300B0B4E8021213B006E9021213B03EE90297
:102433001213B051E9021213B0A7E9021213B0004C
:10244300EA021213B018EA021213B0ADEC0212132F
:10245300B044ED021213B06EED021213B0A6ED02FA
:102463001213B0CCEF021213B012F0021213B05CCD
:10247300F0021213B030F1021213B071F102121311
:10248300B094F1021213B0BBD2041213B0FBF102E9
:102493001213B07CF2021213B000F3021213B05AFB
:1024A300F3021213B0A2F3021213B0ABF40212132D
:1024B300B06BF7021213B097F8021213B0D4F802FC
:1024C3001213B09BF9021213B0DBF9021213B0DE40
:1024D300F9021213B0E8F9021213B0FBF902121356
:1024E300B080FA021213B0B6FA021213B0E2FA0283
:1024F3001213B009FB021213B02DFB021213B0C466
:10250300FB021213B0DDFB021213B010FC02121314
:10251300B030FC021213B06DFC021213B0A4FC0223
:102523001213B0A3FD021213B0D6FE021213B0822F
:10253300BE061213B08EBE061213B0D4BE0612131B
:10254300B0BBEE051213B0F9EE051213B085EF051B
:102553001213B090F0051213B0ACF2051213B0EBE6
:10256300C2031213B00EC3031213B0E5C303121355
:10257300B02EC4031213B086C4031213B0E0C40315
:102583001213B02CC5031213B0A2C5031213B0303B
:10259300C6031213B0A8C6031213B0EBC60312137B
:1025A300B0B9CA031213B000CD031213B03ACD036E
:1025B3001213B0C4CD031213B043CE031213B010E1
:1025C300CF031213B03CD0031213B027D10312135D
:1025D300B0FBD1031213B07FD3031213B015D4038E
:1025E3001213B05EE7031213B0FEE7031213B068D1
:1025F300E8031213B00FE9031213B073E9031213C4
:10260300B0A6EA031213B0CCEB031213B045EC03EC
:102613001213B01DEE031213B0BDEE031213B0601C
:10262300EF031213B0BFEF031213B07AF0031213C8
:10263300B040F2031213B0E3F3031213B08FF403A9
:102643001213B0A4F5031213B0AF9A031213B027F9
:102653009B031213B06F9B031213B0B39B031213AC
:10266300B0FC9B031213B0469C031213B07B9C0374
:102673001213B0F99C031213B0539D031213B0ACA1
:102683009E031213B0359F031213B0919F031213CD
:10269300B0AB9F031213B0D29F031213B02AA0034F
:1026A3001213B094A1031213B0B3A1031213B0DB3E
:1026B300A2031213B058A3031213B0C5A30312133A
:1026C300B027A4031213B0D7A4031213B0A9A6030F
:1026D3001213B094A7031213B08EA8031213B0946D
:1026E300A9031213B0B0AA031213B0BEAA031213A4
:1026F300B097AB031213B037AC031213B07BAC0328
:102703001213B090AC031213B0A1AD031213B04473
:10271300AE031213B09CAE031213B0A58B061213B3
:10272300B04D8D061213B00A8E061213B05F8E06DB
:102733001213B0DC8E061213B0F78E061213B03BE1
:102743008F061213B0618F061213B0878F06121310
:10275300B09F8F061213B00290061213B0179006A3
:102763001213B03991061213B04291061213B04BF3
:1027730091061213B05491061213B05E9106121310
:10278300B0B1F7051213B091FB051213B096FB0518
:102793001213B098FB051213B0C5A9061213B000AB
:1027A300C0061213B0D0FF011213B0C1AE0612134C
:1027B300B01FC1061213B080D5011213B0D7D501D3
:1027C3001213B043D6011213B0CFD6011213B08542
:1027D300D7011213B0CDD7011213B0E6D7011213EC
:1027E300B009D8011213B02BD8011213B069D80164
:1027F3001213B0B8D8011213B0E3D8011213B041C9
:10280300D9011213B0E8D9011213B090DA011213EF
:10281300B00CDB011213B0D9DB011213B025DC01BC
:102823001213B0ADDC011213B0E6DC011213B07762
:10283300DD011213B088DD011213B0FADD011213AA
:10284300B093DE011213B0FDDE011213B0EDDF0110
:102853001213B012E0011213B00FE1011213B01CF6
:10286300E1011213B025E1011213B00EE3011213BB
:10287300B02AE4011213B0BBE4011213B02CE5013A
:102883001213B006E7011213B0D1EA011213B0E537
:10289300EA011213B0F5EA011213B0FFEA011213B1
:1028A300B008EB011213B011EB011213B01BEB01D3
:1028B3001213B04AEB011213B078EB011213B08379
:1028C300EB011213B0A7EB011213B0CBEB01121300
:1028D300B03DEC011213B086EC011213B0A2EC016F
:1028E3001213B013ED011213B05FED011213B0A870
:1028F300ED011213B0E6ED011213B067EE011213EE
:10290300B032F0011213B0D1F0011213B099F101FA
:102913001213B025F4011213B07AF4011213B0A20A
:10292300F4011213B0D5F5011213B01AF601121304
:10293300B06FF6011213B01DF7011213B0C2F70105
:102943001213B0F7F7011213B097F8011213B01373
:10295300F9011213B05784011213B08984011213C1
:10296300B0BD84011213B07186011213B045870103
:102973001213B0A487011213B0BA88011213B00660
:1029830089011213B0A38B011213B0188E01121315
:10299300B0648F011213B0FC8F011213B0089001C1
:1029A3001213B05190011213B08490011213B0109E
:1029B30091011213B02292011213B0639301121307
:1029C300B06294011213B08C94011213B0F7940106
:1029D3001213B05095011213B0C395011213B0F93D
:1029E30097011213B07F99011213B06A9A0112135F
:1029F300B0B89B011213B0F09D011213B0E7A00110
:102A03001213B0F6A0011213B08AA1011213B0354C
:102A1300A2011213B078A2011213B0C1A2011213C2
:102A2300B011A3011213B07EA3011213B0EAA301E4
:102A33001213B006A4011213B035A4011213B0741B
:102A4300A4011213B05CA5011213B00BA60112135B
:102A5300B082A8011213B0B4A9011213B083AA0162
:102A63001213B005AB011213B051AF011213B080B2
:102A7300AF011213B0DBAF011213B00EB00112138A
:102A8300B069B0011213B085B0011213B0E6B00102
:102A93001213B036B1011213B0E5B1011213B0A88D
:102AA300B2011213B070B3011213B0BCB50112130B
:102AB300B048B7011213B09FB8011213B0BBB901EC
:102AC3001213B0BEB9011213B0EDB9011213B0DC89
:102AD300BB011213B0A5BC011213B0E6BC01121363
:102AE300B03CBE011213B0B2BE011213B0E5BE0179
:102AF3001213B049BF011213B06AC1011213B0C956
:102B0300C1011213B09FC2011213B0B3C201121359
:102B1300B0C7C2011213B0F4C2011213B024C3012F
:102B23001213B0C8C4011213B0C5C5011213B013F8
:102B3300C6011213B03AC6011213B015C70112131E
:102B4300B0BBC7011213B041C9011213B088C90148
:102B53001213B0F5C9011213B04ACB011213B0F32B
:102B6300CB011213B027CC011213B03FCC011213C7
:102B7300B0E2CC011213B05ECF011213B006D10143
:102B83001213B02AD1011213B048D1011213B01499
:102B9300D2011213B062D5011213B0333A001213EB
:102BA300B0653A001213B0E53E001213B0343F0093
:102BB3001213B07A3F001213B01D40001213B082FB
:102BC30040001213B0C640001213B02D420012137E
:102BD300B05943001213B05647001213B0D5470043
:102BE3001213B0FB48001213B05E49001213B0AACF
:102BF3004A001213B0424D001213B0CF4D0012130E
:102C0300B0D94D001213B0014E001213B0C94E00DB
:102C13001213B05E4F001213B0874F001213B0B4FB
:102C23004F001213B00952001213B0D65200121300
:102C3300B01553001213B09753001213B04254004F
:102C43001213B07454001213B0BF54001213B0F82F
:102C530054001213B04755001213B0A355001213BA
:102C6300B02556001213B08A56001213B002570053
:102C73001213B0AB58001213B0A359001213B0E4EF
:102C83005A001213B0385E001213B094600012138E
:102C9300B04D61001213B09561001213B07663005A
:102CA3001213B0B163001213B0BA63001213B0C3AE
:102CB30063001213B0CE63001213B0ED630012135E
:102CC300B0A064001213B0FD64001213B0076500D6
:102CD3001213B01165001213B05D65001213B0A595
:102CE30065001213B0A966001213B04267001213F5
:102CF300B00968001213B03369001213B05E6A00A2
:102D03001213B0546B001213B06C6B001213B0A00B
:102D13006B001213B0BE6B001213B0066C001213DB
:102D2300B03F6C001213B0F66C001213B0B76D0015
:102D33001213B02A6E001213B0A66E001213B04223
:102D43006F001213B06870001213B02471001213D5
:102D5300B0C471001213B0B172001213B009730042
:102D63001213B0CF73001213B0F273001213B00733
:102D730075001213B05275001213B0AE7500121322
:102D8300B01676001213B03A76001213B0627600D2
:102D93001213B0A776001213B0CB76001213B04F04
:102DA30077001213B03878001213B07D7800121335
:102DB300B0A678001213B04479001213B0AF7900B3
:102DC3001213B0DB79001213B0BC7A001213B0A84F
:102DD300E2041213B0E0E2041213B001E30412138D
:102DE300B043E3041213B0A7E3041213B0B1E30436
:102DF3001213B0C1E3041213B0F8E3041213B0A129
:102E0300E7041213B069E9041213B04DEB04121373
:102E1300B0EFEB041213B079EC041213B056BB02FB
:102E23001213B0BABB021213B018BC021213B06370
:102E3300BC021213B07EBC021213B0A5BC02121363
:102E4300B0C2BC021213B0CEBC021213B05FBE02FA
:102E53001213B078BE021213B0F4BE021213B007FD
:102E6300BF021213B017BF021213B0BBBF0212137B
:102E7300B027C1021213B03AC2021213B0DAC2026F
:102E83001213B0E4C2021213B063C3021213B0747C
:102E9300C3021213B0B3C3021213B0E1C30212137D
:102EA300B0AEC4021213B005C5021213B03EC50280
:102EB3001213B094C5021213B0B2C5021213B000BC
:102EC300C6021213B0CBC6021213B019C7021213F3
:102ED300B066C7021213B0E9C7021213B013C802D7
:102EE3001213B049C8021213B058C8021213B0B774
:102EF300C8021213B02FC9021213B070C902121301
:102F0300B0C0C9021213B0EBC9021213B005CA0252
:102F13001213B01FCA021213B0F4CA021213B0FE86
:102F2300CA021213B039CB021213B049CB021213E7
:102F3300B052CB021213B0A3CB021213B0B7CB0221
:102F43001213B0D9CC021213B0EECC021213B0811B
:102F5300CD021213B0F5CD021213B09ACE021213A2
:102F6300B0A5CE021213B005D0021213B021D002C5
:102F73001213B06DD0021213B0DBD0021213B00DD6
:102F8300D1021213B027D1021213B069D102121366
:102F9300B0BCD3021213B054D4021213B0CBD40278
:102FA3001213B028D7021213B040D7021213B04342
:102FB300D7021213B04FD7021213B063D702121302
:102FC300B06BD7021213B0A2D7021213B096D80275
:102FD3001213B020D9021213B0A2D9021213B022D5
:102FE300DA021213B0F9DA021213B01BDB02121366
:102FF300B0B4DB021213B011DC021213B014DC0202
:103003001213B083DC021213B0CFDD021213B0E24D
:10301300DE021213B06DDF021213B080E00212134E
:10302300B045E1021213B076E1021213B09CE10243
:103033001213B0A5E1021213B0D4E1021213B0844B
:10304300E2021213B034E3021213B0A7E302121325
:10305300B04AE4021213B0BDE4021213B0FCE4025E
:103063001213B045E5021213B0608C051213B015AC
:103073008C051213B07F8B051213B0F08905121360
:10308300B0ED8C041213B0728B041213B0708A0467
:103093001213B03188041213B0DB87041213B01E6D
:1030A30086041213B09583041213B00F8304121312
:1030B300B0D9CF041213B005CF041213B0CB8104DF
:1030C3001213B08780041213B005CE041213B02676
:1030D300CD041213B00080041213B0089906121322
:1030E300B0E098061213B07398061213B013980643
:1030F3001213B067B5041213B08DB4041213B0C326
:10310300B3041213B032B2041213B0FBB10412139E
:10311300B0CDB1041213B081B1041213B0EAB004FC
:103123001213B05AB0041213B034B0041213B0E93E
:10313300AF041213B0B3AF041213B036AF041213BB
:10314300B0D1AE041213B080AE041213B0A8AD0414
:103153001213B018AD041213B0CCAC041213B04761
:10316300AC041213B002AC041213B0E6AB04121396
:10317300B0FFC5051213B08EAA041213B060C505C3
:103183001213B09EC1051213B0C3C0051213B0C011
:10319300C0061213B0A5C0061213B0449205121351
:1031A300B0E690051213B07D90051213B060AA0427
:1031B3001213B02DAA041213B0B1A9041213B088CC
:1031C300F5051213B01490051213B079F405121318
:1031D300B0B3F3051213B03AF3051213B05DE20472
:1031E3001213B0F48E051213B004E2041213B0DB11
:1031F300F1021213B0CFE1041213B09AE1041213D7
:10320300B066E1041213B0F9E0041213B0E1E00474
:103213001213B0BCE0041213B095DD041213B068AE
:10322300DB041213B06FD9041213B0FBD8041213CA
:10323300B0ACD8041213B066D8041213B008D80483
:103243001213B02386051213B0368E051213B09FE6
:1032530085051213B0B484051213B03C8305121311
:10326300B0EC80051213B00080051213B0B69904B8
:1032730000000080FBE47300000000200153840081
:103283000001002001538400000200200156840045
:10329300000300200154840000040042016D8000FB
:1032A30000050042017E80000006004201A080006C
:1032B3000007002001AB80000000404201A0800015
:1032C30000100042018F800000110020010307005D
:1032D30000120010033C1506000000101100000846
:1032E300000000203300000C005500393300000CAF
:1032F300001C00423300001200550020010000149E
:10330300000E0042220000050B0000210100000511
:103313000B010021010000050B0001230100000542
:103323000B010123010000050B020123010000052D
:103333000B030123010000050B040121010000051B
:103343000B050121010000050B0601210100000509
:103353000B070121010000050B08012101000005F5
:103363000B090121010000050B0A012101000005E1
:103373000B0B0121010000050B0C012101000005CD
:103383000B0D0121010000050B0E012101000005B9
:103393000B0F0121010000050B10012101000005A5
:1033A3000B110121010000050B1201210100000591
:1033B3000B130121010000050B140121010000057D
:1033C3000B150121010000050B1601210100000569
:1033D3000B170121010000050B1801210100000555
:1033E3000B190121010000050B1A01210100000541
:1033F3000B1B0121010000050B1C0120010000052E
:103403000B1D01280100008F0001003F13870001FD
:1034130000AC153500040071152500020075152652
:1034230000020077152700020079152800010083A8
:103433001529000100841584000400851586000108
:103443000089152A0001008A152B0001008B152C19
:103453000001008F152D00080022132E000100909B
:10346300152F000100911530000100921531000164
:10347300009315320001002A13330001002B13348B
:103483000001009415360001002C1338000100954B
:1034930015390001008E1583000200AA156300018F
:1034A300003C13640001008C15650001008D156D4F
:1034B3000001003D13710008001A1366000100A902
:1034C30015430001009A15440002009B15450001B5
:1034D300009D15460002009E15470008003413485E
:1034E300000100A0154B000100A11504000100AD6F
:1034F30015A1000100B01537000100AF15880001C8
:1035030000AE153C0001002D133D00010096154946
:10351300000200A215670001003E134D000200A443
:10352300154E000100A6154F000200A7153E00012D
:1035330000331351000100971552000100981553F1
:103543000001009915540001002E13000000000033
:1035530000000136360101000102010001030100F0
:1035630001040106060502000007010034080100FA
:103573000F090401010D0100FF0E080000170200EE
:1035830000190100FF1A0100011B0100FE1C0100CC
:10359300081D0200001F010001200100012102009B
:1035A300002301000F24020000260100012701006F
:1035B30008280200FF2A0100072B0102402C01000A
:1035C300002D0100012E0100012F0100FF30010B2E
:1035D3001D310800003A0100083B01000F3C0100C7
:1035E300013D0100FF3E04000042040000460400C8
:1035F300004A0400004E0400005204000056040078
:10360300005A040000000021010001002102000013
:1036130001236600010123670002012368000301FF
:103623002369000401216A000501216B00060121C1
:103633002C010701212D010801212E010901212F50
:10364300010A012130010B012131010C0121C800C4
:103653000D0121C9000E0121CA000F0121CB001069
:103663000121CC00110121CD00120121CE00130153
:103673002132011401213301150121CF001601214B
:103683003401170121D000180121D100190121D2E1
:10369300001A0121D3000103710301030103010394
:1036A30001030103220302030103100300030003C8
:1036B3000003000300030003000342030003240389
:1036C3000603000300030403120325032303250356
:1036D3002303040304030003000300034403000360
:1036E3000003230300036503210035038103000363
:1036F3000503000300030003000325032303010163
:1037030071010101010111010101310101010101F6
:103713008001100161013B00140063017301720118
:10372300620143010001130106013D01350004015B
:103733001201000100010001000104010401330131
:1037430033013C01440132013600000100016501EF
:10375300000135008101000105018201830100019F
:1037630003027102300160021102700201020202BF
:1037730002028002100261023A00410063027302F6
:1037830072026202430200021302380000020002C6
:1037930004021202000200020002000204020402F8
:1037A300370037003C0244020002390000020002E5
:1037B30065020002350281020002050282028302D1
:1037C300000203007100300160001100700031023B
:1037D3002003500480001000610000001400630007
:1037E3007300720062004300000013000600000033
:1037F30000000400120000000000000000000400AC
:103803000400370037003C024400000000000000C1
:103813000000650000003500810000000500000085
:103823008300000036000100060000000F000000C6
:103833000000000000000000000003FFFF00000480
:1038430003FFFF0000FFFF0FF4010005C404032082
:10385300000100000B000000000000000003010F46
:103863000000000000000000000000000000000055
:103873000000000000000000000000000000000045
:10388300000013236D2319231D221F2373231F23DA
:103893007F2325231D221F2373232B231D22312343
:1038A3001D2237231D223D231D2243231D2249238D
:1038B3001D224F23852355231D22000000000000F5
:1038C3000000000000005B23972361231D225B237C
:1038D300972361231D224F23852367231D220A007B
:1038E30000000200000004000000080000001000B7
:1038F30000002000000040000000800000000001E4
:103903000000000200000004000000080000001096
:10391300000000200000004000000100FB25020021
:103923007D25030083250400892505008F250600D6
:103933009B253000B3253300BF253400C525110076
:10394300CB251400D1251500AD25FFFF000007ECA2
:10395300FDFDFDECDCDCCCBCACAC9C9C8C7C7C6CC1
:103963006C5C5C5C4C4C3C3C2C2C1C1C0A0D2C02EF
:10397300DD2B05EF2B07E32B0CC52B0DD12BFF0004
:103983000000160F00000B150B020002220F33007C
:10399300000E5A6967426565416C6C69616E6365C7
:1039A300303901030507090B0D0F00020406080A4D
:1039B3000C0D140AE5D5C5B5A5A5958585756500D6
:1039C300393D3F373C3C362C442D303016181920F6
:1039D300231A1C1E3000011916181616182303008B
:1039E30000034A49434E181A2505023030171819A7
:1039F30021301B1D1F300C0E020B040B0A0708009D
:103A03000F02040201010101090200BE040AE803D6
:103A13000000FA065139E803B5390E001003030A12
:103A23000C0408280C050908321E00FF04FF041EBD
:103A330074F7120DB0E990140AF09013BFE4F0127A
:103A43001E6F901413E4F0A3F090140BF0A3F01284
:103A53002D6F121E7590134FE4F0A3F0122763022B
:103A6300559E74EC120DB074D71214C3EAFEEBFF2B
:103A73005480606890140AE0F9121EE78A088B09E3
:103A8300EA4509604F7C0080010CEC75F003A4F853
:103A9300A9F0746F28F582743939F583E493F460DF
:103AA3002CE493F88508828B83E06870DCAA08EC29
:103AB30075F003A4F8747028F582743939F583E43A
:103AC30093C0E0740193F583D082123278AA08ABD5
:103AD30009121ED5EEFAEF6480023EC7EF54206050
:103AE3001E122C678A088B09EA4509600A122BD13A
:103AF300AA08AB09121ED5EEFAEF6420023EC7EE08
:103B0300A2E0501F9013C4E0640F70117900122BD0
:103B1300A7E9600990157112171F122BBFEE6401FC
:103B2300023E9CEF5440604F901561E0640670289C
:103B3300740BF0901589E0F9750801750900750A91
:103B430000750B009013B2E0780812134AAA08AB71
:103B530009AC0AAD0B12285390132F1211C07A002F
:103B63007B4090140AE0F912202574041213E0EE4E
:103B7300FAEF6440023EC7EE54207003023EA07A7F
:103B8300207B0090140AE0F9122031EA4B4C4D706F
:103B93001A90140F121743E8494A4B700E750C0123
:103BA300750D00750E00750F008061750C00750DA5
:103BB30000750E00750F0012203D8A088B098C0AD0
:103BC3008D0B90140F121743E8494A4B602A901447
:103BD3000F7808121369400E750CFF750DFF750EF3
:103BE300FF750FFF801285080C85090D8C0E8D0F54
:103BF30090140F780C12147D7401780C121464E580
:103C03000C450D450E450F7003023DCD7C00790434
:103C13007A007B00122C438A088B09023CF4851836
:103C23008285198374FFF0740112175A74FFF074BC
:103C33000212175A74FF124A8DFAA3E0FB7403129F
:103C430014A5126B391263AA122C85E9640160036F
:103C5300023CD6E5081259961251DD4480F8A3E0E0
:103C6300F9742412175AE8F0A3E9126315A3A3A366
:103C7300E0C0E0742612175AD0E012692BA3E05477
:103C8300086016742412175AA3E04401123EDFC0E1
:103C9300E0742812175AD0E0F01277243509126C19
:103CA3003760181277241262CBA3E0C8127A3BE084
:103CB300F8741212175AE8F0A3E4F090838B1211F0
:103CC300C074041214A5740712149D12288374047B
:103CD3001213E0850882850983A3A3A3A3A3A3A347
:103CE300A3A37406123EDFF9122C25850A08850B5F
:103CF30009E50845097003023DCD7C007904AA0853
:103D0300AB09122C438A0A8B0B850882850983A38E
:103D1300A3A3A3E0F510A3E0F511E4F512F51378DE
:103D23000C791012168F4029E5082404F8E43509AC
:103D3300F9850C10850D1188828983C3E09510F0F5
:103D4300A3E09511124228F8A3E0F9E849709C809A
:103D53000E850882850983A3A3A3A3E4F0A3F085BA
:103D63000882850983A3A3A3A3A3A3A3A3A3A3E077
:103D73006401850882850983A3A3A3A3A3A3702B4E
:103D8300E054046003023C21850882850983A3A3D0
:103D9300A3A3A3A3A3A3A37406F07AB7850882857C
:103DA3000983124014122BB9023CEEA3A3A3A3E090
:103DB3006003023C21850882850983A3A3A3A3A3EF
:103DC300A3A3A3A37401F0023CEE122C137C00798D
:103DD300017A007B00122C438B09EA4509600C7AB7
:103DE300207B0090140AE0F9121F11850C0A850D3F
:103DF3000B7C0079047A007B00122C43EA4B70158C
:103E030080538A828B83A3A3A3A31274CFE508985C
:103E1300E5099940078A828B831256097C0079044D
:103E2300122C438B0DA90DEA4970D7C3E50A9508F7
:103E3300E50B95095013C3E508950AF508E50995BF
:103E43000BF509E508450970167A207B0090140AE2
:103E5300E0F9121F1190140F123ED8A3F08037E53A
:103E63000825E0F508E50933F509E4F50AF50B78CB
:103E7300081213FB7A207B0090140AE0F912201F2A
:103E830074041213E012203DEAF8EBF9ECFAEDFBAF
:103E930090140F12172BEE6420FAEF8027EF5402D1
:103EA300600A122D69EEFAEF64028018EF54046081
:103EB300161267EC79019013BD1263AC122895EECC
:103EC300FAEF6404FB80047A007B0074291213E088
:103ED3007F0C0210B8E4F0A3F0A3F022126319A33D
:103EE300E022C082C08374EA1214C37C167D007979
:103EF30000AA18AB19121EBD740812175A7402F0E7
:103F03009013B3126B4A123F28740912175A126A9C
:103F130058741312175AE412673C12275774161277
:103F230013E002638CE8F0A3E9F09013BD125E295D
:103F33002274F7120DB074DA1214C3EAFEEBFFEE2B
:103F43004F602DAC18AD19122C85740612175AE068
:103F5300601E741712175AE0FD740112175AE0FC21
:103F6300EEFAEFFB7900122B7DE9600479A480025D
:103F73007900742602559B74F7120DB0EAFEEBFF2D
:103F83008E828F83A3A3A3A3A3A3E054406017123D
:103F930074931263AC122D15E960067AFF7BFF80E0
:103FA3001512749380039013B31263AC74FE6A709A
:103FB3000374FF6B6047127493127062122D15E93C
:103FC3008E828F83600E125AD212599638F583E48B
:103FD300F0A38003127A66F07CAD7D2B8E828F83F3
:103FE3001263AC12275DE9F5087015EE4F6009798D
:103FF30001EEFAEFFB122C1FA90802559E7508CD9E
:10400300AA08124010122BB9E960E080EB8E828F70
:1040130083125AD6127A1EE0F92274F6120DB0E911
:10402300FEEAFF7A0F7B00121ECFEA4B601F8A82E3
:104033008B83740CF0EEA3A3F0EF8A828B8312536D
:104043007B90140AE0F9121EDB7900802FEEF9123F
:104053002C498A088B09A808A909E849601C8882A9
:104063008983A3A3A3A3A3A3A3A3A3740612772C57
:10407300E0F9122925EEF9122C2579100266FA745B
:10408300F4120DB08A088B098C0A8D0B9013C4E0CF
:10409300640F702CEA4509450A450B60239013BF52
:1040A300E064086005E06404701678081213FB7A74
:1040B300017B0090140AE0F912201F74041213E02C
:1040C30002435474F4120DB074FC1214C3EAFEEBF1
:1040D300FF8E828F83A3A3E0F9122C498A088B09F0
:1040E300EA450970030242038E828F83A3A882A943
:1040F30083E0C0E0EA240B1262C8D0E012422864D5
:10410300F160288E828F83A3E064CD601E8E828F40
:1041130083A3E0641A60148E828F83A3E064E96052
:104123000A8E828F83A3E064E170367900122C1F1C
:10413300E9602EE5082404F50AE43509F50B850842
:1041430082850983124214A3E0F9850A82850B83D1
:104153001263AC121E81850A82850B831270628002
:104163006E8E828F83A3E0C0E0740212175AD0E0F0
:10417300124D36127AA8124D28C0E0740312175A52
:10418300D0E0F0E508240C1251DAAA18AB19700537
:1041930012287D8003122CFD740212175AE064E981
:1041A300702D850882850983124AA2750A01780A4F
:1041B300121407750AE9780A1214071251D0124D26
:1041C300181255DD1263AC122CBB74021213E08576
:1041D3000882850983A3A3A3A3A3A3A3A3A3E06442
:1041E300027012850882850983A3A3A3A3A3A3A3B3
:1041F300A3A37406F08E828F83A3A3E0F9122C2568
:10420300122C13901577124744122BBF74040243E8
:1042130051A3A3A3A3A3A312421E22E0FCA3E0FD88
:104223008E828F832212773CE02274F4120DB0EA5F
:10423300FEEBFF7508008E828F83A3A3A3A3A3E0E5
:1042430060487508088E828F83A3A3A3A3A3A3A3A7
:10425300A3A31263AC79FF122A0F8B0BEA450B6001
:104263001075082C8E828F83A3A3A3A3A3E0D2E0AF
:10427300F08E828F83A3A3A3A3A3E05403640160FE
:104283000302434D43081102434DEE241812589282
:104293006038EE241A1258926003F470131273B943
:1042A3007003A3E069600302434D75082202434D86
:1042B300EE241B1272A1EE241A125892FAEE24195C
:1042C300125892F912291302434D8E828F83A3A3AE
:1042D300A3A3A3A3A3A3A31263AC122D15E96402A2
:1042E30070037508011273B97003A3E0697006E5E2
:1042F30008D2E1F508E50860158E828F83A3A3E059
:104303007006E508D2E58004E508D2E6F5088E825A
:104313008F83A3A3A3A3A3A3A3A3A31263AC122D6D
:1043230015E964017006E508D2E0F5088E828F83F3
:10433300A3A3E06015EE241D1256F0F9122D03E934
:1043430064016006E508C2E0F508A90880031213BA
:10435300E07F040210B874F0120DB074D71214C3C6
:10436300EAFEEBFF8E828F83A3A3A3A3E0601190E9
:104373001575126C396009901575124744122BBFDD
:1043830074031214A58E828F83A3A3A3A3124D09D2
:104393001263AC122C85E970030244F278017405B0
:1043A30012175AE0C3940240027800740712175A96
:1043B300E0C3940240027800740C12175AE064F8C8
:1043C3007003A3E0F470030244F2740C12175AE072
:1043D30064F97003A3E0F470030244F2740C12173F
:1043E3005AE064FA7003A3E0F470030244F2740C1D
:1043F30012175AE064FB7003A3E0F470030244F263
:10440300740612175AE0F99013ADE0696003024491
:10441300F2E8A2E040030244F2742712175AE06064
:10442300030244F2EE2413125E1F742212175A126F
:104433006913241C125E1F741012175A126A5874DF
:104443000912175AE0601F741A12175AE0FD740418
:1044530012175AE0FC8E828F83A3A31263AC7901F7
:10446300122B7DE9703D740312149D122BCBE9F5D9
:1044730008740912175AE0702E9013A7E06028748D
:1044830022550864226020744255086442701474F3
:104493002012175A124750600E742012175A1247EF
:1044A3002D60047ACF804AE9A2E6504D742012179A
:1044B3005A1256F624FD600F14600C24FD60082484
:1044C300FD600424FE7028742012175A12472670C8
:1044D3000E742012175A1266A4A3E0640D601A74B6
:1044E3000312149D122D2DE96401700D0247197AF0
:1044F300D37B0012254D024719EE242DF582E43FAC
:10450300F583124A807003A3E0697022750900786D
:10451300091214077809121407EE242F125892F97E
:104523001247341263A6122CBB74021213E07409EF
:1045330012175AE070030245D51247341263A612CC
:104543002D938A0A8B0BEA450B700302467274049F
:1045530012175AE0F88E828F83A3A3E028F8A3E012
:104563003400F9E8240D12471EF88A828B83A3A333
:10457300A3E068600EE88A828B83A3A3A31253741B
:10458300123ED97904E912175A124D00E02AF8A312
:10459300E034008882F583A3AA82AB83121EC38A08
:1045A3000C8B0D8C0E8D0F850A82850B83A3A3A321
:1045B300A3780C12136940030247199083EB780C1C
:1045C300121590850A82850B83A3A3A3A3780C12EB
:1045D30016DC9013BFE064046008E0640960030222
:1045E3004719E508A2E540030246ACEE242F125812
:1045F30092851882851983F0EE2430125892C0E018
:10460300740112175AD0E0F0EE2431125892C0E030
:10461300740212175AD0E0F0741412175AE06401AE
:10462300702C740E12175A1251EA241312589268FE
:104633007003A3E0697017740C12175A1263AC125B
:104643002D15E964027007741412175AE4F0EE246E
:1046530025F582E43FF5831211C074041214A57486
:104663000712149D12288374041213E00247199051
:104673001404E0640160030245D5742012175A1232
:1046830047507009E508A2E650030245D57410129D
:10469300175AE0F47003A3E0F4607BEEFCEFFD74C3
:1046A3000312149D122BD7806DA2E6506974201259
:1046B300175A126B207016741A12175AE06402709C
:1046C30055740312149D7900122CF780497420123B
:1046D300175A12472D7014741A12175AE064047093
:1046E30035740312149D122CEB802B742012175A6D
:1046F300124726700C7900740312149D122D398011
:1047030015742012175A1266A4E0640C700874031F
:1047130012149D122D517429025201F582E439F5C8
:1047230083E02212749DE064032212749DE0640707
:1047330022EE242BF582E43FF5831272ABEE2413B1
:1047430022E0F508A3E0AA08FBE4FCFD221255F9D8
:1047530064062274F4120DB0EAFEEBFF8C088D0997
:1047630090132AE0600F1273B97003A3E069700518
:10477300122901805A79008E828F83A3A3A3A3A356
:10478300A3A3A3A31263AC1229318A828B83E5828C
:1047930045836033A3A3A3A3A3A3E054186028E530
:1047A30008241C1262C81211C4E50824131262C83B
:1047B3001211C4EE2418125892F91263931229436A
:1047C30074041213E080087900126393122907021C
:1047D300435474F7120DB074F71214C3EAFEEBFFDF
:1047E3009013BFE06403600DE064016008E06409B6
:1047F30060030248ED8E828F83A3E060030248B317
:104803007C007D007A027B00121E7B1274D98A829F
:104813008B83125E259013B0126A58795312274581
:104823009013BFE0640960099013BD1263AC122DAD
:104833008D851882851983740112673C794212278A
:10484300459013BF7404F0740112149D794A122722
:104853003F74011214A57AB57B13122133901561AD
:10486300E0640B70057406F0800B79009013BD12A1
:1048730063AC1228959013B01272A77A037B0012CF
:104883001E7B9013B31272A77A047B00121E7B90D7
:1048930013AAE0A2E35004D2F08002C2F0126732FE
:1048A300795212274590157112171F122BBF8037AB
:1048B300FC7D007A037B10121E7B901561E0640B74
:1048C3007003740AF0901597E4F0FA7B4090140A91
:1048D300E0F912202B8E828F831248F41263AC12FC
:1048E30028959013BFE4F0122C01740902559BE044
:1048F300F8A3E0F99013BD22C082C08390134F1236
:104903006C39701F9013BFE014600924FC600A1413
:10491300600C800F9013598034901355802F90139F
:1049230057802AE8496008901350124D12700C8A80
:10493300828B83A3E0F9122889801D90134F126B99
:104943002664027005122D5D800E90142E126C39B0
:1049530060061266A512327802638C74F4120DB0ED
:1049630074FE1214C38A088B097A007B0490140A1C
:10497300E0F912202BAA18AB19795012273F7A0FAE
:104983007B00121ECF8A0A8B0BAE0AAF0BEE4F6071
:1049930020850882850983A3E070169013BDE0F497
:1049A3007003A3E0F4603B124A7A7003A3E06960EA
:1049B30031850882850983A374EA124D2E12274597
:1049C3007AB37B13794B1227457ABD7B1379501247
:1049D30027457AB27B1379E1122745EE4F70030224
:1049E3004A6E8E828F837402F09013BDE0F47003DD
:1049F300A3E0F4600A124A7A7003A3E069704F855A
:104A030018828519831248F2E8F0A3E9124D2E1299
:104A1300273F9013B01251EF126A587AB37B137980
:104A23004B12273F7AB27B1379E112273F750A00B5
:104A3300780A121407780A1214079015571248F5CA
:104A4300124F4F1263AC122CBB74021213E0850891
:104A530082850983124A73A3F09013BF7403F0EEA7
:104A6300FAEFFB90140AE0F9121EDB7402024351C1
:104A7300A3E08E828F8322851882851983125E2993
:104A83009013BDE06822E8F0A3E9124A9122F08571
:104A93000882850983E022F582E43BF583E0221254
:104AA3005E29E8FAE9FB2274F5120DB074D11214F1
:104AB300C38A088B098A828B831256E8741C1214EA
:104AC300A58A828B83A3A3A3A3A3A3A3A3124D1895
:104AD3001263AC122C07741C12175AE0702C850851
:104AE30082850983A3A3A3A3A3A3A3A3E0C3940BD6
:104AF30040188E828F83A3A3A3A3A3A3A3A3E064DD
:104B0300027007126A44E0F46003024CFB9013BF87
:104B1300E064027003024BE2E064067003024BE2BE
:104B230090134F126C396008124D127003024C122D
:104B33009013BFE064086008E064046003024CFB68
:104B4300741E12175A124D00A3A3A3A31256E89082
:104B5300134FE0F8496007126B2C640260779013DF
:104B6300BDE06E7003A3E06F6003024CFB74016A47
:104B73006016742312175AAC82AD837AD17B131259
:104B8300212DE96003024CFB7A007B0290140AE0BA
:104B9300F9122031EA4B4C4D6003024CFB9013C0D9
:104BA30012174385188285198312172B9013C6E0B9
:104BB300C0E0740412175AD0E0F0740512175A7447
:104BC30001F0740612175A740212673C122847E95F
:104BD3006003024CF8EEFAEFFB122D57024CFB90E8
:104BE300134F126C3970287508007808121407786F
:104BF30008121407EE2410F582E43FF583124D09E1
:104C0300A31242141263AC122CBB74021213E08E73
:104C1300828F83125E25740712175AE8F0A3E912F4
:104C230051F5125E25740912175A126913125DBEEB
:104C3300C0E0740B12175AD0E0124D28F508A3E018
:104C4300F509740F78081216CD740C12175AE5087B
:104C5300F0742012175AE0C0E0740D12175AD0E016
:104C6300F0742212175AE0C0E0740E12175AD0E003
:104C7300F0741D12175AE0C0E0741012175AD0E0F6
:104C8300F0741E12175AE0C0E0740F12175AD0E0E6
:104C9300F0EE2410125892C0E0741112175AD0E0AB
:104CA300F0742112175AE0C0E0741212175AD0E0C0
:104CB300F0742E12175AE0C0E0741312175AD0E0A2
:104CC300F0742312175AA982AA8389088A09750ADC
:104CD3000078081213FF7C087D00741712175AAA74
:104CE30082AB83121EB174031213E0740712149D76
:104CF30012288F800312284D742F0256FAE0FA8E81
:104D0300828F83A3A322E0F98E828F83A3A322122F
:104D13006B2D640122E0F98A828B83A3A3A3A3A34F
:104D2300A3A3A3A322F0126A48E022F07AB07B1374
:104D3300795322124D3A22F0851882851983227401
:104D4300F2120DB074F81214C3EAFEEBFF8C0A8D55
:104D53000B890D90826DAC18AD1974081213097587
:104D63000C00EEFCEFFDAA18AB1912212DE970031C
:104D7300750C0190140B801AEEFCEFFDE508240B73
:104D8300FAE43509FB12212DE97023E508241412F6
:104D930062C8124DC76024E50CA2E040DB8508829F
:104DA300850983E0650A7004A3E0650B70DD85085F
:104DB30082850983A3A3E0650D70D0AA08AB0974AB
:104DC3000802538F125611E508450922C082C08399
:104DD30090140B02638974F7120DB090140B1277C1
:104DE3004A800C126E971256EB121F6BEEFAEFFB12
:104DF300EA4B70EF90140BE4F0A3F002559E74F1AC
:104E0300120DB0EAFEEBFF890A8C088D098E828FA2
:104E130083E08C828D83125DEDAE82AF83E01261FD
:104E230032126339C4126132124EC0E01261391278
:104E33006337A2E2E4338C828D8312633613131338
:104E4300541F126132126335A2E7E4338C828D83DF
:104E5300A3A3A3A3124EC08E0C8F0D750E00780C66
:104E63001213FF7C087D00E5082407FAE43509FBEB
:104E7300121EB174031213E0EE2408FE50010F8ECC
:104E83000C8F0D780C1213FF7C037D00E508240FB3
:104E9300FAE43509FB121EB174031213E0E50AC3E9
:104EA300940F40118E828F83A3A3A3E0C0E012620C
:104EB300C4D0E080041262C4E4F00274D4A3A31249
:104EC3005DF10EAF832274F5120DB08A088B098A47
:104ED300828B83A3AE82AF83E0F91228AD8E828FDB
:104EE30083E064EB6024850882850983A3E064E1A1
:104EF3006018850882850983A3E064F1600C850846
:104F030082850983A3E0641A700985088285098371
:104F1300A3E4F090157112171F122BBF750A0178C5
:104F23000A121407850882850983A3E0F508780827
:104F330012140779009013BD124F4F1263AC122C59
:104F4300BB74021213E0122C130256FD1272AB90C3
:104F530013B322EAF0A3EBF002638C74F6120DB0E4
:104F630090140EE0701B7C0079017A007B00122CF8
:104F730043EA4B600C8A828B83126C396003122BD9
:104F8300B30266FAC082C0837904122C3DE9F8901B
:104F93003A28E493C398401079FF122C3DE9F89026
:104FA3003A27E493C398500479018002790002639D
:104FB3008C74F0120DB08A088B09890B750C008A6A
:104FC300828B83A3A3A3A3A3A3A3A3E0F9122C49D6
:104FD3008A0E8B0FAE0EAF0F750A01EE4F60030200
:104FE30050AE850882850983A3A3A3A3A3A312724A
:104FF300A7850882850983A3A3A3A3A3A3A3A3E0EF
:10500300F98508828509831263AC122C318A0C8BD3
:105013000DAE0CAF0DEE4F70030251C98E828F831C
:10502300A3A3A3A3E4F0A3F0E508240CFAE4350951
:10503300FB8A828B83E0C0E01251D0D0E0F0E50818
:10504300240D1251E3240D126A52122D1BEE240F6C
:1050530012705CE50824111251E32411126A52E51F
:105063000824131251DAC0E01268FCD0E0F0750C8A
:1050730001EE2406125DB2547FF0A3E054FC124209
:105083002854046003025123901583E0F508750941
:1050930000740778081216028E828F83A3A3A3A33A
:1050A300A3A3E04508F0A3E04509F08E828F83A314
:1050B300A3125609740778081216CDE5085407FCA5
:1050C300E50B606C8E828F83A3A3A3A3A3A3A3A3E7
:1050D300A3740212633A1254B4600B9013AB1251CF
:1050E300EFA3A3126A58EC7003025197EE24061241
:1050F3007A27547FF508A3E054FCF509EC24FFF567
:105103000EE434FFF50F7407780E121602E5084516
:105113000EF8E509450FF98A828B83126A58807469
:105123008E828F83A3A3A3A3A3A3E044800250ADE5
:10513300EC7005750A00805C8E828F83A3A3A3A302
:10514300A3A3E05420600C121EC9EA547F79002403
:105153005F80198E828F83A3A3A3A3A3A3E054101C
:10516300601A121EC9EA540F7900240A5001098EED
:10517300828F83A3A3A3A3F0A3E9800D8E828F83E1
:10518300A3A3A3A37401F0A3E41251F5740412546E
:1051930037121F11E50CA2E0502F8E828F83A3A339
:1051A300A3A3126E1DE0F9EEFAEFFB122C37E960B0
:1051B30018126C306009EE240F1263A6121F6BEEF7
:1051C300FAEFFB121F6B750A00A90A8034EE240C58
:1051D300F582E43FF58322F582E43509F583E02285
:1051E300F582E43509F583125E29EE221274FDA3DC
:1051F300A3221251F922126075A3A3A3A3221213AF
:10520300E07F080210B874F4120DB074F71214C3DF
:105213007E00122C49EA4B70030252CF8A828B83A1
:10522300A3A3A3A3A3A3A3A3A3E0640660030252BF
:10523300CF8A828B83A3A3A3A3A3A3A3E0FF8A8222
:105243008B83127A4BE0C0E0740812175AD0E01235
:1052530055F0F8A3E0F9851882851983126A58126C
:105263002C5BEF540860638518828519831272A73B
:105273007A007B00122C2B8B0BEA450B704C127AB5
:105283009A12276F7C007D007A007B0080288E8233
:105293008F831256F6F47003A3E0F4602D9013BDD0
:1052A30012421A1263AC122769E9641A601C7C006B
:1052B3007D00EEFAEFFB122C2B8A0A8B0BAE0AAFA2
:1052C3000BEE4F70C979001227757E01EEF9740950
:1052D300024351C082C083EA4B70059014138006C9
:1052E3008A828B83A3A31254EC60208A828B83A3CC
:1052F300A3A3A3A3A3A3E0540860E5EC4D6010129D
:1053030054F37003A3E06D70D780047A007B00022E
:10531300638C74F2120DB0EAFEEBFF890A8C088DE0
:10532300097A147B00121F65EA4B603A8A828B83E9
:10533300A3A3A3A3A3A3A3A3A3E41255E5A3E50AED
:105343001274A4A3127AA612537412560312537B37
:105353008A828B831274C1EA1277263BF583E4F0C9
:1053630012536BF0A3F08027A3F08A828B83A3A34D
:10537300221274B8E4F0A322A3F01253863BF58300
:10538300E4F022EA12672122A90A74031213E07FD0
:10539300060210B874F4120DB0EAFEEBFF89088C14
:1053A3000A8D0BEE4F7003025432740165087012BC
:1053B3007901122C3DE9F8903A2AE493C3985022DC
:1053C30080167404650870147904122C3DE9F89072
:1053D3003A28E493C398500A7911805574026508FA
:1053E300704D8E828F83A3A3A3A3A3A3A3A3A3E53B
:1053F30008125DEDA31270FBE4F0A3F090141312F6
:105403006C39601A8003E0F8A3E0F988828983A3EA
:10541300A31254EC88828983A3A370EA80039014B7
:1054230013EEF0A3EF125437121F117900800279A3
:10543300C1024354F07A207B0090140AE0F922C0A1
:1054430082C083E9F87900901413801D8A828B83CC
:10545300A3A3A3A3A3A3A3A3A3E068600574FF6806
:105463007001098A828B83A3A31254EC70DE02635A
:105473008C74F7120DB0EA4B700590141380068AF2
:10548300828B83A3A31254EC60208A828B83A3A311
:10549300A3A3A3A3A3A3A3E06970E4EC60108A828F
:1054A3008B83E01254B470D780047A007B000255DA
:1054B3009EF8A3E0C8127A72E0540422C082C0832B
:1054C30090141380068A828B83A3A31254EC601278
:1054D3008A828B83A3A3A3A3A3A3A3A3E06970E5F9
:1054E30080047A007B0002638C12774AFBEA4B222A
:1054F3001255F56C2274F2120DB08A0A8B0B8C0CC8
:105503008D0D750800750900EA450B603090141382
:1055130080068E828F83A3A31256EBEE4F601EACE0
:105523000CAD0DEEFAEFFB850A82850B8312327800
:10553300E9640170DDEEF8EFF988088909AA08AB80
:105543000902539274F7120DB0901413125E257C66
:10555300007D00800DE8FCE9FD88828983A3A31206
:105563005E25E8496030EA687002EB6970E79014E1
:10557300131263ACE86A7002E96B88828983A3A380
:105583007008125E259014138009125E258C828D9B
:1055930083A3A3126A5880031213E07F010210B899
:1055A30074F7120DB0EAFEEBFFEE4F602B122C5591
:1055B3001256191263AA121F6B8E828F831263AC69
:1055C300121F6B126C306009EE240F1263A6121FB8
:1055D3006BEEFAEFFB121F6B80C11272AB8A828BE8
:1055E30083221255E9221274BCA3A3A322F01255FD
:1055F300F5228A828B83E0F8A3E0F5838882E02298
:105603001255E9A3A322A3A3A3A312561122E0F5E3
:1056130008A3E0F509228E828F83125AD6125ACC40
:105623003822C082C083EAFCEBFDEC4D6017EC240A
:10563300FBF582ED34FF126C37700712567FE0F4EE
:105643006007121ED57905803090140AE0C0E0127D
:10565300567FD0E0F0903A22E493F97A157B141246
:105663001F0BE9640170107A007B2090140AE0F9A3
:10567300121F1179008002790402638CEC24FFF578
:1056830082ED34FFF5832274F4120DB0A2AFE4333C
:10569300F508C2AF9014151256EBEE4F603AEE24A4
:1056A300FBF582EF34FF126C377A007B2090140AEB
:1056B3006007E0F9121F118005E0F9121F17E4F5E6
:1056C3000AF50B780A121403EEFCEFFD7A157B142E
:1056D300121F0574021213E0E508A2E092AFEEFA7E
:1056E300EFFB024354A3A3A3127113FF22F582E439
:1056F3003FF5831255F9221213E07F030210B874A9
:10570300F2120DB074FA1214C3EAFEEBFF750AFE2F
:10571300750BFF122C19E96005791102588AEE24E2
:105723001512589260359015A1E0C43354E0F8E0A7
:10573300333354FC48C0E012603BD0E0127A7BFA6A
:10574300A3E0FB79FF122A0F8B09EA4509600C7568
:105753000AFF1269001267E6D2E0F08E828F83A3FC
:10576300A31263AC122D15E96006EE241212670929
:10577300EE2413125892700D903A2CE493C0E01269
:1057830068FCD0E0F08E828F83E0A2E750045403DC
:105793008019EE2414125892701290139CE0C0E00A
:1057A300125DA8D0E0F090139CE004F012588F64CF
:1057B30001701690158CE0600D9013A7E0700A8EAF
:1057C300828F83E070031267068E828F83E0640109
:1057D3007011EE240B1256F0640270071258A6E003
:1057E3004440F0AC18AD19EEFAEFFB122C7F8A0897
:1057F3008B0974FE650A700374FFF4700D8E828F3B
:1058030083A3A3E0F50AA3E0F50BEA450960748ED0
:10581300828F83E0C0E0740112175AD0E0F0740461
:1058230012175A1274C1EE241E125E1F740212174D
:105833005A126A587401121495880C890D780C1247
:105843001403EE242012589A1214071258A61211A8
:10585300C4EE240E12589A1214079013B01211C4F6
:10586300740812175AE0F9AC0AAD0B122C797408BC
:105873001213E0E9FE74106E700BAA08AB09121F35
:105883006B80027E10EEF9740602538FEE2411F53D
:1058930082E43FF583E022F582E43FF583E0F50CF3
:1058A300780C22EE12690822C082C08374D71214C6
:1058B300C39081C974031214A574261213098A8232
:1058C3008B83A3A3A3A3125E25740E12175AE8F0C9
:1058D300A3E912536C125E25740C12175A12599CC9
:1058E300125996124A9DC0E0741A12175AD0E0F06A
:1058F300126EA1125E23742012175A12599C24159A
:10590300124A9AC0E0740812175AD0E0F0EA241C35
:10591300F582E43B125E23741212175A12599C2427
:1059230011124A9AC0E0740912175AD0E0F0EA241F
:1059330012124A9AC0E0740712175AD0E0F0EA2410
:105943001EF582E43B125E23742412175A12599CEB
:105953002420124A9AC0E0742612175AD0E0124D3E
:105963003674FFF0740112175A74FFF074021217A1
:105973005A74FFF090838B1211C074041214A5742F
:105983000712149D12288374041213E079007429FA
:10599300023F22240DF582E422E8F0A3E9F0EA2293
:1059A30074F4120DB074EC1214C3EAFEEBFF8C0A0C
:1059B3008D0B89097508107A217B00121F658518E4
:1059C30082851983127062851882851983126C3956
:1059D3007003025AC57C217D0079008518828519E0
:1059E30083E0FA121EBD9013BD1263AC8518828545
:1059F3001983125AD22409F582E438127060742094
:105A030012175A125E25741112175AE8F0A3E912FD
:105A13005ADC127A35125ADC127A527402125E2F51
:105A2300F81266A4E50AF0A3E50B125ADC127A42D7
:105A3300E509F0742212175AE0F885188285198354
:105A4300E0F9A3E0C9240CF582E439F583E8125E9A
:105A53002FF9A3E0C9125ACC39F5831274C1742308
:105A630012175A1263AC740612175A127062740832
:105A730012175AE8F0742612175A127497C082C08C
:105A830083740C12175AAC82AD83D083D082740511
:105A9300121309742512175AE0C0E0741312175A2F
:105AA300D0E0F07900AA18AB19122C1FE964017039
:105AB30005750800800C8518828519831263AC1262
:105AC3001F6BA9087414024351241FF582E42212A8
:105AD3005AD622E0F8A3E0C822125E33F8A3E0C846
:105AE3002274EE120DB0EAFEEBFF8C088D098E8254
:105AF3008F83A37408126727E060088E828F83A3C5
:105B03007410F0EE241712589260098E828F83A3CB
