:020000040000FA
:060000000216C20209DF36
:03001300020A01DD
:03002B000213E5D8
:03003300020C2C90
:03003B00020A5660
:03004B0002134A53
:0300530002090E91
:03005B000211A3EC
:030063000211BEC9
:03006B00020BCFB6
:03007B00020C0371
:1000830002097001010020FD0002012D050000009E
:1000930001DC1CE81C0000EE1CFA1C000000000040
:1000A3001D241D2A1D301D0000000000000000FF5C
:1000B300FF01010204081020408001FFFF090D0128
:1000C3000104010001000000000000000612FFFF10
:1000D300FFFFFFFF01010104004614000000E803D5
:1000E3000000FFFFEE14E803000064006400B801A1
:1000F300A0BB0D00A0BB0D00020200F8FF07050224
:100103001E0401051E02051E020A0A010108080356
:10011300102702803E0102FEFFE8030A050001FFEB
:10012300FF020A1401E0C503423F1A51123FF304D0
:10013300B53F0000803E05030101FFE637000000E4
:10014300007E3700000000FF000000FF00C082C0F7
:10015300831202AD600814601214601C802BEA60E5
:1001630005EB42808023E85280801EEA6005EB4263
:10017300908016E852908011EBC39420500BEA60F4
:1001830005EB42A08003E852A002021BC082C08399
:100193001202AD600814602C146050807BE852F3A7
:1001A30074016A601274026A601574046A7003EB66
:1001B300428FEB42FD806153F7DFE8528F80F343B8
:1001C300F72080F6E852F474016A601274026A60E0
:1001D3001574046A7003EB42F6EB42FE803A53F760
:1001E300BFE852F680F343F74080F6EBC394205008
:1001F30027E852F574016A601274026A6015740488
:100203006A7003EB42F7EB42FF800D53F77FE8522E
:10021300F780F343F78080F6D083D08222C082C078
:10022300831202AD600814602B14604E806CE85298
:10023300F352FD74016A600F74026A600F74046AFA
:100243007058EB428F805353F7DF800343F720E866
:10025300528F8046E852F452FE74016A600F7402B2
:100263006A600F74046A7032EB42F6802D53F7BF55
:10027300800343F740E852F68020EBC39420501AE2
:10028300E844E0F852F552FF74016A601074026AA0
:10029300601374046A7003EB42F702021B53F77F87
:1002A300E852F780F543F78080F6E95407FC748B36
:1002B3002CF582E43417F583E0FBF4F8E9C4540F1A
:1002C300540322C082C0831202AD6008146012146A
:1002D300601C802DEA6005EB42FD8025E852FD801D
:1002E30020EA6005EB42FE8018E852FE8013EBC360
:1002F3009420500DEA6005EB42FF800574E04852FC
:10030300FF02021BC082C0831202AD600814601595
:100313001460228034EA6005EB42808003E8528057
:10032300EB42FD8024EA6005EB42908003E85290A3
:10033300EB42FE8014EBC39420500EEA6005EB42BF
:10034300A08003E852A0EB42FF02021BE9C4540F52
:1003530054036007146013146020227801E8F4FB4F
:10036300EA602014602114601522740F59C39404A9
:100373005004780280E7780480E3780880DFE58C16
:10038300586004EB528C22E8428C221216D2601D74
:100393001216E17005191919801A12153B701F12F4
:1003A3001563C37003E66733191919400718181842
:1003B3002208080874FFF618F618F618F622121524
:1003C300636017121787702192F0121790701950FB
:1003D3001720F014080808090909E7F61819E7F6C1
:1003E3001819E7F61819E7F62212179060E6E8697C
:1003F300701F0808E62480F608E436F618547FB424
:100403007F0CE654806007F6E418F618F6221818F5
:1004130022E9C6CC08C6CD08C6CE08C6CFC0E0E8E0
:10042300C0E0EAC0E0EBC0E009E9F809E7FA09E750
:10043300FBE6F918E6F8C3EC98ED99EE9AEBC2E700
:10044300F5F0EFC2E795F0500E600CEBCFFBEACE70
:10045300FAE9CDF9E8CCF8EAA2E7D2E7FAEB33FB05
:1004630013F5F0EEA2E7D2E7FEEF33FFC5F013A2D8
:10047300E730E601B313C5F0C3C0E0C0F07F00C3AB
:100483009BFB605E9418600F401D14601AD0E0233C
:10049300F9D0E0F802056F8AF0E9486003D2F0E48E
:1004A300AFF0FAF9F8803BEB30E40D89F0EA600332
:1004B300D2F0E4AFF0F9CAF8EB30E30D88F0EF6067
:1004C30002D2F0AFF0E4CAC9F8EB54076014FBC3DF
:1004D300EA13FAE913F9E813F8EF135002D2E0FF35
:1004E300DBEDD0E0C0E030E739C3E49FFFF5F0EC8B
:1004F30098FC42F0ED99FD42F0EE9AFE42F0D0E016
:10050300F9D0E0F8E5F0607AE923F9EE20E742D884
:10051300028067C3EF33FFEC33FCED33FDEE33FEB4
:1005230080EAEC28FCED39FDEE3AFED0E023F9D069
:10053300E0F84002801BC3EE13FEED13FDEC13FC49
:10054300EF135002D2E0FF08B800067F7F74FF80EC
:100553002EEF3350178CF020F00260100CBC000C0F
:100563000DBD00080EBE000408E860DFE933E813A0
:10057300FFEE2313FE4F4D4C8008E95480FFE4FE49
:10058300FDFCEE33EF33F47004FCFD7E80D0E0FB22
:10059300D0E0FAD0E0F8D0E0CFC618CEC618CDC66A
:1005A30018CCC6F9221216D2700418181822121683
:1005B300E1700D74FFF61819F61819F61819F622DA
:1005C300E7548066F6121790700F12178770F014B5
:1005D300F608F608F608F680D1121787700CF608AD
:1005E300F608768008E6447F80EC121566700C12DC
:1005F300153E60BFE65480F6E480BB12153E7005DD
:1006030019191980A5E869700C763F18768018F6D9
:1006130018F6E8F922E6CDC0E018ECC0E0E633CDE9
:1006230033CDD313F6E719FCE7191933CC33C3944D
:100633007F400ECD9D502408E65480F6E418F680E2
:100643000FF4043D14501408E6447FF6187680E452
:1006530018F618F6D0E0FCD0E0FD22CCD313CCFD85
:1006630018E4C6CBC0E018E4C6CAC0E00808ED0829
:10067300C633E613F618E433C675F003C3CA97CA44
:1006830009CB97CB199C40047D08802EBD00030243
:10069300075116B6FF050606081618C3CA33CACB98
:1006A30033CB33CA27CA09CB37CB193CC37D088068
:1006B3003E187D0820E75CC633C6CA33CACB33CBAA
:1006C30033DDF1D5F0EB30E77BCA97CA09CB974A04
:1006D300CB199C406F4B7025E620E0218066187D86
:1006E30008C3CA97CA09CB97CB199CD3C633C6CACA
:1006F30033CACB33CB3350C9DDE7D5F0E1D3E4C6FE
:1007030036C608C636C608C636C608C636C618185C
:10071300188031C3CA97CA09CB97CB199CB34097AA
:10072300C633C6CA33CACB33CB33DD34D5F02EC67A
:10073300A2E0C640C8CA27CA09CB37194A70BECB44
:100743003CB480B90808E63308E633601F1818186C
:10075300D0E0FAD0E0FBD0E0FCD0E0FD22187D0829
:10076300CA27CA09CB37CB193CD3808013F618E4C8
:10077300B67F11F618B6FF0EF618C60470D2080835
:10078300768080CAF618F618F680C5001216D26075
:100793004F1216E16012E7548066F612153B701192
:1007A300121787703B090909F4F618F618F618F6BC
:1007B30022121563701512179008080860EAE644C0
:1007C3007FF618768018E4F618F622121790601652
:1007D3001217877012E4F608F608F608E65480F656
:1007E30009090918181822EAC0E0EBC0E0ECC0E0E0
:1007F300EDC0E0E687F0A4FBACF008E687F0A42C9C
:10080300FCE435F0FA1809E687F0A42C4B60027477
:1008130001CA35F0FCE433FB09E687F0D2F7A42CD8
:10082300CB35F0FC1908E687F0A42BCC35F0FBE4BC
:1008330033FD0819E687F0D2E7A42C4ACB35F0CD77
:100843003400FC09E687F0D2E7A42DCC35F0FDE4B3
:1008530033FA0918E687F0D2F7A42CCD35F0CA3461
:1008630000FC08E687F0D2E7D2F7A42ACC35F07A69
:100873007E20E70B0ACB33CBCD33CDCC33CC33CB7C
:100883003350147004ED30E00ED2F1E4CD3DCDCC05
:100893003CCC3B5005DA05C2F1EB547FC63308E686
:1008A3003392F0FBE73309E733C39A502D2B7019CA
:1008B3000C0D4C4D70151806E608C333700D20F16E
:1008C3000AA2F013F6E418800B4024E4F630F00299
:1008D300768018F618F618F68024D33B145010745B
:1008E300FFA2F013F6187680E418F618F6800FA22C
:1008F300F013F618E63303F618ECF618EDF6D0E02D
:10090300FDD0E0FCD0E0FBD0E0FA22C0E074F112AD
:100913000E90A2AFE433F509D2AF85A708AFA1EFDC
:100923005508FE74105E60061219B875A1EF7408BD
:100933005E60081219BE75A1F78024EFA2E092F061
:10094300E508A2E082F05017906198E0F890049DCA
:10095300E0C398A2D265D0335002E8F075A1FE75CA
:100963001A00E509A2E092AF7F02020EEFC0E07425
:10097300F2120E90A2AFE433FED2AF9061A4E0F87E
:10098300759B00E59158540860087591F7121A0693
:100993008023E59158541060087591EF121A0C806A
:1009A30014E591A2E092F0E8A2E082F05007E0C2E1
:1009B300E0F0121B629061A3E0F8E5E9585404608B
:1009C3000E121B3875E9FB906193E0A2E640F275C5
:1009D3001A00EEA2E092AF7F01020EEFC0E074F2C4
:1009E300120E90A2AFE433FED2AF9061A5E0F8E51A
:1009F300BF585404600675BFFB121B7A80D1C0E058
:100A0300C0D0E8C0E0E9C0E0C082C083A8C1E8C0AC
:100A1300E090040AE0F8748928F582E43403F5834E
:100A2300D0E0F0900409E0F8A3E0687006E5959043
:100A3300040CF090040AE004F0C394804002E4F054
:100A4300A374C6F0D083D082D0E0F9D0E0F8D0D040
:100A5300D0E032C0E0C0D0E8C0E0E9C0E0C082C06E
:100A63008390048DE0F8A3E0687008539AFBA374A5
:100A7300018022C2E990048DE0F8740128F0740D1E
:100A830028F582E43404F583E0F5C190048DE0C3D6
:100A930094804002E4F080AC120AE630F039120B85
:100AA3002B8034120AE620F01430E72B74FFFCFB92
:100AB300FA747F8022E4FCFBFA7480801AB4800805
:100AC300BC00F2BB00EF800F50EBF9E4C39AFAE4E9
:100AD3009BFBE49CFCE499C6CC18C6CB18C6CA1889
:100AE300C6F922E4C9C608CAC608CBC6D33303086D
:100AF300CCC63392F0C3947F402E94184019C9B9E1
:100B03000704CACBCC225025C309CA33CACB33CB83
:100B1300CC33CC33D9F422F4600DC9CCC313CB133B
:100B2300CBCA13CAD9F6CC22E4FCFBFA2214FCFB91
:100B3300FA22C3E498F8E499F9120B768026C3E409
:100B43009AFAE49BFBE920E7E9120B76E498F8E4D0
:100B530099F922C3E498F8E499F9120B76E498F82A
:100B6300E499F9C3E49AFAE49BFB22EB20E7CFE98B
:100B730020E7E0B90010BB0008E88AF084F8AAF087
:100B830022E4FBC8FA22EB70227B10C833C8C933B6
:100B9300C9335007C39AC3DBF280069A50012ADB9C
:100BA300EAC833F4C8C933F4C9FA2275F008E4C8B3
:100BB30033C8C933C933C99AC99B5004C92AC93B2D
:100BC300D5F0ECFBC833F4C8E4C9FA22C0E074F2F0
:100BD300120E90A2AFE433FED2AF90062EE05589F9
:100BE300600FE589FA7900121E1490062EE0F45284
:100BF30089C2C5751A00EEA2E092AF7F01020EEF23
:100C0300C0E074F2120E90A2AFE433FED2AF9006AE
:100C13002FE0558A600FE58AFA7901121E149006B7
:100C23002FE0F4528AC2EB80CAC0E074F2120E9035
:100C3300A2AFE433FED2AF900630E0558B600FE5F0
:100C43008BFA7902121E14900630E0F4528BC2E83C
:100C530080A1080808EAC0E0EBC0E086F0E7A4FA48
:100C6300180986F0E7A42AFA180986F0E7A42AFAF5
:100C7300180986F0E7A42AFA1986F0E7A4FBE5F041
:100C83002AFA190886F0E7A42BFBE5F03AFA1908CB
:100C930086F0E7A42BFBE5F03AFA18180986F0E78B
:100CA300A4C5F02BFBE43AFA1908E7C5F0C6A4265D
:100CB300F6E5F03BFBE43AFA1886F0E7A4F6E5F034
:100CC3000826F6E43B08F6E43A08F6D0E0FBD0E069
:100CD300FA22080808E630E71112159F120CED08F6
:100CE3000808C64480C618181822181818E9799EEF
:100CF300C608CAC608CBC608CCC6C370207996CA34
:100D0300CBCC7019798ECBCC70137986CC700EF95D
:100D1300802ACA33CACB33CBCC33CC331930E7F276
:100D2300CCCBCA3350147004EA30E00DE4CA3ACA9B
:100D3300CB3BCBCC3CCC500209C3E913C6CC182324
:100D430013C6CB18C6CA18C6F922E4CFC0E0E4CE56
:100D5300C0E0E4CDC0E0E4CCC0E075F020E626F6C8
:100D630008E633F608E633F608E633F6181818EC07
:100D730033FCED33FDEE33FEEF33FFC3EC9709EDA8
:100D83009709EE9709EF97191919400FFFEC97FC94
:100D930009ED97FD09EE97FE191906D5F0BFECF79B
:100DA30009EDF709EEF709EFF7191919D0E0FCD0AF
:100DB300E0FDD0E0FED0E0FF222518C582C0E0E5CB
:100DC3001934FFC583C0E0E518C3958224F810AF3A
:100DD300088583198582188008858319858218D22E
:100DE300AFCEF0A3E520F0A37808E608F0A3DEFA7F
:100DF300EFF0A3E58124FAF8E608F0A3E608F0A3F0
:100E0300E608F0A30808E608F0A3E608F0A31581B6
:100E13001581D0E0FED0E0F8158115811581E8C079
:100E2300E0EEC0E022121772B90003020E7AE490DA
:100E33000331782D79158002F0A3D8FCD9FA781AFA
:100E43009000867A01BA00028007E493A3F608DAD9
:100E5300F97A5D7B1790008778CA79018015E4934E
:100E6300A3AD82AE838A828B83F0A3AA82AB838DE8
:100E7300828E83D8E9D9E77582457583B7740612E4
:100E830013C775824A75833374001213C7C0D02504
:100E930018C582C0E0E51934FFC583C0E0E518C377
:100EA300958224F310AF08858319858218800885FD
:100EB3008319858218D2AFC8F0A3E9F0A3EAF0A39F
:100EC300EBF0A37908E709F0A3D8FAECF0A3EDF06F
:100ED300A3EEF0A3EFF0A3D0E0F0A3D0E0F0A3D013
:100EE300E0F0A3E520F0A3E5F0F0A32285198385C4
:100EF3001882E0C0E0A3E0F9A3E0FAA3E0FBA37843
:100F030008E0F608A3DFFAE0FCA3E0FDA3E0FEA3FC
:100F1300E0FFA3E0C0E0A3E0C0E0A3E0F5D0A3E0DE
:100F2300F520A3E0A3F5F010AF0885831985821897
:100F33008008858319858218D2AFD082D083D0E010
:100F4300F8D0E0321215A2181818120D4D121671AE
:100F530019191922121671191919080808E618180F
:100F63001820E7E0120D4D1215A2181818220909CE
:100F730009E719191920E7DC080808E618181820EA
:100F8300E703020D4D1215A2181818120D4D121574
:100F9300A218181812167119191922E47375F01092
:100FA3008E218F2285822685832585188285198344
:100FB300E0CEA3E0CF852682852583EBC9EAC8ED81
:100FC300CBECCAC3E833C8E933C9EA33CAEB33CB42
:100FD300C3EA9EF524EB9FF523B35004AB23AA2465
:100FE300EC33CCED33CDD5F0DAAE21AF222212169D
:100FF300D2601C1216E16017121790700712178740
:101003007001D322C0D01217877006D0D0B322C389
:101013002233D0D0501430E0F6C3E7960809E796A0
:101023000809E7960809E796B32220E0D5E6970872
:1010330009E6970809E6970809E697B3221216D23C
:10104300601B1216E1601612179070071217876063
:101053000CB322C0D01217877005D0D022C322331D
:10106300D0D0501330E0EBC3E7960809E7960809A0
:10107300E7960809E7962220E0E4E6970809E69751
:101083000809E6970809E69722D083D082ECC0E0EE
:10109300EDC0E0E493A3FCE493A3FDED4C600D12DB
:1010A3001164EC24FFFCED34FFFD80EFE493A3FC1B
:1010B300E493A3FDED4C600D12126AEC24FFFCEDEA
:1010C30034FFFD80EFD0E0FDD0E0FCE493A3C0E06B
:1010D300E493C0E022851983851882E0A3FEE0A390
:1010E300F5207808E0A3F608DFFAE0A3FFE0A3C049
:1010F300E0E0A3C0E0E0A3C0E0E0A3C0E0E0A3C061
:10110300E010AF08858218858319800885821885C9
:101113008319D2AFD083D0820213CDD083D082E99A
:10112300C0E0E493A3C386F0C5F095F0F908E49317
:10113300A386F0C5F095F0700BE493A3C399400523
:10114300E9048002A3E475F002A42582F582E5F0A8
:101153003583F583D0E0F9E493A3C0E0E493C0E0E2
:1011630022C0E0C3E49396087401939618400FE4F9
:101173009366700808740193661870007019A3A32E
:10118300C3E49396087401939618A3A3400DD0E08B
:10119300D0E0D0E00210C8A3A3A3A3A3A3D0E0226E
:1011A300C0E074F2120E90C2D99017A91211D64062
:1011B30005E0F912213E7F01020EEFC0E074F21246
:1011C3000E90C2DC9017AB1211D64005E0F9122144
:1011D3003E80E3E0C39400A2D265D033227404803E
:1011E3000474028000CCC0E0EDC0E0E518C39CCCE1
:1011F300AD1950011D10AF068C188D1980068C187F
:101203008D19D2AF121329D0E0FDD0E0FC22740275
:101213008000CCC0E0EDC0E0E518C39CCCAD195014
:10122300011D10AF068C188D1980068C188D19D2EC
:10123300AF1212E5D0E0FDD0E0FC221216D26025F9
:101243001216E1602012179070030217870808082E
:10125300E76670101819E766700A1819E7667004D4
:101263001819E76622F422C0E0C0F088F0E4936620
:1012730070080874019366187000A8F0A3A3700B9C
:10128300D0F0D0E0D0E0D0E00210C8A3A3D0F0D0DB
:10129300E022D083D082CCC0E0E493A36006121393
:1012A300A81470FAE493A360061214D01470FAD051
:1012B300E0FCE493A3C0E0E493C0E022C008C3E0F1
:1012C30096F50808A3E096420808A3E096420808AA
:1012D300A3E0964208A2D265D033E5087001D3D0CB
:1012E3000822CAC0E0E493A3C582CCC582C583CDDE
:1012F300C583F0A3C582CCC582C583CDC583DAE59A
:10130300D0E0CA22A2E792D65002F40430F7066373
:10131300F0FF05F0B3400384800384F40430D60562
:1013230063F0FF05F022CAC0E0E0A3C582CCC5820A
:10133300C583CDC583F0A3C582CCC582C583CDC586
:1013430083DAE6D0E0CA22C0E0C0D0C082C0837591
:10135300AF0090066CE02401F0A3E03400F0D083EA
:10136300D082D0D0D0E03270090808082260161865
:101373001818C6C333C608C633C608C633C608C65C
:1013830033C6D5E0EA22C008C3E096F50808A3E017
:1013930096420808A3E096420808A3E09645087021
:1013A30001D3D00822C0E0E493A3D39C5010E4936C
:1013B300A3C39C400AD0E0D0E0D0E00212B2A3A3C2
:1013C300A3D0E022C09FF59FE473D09F22D083D0A7
:1013D30082C09FE493C0E0740193C0E0740293F56C
:1013E3009F22C0E0C0D0E8C0E0A8A8D2AFC2C775B2
:1013F3001A00E8A2E792AFD0E0F8D0D0D0E03200F4
:10140300C0D0251810AF08F518500C05198008F541
:101413001850020519D2AFD0D0222518F58210AF8B
:1014230008F518400C15198008F51840021519D253
:10143300AF851983227404800A74038006740280C2
:10144300027401C0E0F40412141DD0E012171D222F
:10145300BB0102E722C082C08389828A83BB000367
:10146300E08002E493D083D082226017080808C684
:10147300A2E713C618C613C618C613C618C613C6E2
:10148300D5E0E9226016080808C6C313C618C613B8
:10149300C618C613C618C613C6D5E0EA22C3E0C6EB
:1014A30096F608A3E0C696F608A3E0C696F608A348
:1014B300E0C696F6222518F8E43519F9222518FA1C
:1014C300E43519FB222518FCE43519FD22C0E0E4BC
:1014D30093A36C7009D0E0D0E0D0E00212B2A3A3D2
:1014E300D0E022251810AF08F518400C1519800814
:1014F300F51840021519D2AF22C3E09608A3E0966F
:1015030008A3E09608A3E096A2D265D03322E7664B
:1015130070100809E766700A0809E766700408098D
:10152300E76622E066701008A3E066700A08A3E08D
:1015330066700408A3E06622181818E608460870C7
:1015430009E626087005E633F4220822C3E49396DD
:101553000874019396087402939608740393962271
:10156300191919E70947097009E727097005E733CE
:10157300F4220922C3E096F008A3E096F008A3E062
:1015830096F008A3E096F022C3E697F60809E697DB
:10159300F60809E697F60809E697F622181818E4FC
:1015A300C396F608E496F608E496F608E496F6225F
:1015B300E026F608A3E036F608A3E036F608A3E033
:1015C30036F622E627F60809E637F60809E637F67F
:1015D3000809E637F622E493F608740193F60874D3
:1015E3000293F608740393F622E657F60809E657C2
:1015F300F60809E657F60809E657F622E056F0081A
:10160300A3E056F008A3E056F008A3E056F022E664
:1016130047F60809E647F60809E647F60809E647E4
:10162300F622700422600D18C6C333C608C633C63B
:10163300D5E0F41822E667F60809E667F60809E636
:1016430067F60809E667F622E026F008A3E036F01D
:1016530008A3E036F008A3E036F022E056F608A32C
:10166300E056F608A3E056F608A3E056F622E4C3D4
:1016730097F709E497F709E497F709E497F72260E6
:101683000D08C6A2E713C618C613C6D5E0F322C6D3
:10169300F4C608C6F4C608C6F4C608C6F4C622C310
:1016A300E09608A3E09608A3E09608A3E09622C379
:1016B300E7960809E7960809E7960809E796227569
:1016C300D00075813F75183175190300020E28E6A5
:1016D300084608C3134608336002E633F422E709D9
:1016E3004709C3134709336002E733F422600C0848
:1016F300C6C313C618C613C6D5E0F422E6F008A382
:10170300E6F008A3E6F008A3E6F022E0F608A3E07B
:10171300F608A3E0F608A3E0F622CAC0E0E6F0A3C9
:1017230008DAFAD0E0FA22E0FCA3E0FDA3E0FEA38E
:10173300E0FF22EAF0A3EBF0A3ECF0A3EDF022E04C
:10174300FAA3E0FBA3E0FCA3E0FD22E8F0A3E9F0A9
:10175300A3EAF0A3EBF022ECF0A3EDF0A3EEF0A3E9
:10176300EFF022E0F8A3E0F9A3E0FAA3E0FB22E51F
:10177300C754F84401F5C77901222518F582E435E9
:1017830019F58322E72719471947194722E626182F
:10179300461846184622C2AF75D69F020000221291
:1017A30013D00FD4041213D0C5D4041213D0C4D54C
:1017B300041213D0F7D6041213D0EDBA061213D0C5
:1017C30060BB061213D0E6BB061213D0D2CA0612B0
:1017D30013D0E3CA061213D081CB061213D08CCBDD
:1017E300061213D0E67F001213D07FD0061213D057
:1017F300EEC9061213D0FEC9061213D013CA06127D
:1018030013D0C5CA061213D0F1C6061213D074C77B
:10181300061213D0DAC7061213D0F2AE061213D093
:101823002DAF061213D088AF061213D0E0AF061205
:1018330013D066B0061213D0A2B0061213D0F0B0C4
:10184300061213D007B1061213D053D0061213D0C9
:1018530063D0061213D066D0061213D069D00612D5
:1018630013D0F87F001213D041B3061213D079B30B
:10187300061213D0C4B4061213D048B5061213D0FF
:1018830091FD051213D0DBFD051213D071FE051275
:1018930013D0F7FE051213D028FF051213D040FF13
:1018A300051213D0B4FF051213D0CAFF051213D0CB
:1018B300DDFF051213D0E7FF051213D00AC204128D
:1018C30013D0BBC6041213D0D2C7041213D0EEC771
:1018D300041213D071C8041213D038CB041213D0DE
:1018E30028ED041213D08BED041213D03BEE041237
:1018F30013D006EF041213D05BF0041213D03BF1A4
:10190300041213D038F2041213D010F4041213D0BB
:1019130037F4041213D0C3F4041213D01DF60412C7
:1019230013D093F6041213D0D1F6041213D0E3F6B6
:10193300041213D063A6051213D031A8051213D0D5
:101943006DA9051213D032AB051213D0F3FA0112AD
:1019530013D01FFB011213D090FD011213D0D0FD41
:10196300011213D010FE011213D024FE011213D062
:101973003DFE011213D02EFF011213D0D3FF01122B
:1019830013D0E7FF011213D03CBE061213D060BE82
:10199300061213D079BE061213D0ABBE061213D0B3
:1019A300DBBE061213D008BF061213D012BF0612F5
:1019B30013D074BF061213D083BF061213D08DBF8A
:1019C300061213D09ABF061213D026AA061213D0FA
:1019D30046AA061213D085AA061213D0A0AA06128D
:1019E30013D0BFAA061213D025AB061213D02EAB09
:1019F300061213D08BAB061213D0AFAB061213D063
:101A030070AC061213D07DAC061213D08EAC061246
:101A130013D0C4CE061213D0DCCE061213D008CFD7
:101A2300061213D006FB021213D062FC021213D06B
:101A330070FC021213D083FC021213D098FC021222
:101A430013D0ADFC021213D0C0FC021213D034FD2C
:101A5300021213D099FD021213D021FE021213D0E9
:101A63009DFE021213D061FF021213D071FF021206
:101A730013D080FF021213D005CD061213D029CD47
:101A8300061213D051CD061213D079CD061213D0FE
:101A93001EB1061213D045B1061213D063B106125C
:101AA30013D0D6B1061213D08FA4061213D0A8A454
:101AB300061213D0B4A4061213D0C8A4061213D06E
:101AC300E6A4061213D0F0A4061213D0FAA4061249
:101AD30013D00DA5061213D093A5061213D008A692
:101AE300061213D037A6061213D085A6061213D0FA
:101AF300D4A6061213D0EFA6061213D0F9A6061227
:101B030013D00AA7061213D04DA7061213D0B2CFD3
:101B1300061213D0FDCF061213D0A293051213D0D1
:101B2300CC93051213D0E993051213D0FC9305123D
:101B330013D01294051213D07094051213D0A894E5
:101B4300051213D09C98051213D0E199051213D0F6
:101B5300149A051213D0779A051213D0E19B05123C
:101B630013D0099C051213D01E9C051213D02E9C72
:101B7300051213D0729C051213D0CD9C051213D0FD
:101B8300DD9C051213D075C3061213D08FC3061242
:101B930013D0B7C3061213D0D0C3061213D0F4C3A5
:101BA300061213D012C4061213D029C4061213D07E
:101BB30057C4061213D072C4061213D0A4CB061254
:101BC30013D0EACB061213D0E994061213D0F9947A
:101BD300061213D00096061213D03496061213D0B1
:101BE3005696061213D07996061213D097960612BC
:101BF30013D0D196061213D03697061213D07897C6
:101C0300061213D0B797061213D0E897061213D013
:101C13001F98061213D04EF7041213D04AF8041279
:101C230013D068F8041213D08FF8041213D054FAA7
:101C3300041213D073FA041213D028FB041213D026
:101C4300EFFB041213D0FEFC041213D030FE041277
:101C530013D0348D061213D0898D061213D0038E40
:101C6300061213D0168E061213D03D8E061213D011
:101C7300D08E061213D0AA8F061213D00D9D051213
:101C830013D0389D051213D0F79D051213D0359E3E
:101C9300051213D0BB9E051213D055A2051213D003
:101CA30068A4051213D00080031213D03A800312E4
:101CB30013D03A82031213D0AB84031213D02B85B3
:101CC300031213D0DB88031213D04D89031213D0F0
:101CD300E789031213D0078A031213D0C08A0312B1
:101CE30013D0F98A031213D0108B031213D03C8B39
:101CF300031213D03F8B031213D0988B031213D00C
:101D0300EB8B031213D0A38C031213D08C8D03120D
:101D130013D04690031213D06092031213D0939200
:101D2300031213D0F392031213D04593031213D06B
:101D3300C893031213D05C94031213D06A96031250
:101D430013D00798031213D04E99031213D0DC9AC1
:101D5300031213D0289B031213D04BB5061213D0D2
:101D6300F3C8061213D0F8C8061213D012C906120C
:101D730013D054C9061213D07DC9061213D097C9C4
:101D8300061213D0B0C9061213D0D4C9061213D049
:101D930091F4051213D0E5F4051213D0B5F505122D
:101DA30013D0E7F5051213D014F6051213D065F618
:101DB300051213D08FF6051213D0B3F6051213D004
:101DC300F3F6051213D07DF7051213D0AEF7051203
:101DD30013D0D5F7051213D01BF8051213D039F819
:101DE300051213D05DF8051213D07DF8051213D038
:101DF300B3F8051213D007BC051213D041BC05126A
:101E030013D07CBD051213D0D7EA051213D08BEB88
:101E1300051213D0D0C5061213D05BC6061213D019
:101E2300BDC6061213D07BC2051213D098C3051288
:101E330013D09BC4051213D0F0C5051213D046C6A8
:101E4300051213D086C6051213D0FDC6051213D092
:101E53000BC7051213D0DEC8051213D09B9B0612C5
:101E630013D0FD9B061213D0E19D061213D099E502
:101E7300051213D0DAE5051213D010E6051213D0BC
:101E830037E7051213D0F5E8051213D095E90512CB
:101E930013D047E0051213D079E3051213D0F9E309
:101EA300051213D0D4E4051213D058A7061213D089
:101EB300C0A7061213D0D4A7061213D048A806123F
:101EC30013D03BC2061213D078C2061213D0ACC291
:101ED300061213D0B5C2061213D0ABA1061213D04B
:101EE300BEA2061213D070A3061213D08AA3061241
:101EF30013D037A4061213D060A4061213D0A3FE86
:101F0300031213D0B5FE031213D0C8FF031213D06C
:101F1300CBFF031213D0F5C0061213D02BC1061248
:101F230013D045C1061213D087C1061213D097C12F
:101F3300061213D031C2061213D007B5051213D0FF
:101F430011B5051213D04BB5051213D0B4B5051254
:101F530013D0D1B5051213D073B6051213D07CB6C6
:101F6300051213D0C1B6051213D0EAB6051213D069
:101F7300F7B6051213D068B7051213D0F3B70512DD
:101F830013D041B8051213D07FB8051213D0E4B8AB
:101F9300051213D007B9051213D07EB9051213D059
:101FA300D5B9051213D010BA051213D045BA0512CC
:101FB30013D057BA051213D069BA051213D088BAD1
:101FC300051213D091BA051213D051BB051213D0C9
:101FD3009DBB051213D0DBBB051213D0A4BF0612A1
:101FE30013D0E4C0061213D0BCAC061213D0F2AC6B
:101FF300061213D03AAD061213D093AE061213D0C5
:102003008EFF041213D044B6031213D068B7031221
:1020130013D0A2B7031213D04CB9031213D076B95D
:10202300031213D0EBBB031213D02BBC031213D038
:10203300C1BD031213D05EBE031213D0B0BE031290
:1020430013D053BF031213D08BBF031213D0CDBFD2
:10205300031213D03CC1031213D08AC2031213D04C
:10206300BBC4031213D0E9C4031213D010C5031267
:1020730013D019C5031213D069C5031213D0FBC5BE
:10208300031213D02AC9031213D0ADC9031213D0FC
:102093009ECD061213D0B4CD061213D0BECD0612B8
:1020A30013D012CE061213D07784061213D08D8468
:1020B300061213D02E85061213D06D85061213D087
:1020C3008A85061213D0BB85061213D00886061222
:1020D30013D03B86061213D07686061213D071886E
:1020E300061213D0D988061213D035CF051213D098
:1020F30060D1051213D092D2051213D0AAD20512C1
:1021030013D0C8EF051213D003F1051213D095F2C3
:10211300051213D0E0AD051213D09CAE051213D0F7
:102123000CB0051213D04AB1051213D0E7B1051252
:1021330013D027B9061213D09DB9061213D045DD6B
:10214300031213D017DE031213D061DE031213D070
:1021530016DF031213D075DF031213D022E103122B
:1021630013D08EE1031213D00AE3031213D036E324
:10217300031213D070E5031213D099E5031213D0A1
:10218300FEE5031213D050E6031213D0A1E70312A6
:1021930013D0F4E7031213D070E8031213D0B1DAAB
:1021A300051213D0D8DA051213D02CDD051213D083
:1021B3003FDD051213D094DD051213D0C6DE0512E0
:1021C30013D047DF051213D0F3C7061213D052C83A
:1021D300061213D090C8061213D0D1C8061213D01A
:1021E300929C041213D0FB9C041213D0469D04123C
:1021F30013D0819D041213D0F69F041213D010A4A0
:10220300041213D030A6041213D03EA7041213D025
:1022130018A8041213D0E9C8051213D01CC905125B
:1022230013D055CA051213D0FBCB051213D014CC0F
:10223300051213D0B7CC051213D01ACD051213D043
:1022430051CE051213D058CC061213D0A2CC0612CD
:1022530013D0A5C4061213D0B4C4061213D0F5C408
:10226300061213D06CD0061213D040B6041213D04A
:10227300ABB6041213D0A9B7041213D02EB90412AB
:1022830013D0B4B9041213D08DBA041213D06DBB9A
:10229300041213D08CBC041213D0A5BD041213D0A6
:1022A3004DC0041213D00080021213D00C8002120E
:1022B30013D06E80021213D07880021213D00B81D8
:1022C300021213D04781021213D00782021213D0D5
:1022D3001482021213D07782021213D00C830212DB
:1022E30013D04283021213D0BF83021213D05F852F
:1022F300021213D03387021213D01488021213D0A0
:102303005E89021213D0C08B021213D0258D0212E4
:1023130013D0BA8D021213D0ED8E021213D0E18FB7
:10232300021213D01A91021213D0B095021213D0D5
:102333009D96021213D03597021213D05A970212A8
:1023430013D08697021213D01E98021213D034981A
:10235300021213D05698021213D0BC98021213D053
:10236300DB98021213D00499021213D0249A02129A
:1023730013D0FA9A021213D06F9C021213D0909CBE
:10238300021213D0119D021213D0B79D021213D063
:10239300FF9D021213D0709E021213D0FC9E0212F4
:1023A30013D0609F021213D0C09F021213D06FA0EC
:1023B300021213D0DBA0021213D00EA1021213D00B
:1023C3008CA1021213D0E8A2021213D058A3021256
:1023D30013D0EAA3021213D04DA5021213D0D4A531
:1023E300021213D039A6021213D067A8021213D017
:1023F300F3A9021213D003AA021213D037AA0212AE
:1024030013D0A5AA021213D0E0AA021213D042AB32
:10241300021213D0D7AB021213D0B2AD021213D0F3
:102423007DAF021213D087B0021213D084B402120C
:1024330013D051B5021213D069B6021213D013B8D8
:10244300021213D04791061213D0B791061213D07C
:10245300C591061213D0D392061213D0B88E04126C
:1024630013D06F8F041213D07D8D051213D0F49007
:10247300041213D03692041213D05792041213D0BD
:102483000F93041213D0BA93041213D09A97041221
:1024930013D0B699041213D01D9B041213D0A27F3C
:1024A300001213D0519C031213D0A99C031213D012
:1024B3002F9D031213D0419E031213D08E9E03123D
:1024C30013D0749F031213D08B9F031213D0DD9F7D
:1024D300031213D01AA0031213D02DA0031213D08A
:1024E30083A0031213D0DCA0031213D0F4A00312B1
:1024F30013D089A3031213D020A4031213D04AA428
:10250300031213D0BBD2041213D0B2A6031213D0FA
:10251300F8A6031213D042A7031213D016A803126E
:1025230013D057A8031213D07AA8031213D0C1A84B
:10253300031213D0E1A8031213D062A9031213D01C
:10254300E6A9031213D040AA031213D088AA0312D8
:1025530013D091AB031213D051AE031213D07DAF3E
:10256300031213D0BAAF031213D081B0031213D0E6
:10257300C1B0031213D0C4B0031213D0CEB00312F0
:1025830013D0E1B0031213D066B1031213D09CB180
:10259300031213D0C8B1031213D0EFB1031213D037
:1025A30013B2031213D0AAB2031213D01CB3031233
:1025B30013D035B3031213D068B3031213D088B307
:1025C300031213D0C5B3031213D0FCB3031213D0F9
:1025D300FBB4031213D02EB6031213D03DCE061252
:1025E30013D049CE061213D08FCE061213D012F990
:1025F300051213D050F9051213D0DCF9051213D0CC
:10260300E7FA051213D003FD051213D0FAC903121A
:1026130013D01DCA031213D0F4CA031213D03DCB37
:10262300031213D095CB031213D0EFCB031213D0A5
:102633003BCC031213D0B1CC031213D03FCD031202
:1026430013D0B7CD031213D0FACD031213D0C8D1D0
:10265300031213D00FD4031213D049D4031213D08F
:10266300D3D4031213D052D5031213D01FD603129F
:1026730013D04BD7031213D036D8031213D00AD971
:10268300031213D08EDA031213D024DB031213D0F8
:102693006DEE031213D00DEF031213D077EF031275
:1026A30013D01EF0031213D07DF0031213D029F1BF
:1026B300031213D05CF2031213D082F3031213D06C
:1026C300FBF3031213D0D3F5031213D073F60312E3
:1026D30013D016F7031213D075F7031213D030F883
:1026E300031213D0F6F9031213D099FB031213D07C
:1026F30045FC031213D05AFD031213D03EE6021217
:1027030013D0B6E6021213D0FEE6021213D042E74C
:10271300021213D08BE7021213D0D5E7021213D0A3
:102723000AE8021213D088E8021213D0E2E8021278
:1027330013D03BEA021213D0C4EA021213D020EBE7
:10274300021213D03AEB021213D061EB021213D030
:10275300B9EB021213D023ED021213D042ED021291
:1027630013D06AEE021213D0E7EE021213D054EF25
:10277300021213D0B6EF021213D066F0021213D076
:1027830038F2021213D023F3021213D01DF40212F3
:1027930013D023F5021213D03FF6021213D04DF6D5
:1027A300021213D026F7021213D0C6F7021213D067
:1027B3000AF8021213D01FF8021213D030F90212D2
:1027C30013D0D3F9021213D02BFA021213D06B7C5D
:1027D300001213D0137E001213D0D07E001213D038
:1027E300257F001213D07798061213D09298061201
:1027F30013D0D698061213D0FC98061213D0229940
:10280300061213D03A99061213D09D99061213D0CB
:10281300B299061213D0D49A061213D0DD9A061277
:1028230013D0E69A061213D0EF9A061213D0F99A30
:10283300061213D0E688061213D0C68C061213D0E4
:10284300CB8C061213D0CD8C061213D0B4B706125C
:1028530013D049CF061213D009D0061213D0B0BC3F
:10286300061213D035D0061213D0A4D5011213D0FB
:10287300FBD5011213D067D6011213D0F3D6011280
:1028830013D0A9D7011213D0F1D7011213D00AD84C
:10289300011213D02DD8011213D04FD8011213D027
:1028A3008DD8011213D0DCD8011213D007D901122D
:1028B30013D065D9011213D00CDA011213D0B4DA94
:1028C300011213D030DB011213D0FDDB011213D040
:1028D30049DC011213D0D1DC011213D00ADD01123D
:1028E30013D060DD011213D013DE011213D0F7DE13
:1028F300011213D008DF011213D07ADF011213D0B3
:1029030013E0011213D07DE0011213D06DE1011227
:1029130013D092E1011213D08FE2011213D09CE283
:10292300011213D0A5E2011213D08EE4011213D0C9
:10293300AAE5011213D03BE6011213D0ACE6011253
:1029430013D086E8011213D051EC011213D065ECB9
:10295300011213D075EC011213D07FEC011213D0C6
:1029630088EC011213D091EC011213D09BEC0112ED
:1029730013D0CAEC011213D0F8EC011213D003EDFB
:10298300011213D027ED011213D04BED011213D016
:10299300BDED011213D006EE011213D022EE011287
:1029A30013D093EE011213D0DFEE011213D028EFF0
:1029B300011213D066EF011213D0E7EF011213D007
:1029C300B6F1011213D055F2011213D01DF3011207
:1029D30013D0A9F5011213D0FEF5011213D026F678
:1029E300011213D059F7011213D09EF7011213D01D
:1029F300F3F7011213D0A1F8011213D046F9011213
:102A030013D07BF9011213D01BFA011213D097FADA
:102A1300011213D07B84011213D0AD84011213D0A1
:102A2300E184011213D09586011213D06987011234
:102A330013D0C887011213D0DE88011213D02A895C
:102A4300011213D0C78B011213D03C8E011213D085
:102A5300888F011213D02090011213D02C900112F1
:102A630013D07590011213D0A890011213D0349192
:102A7300011213D04692011213D08793011213D07F
:102A83008694011213D0B094011213D01B95011236
:102A930013D07495011213D0E795011213D01D982A
:102AA300011213D0A399011213D08E9A011213D0DD
:102AB300DC9B011213D0149E011213D00BA101123F
:102AC30013D01AA1011213D0AEA1011213D059A22F
:102AD300011213D09CA2011213D0E5A2011213D04C
:102AE30035A3011213D0A2A3011213D00EA4011215
:102AF30013D02AA4011213D059A4011213D098A4FD
:102B0300011213D080A5011213D02FA6011213D0E6
:102B1300A6A8011213D0D8A9011213D0A7AA011293
:102B230013D029AB011213D075AF011213D0A4AF88
:102B3300011213D0FFAF011213D032B0011213D020
:102B43008DB0011213D0A9B0011213D00AB1011232
:102B530013D05AB1011213D009B2011213D0CCB25F
:102B6300011213D094B3011213D0E0B5011213D0A4
:102B73006CB7011213D0C3B8011213D0DFB901121D
:102B830013D0E2B9011213D011BA011213D000BC51
:102B9300011213D0C9BC011213D00ABD011213D004
:102BA30060BE011213D0D6BE011213D009BF0112A9
:102BB30013D06DBF011213D08EC1011213D0EDC11A
:102BC300011213D0C3C2011213D0D7C2011213D002
:102BD300EBC2011213D018C3011213D048C3011260
:102BE30013D0ECC4011213D0E9C5011213D037C6B8
:102BF300011213D05EC6011213D039C7011213D0CC
:102C0300DFC7011213D065C9011213D0ACC9011279
:102C130013D019CA011213D06ECB011213D017CCE3
:102C2300011213D04BCC011213D063CC011213D079
:102C330006CD011213D082CF011213D02AD1011273
:102C430013D04ED1011213D06CD1011213D038D24C
:102C5300011213D086D5011213D0213B001213D0D9
:102C6300533B001213D0D33F001213D02240001263
:102C730013D06840001213D00B41001213D07041DF
:102C8300001213D0B441001213D01B43001213D00F
:102C93004744001213D04448001213D0C348001213
:102CA30013D0E949001213D04C4A001213D0984BA9
:102CB300001213D0304E001213D0BD4E001213D0A9
:102CC300C74E001213D0EF4E001213D0B74F0012AD
:102CD30013D04C50001213D07550001213D0A250D1
:102CE300001213D0F752001213D0C453001213D0A2
:102CF3000354001213D08554001213D03055001220
:102D030013D06255001213D0AD55001213D0E655FF
:102D1300001213D03556001213D09156001213D05F
:102D23001357001213D07857001213D0F057001224
:102D330013D09959001213D0915A001213D0D25BB9
:102D4300001213D0265F001213D08261001213D039
:102D53003B62001213D08362001213D0646400122A
:102D630013D09F64001213D0A864001213D0B1646F
:102D7300001213D0BC64001213D0DB64001213D012
:102D83008E65001213D0EB65001213D0F5650012A7
:102D930013D0FF65001213D04B66001213D0936655
:102DA300001213D09767001213D03068001213D0AB
:102DB300F768001213D0216A001213D04C6B001273
:102DC30013D0426C001213D05A6C001213D08E6CC5
:102DD300001213D0AC6C001213D0F46C001213D099
:102DE3002D6D001213D0E46D001213D0A56E0012E6
:102DF30013D0186F001213D0946F001213D03070D9
:102E0300001213D05671001213D01272001213D095
:102E1300B272001213D09F73001213D0F773001213
:102E230013D0BD74001213D0E074001213D0F575E3
:102E3300001213D04076001213D09C76001213D0E8
:102E43000477001213D02877001213D050770012A2
:102E530013D09577001213D0B977001213D03D78B1
:102E6300001213D02679001213D06B79001213D0FD
:102E73009479001213D0327A001213D09D7A001283
:102E830013D0C97A001213D0AA7B001213D0A8E280
:102E9300041213D0E0E2041213D001E3041213D09E
:102EA30043E3041213D0A7E3041213D0B1E30412D3
:102EB30013D0C1E3041213D0F8E3041213D0A1E733
:102EC300041213D069E9041213D04DEB041213D08A
:102ED300EFEB041213D079EC041213D056BB021299
:102EE30013D0BABB021213D018BC021213D063BCA6
:102EF300021213D07EBC021213D0A5BC021213D04F
:102F0300C2BC021213D0CEBC021213D05FBE021297
:102F130013D078BE021213D0F4BE021213D007BF2F
:102F2300021213D017BF021213D0BBBF021213D069
:102F330027C1021213D03AC2021213D0DAC202120C
:102F430013D0E4C2021213D063C3021213D074C3AA
:102F5300021213D0B3C3021213D0E1C3021213D06F
:102F6300AEC4021213D005C5021213D03EC502121D
:102F730013D094C5021213D0B2C5021213D000C6E7
:102F8300021213D0CBC6021213D019C7021213D0E8
:102F930066C7021213D0E9C7021213D013C8021274
:102FA30013D049C8021213D058C8021213D0B7C89D
:102FB300021213D02FC9021213D070C9021213D0F8
:102FC300C0C9021213D0EBC9021213D005CA0212F0
:102FD30013D01FCA021213D0F4CA021213D0FECAAE
:102FE300021213D039CB021213D049CB021213D0E1
:102FF30052CB021213D0A3CB021213D0B7CB0212BF
:1030030013D0D9CC021213D0F0CC021213D005CDB9
:10301300021213D098CD021213D00CCE021213D089
:10302300B1CE021213D0BCCE021213D01CD00212A6
:1030330013D038D0021213D084D0021213D0F2D09E
:10304300021213D024D1021213D03ED1021213D094
:1030530080D1021213D0D3D3021213D06BD4021235
:1030630013D0E2D4021213D03FD7021213D057D792
:10307300021213D05AD7021213D066D7021213D0FA
:103083007AD7021213D082D7021213D0B9D7021201
:1030930013D0ADD8021213D037D9021213D0B9D935
:1030A300021213D039DA021213D010DB021213D03A
:1030B30032DB021213D0CBDB021213D028DC021254
:1030C30013D02BDC021213D058DC021213D06DDCA8
:1030D300021213D0DCDC021213D028DE021213D04A
:1030E3003BDF021213D0C6DF021213D0D9E0021263
:1030F30013D09EE1021213D0CFE1021213D0F5E1F7
:10310300021213D0FEE1021213D02DE2021213D0E9
:10311300DDE2021213D08DE3021213D000E4021297
:1031230013D0A3E4021213D016E5021213D055E50F
:10313300021213D09EE5021213D0D3E5021213D06C
:10314300608C051213D0158C051213D07F8B0512DA
:1031530013D0F089051213D0ED8C041213D0728BA7
:10316300041213D0708A041213D03188041213D0BE
:10317300DB87041213D01E86041213D09583041226
:1031830013D00F83041213D0D9CF041213D005CF59
:10319300041213D0CB81041213D08780041213D0EE
:1031A30005CE041213D026CD041213D000800412CE
:1031B30013D09C9F061213D0749F061213D0079F3F
:1031C300061213D0A79E061213D067B5041213D0AC
:1031D3008DB4041213D0C3B3041213D032B2041249
:1031E30013D0FBB1041213D0CDB1041213D081B1AB
:1031F300041213D0EAB0041213D05AB0041213D03D
:1032030034B0041213D0E9AF041213D0B3AF0412D5
:1032130013D036AF041213D0D1AE041213D080AE44
:10322300041213D0A8AD041213D018AD041213D096
:10323300CCAC041213D047AC041213D002AC04126A
:1032430013D0E6AB041213D046DA051213D08EAABC
:10325300041213D0A7D9051213D0E5D5051213D044
:103263000AD5051213D0D4FF021213D0B9FF0212EC
:1032730013D04492051213D0E690051213D07D901B
:10328300051213D060AA041213D02DAA041213D06E
:10329300B1A9041213D04E82061213D01490051252
:1032A30013D03F81061213D07980061213D0008009
:1032B300061213D05DE2041213D0F48E051213D05C
:1032C30004E2041213D082A4031213D0CFE1041238
:1032D30013D09AE1041213D066E1041213D0F9E07B
:1032E300041213D0E1E0041213D0BCE0041213D093
:1032F30095DD041213D068DB041213D06FD90412C6
:1033030013D0FBD8041213D0ACD8041213D066D850
:10331300041213D008D8041213D02386051213D035
:10332300368E051213D09F85051213D0B48405126F
:1033330013D03C83051213D0EC80051213D0008008
:10334300051213D076900400000080FB00000000FB
:10335300201177840000010020117784000002000F
:1033630020117A84000003002011788400000400F7
:1033730042116D800000050042117E8000000600AE
:103383004211A080000007002011AB800000004024
:103393004211A0800000100042118F800000110034
:1033A300201103070000120010138A1701002000E8
:1033B3002011881701002100201189170600000041
:1033C3001011000008000000203300000C0055001D
:1033D300393300000C001C0042330000120055007A
:1033E3002001000014000E0042220000050B000023
:1033F30021010000050B010021010000050B000164
:1034030023010000050B010123010000050B02014C
:1034130023010000050B030123010000050B040138
:1034230021010000050B050121010000050B060128
:1034330021010000050B070121010000050B080114
:1034430021010000050B090121010000050B0A0100
:1034530021010000050B0B0121010000050B0C01EC
:1034630021010000050B0D0121010000050B0E01D8
:1034730021010000050B0F0121010000050B1001C4
:1034830021010000050B110121010000050B1201B0
:1034930021010000050B130121010000050B14019C
:1034A30021010000050B150121010000050B160188
:1034B30021010000050B170121010000050B180174
:1034C30021010000050B190121010000050B1A0160
:1034D30021010000050B1B0121010000050B1C014C
:1034E30020010000050B1D01280100008F000100D1
:1034F3008B1587000100FA1735000400BF1725005C
:103503000200C31726000200C51727000200C717D1
:1035130028000100D11729000100D21784000400FC
:10352300D31786000100D7172A000100D8172B00F4
:103533000100D9172C000100DD172D0008006E15BE
:103543002E000100DE172F000100DF1730000100FD
:10355300E01731000100E117320001007615330056
:103563000100771534000100E217360001007815D9
:1035730038000100E31739000100DC178300020063
:10358300F81763000100881564000100DA1765006D
:103593000100DB176D000100891571000800661535
:1035A30066000100F71743000100E817440002001A
:1035B300E91745000100EB1746000200EC1747002E
:1035C3000800801548000100EE174B000100EF17BB
:1035D30004000100FB17A1000100FE1737000100E2
:1035E300FD1788000100FC173C00010079153D0020
:1035F3000100E41749000200F017670001008A1573
:103603004D000200F2174E000100F4174F000200B4
:10361300F5173E0001007F1551000100E517520028
:103623000100E61753000100E717540001007A1563
:103633000000000000000001363601010001020114
:103643000001030100010401060605020000070151
:1036530000340801000F090401010D0100FF0E08E9
:10366300000017020000190100FF1A0100011B01ED
:1036730000FE1C0100081D0200001F0100012001C3
:103683000001210200002301000F24020000260193
:10369300000127010008280200FF2A0100072B016F
:1036A30002402C0100002D0100012E0100012F0119
:1036B30000FF30010B1D310800003A0100083B01F7
:1036C300000F3C0100013D0100FF3E0400004204E5
:1036D3000000460400004A0400004E0400005204A7
:1036E3000000560400005A040000000021010001FC
:1036F300002102000001236600010123670002018B
:1037030023680003012369000401216A00050121E4
:103713006B000601212C010701212D010801212E37
:10372300010901212F010A012130010B012131017E
:103733000C0121C8000D0121C9000E0121CA000F8F
:103743000121CB00100121CC00110121CD00120178
:1037530021CE00130121320114012133011501216E
:10376300CF001601213401170121D000180121D106
:1037730000190121D2001A0121D3000103710301B1
:1037830003010301030103010322030203010310E5
:1037930003000300030003000300030003000342CC
:1037A3000300032403060300030003040312032599
:1037B300032303250323030403040300030003007B
:1037C30003440300030003230300036503210035BF
:1037D3000381030003050300030003000300032523
:1037E30003230303007100300160001100700031F6
:1037F30002200350048000100061000000140063E5
:103803000073007200620043000000130006000012
:10381300000000040012000000000000000000048B
:10382300000400370037003C0244000000000000A1
:103833000000006500000035008100000005000065
:103843000083000000010171010101010111010167
:10385300013101010101018001100161013B0014EB
:103863000063017301720162014301000113010648
:10387300013D0135000401120100010001000100B6
:103883000104010401330133013C014401320136D7
:1038930000000100016501000135008101000105FF
:1038A30001820183010001030271023001600211F0
:1038B3000270020102020202028002100261023A55
:1038C30000410063027302720262024302000213A8
:1038D3000238000002000204021202000200020089
:1038E30002000204020402370037003C02440200D3
:1038F3000239000002000265020002350281020063
:103903000205028202830200023600010006000063
:10391300000F000000000000000000000000000392
:10392300FFFF00000403FFFF0000FFFF0FF401008F
:1039330005C4040320000100000B00000000000088
:10394300000003010F000000000000000000000061
:103953000000000000000000000000000000000064
:1039630000000000000000BA231424C023C422C6B0
:10397300231A24C6232624CC23C422C6231A24D2E2
:1039830023C422D823C422DE23C422E423C422EA8C
:1039930023C422F023C422F6232C24FC23C42200B4
:1039A300000000000000000000000002243E240884
:1039B30024C42202243E240824C422F6232C240EE9
:1039C30024C4220A000000020000000400000008D2
:1039D30000000010000000200000004000000080F4
:1039E30000000000010000000200000004000000CD
:1039F300080000001000000020000000400000014B
:103A030000AE2602002A26030030260400362605CF
:103A1300003C26060048263000602633006C26341E
:103A23000072261100782614007E2615005A26FF00
:103A3300FF000007ECFDFDFDECDCDCCCBCACAC9C7A
:103A43009C8C7C7C6C6C5C5C5C4C4C3C3C2C2C1CE3
:103A53001C03EAF5E5D5D5C5B5A595958585757599
:103A6300656555554545353525251515050ACC2C70
:103A7300029C2C05AE2C07A22C0C842C0D902CFF41
:103A8300000000160F00000B150B020002220F337B
:103A930000000E01030507090B0D0F0002040608C1
:103AA3000A0C0D5A6967426565416C6C69616E6306
:103AB300653039303017181921301B1D1F300003B2
:103AC3004A49434E181A25050200011916181616FD
:103AD30018230300303016181920231A1C1E300037
:103AE300393D3F373C3C362C442D0C0E020B040B66
:103AF3000A0708000F020402010101010902E80399
:103B0300000000BE040AE8030E00101E1E05080490
:103B1300150C040904030334FF0A0C04082874F782
:103B2300120DBCE9901656F090160BE4F0121EFE2F
:103B330090165FE4F0A3F0901657F0A3F0122E2E28
:103B4300121F0490159BE4F0A3F012281602568C62
:103B530074EC120DBC74D71214E6EAFEEBFF54802A
:103B63006068901656E0F9121F768A088B09EA45B9
:103B730009604F7C0080010CEC75F003A4F8A9F0F8
:103B8300747028F582743A39F583E493F4602CE475
:103B930093F88508828B83E06870DCAA08EC75F0E3
:103BA30003A4F8747128F582743A39F583E493C059
:103BB300E0740193F583D082120F9EAA08AB091219
:103BC3001F64EEFAEF6480023FB5EF5420601E12CB
:103BD3002D268A088B09EA4509600A122C90AA0847
:103BE300AB09121F64EEFAEF6420023FB5EEA2E0C8
:103BF300501F901610E0640F70117900122C66E9C3
:103C030060099017BF121742122C7EEE6401023F27
:103C13008AEF5440604F9017AFE064067028740B2E
:103C2300F09017D7E0F9750801750900750A00755A
:103C33000B009015FEE0780812136AAA08AB09ACD2
:103C43000AAD0B12291290157B1211E07A007B400A
:103C5300901656E0F91220C67404121402EEFAEF1D
:103C63006440023FB5EE54207003023F8E7A207BFE
:103C730000901656E0F91220D2EA4B4C4D701A9080
:103C8300165B121766E8494A4B700E750C01750DE9
:103C930000750E00750F008061750C00750D0075C1
:103CA3000E00750F001220E48A088B098C0A8D0B15
:103CB30090165B121766E8494A4B602A90165B78A8
:103CC30008121389400E750CFF750DFF750EFF75F5
:103CD3000FFF801285080C85090D8C0E8D0F901631
:103CE3005B780C1214A07401780C121487E50C4550
:103CF3000D450E450F7003023EBB7C0079047A002C
:103D03007B00122D028A088B09023DE28518828509
:103D1300198374FFF0740112177D74FFF07402129B
:103D2300177D74FF124B7BFAA3E0FB74031214C8D4
:103D3300126C27126498122D44E964016003023D5A
:103D4300C4E508125A841252CB4480F8A3E0F974F4
:103D53002412177DE8F0A3E9126403A3A3A3E0C030
:103D6300E0742612177DD0E0126A19A3E0540860AC
:103D730016742412177DA3E04401123FCDC0E074F2
:103D83002812177DD0E0F01278123509126D2560E4
:103D9300181278121263B9A3E0C8127B29E0F874F1
:103DA3001212177DE8F0A3E4F09083AB1211E074D4
:103DB300041214C874071214C01229427404121492
:103DC30002850882850983A3A3A3A3A3A3A3A3A313
:103DD3007406123FCDF9122CE4850A08850B09E518
:103DE3000845097003023EBB7C007904AA08AB09AD
:103DF300122D028A0A8B0B850882850983A3A3A34C
:103E0300A3E0F510A3E0F511E4F512F513780C79AE
:103E1300101216B24029E5082404F8E43509F9859F
:103E23000C10850D1188828983C3E09510F0A3E0FF
:103E33009511124316F8A3E0F9E849709C800E85AA
:103E43000882850983A3A3A3A3E4F0A3F0850882D2
:103E5300850983A3A3A3A3A3A3A3A3A3A3E06401AB
:103E6300850882850983A3A3A3A3A3A3702BE0548E
:103E7300046003023D0F850882850983A3A3A3A3DE
:103E8300A3A3A3A3A37406F07AB785088285098345
:103E9300124102122C78023DDCA3A3A3A3E060032A
:103EA300023D0F850882850983A3A3A3A3A3A3A32C
:103EB300A3A37401F0023DDC122CD27C0079017AB9
:103EC300007B00122D028B09EA4509600C7A207BE6
:103ED30000901656E0F9121FA0850C0A850D0B7C85
:103EE3000079047A007B00122D02EA4B701580538F
:103EF3008A828B83A3A3A3A31275BDE50898E50962
:103F03009940078A828B831256F77C007904122D1D
:103F1300028B0DA90DEA4970D7C3E50A9508E50B95
:103F230095095013C3E508950AF508E509950BF5BE
:103F330009E508450970167A207B00901656E0F9CA
:103F4300121FA090165B123FC6A3F08037E5082529
:103F5300E0F508E50933F509E4F50AF50B780812ED
:103F630014387A207B00901656E0F91220C07404AE
:103F73001214021220E4EAF8EBF9ECFAEDFB9016C6
:103F83005B12174EEE6420FAEF8027EF5402600AAB
:103F9300122E28EEFAEF64028018EF540460161212
:103FA30068DA790190160912649A122954EEFAEF2D
:103FB3006404FB80047A007B0074291214027F0CD2
:103FC3000210D8E4F0A3F0A3F022126407A3E022C6
:103FD300C082C08374EA1214E67C167D007900AABD
:103FE30018AB19121F4C740812177D7402F0901548
:103FF300FF126C38124016740912177D126B467447
:104003001312177DE412682A12280A741612140276
:1040130002647AE8F0A3E9F0901609125F1722749C
:10402300F7120DBC74DA1214E6EAFEEBFFEE4F60F2
:104033002DAC18AD19122D44740612177DE0601EC5
:10404300741712177DE0FD740112177DE0FCEEFA80
:10405300EFFB7900122C3CE9600479A4800279001B
:10406300742602568974F7120DBCEAFEEBFF8E82AA
:104073008F83A3A3A3A3A3A3E05440601712758166
:1040830012649A122DD4E960067AFF7BFF80151221
:10409300758180039015FF12649A74FE6A7003742D
:1040A300FF6B6047127581127150122DD4E98E8215
:1040B3008F83600E125BC0125A8438F583E4F0A339
:1040C3008003127B54F07C6C7D2C8E828F83126470
:1040D3009A122810E9F5087015EE4F60097901EE80
:1040E300FAEFFB122CDEA90802568C7508CDAA083C
:1040F3001240FE122C78E960E080EB8E828F8312EF
:104103005BC4127B0CE0F92274F6120DBCE9FEEAE3
:10411300FF7A0F7B00121F5EEA4B601F8A828B833C
:10412300740CF0EEA3A3F0EF8A828B831254699090
:104133001656E0F9121F6A7900802FEEF9122D0846
:104143008A088B09A808A909E849601C8882898321
:10415300A3A3A3A3A3A3A3A3A3740612781AE0F9AA
:104163001229E4EEF9122CE479100267E874F412D0
:104173000DBC8A088B098C0A8D0B901610E0640F16
:10418300702CEA4509450A450B602390160BE06441
:10419300086005E06404701678081214387A017B0D
:1041A30000901656E0F91220C0740412140202445F
:1041B3004274F4120DBC74FC1214E6EAFEEBFF8E9B
:1041C300828F83A3A3E0F9122D088A088B09EA459D
:1041D3000970030242F18E828F83A3A882A983E030
:1041E300C0E0EA240B1263B6D0E012431664F16018
:1041F300288E828F83A3E064CD601E8E828F83A37B
:10420300E0641A60148E828F83A3E064E9600A8EEF
:10421300828F83A3E064E170367900122CDEE960BB
:104223002EE5082404F50AE43509F50B8508828593
:104233000983124302A3E0F9850A82850B83126482
:104243009A121F10850A82850B83127150806E8E1D
:10425300828F83A3E0C0E0740212177DD0E0124E78
:1042630024127B96124E16C0E0740312177DD0E021
:10427300F0E508240C1252C8AA18AB1970051229CC
:104283003C8003122DBC740212177DE064E9702D8B
:10429300850882850983124B90750A01780A1214E6
:1042A30044750AE9780A1214441252BE124E0612D9
:1042B30056CB12649A122D7A740212140285088264
:1042C300850983A3A3A3A3A3A3A3A3A3E064027069
:1042D30012850882850983A3A3A3A3A3A3A3A3A3EE
:1042E3007406F08E828F83A3A3E0F9122CE4122CC0
:1042F300D29017C5124832122C7E740402443FA395
:10430300A3A3A3A3A312430C22E0FCA3E0FD8E828C
:104313008F832212782AE02274F4120DBCEAFEEB9A
:10432300FF7508008E828F83A3A3A3A3A3E0604835
:104333007508088E828F83A3A3A3A3A3A3A3A3A318
:1043430012649A79FF122ACE8B0BEA450B60107523
:10435300082C8E828F83A3A3A3A3A3E0D2E0F08EC5
:10436300828F83A3A3A3A3A3E05403640160030286
:10437300443B43081102443BEE2418125980603831
:10438300EE241A1259806003F470131274A7700399
:10439300A3E069600302443B75082202443BEE2418
:1043A3001B12738FEE241A125980FAEE2419125934
:1043B30080F91229D202443B8E828F83A3A3A3A345
:1043C300A3A3A3A3A312649A122DD4E964027003D6
:1043D3007508011274A77003A3E0697006E508D29B
:1043E300E1F508E50860158E828F83A3A3E07006CC
:1043F300E508D2E58004E508D2E6F5088E828F83CE
:10440300A3A3A3A3A3A3A3A3A312649A122DD4E9E2
:1044130064017006E508D2E0F5088E828F83A3A3BA
:10442300E06015EE241D1257DEF9122DC2E9640176
:104433006006E508C2E0F508A90880031214027FAC
:10444300040210D874F0120DBC74D71214E6EAFEFD
:10445300EBFF8E828F83A3A3A3A3E060119017C306
:10446300126D2760099017C3124832122C7E740311
:104473001214C88E828F83A3A3A3A3124DF71264D1
:104483009A122D44E970030245E07801740512176E
:104493007DE0C3940240027800740712177DE0C3E5
:1044A300940240027800740C12177DE064F87003E4
:1044B300A3E0F470030245E0740C12177DE064F985
:1044C3007003A3E0F470030245E0740C12177DE05F
:1044D30064FA7003A3E0F470030245E0740C12174E
:1044E3007DE064FB7003A3E0F470030245E074060F
:1044F30012177DE0F99015F9E06960030245E0E8E1
:10450300A2E040030245E0742712177DE060030236
:1045130045E0EE2413125F0D742212177D126A0117
:10452300241C125F0D741012177D126B467409124E
:10453300177DE0601F741A12177DE0FD74041217D3
:104543007DE0FC8E828F83A3A312649A7901122CDF
:104553003CE9703D74031214C0122C8AE9F5087407
:104563000912177DE0702E9015F3E0602874225530
:104573000864226020744255086442701474201247
:10458300177D12483E600E742012177D12481B607F
:10459300047ACF804AE9A2E6504D742012177D12A7
:1045A30057E424FD600F14600C24FD600824FD60B3
:1045B3000424FE7028742012177D124814700E74A0
:1045C3002012177D126792A3E0640D601A74031220
:1045D30014C0122DECE96401700D0248077AD37BF5
:1045E300001225FA024807EE242DF582E43FF583F5
:1045F300124B6E7003A3E0697022750900780912EB
:1046030014447809121444EE242F125980F91248E5
:1046130022126494122D7A7402121402740912176E
:104623007DE070030246C3124822126494122E5294
:104633008A0A8B0BEA450B70030247607404121756
:104643007DE0F88E828F83A3A3E028F8A3E03400F3
:10465300F9E8240D12480CF88A828B83A3A3A3E004
:1046630068600EE88A828B83A3A3A3125462123F6D
:10467300C77904E912177D124DEEE02AF8A3E0345E
:10468300008882F583A3AA82AB83121F528A0C8B04
:104693000D8C0E8D0F850A82850B83A3A3A3A378AC
:1046A3000C121389400302480790840F780C1215EB
:1046B300B3850A82850B83A3A3A3A3780C1216FFE9
:1046C30090160BE064046008E06409600302480785
:1046D300E508A2E5400302479AEE242F125980858C
:1046E3001882851983F0EE2430125980C0E07401DA
:1046F30012177DD0E0F0EE2431125980C0E074022D
:1047030012177DD0E0F0741412177DE06401702C51
:10471300740E12177D1252D8241312598068700335
:10472300A3E0697017740C12177D12649A122DD4CA
:10473300E964027007741412177DE4F0EE2425F582
:1047430082E43FF5831211E074041214C874071253
:1047530014C012294274041214020248079016501E
:10476300E0640160030246C3742012177D12483EC1
:104773007009E508A2E650030246C3741012177DC0
:10478300E0F47003A3E0F4607BEEFCEFFD7403122E
:1047930014C0122C96806DA2E65069742012177D06
:1047A300126C0E7016741A12177DE0640270557441
:1047B300031214C07900122DB68049742012177D9C
:1047C30012481B7014741A12177DE0640470357458
:1047D300031214C0122DAA802B742012177D1248C5
:1047E30014700C790074031214C0122DF880157420
:1047F3002012177D126792E0640C70087403121480
:10480300C0122E1074290252EFF582E439F583E0C9
:104813002212758BE064032212758BE0640722EE8B
:10482300242BF582E43FF583127399EE241322E0DF
:10483300F508A3E0AA08FBE4FCFD221256E7640690
:104843002274F4120DBCEAFEEBFF8C088D0990155F
:1048530076E0600F1274A77003A3E0697005122954
:10486300C0805A79008E828F83A3A3A3A3A3A3A39B
:10487300A3A312649A1229F08A828B83E58245836B
:104883006033A3A3A3A3A3A3E054186028E50824DB
:104893001C1263B61211E4E50824131263B6121155
:1048A300E4EE2418125980F9126481122A02740466
:1048B300121402800879001264811229C60244424C
:1048C30074F7120DBC74F71214E6EAFEEBFF9016B0
:1048D3000BE06403600DE064016008E064096003B9
:1048E3000249DB8E828F83A3E060030249A17C002F
:1048F3007D007A027B00121F0A1275C78A828B839E
:10490300125F139015FC126B4679531227F8901619
:104913000BE06409600990160912649A122E4C8503
:104923001882851983740112682A79421227F89034
:10493300160B7404F074011214C0794A1227F2742E
:10494300011214C87A017B161221DA9017AFE064C2
:104953000B70057406F0800B790090160912649AA7
:104963001229549015FC1273957A037B00121F0AC7
:104973009015FF1273957A047B00121F0A9015F6A7
:10498300E0A2E35004D2F08002C2F0126820795210
:104993001227F89017BF121742122C7E8037FC7D26
:1049A300007A037B10121F0A9017AFE0640B7003A9
:1049B300740AF09017E5E4F0FA7B40901656E0F99C
:1049C3001220CC8E828F831249E212649A122954E8
:1049D30090160BE4F0122CC07409025689E0F8A378
:1049E300E0F990160922C082C08390159B126D27AF
:1049F300701F90160BE014600924FC600A14600C0D
:104A0300800F9015A580349015A1802F9015A38059
:104A13002AE849600890159C124E00700C8A828B1C
:104A230083A3E0F9122948801D90159B126C14642E
:104A3300027005122E1C800E90167A126D276006E6
:104A4300126793120F9E02647A74F4120DBC74FE03
:104A53001214E68A088B097A007B04901656E0F953
:104A63001220CCAA18AB1979501227F27A0F7B00C7
:104A7300121F5E8A0A8B0BAE0AAF0BEE4F602085C6
:104A83000882850983A3E07016901609E0F4700389
:104A9300A3E0F4603B124B687003A3E069603185C7
:104AA3000882850983A374EA124E1C1227F87AFF41
:104AB3007B15794B1227F87A097B1679501227F860
:104AC3007AFE7B1579E11227F8EE4F7003024B5CF7
:104AD3008E828F837402F0901609E0F47003A3E0D2
:104AE300F4600A124B687003A3E069704F85188263
:104AF3008519831249E0E8F0A3E9124E1C1227F24C
:104B03009015FC1252DD126B467AFF7B15794B121E
:104B130027F27AFE7B1579E11227F2750A00780AEB
:104B2300121444780A1214449017A51249E3125040
:104B33003D12649A122D7A7402121402850882853A
:104B43000983124B61A3F090160B7403F0EEFAEF96
:104B5300FB901656E0F9121F6A740202443FA3E069
:104B63008E828F8322851882851983125F17901690
:104B730009E06822E8F0A3E9124B7F22F08508825E
:104B8300850983E022F582E43BF583E022125F1777
:104B9300E8FAE9FB2274F5120DBC74D11214E68A0B
:104BA300088B098A828B831257D6741C1214C88A05
:104BB300828B83A3A3A3A3A3A3A3A3124E0612646E
:104BC3009A122CC6741C12177DE0702C85088285FE
:104BD3000983A3A3A3A3A3A3A3A3E0C3940B401894
:104BE3008E828F83A3A3A3A3A3A3A3A3E0640270D2
:104BF30007126B32E0F46003024DE990160BE06498
:104C0300027003024CD0E064067003024CD090158E
:104C13009B126D276008124E007003024D00901620
:104C23000BE064086008E064046003024DE9741E4D
:104C330012177D124DEEA3A3A3A31257D690159B73
:104C4300E0F8496007126C1A64026077901609E075
:104C53006E7003A3E06F6003024DE974016A60168E
:104C6300742312177DAC82AD837A1D7B161221D477
:104C7300E96003024DE97A007B02901656E0F912CF
:104C830020D2EA4B4C4D6003024DE990160C1217EB
:104C93006685188285198312174E901612E0C0E0BC
:104CA300740412177DD0E0F0740512177D7401F0BF
:104CB300740612177D740212682A122906E960032A
:104CC300024DE6EEFAEFFB122E16024DE990159B0C
:104CD300126D27702875080078081214447808129A
:104CE3001444EE2410F582E43FF583124DF7A3122A
:104CF300430212649A122D7A74021214028E828F66
:104D030083125F13740712177DE8F0A3E91252E3CD
:104D1300125F13740912177D126A01125EACC0E0B0
:104D2300740B12177DD0E0124E16F508A3E0F509B7
:104D3300740F78081216F0740C12177DE508F074DE
:104D43002012177DE0C0E0740D12177DD0E0F074DF
:104D53002212177DE0C0E0740E12177DD0E0F074CC
:104D63001D12177DE0C0E0741012177DD0E0F074BF
:104D73001E12177DE0C0E0740F12177DD0E0F0EE35
:104D83002410125980C0E0741112177DD0E0F07422
:104D93002112177DE0C0E0741212177DD0E0F07489
:104DA3002E12177DE0C0E0741312177DD0E0F0746B
:104DB3002312177DA982AA8389088A09750A0078B4
:104DC3000812143C7C087D00741712177DAA82AB6D
:104DD30083121F40740312140274071214C01229A1
:104DE3004E800312290C742F0257E8E0FA8E828F4B
:104DF30083A3A322E0F98E828F83A3A322126C1BC9
:104E0300640122E0F98A828B83A3A3A3A3A3A3A3B0
:104E1300A3A322F0126B36E022F07AFC7B157953C0
:104E230022124E2822F08518828519832274F212E9
:104E33000DBC74F81214E6EAFEEBFF8C0A8D0B89A5
:104E43000D90826DAC18AD197408121329750C00FE
:104E5300EEFCEFFDAA18AB191221D4E97003750C0F
:104E630001901657801AEEFCEFFDE508240BFAE4D7
:104E73003509FB1221D4E97023E50824141263B623
:104E8300124EB56024E50CA2E040DB85088285095B
:104E930083E0650A7004A3E0650B70DD85088285F5
:104EA3000983A3A3E0650D70D0AA08AB09740802B7
:104EB300547D1256FFE508450922C082C08390162F
:104EC3005702647774F7120DBC9016571278388026
:104ED3000C126F851257D9121FFAEEFAEFFBEA4B49
:104EE30070EF901657E4F0A3F002568C74F1120D94
:104EF300BCEAFEEBFF890A8C088D098E828F83E062
:104F03008C828D83125EDBAE82AF83E0126220124D
:104F13006427C4126220124FAEE012622712642586
:104F2300A2E2E4338C828D83126424131313541F7F
:104F3300126220126423A2E7E4338C828D83A3A33D
:104F4300A3A3124FAE8E0C8F0D750E00780C1214A6
:104F53003C7C087D00E5082407FAE43509FB121FB1
:104F6300407403121402EE2408FE50010F8E0C8FBE
:104F73000D780C12143C7C037D00E508240FFAE441
:104F83003509FB121F407403121402E50AC3940F80
:104F930040118E828F83A3A3A3E0C0E01263B2D03B
:104FA300E080041263B2E4F00275C2A3A3125EDFD1
:104FB3000EAF832274F5120DBC8A088B098A828B8B
:104FC30083A3AE82AF83E0F912296C8E828F83E0D4
:104FD30064EB6024850882850983A3E064E160189B
:104FE300850882850983A3E064F1600C85088285C6
:104FF3000983A3E0641A7009850882850983A3E401
:10500300F09017BF121742122C7E750A01780A120C
:105013001444850882850983A3E0F50878081214EF
:1050230044790090160912503D12649A122D7A7435
:1050330002121402122CD20257EB1273999015FF2D
:1050430022EAF0A3EBF002647A74F6120DBC901618
:105053005AE0701B7C0079017A007B00122D02EA72
:105063004B600C8A828B83126D276003122C7202B1
:1050730067E8C082C0837904122CFCE9F8903B10E6
:10508300E493C398401079FF122CFCE9F8903B1489
:10509300E493C398500479018002790002647A741E
:1050A300F0120DBC8A088B09890B750C008A828B60
:1050B30083A3A3A3A3A3A3A3A3E0F9122D088A0E9A
:1050C3008B0FAE0EAF0F750A01EE4F600302519CBA
:1050D300850882850983A3A3A3A3A3A3127395853C
:1050E3000882850983A3A3A3A3A3A3A3A3E0F985AC
:1050F300088285098312649A122CF08A0C8B0DAEF8
:105103000CAF0DEE4F70030252B78E828F83A3A3B1
:10511300A3A3E4F0A3F0E508240CFAE43509FB8A21
:10512300828B83E0C0E01252BED0E0F0E508240D8C
:105133001252D1240D126B40122DDAEE240F12718C
:105143004AE50824111252D12411126B40E50824B8
:10515300131252C8C0E01269EAD0E0F0750C01EEF8
:105163002406125EA0547FF0A3E054FC12431654AD
:105173000460030252119017D1E0F5087509007419
:105183000778081216258E828F83A3A3A3A3A3A354
:10519300E04508F0A3E04509F08E828F83A3A312B4
:1051A30056F7740778081216F0E5085407FCE50B68
:1051B300606C8E828F83A3A3A3A3A3A3A3A3A374CF
:1051C300021264281255A2600B9015F71252DDA348
:1051D300A3126B46EC7003025285EE2406127B1574
:1051E300547FF508A3E054FCF509EC24FFF50EE425
:1051F30034FFF50F7407780E121625E508450EF8EF
:10520300E509450FF98A828B83126B4680748E827F
:105213008F83A3A3A3A3A3A3E0448002519BEC70B9
:1052230005750A00805C8E828F83A3A3A3A3A3A327
:10523300E05420600C121F58EA547F7900245F80E9
:10524300198E828F83A3A3A3A3A3A3E05410601A90
:10525300121F58EA540F7900240A5001098E828FD5
:1052630083A3A3A3A3F0A3E9800D8E828F83A3A3BB
:10527300A3A37401F0A3E41252E37404125525129C
:105283001FA0E50CA2E0502F8E828F83A3A3A3A3BC
:10529300126F0BE0F9EEFAEFFB122CF6E96018122D
:1052A3006D1E6009EE240F126494121FFAEEFAEFDA
:1052B300FB121FFA750A00A90A8034EE240CF5824A
:1052C300E43FF58322F582E43509F583E022F58294
:1052D300E43509F583125F17EE221275EBA3A322BF
:1052E3001252E722126163A3A3A3A3221214027F23
:1052F300080210D874F4120DBC74F71214E67E0081
:10530300122D08EA4B70030253BD8A828B83A3A339
:10531300A3A3A3A3A3A3A3E0640660030253BD8ACC
:10532300828B83A3A3A3A3A3A3A3E0FF8A828B837C
:10533300127B39E0C0E0740812177DD0E01256DE0C
:10534300F8A3E0F9851882851983126B46122D1A8A
:10535300EF540860638518828519831273957A0068
:105363007B00122CEA8B0BEA450B704C127B8812E4
:1053730028227C007D007A007B0080288E828F8328
:105383001257E4F47003A3E0F4602D90160912435E
:105393000812649A12281CE9641A601C7C007D00C0
:1053A300EEFAEFFB122CEA8A0A8B0BAE0AAF0BEE76
:1053B3004F70C979001228287E01EEF9740902445E
:1053C3003FC082C083EA4B700590165F80068A82D5
:1053D3008B83A3A31255DA60208A828B83A3A3A3B2
:1053E300A3A3A3A3E0540860E5EC4D60101255E1BC
:1053F3007003A3E06D70D780047A007B0002647AA7
:1054030074F2120DBCEAFEEBFF890A8C088D097A4F
:10541300147B00121FF4EA4B603A8A828B83A3A3A6
:10542300A3A3A3A3A3A3A3E41256D3A3E50A1275CC
:1054330092A3127B941254621256F11254698A8217
:105443008B831275AFEA1278143BF583E4F01254A0
:1054530059F0A3F08027A3F08A828B83A3A322129F
:1054630075A6E4F0A322A3F01254743BF583E4F091
:1054730022EA12680F22A90A74031214027F060299
:1054830010D874F4120DBCEAFEEBFF89088C0A8D68
:105493000BEE4F70030255207401650870127901F9
:1054A300122CFCE9F8903B11E493C3985022801628
:1054B3007404650870147904122CFCE9F8903B100D
:1054C300E493C398500A7911805574026508704DAE
:1054D3008E828F83A3A3A3A3A3A3A3A3A3E50812ED
:1054E3005EDBA31271E9E4F0A3F090165F126D275F
:1054F300601A8003E0F8A3E0F988828983A3A312EA
:1055030055DA88828983A3A370EA800390165FEE3D
:10551300F0A3EF125525121FA07900800279C10272
:105523004442F07A207B00901656E0F922C082C0F4
:1055330083E9F8790090165F801D8A828B83A3A389
:10554300A3A3A3A3A3A3A3E068600574FF687001EA
:10555300098A828B83A3A31255DA70DE02647A74FC
:10556300F7120DBCEA4B700590165F80068A828B9A
:1055730083A3A31255DA60208A828B83A3A3A3A3F8
:10558300A3A3A3A3A3E06970E4EC60108A828B83D6
:10559300E01255A270D780047A007B0002568CF883
:1055A300A3E0C8127B60E0540422C082C08390163B
:1055B3005F80068A828B83A3A31255DA60128A82E4
:1055C3008B83A3A3A3A3A3A3A3A3E06970E5800490
:1055D3007A007B0002647A127838FBEA4B22125677
:1055E300E36C2274F2120DBC8A0A8B0B8C0C8D0DAA
:1055F300750800750900EA450B603090165F800658
:105603008E828F83A3A31257D9EE4F601EAC0CADCD
:105613000DEEFAEFFB850A82850B83120F9EE96478
:105623000170DDEEF8EFF988088909AA08AB0902D1
:10563300548074F7120DBC90165F125F137C007DCB
:1056430000800DE8FCE9FD88828983A3A3125F1320
:10565300E8496030EA687002EB6970E790165F1200
:10566300649AE86A7002E96B88828983A3A370084D
:10567300125F1390165F8009125F138C828D83A3D0
:10568300A3126B4680031214027F010210D874F731
:10569300120DBCEAFEEBFFEE4F602B122D141257D6
:1056A30007126498121FFA8E828F8312649A121F54
:1056B300FA126D1E6009EE240F126494121FFAEEA3
:1056C300FAEFFB121FFA80C11273998A828B83222D
:1056D3001256D7221275AAA3A3A322F01256E322CD
:1056E3008A828B83E0F8A3E0F5838882E022125656
:1056F300D7A3A322A3A3A3A31256FF22E0F508A3D3
:10570300E0F509228E828F83125BC4125BBA3822C2
:10571300C082C083EAFCEBFDEC4D6017EC24FBF583
:1057230082ED34FF126D25700712576DE0F46007A8
:10573300121F6479058030901656E0C0E012576D51
:10574300D0E0F0903B1CE493F97A617B16121F9A28
:10575300E9640170107A007B20901656E0F9121F5D
:10576300A079008002790402647AEC24FFF582EDCB
:1057730034FFF5832274F4120DBCA2AFE433F508B1
:10578300C2AF9016611257D9EE4F603AEE24FBF583
:1057930082EF34FF126D257A007B20901656600746
:1057A300E0F9121FA08005E0F9121FA6E4F50AF53F
:1057B3000B780A121440EEFCEFFD7A617B16121F80
:1057C300947402121402E508A2E092AFEEFAEFFB22
:1057D300024442A3A3A3127201FF22F582E43FF520
:1057E300831256E7221214027F030210D874F212B6
:1057F3000DBC74FA1214E6EAFEEBFF750AFE750B94
:10580300FF122CD8E960057911025978EE2415129C
:10581300598060359017EFE0C43354E0F8E0333338
:1058230054FC48C0E0126129D0E0127B69FAA3E07E
:10583300FB79FF122ACE8B09EA4509600C750AFF32
:105843001269EE1268D4D2E0F08E828F83A3A31282
:10585300649A122DD4E96006EE24121267F7EE243F
:1058630013125980700D903B0EE493C0E01269EA65
:10587300D0E0F08E828F83E0A2E7500454038019B6
:10588300EE241412598070129015E8E0C0E0125E05
:1058930096D0E0F09015E8E004F012597D640170B1
:1058A300169017DAE0600D9015F3E0700A8E828F80
:1058B30083E070031267F48E828F83E064017011BA
:1058C300EE240B1257DE64027007125994E0444031
:1058D300F0AC18AD19EEFAEFFB122D3E8A088B09D6
:1058E30074FE650A700374FFF4700D8E828F83A3B8
:1058F300A3E0F50AA3E0F50BEA450960748E828FF5
:1059030083E0C0E0740112177DD0E0F07404121735
:105913007D1275AFEE241E125F0D740212177D12F5
:105923006B4674011214B8880C890D780C1214405C
:10593300EE24201259881214441259941211E4EEE1
:10594300240E1259881214449015FC1211E47408A1
:1059530012177DE0F9AC0AAD0B122D38740812143E
:1059630002E9FE74106E700BAA08AB09121FFA80CD
:10597300027E10EEF9740602547DEE2411F582E4E2
:105983003FF583E022F582E43FF583E0F50C780CE4
:1059930022EE1269F622C082C08374D71214E690F5
:1059A30081C974031214C874261213298A828B8343
:1059B300A3A3A3A3125F13740E12177DE8F0A3E948
:1059C30012545A125F13740C12177D125A8A125A08
:1059D30084124B8BC0E0741A12177DD0E0F0126F63
:1059E3008F125F11742012177D125A8A2415124BDD
:1059F30088C0E0740812177DD0E0F0EA241CF58219
:105A0300E43B125F11741212177D125A8A24111289
:105A13004B88C0E0740912177DD0E0F0EA2412121B
:105A23004B88C0E0740712177DD0E0F0EA241EF51E
:105A330082E43B125F11742412177D125A8A2420C8
:105A4300124B88C0E0742612177DD0E0124E2474E6
:105A5300FFF0740112177D74FFF0740212177D7446
:105A6300FFF09083AB1211E074041214C874071290
:105A730014C01229427404121402790074290240DA
:105A830010240DF582E422E8F0A3E9F0EA2274F48D
:105A9300120DBC74EC1214E6EAFEEBFF8C0A8D0BBC
:105AA30089097508107A217B00121FF485188285F5
:105AB3001983127150851882851983126D2770031B
:105AC300025BB37C217D007900851882851983E010
:105AD300FA121F4C90160912649A8518828519834D
:105AE300125BC02409F582E43812714E7420121738
:105AF3007D125F13741112177DE8F0A3E9125BCADC
:105B0300127B23125BCA127B407402125F1DF812D0
