:020000040000FA
:060000000216C20209DF36
:03001300020A01DD
:03002B000213E5D8
:03003300020C2C90
:03003B00020A5660
:03004B0002134A53
:0300530002090E91
:03005B000211A3EC
:030063000211BEC9
:03006B00020BCFB6
:03007B00020C0371
:1000830002097001010020FD0002012F050000009C
:1000930001EE1CFA1C0000001D0C1D0000000012E4
:1000A3001D361D3C1D421D0000000000000000FF26
:1000B300FF01010204081020408001FFFF090D0128
:1000C3000104010001000000000000000612FFFF10
:1000D300FFFFFFFF01010104004814000000E803D3
:1000E3000000FFFFF014E803000064006400B8019F
:1000F300A0BB0D00A0BB0D00020200F8FF07050224
:100103001E0401051E02051E020A0A010108080356
:10011300102702803E0102FEFFE8030A050001FFEB
:10012300FF020A1401E0C503423F1A51123FF304D0
:10013300B53F0000803E05030101FFBC380000000D
:1001430000903700000000FF000000FF00C082C0E5
:10015300831202AD600814601214601C802BEA60E5
:1001630005EB42808023E85280801EEA6005EB4263
:10017300908016E852908011EBC39420500BEA60F4
:1001830005EB42A08003E852A002021BC082C08399
:100193001202AD600814602C146050807BE852F3A7
:1001A30074016A601274026A601574046A7003EB66
:1001B300428FEB42FD806153F7DFE8528F80F343B8
:1001C300F72080F6E852F474016A601274026A60E0
:1001D3001574046A7003EB42F6EB42FE803A53F760
:1001E300BFE852F680F343F74080F6EBC394205008
:1001F30027E852F574016A601274026A6015740488
:100203006A7003EB42F7EB42FF800D53F77FE8522E
:10021300F780F343F78080F6D083D08222C082C078
:10022300831202AD600814602B14604E806CE85298
:10023300F352FD74016A600F74026A600F74046AFA
:100243007058EB428F805353F7DF800343F720E866
:10025300528F8046E852F452FE74016A600F7402B2
:100263006A600F74046A7032EB42F6802D53F7BF55
:10027300800343F740E852F68020EBC39420501AE2
:10028300E844E0F852F552FF74016A601074026AA0
:10029300601374046A7003EB42F702021B53F77F87
:1002A300E852F780F543F78080F6E95407FC748D34
:1002B3002CF582E43417F583E0FBF4F8E9C4540F1A
:1002C300540322C082C0831202AD6008146012146A
:1002D300601C802DEA6005EB42FD8025E852FD801D
:1002E30020EA6005EB42FE8018E852FE8013EBC360
:1002F3009420500DEA6005EB42FF800574E04852FC
:10030300FF02021BC082C0831202AD600814601595
:100313001460228034EA6005EB42808003E8528057
:10032300EB42FD8024EA6005EB42908003E85290A3
:10033300EB42FE8014EBC39420500EEA6005EB42BF
:10034300A08003E852A0EB42FF02021BE9C4540F52
:1003530054036007146013146020227801E8F4FB4F
:10036300EA602014602114601522740F59C39404A9
:100373005004780280E7780480E3780880DFE58C16
:10038300586004EB528C22E8428C221216D2601D74
:100393001216E17005191919801A12153B701F12F4
:1003A3001563C37003E66733191919400718181842
:1003B3002208080874FFF618F618F618F622121524
:1003C300636017121787702192F0121790701950FB
:1003D3001720F014080808090909E7F61819E7F6C1
:1003E3001819E7F61819E7F62212179060E6E8697C
:1003F300701F0808E62480F608E436F618547FB424
:100403007F0CE654806007F6E418F618F6221818F5
:1004130022E9C6CC08C6CD08C6CE08C6CFC0E0E8E0
:10042300C0E0EAC0E0EBC0E009E9F809E7FA09E750
:10043300FBE6F918E6F8C3EC98ED99EE9AEBC2E700
:10044300F5F0EFC2E795F0500E600CEBCFFBEACE70
:10045300FAE9CDF9E8CCF8EAA2E7D2E7FAEB33FB05
:1004630013F5F0EEA2E7D2E7FEEF33FFC5F013A2D8
:10047300E730E601B313C5F0C3C0E0C0F07F00C3AB
:100483009BFB605E9418600F401D14601AD0E0233C
:10049300F9D0E0F802056F8AF0E9486003D2F0E48E
:1004A300AFF0FAF9F8803BEB30E40D89F0EA600332
:1004B300D2F0E4AFF0F9CAF8EB30E30D88F0EF6067
:1004C30002D2F0AFF0E4CAC9F8EB54076014FBC3DF
:1004D300EA13FAE913F9E813F8EF135002D2E0FF35
:1004E300DBEDD0E0C0E030E739C3E49FFFF5F0EC8B
:1004F30098FC42F0ED99FD42F0EE9AFE42F0D0E016
:10050300F9D0E0F8E5F0607AE923F9EE20E742D884
:10051300028067C3EF33FFEC33FCED33FDEE33FEB4
:1005230080EAEC28FCED39FDEE3AFED0E023F9D069
:10053300E0F84002801BC3EE13FEED13FDEC13FC49
:10054300EF135002D2E0FF08B800067F7F74FF80EC
:100553002EEF3350178CF020F00260100CBC000C0F
:100563000DBD00080EBE000408E860DFE933E813A0
:10057300FFEE2313FE4F4D4C8008E95480FFE4FE49
:10058300FDFCEE33EF33F47004FCFD7E80D0E0FB22
:10059300D0E0FAD0E0F8D0E0CFC618CEC618CDC66A
:1005A30018CCC6F9221216D2700418181822121683
:1005B300E1700D74FFF61819F61819F61819F622DA
:1005C300E7548066F6121790700F12178770F014B5
:1005D300F608F608F608F680D1121787700CF608AD
:1005E300F608768008E6447F80EC121566700C12DC
:1005F300153E60BFE65480F6E480BB12153E7005DD
:1006030019191980A5E869700C763F18768018F6D9
:1006130018F6E8F922E6CDC0E018ECC0E0E633CDE9
:1006230033CDD313F6E719FCE7191933CC33C3944D
:100633007F400ECD9D502408E65480F6E418F680E2
:100643000FF4043D14501408E6447FF6187680E452
:1006530018F618F6D0E0FCD0E0FD22CCD313CCFD85
:1006630018E4C6CBC0E018E4C6CAC0E00808ED0829
:10067300C633E613F618E433C675F003C3CA97CA44
:1006830009CB97CB199C40047D08802EBD00030243
:10069300075116B6FF050606081618C3CA33CACB98
:1006A30033CB33CA27CA09CB37CB193CC37D088068
:1006B3003E187D0820E75CC633C6CA33CACB33CBAA
:1006C30033DDF1D5F0EB30E77BCA97CA09CB974A04
:1006D300CB199C406F4B7025E620E0218066187D86
:1006E30008C3CA97CA09CB97CB199CD3C633C6CACA
:1006F30033CACB33CB3350C9DDE7D5F0E1D3E4C6FE
:1007030036C608C636C608C636C608C636C618185C
:10071300188031C3CA97CA09CB97CB199CB34097AA
:10072300C633C6CA33CACB33CB33DD34D5F02EC67A
:10073300A2E0C640C8CA27CA09CB37194A70BECB44
:100743003CB480B90808E63308E633601F1818186C
:10075300D0E0FAD0E0FBD0E0FCD0E0FD22187D0829
:10076300CA27CA09CB37CB193CD3808013F618E4C8
:10077300B67F11F618B6FF0EF618C60470D2080835
:10078300768080CAF618F618F680C5001216D26075
:100793004F1216E16012E7548066F612153B701192
:1007A300121787703B090909F4F618F618F618F6BC
:1007B30022121563701512179008080860EAE644C0
:1007C3007FF618768018E4F618F622121790601652
:1007D3001217877012E4F608F608F608E65480F656
:1007E30009090918181822EAC0E0EBC0E0ECC0E0E0
:1007F300EDC0E0E687F0A4FBACF008E687F0A42C9C
:10080300FCE435F0FA1809E687F0A42C4B60027477
:1008130001CA35F0FCE433FB09E687F0D2F7A42CD8
:10082300CB35F0FC1908E687F0A42BCC35F0FBE4BC
:1008330033FD0819E687F0D2E7A42C4ACB35F0CD77
:100843003400FC09E687F0D2E7A42DCC35F0FDE4B3
:1008530033FA0918E687F0D2F7A42CCD35F0CA3461
:1008630000FC08E687F0D2E7D2F7A42ACC35F07A69
:100873007E20E70B0ACB33CBCD33CDCC33CC33CB7C
:100883003350147004ED30E00ED2F1E4CD3DCDCC05
:100893003CCC3B5005DA05C2F1EB547FC63308E686
:1008A3003392F0FBE73309E733C39A502D2B7019CA
:1008B3000C0D4C4D70151806E608C333700D20F16E
:1008C3000AA2F013F6E418800B4024E4F630F00299
:1008D300768018F618F618F68024D33B145010745B
:1008E300FFA2F013F6187680E418F618F6800FA22C
:1008F300F013F618E63303F618ECF618EDF6D0E02D
:10090300FDD0E0FCD0E0FBD0E0FA22C0E074F112AD
:100913000E90A2AFE433F509D2AF85A708AFA1EFDC
:100923005508FE74105E60061219B875A1EF7408BD
:100933005E60081219BE75A1F78024EFA2E092F061
:10094300E508A2E082F05017906198E0F890049DCA
:10095300E0C398A2D265D0335002E8F075A1FE75CA
:100963001A00E509A2E092AF7F02020EEFC0E07425
:10097300F2120E90A2AFE433FED2AF9061A4E0F87E
:10098300759B00E59158540860087591F7121A0693
:100993008023E59158541060087591EF121A0C806A
:1009A30014E591A2E092F0E8A2E082F05007E0C2E1
:1009B300E0F0121B749061A3E0F8E5E95854046079
:1009C3000E121B4A75E9FB906193E0A2E640F275B3
:1009D3001A00EEA2E092AF7F01020EEFC0E074F2C4
:1009E300120E90A2AFE433FED2AF9061A5E0F8E51A
:1009F300BF585404600675BFFB121B8C80D1C0E046
:100A0300C0D0E8C0E0E9C0E0C082C083A8C1E8C0AC
:100A1300E090040AE0F8748928F582E43403F5834E
:100A2300D0E0F0900409E0F8A3E0687006E5959043
:100A3300040CF090040AE004F0C394804002E4F054
:100A4300A374C6F0D083D082D0E0F9D0E0F8D0D040
:100A5300D0E032C0E0C0D0E8C0E0E9C0E0C082C06E
:100A63008390048DE0F8A3E0687008539AFBA374A5
:100A7300018022C2E990048DE0F8740128F0740D1E
:100A830028F582E43404F583E0F5C190048DE0C3D6
:100A930094804002E4F080AC120AE630F039120B85
:100AA3002B8034120AE620F01430E72B74FFFCFB92
:100AB300FA747F8022E4FCFBFA7480801AB4800805
:100AC300BC00F2BB00EF800F50EBF9E4C39AFAE4E9
:100AD3009BFBE49CFCE499C6CC18C6CB18C6CA1889
:100AE300C6F922E4C9C608CAC608CBC6D33303086D
:100AF300CCC63392F0C3947F402E94184019C9B9E1
:100B03000704CACBCC225025C309CA33CACB33CB83
:100B1300CC33CC33D9F422F4600DC9CCC313CB133B
:100B2300CBCA13CAD9F6CC22E4FCFBFA2214FCFB91
:100B3300FA22C3E498F8E499F9120B768026C3E409
:100B43009AFAE49BFBE920E7E9120B76E498F8E4D0
:100B530099F922C3E498F8E499F9120B76E498F82A
:100B6300E499F9C3E49AFAE49BFB22EB20E7CFE98B
:100B730020E7E0B90010BB0008E88AF084F8AAF087
:100B830022E4FBC8FA22EB70227B10C833C8C933B6
:100B9300C9335007C39AC3DBF280069A50012ADB9C
:100BA300EAC833F4C8C933F4C9FA2275F008E4C8B3
:100BB30033C8C933C933C99AC99B5004C92AC93B2D
:100BC300D5F0ECFBC833F4C8E4C9FA22C0E074F2F0
:100BD300120E90A2AFE433FED2AF900630E05589F7
:100BE300600FE589FA7900121E26900630E0F45270
:100BF30089C2C5751A00EEA2E092AF7F01020EEF23
:100C0300C0E074F2120E90A2AFE433FED2AF9006AE
:100C130031E0558A600FE58AFA7901121E269006A3
:100C230031E0F4528AC2EB80CAC0E074F2120E9033
:100C3300A2AFE433FED2AF900632E0558B600FE5EE
:100C43008BFA7902121E26900632E0F4528BC2E828
:100C530080A1080808EAC0E0EBC0E086F0E7A4FA48
:100C6300180986F0E7A42AFA180986F0E7A42AFAF5
:100C7300180986F0E7A42AFA1986F0E7A4FBE5F041
:100C83002AFA190886F0E7A42BFBE5F03AFA1908CB
:100C930086F0E7A42BFBE5F03AFA18180986F0E78B
:100CA300A4C5F02BFBE43AFA1908E7C5F0C6A4265D
:100CB300F6E5F03BFBE43AFA1886F0E7A4F6E5F034
:100CC3000826F6E43B08F6E43A08F6D0E0FBD0E069
:100CD300FA22080808E630E71112159F120CED08F6
:100CE3000808C64480C618181822181818E9799EEF
:100CF300C608CAC608CBC608CCC6C370207996CA34
:100D0300CBCC7019798ECBCC70137986CC700EF95D
:100D1300802ACA33CACB33CBCC33CC331930E7F276
:100D2300CCCBCA3350147004EA30E00DE4CA3ACA9B
:100D3300CB3BCBCC3CCC500209C3E913C6CC182324
:100D430013C6CB18C6CA18C6F922E4CFC0E0E4CE56
:100D5300C0E0E4CDC0E0E4CCC0E075F020E626F6C8
:100D630008E633F608E633F608E633F6181818EC07
:100D730033FCED33FDEE33FEEF33FFC3EC9709EDA8
:100D83009709EE9709EF97191919400FFFEC97FC94
:100D930009ED97FD09EE97FE191906D5F0BFECF79B
:100DA30009EDF709EEF709EFF7191919D0E0FCD0AF
:100DB300E0FDD0E0FED0E0FF222518C582C0E0E5CB
:100DC3001934FFC583C0E0E518C3958224F810AF3A
:100DD300088583198582188008858319858218D22E
:100DE300AFCEF0A3E520F0A37808E608F0A3DEFA7F
:100DF300EFF0A3E58124FAF8E608F0A3E608F0A3F0
:100E0300E608F0A30808E608F0A3E608F0A31581B6
:100E13001581D0E0FED0E0F8158115811581E8C079
:100E2300E0EEC0E022121772B90003020E7AE490DA
:100E33000331782F79158002F0A3D8FCD9FA781AF8
:100E43009000867A01BA00028007E493A3F608DAD9
:100E5300F97A5F7B1790008778CA79018015E4934C
:100E6300A3AD82AE838A828B83F0A3AA82AB838DE8
:100E7300828E83D8E9D9E77582B67583B774061273
:100E830013C775825C75833374001213C7C0D025F2
:100E930018C582C0E0E51934FFC583C0E0E518C377
:100EA300958224F310AF08858319858218800885FD
:100EB3008319858218D2AFC8F0A3E9F0A3EAF0A39F
:100EC300EBF0A37908E709F0A3D8FAECF0A3EDF06F
:100ED300A3EEF0A3EFF0A3D0E0F0A3D0E0F0A3D013
:100EE300E0F0A3E520F0A3E5F0F0A32285198385C4
:100EF3001882E0C0E0A3E0F9A3E0FAA3E0FBA37843
:100F030008E0F608A3DFFAE0FCA3E0FDA3E0FEA3FC
:100F1300E0FFA3E0C0E0A3E0C0E0A3E0F5D0A3E0DE
:100F2300F520A3E0A3F5F010AF0885831985821897
:100F33008008858319858218D2AFD082D083D0E010
:100F4300F8D0E0321215A2181818120D4D121671AE
:100F530019191922121671191919080808E618180F
:100F63001820E7E0120D4D1215A2181818220909CE
:100F730009E719191920E7DC080808E618181820EA
:100F8300E703020D4D1215A2181818120D4D121574
:100F9300A218181812167119191922E47375F01092
:100FA3008E218F2285822685832585188285198344
:100FB300E0CEA3E0CF852682852583EBC9EAC8ED81
:100FC300CBECCAC3E833C8E933C9EA33CAEB33CB42
:100FD300C3EA9EF524EB9FF523B35004AB23AA2465
:100FE300EC33CCED33CDD5F0DAAE21AF222212169D
:100FF300D2601C1216E16017121790700712178740
:101003007001D322C0D01217877006D0D0B322C389
:101013002233D0D0501430E0F6C3E7960809E796A0
:101023000809E7960809E796B32220E0D5E6970872
:1010330009E6970809E6970809E697B3221216D23C
:10104300601B1216E1601612179070071217876063
:101053000CB322C0D01217877005D0D022C322331D
:10106300D0D0501330E0EBC3E7960809E7960809A0
:10107300E7960809E7962220E0E4E6970809E69751
:101083000809E6970809E69722D083D082ECC0E0EE
:10109300EDC0E0E493A3FCE493A3FDED4C600D12DB
:1010A3001164EC24FFFCED34FFFD80EFE493A3FC1B
:1010B300E493A3FDED4C600D12126AEC24FFFCEDEA
:1010C30034FFFD80EFD0E0FDD0E0FCE493A3C0E06B
:1010D300E493C0E022851983851882E0A3FEE0A390
:1010E300F5207808E0A3F608DFFAE0A3FFE0A3C049
:1010F300E0E0A3C0E0E0A3C0E0E0A3C0E0E0A3C061
:10110300E010AF08858218858319800885821885C9
:101113008319D2AFD083D0820213CDD083D082E99A
:10112300C0E0E493A3C386F0C5F095F0F908E49317
:10113300A386F0C5F095F0700BE493A3C399400523
:10114300E9048002A3E475F002A42582F582E5F0A8
:101153003583F583D0E0F9E493A3C0E0E493C0E0E2
:1011630022C0E0C3E49396087401939618400FE4F9
:101173009366700808740193661870007019A3A32E
:10118300C3E49396087401939618A3A3400DD0E08B
:10119300D0E0D0E00210C8A3A3A3A3A3A3D0E0226E
:1011A300C0E074F2120E90C2D99017AB1211D64060
:1011B30005E0F91221507F01020EEFC0E074F21234
:1011C3000E90C2DC9017AD1211D64005E0F9122142
:1011D3005080E3E0C39400A2D265D033227404802C
:1011E3000474028000CCC0E0EDC0E0E518C39CCCE1
:1011F300AD1950011D10AF068C188D1980068C187F
:101203008D19D2AF121329D0E0FDD0E0FC22740275
:101213008000CCC0E0EDC0E0E518C39CCCAD195014
:10122300011D10AF068C188D1980068C188D19D2EC
:10123300AF1212E5D0E0FDD0E0FC221216D26025F9
:101243001216E1602012179070030217870808082E
:10125300E76670101819E766700A1819E7667004D4
:101263001819E76622F422C0E0C0F088F0E4936620
:1012730070080874019366187000A8F0A3A3700B9C
:10128300D0F0D0E0D0E0D0E00210C8A3A3D0F0D0DB
:10129300E022D083D082CCC0E0E493A36006121393
:1012A300A81470FAE493A360061214D01470FAD051
:1012B300E0FCE493A3C0E0E493C0E022C008C3E0F1
:1012C30096F50808A3E096420808A3E096420808AA
:1012D300A3E0964208A2D265D033E5087001D3D0CB
:1012E3000822CAC0E0E493A3C582CCC582C583CDDE
:1012F300C583F0A3C582CCC582C583CDC583DAE59A
:10130300D0E0CA22A2E792D65002F40430F7066373
:10131300F0FF05F0B3400384800384F40430D60562
:1013230063F0FF05F022CAC0E0E0A3C582CCC5820A
:10133300C583CDC583F0A3C582CCC582C583CDC586
:1013430083DAE6D0E0CA22C0E0C0D0C082C0837591
:10135300AF0090066EE02401F0A3E03400F0D083E8
:10136300D082D0D0D0E03270090808082260161865
:101373001818C6C333C608C633C608C633C608C65C
:1013830033C6D5E0EA22C008C3E096F50808A3E017
:1013930096420808A3E096420808A3E09645087021
:1013A30001D3D00822C0E0E493A3D39C5010E4936C
:1013B300A3C39C400AD0E0D0E0D0E00212B2A3A3C2
:1013C300A3D0E022C09FF59FE473D09F22D083D0A7
:1013D30082C09FE493C0E0740193C0E0740293F56C
:1013E3009F22C0E0C0D0E8C0E0A8A8D2AFC2C775B2
:1013F3001A00E8A2E792AFD0E0F8D0D0D0E03200F4
:10140300C0D0251810AF08F518500C05198008F541
:101413001850020519D2AFD0D0222518F58210AF8B
:1014230008F518400C15198008F51840021519D253
:10143300AF851983227404800A74038006740280C2
:10144300027401C0E0F40412141DD0E012171D222F
:10145300BB0102E722C082C08389828A83BB000367
:10146300E08002E493D083D082226017080808C684
:10147300A2E713C618C613C618C613C618C613C6E2
:10148300D5E0E9226016080808C6C313C618C613B8
:10149300C618C613C618C613C6D5E0EA22C3E0C6EB
:1014A30096F608A3E0C696F608A3E0C696F608A348
:1014B300E0C696F6222518F8E43519F9222518FA1C
:1014C300E43519FB222518FCE43519FD22C0E0E4BC
:1014D30093A36C7009D0E0D0E0D0E00212B2A3A3D2
:1014E300D0E022251810AF08F518400C1519800814
:1014F300F51840021519D2AF22C3E09608A3E0966F
:1015030008A3E09608A3E096A2D265D03322E7664B
:1015130070100809E766700A0809E766700408098D
:10152300E76622E066701008A3E066700A08A3E08D
:1015330066700408A3E06622181818E608460870C7
:1015430009E626087005E633F4220822C3E49396DD
:101553000874019396087402939608740393962271
:10156300191919E70947097009E727097005E733CE
:10157300F4220922C3E096F008A3E096F008A3E062
:1015830096F008A3E096F022C3E697F60809E697DB
:10159300F60809E697F60809E697F622181818E4FC
:1015A300C396F608E496F608E496F608E496F6225F
:1015B300E026F608A3E036F608A3E036F608A3E033
:1015C30036F622E627F60809E637F60809E637F67F
:1015D3000809E637F622E493F608740193F60874D3
:1015E3000293F608740393F622E657F60809E657C2
:1015F300F60809E657F60809E657F622E056F0081A
:10160300A3E056F008A3E056F008A3E056F022E664
:1016130047F60809E647F60809E647F60809E647E4
:10162300F622700422600D18C6C333C608C633C63B
:10163300D5E0F41822E667F60809E667F60809E636
:1016430067F60809E667F622E026F008A3E036F01D
:1016530008A3E036F008A3E036F022E056F608A32C
:10166300E056F608A3E056F608A3E056F622E4C3D4
:1016730097F709E497F709E497F709E497F72260E6
:101683000D08C6A2E713C618C613C6D5E0F322C6D3
:10169300F4C608C6F4C608C6F4C608C6F4C622C310
:1016A300E09608A3E09608A3E09608A3E09622C379
:1016B300E7960809E7960809E7960809E796227569
:1016C300D00075813F75183175190300020E28E6A5
:1016D300084608C3134608336002E633F422E709D9
:1016E3004709C3134709336002E733F422600C0848
:1016F300C6C313C618C613C6D5E0F422E6F008A382
:10170300E6F008A3E6F008A3E6F022E0F608A3E07B
:10171300F608A3E0F608A3E0F622CAC0E0E6F0A3C9
:1017230008DAFAD0E0FA22E0FCA3E0FDA3E0FEA38E
:10173300E0FF22EAF0A3EBF0A3ECF0A3EDF022E04C
:10174300FAA3E0FBA3E0FCA3E0FD22E8F0A3E9F0A9
:10175300A3EAF0A3EBF022ECF0A3EDF0A3EEF0A3E9
:10176300EFF022E0F8A3E0F9A3E0FAA3E0FB22E51F
:10177300C754F84401F5C77901222518F582E435E9
:1017830019F58322E72719471947194722E626182F
:10179300461846184622C2AF75D69F020000221291
:1017A30013D00FD4041213D0C5D4041213D0C4D54C
:1017B300041213D0F7D6041213D061BB061213D050
:1017C300D4BB061213D05ABC061213D030CC061267
:1017D30013D041CC061213D0DFCC061213D0EACCBF
:1017E300061213D0F17F001213D033D2061213D096
:1017F3004CCB061213D05CCB061213D071CB06125E
:1018030013D023CC061213D065C7061213D0E8C732
:10181300061213D04EC8061213D063AF061213D0AC
:101823009EAF061213D0F9AF061213D051B00612B1
:1018330013D0D7B0061213D013B1061213D061B16F
:10184300061213D078B1061213D002D2061213D0A7
:1018530012D2061213D015D2061213D018D20612C2
:1018630013D0F87F001213D0B2B3061213D0EAB329
:10187300061213D035B5061213D0B9B5061213D01C
:10188300FAAC061213D044AD061213D0DAAD061229
:1018930013D060AE061213D091AE061213D0A9AEC8
:1018A300061213D01DAF061213D033AF061213D096
:1018B30046AF061213D050AF061213D00AC2041259
:1018C30013D0BBC6041213D0D2C7041213D0EEC771
:1018D300041213D071C8041213D038CB041213D0DE
:1018E30028ED041213D08BED041213D03BEE041237
:1018F30013D006EF041213D05BF0041213D03BF1A4
:10190300041213D038F2041213D010F4041213D0BB
:1019130037F4041213D0C3F4041213D01DF60412C7
:1019230013D093F6041213D0D1F6041213D0E3F6B6
:10193300041213D080A6051213D04EA8051213D09B
:101943008AA9051213D04FAB051213D0F3FA011273
:1019530013D01FFB011213D090FD011213D0D0FD41
:10196300011213D010FE011213D024FE011213D062
:101973003DFE011213D02EFF011213D0D3FF01122B
:1019830013D0E7FF011213D0B0BE061213D0D4BE9A
:10199300061213D0EDBE061213D01FBF061213D0CA
:1019A3004FBF061213D07CBF061213D086BF061298
:1019B30013D0E8BF061213D0F7BF061213D001C02D
:1019C300061213D00EC0061213D064AA061213D047
:1019D30084AA061213D0C3AA061213D0DEAA0612D3
:1019E30013D0FDAA061213D063AB061213D06CAB4F
:1019F300061213D0C9AB061213D0EDAB061213D0E7
:101A0300AEAC061213D0BBAC061213D0CCAC06128C
:101A130013D0F0D0061213D008D1061213D034D14C
:101A2300061213D036EB051213D08CEC051213D02B
:101A33009AEC051213D0ADEC051213D0C2EC0512CB
:101A430013D0D7EC051213D0EAEC051213D05EEDD8
:101A5300051213D0C3ED051213D04BEE051213D0AC
:101A6300C7EE051213D08BEF051213D09BEF0512AF
:101A730013D0AAEF051213D031CF061213D055CFCE
:101A8300061213D07DCF061213D0A5CF061213D0A2
:101A930002CD061213D08FB1061213D0B6B10612BF
:101AA30013D0D4B1061213D047B2061213D0A79E97
:101AB300061213D0C09E061213D0CC9E061213D06A
:101AC300E09E061213D0FE9E061213D0089F061244
:101AD30013D0129F061213D0259F061213D0AF9F67
:101AE300061213D024A0061213D058A0061213D046
:101AF300A6A0061213D0F3A0061213D00EA106124D
:101B030013D018A1061213D03EA1061213D0A3A11D
:101B1300061213D062CA061213D084CA061213D057
:101B230014CB061213D01BD2061213D0A2930512A4
:101B330013D0CC93051213D0E993051213D0FC9361
:101B4300051213D01294051213D07094051213D0FA
:101B5300A894051213D0A098051213D0E599051285
:101B630013D0189A051213D07B9A051213D0FE9B3B
:101B7300051213D0269C051213D03B9C051213D0DB
:101B83004B9C051213D08F9C051213D0EA9C0512AF
:101B930013D0FA9C051213D0E9C3061213D003C461
:101BA300061213D02BC4061213D044C4061213D04A
:101BB30068C4061213D086C4061213D09DC406123D
:101BC30013D0CBC4061213D0E6C4061213D0D0CD63
:101BD300061213D016CE061213D0E994061213D0B0
:101BE300F994061213D00096061213D034960612F7
:101BF30013D05696061213D07996061213D09796E1
:101C0300061213D0D196061213D03697061213D0AC
:101C13007897061213D0B797061213D0E8970612D7
:101C230013D01F98061213D04EF7041213D04AF89C
:101C3300041213D068F8041213D08FF8041213D0CF
:101C430054FA041213D073FA041213D028FB0412AB
:101C530013D0EFFB041213D0FEFC041213D030FE9A
:101C6300041213D0348D061213D0898D061213D0AB
:101C7300038E061213D0168E061213D03D8E061253
:101C830013D0D08E061213D0AA8F061213D02A9D1A
:101C9300051213D0559D051213D0149E051213D0AF
:101CA300529E051213D0D89E051213D072A20512AC
:101CB30013D085A4051213D00080031213D03A80E9
:101CC300031213D03A82031213D0AB84031213D03E
:101CD3002B85031213D0DB88031213D04D89031213
:101CE30013D0E789031213D0078A031213D0C08AD3
:101CF300031213D0F98A031213D0108B031213D0DB
:101D03003C8B031213D03F8B031213D0988B031217
:101D130013D0EB8B031213D0A38C031213D08C8D2F
:101D2300031213D04690031213D06092031213D000
:101D33009392031213D0F392031213D04593031219
:101D430013D0C893031213D05C94031213D06A9672
:101D5300031213D00798031213D04E99031213D012
:101D6300DC9A031213D0289B031213D0BCB50612BE
:101D730013D067C9061213D06CC9061213D086C9D3
:101D8300061213D0C8C9061213D0F1C9061213D014
:101D93000BCA061213D024CA061213D048CA06125D
:101DA30013D0ACF4051213D000F5051213D0D0F5FF
:101DB300051213D002F6051213D02FF6051213D015
:101DC30080F6051213D0AAF6051213D0CEF605122B
:101DD30013D00EF7051213D098F7051213D0C9F7D5
:101DE300051213D0F0F7051213D036F8051213D0ED
:101DF30054F8051213D078F8051213D098F8051289
:101E030013D0CEF8051213D024BC051213D05EBC38
:101E1300051213D099BD051213D0C4FA021213D0C0
:101E230078FB021213D044C6061213D0CFC6061293
:101E330013D031C7061213D098C2051213D0B5C3FD
:101E4300051213D0B8C4051213D00DC6051213D052
:101E530063C6051213D0A3C6051213D01AC7051201
:101E630013D028C7051213D0FBC8051213D09B9BB0
:101E7300061213D0FD9B061213D0E19D061213D058
:101E8300B6E5051213D0F7E5051213D02DE60512BA
:101E930013D054E7051213D012E9051213D0B2E997
:101EA300051213D064E0051213D096E3051213D084
:101EB30016E4051213D0F1E4051213D096A7061207
:101EC30013D0FEA7061213D012A8061213D086A8A9
:101ED300061213D0AFC2061213D0ECC2061213D0EF
:101EE30020C3061213D029C3061213D0B2A40612BC
:101EF30013D0C5A5061213D077A6061213D091A648
:101F0300061213D03EA7061213D067A7061213D0EA
:101F1300A3FE031213D0B5FE031213D0C8FF03129E
:101F230013D0CBFF031213D069C1061213D09FC184
:101F3300061213D0B9C1061213D0FBC1061213D077
:101F43000BC2061213D0A5C2061213D024B5051274
:101F530013D02EB5051213D068B5051213D0D1B521
:101F6300051213D0EEB5051213D090B6051213D097
:101F730099B6051213D0DEB6051213D007B70512B2
:101F830013D014B7051213D085B7051213D010B8A8
:101F9300051213D05EB8051213D09CB8051213D0E6
:101FA30001B9051213D024B9051213D09BB9051238
:101FB30013D0F2B9051213D02DBA051213D062BA99
:101FC300051213D074BA051213D086BA051213D0B2
:101FD300A5BA051213D0AEBA051213D06EBB051203
:101FE30013D0BABB051213D0F8BB051213D018C017
:101FF300061213D058C1061213D0ACFD051213D02C
:10200300E2FD051213D02AFE051213D083FF051239
:1020130013D08EFF041213D044B6031213D068B743
:10202300031213D0A2B7031213D04CB9031213D067
:1020330076B9031213D0EBBB031213D02BBC0312DC
:1020430013D0C1BD031213D05EBE031213D0B0BEB2
:10205300031213D053BF031213D08BBF031213D039
:10206300CDBF031213D03CC1031213D08AC2031293
:1020730013D0BBC4031213D0E9C4031213D010C589
:10208300031213D019C5031213D069C5031213D059
:10209300FBC5031213D02AC9031213D0ADC903120F
:1020A30013D0CACF061213D0E0CF061213D0EACF53
:1020B300061213D03ED0061213D07784061213D023
:1020C3008D84061213D02E85061213D06D85061249
:1020D30013D08A85061213D0BB85061213D0088647
:1020E300061213D03B86061213D07686061213D03F
:1020F3007188061213D0D988061213D052CF051255
:1021030013D07DD1051213D0AFD2051213D0C7D28D
:10211300051213D0E3EF051213D01EF1051213D0ED
:10212300B0F2051213D0FDAD051213D0B9AE0512EE
:1021330013D029B0051213D067B1051213D004B21E
:10214300051213D09BB9061213D011BA061213D07D
:1021530045DD031213D017DE031213D061DE031221
:1021630013D016DF031213D075DF031213D022E14D
:10217300031213D08EE1031213D00AE3031213D018
:1021830036E3031213D070E5031213D099E503125B
:1021930013D0FEE5031213D050E6031213D0A1E7C8
:1021A300031213D0F4E7031213D070E8031213D011
:1021B300CEDA051213D0F5DA051213D049DD051274
:1021C30013D05CDD051213D0B1DD051213D0E3DEAD
:1021D300051213D064DF051213D067C8061213D09B
:1021E300C6C8061213D004C9061213D045C9061275
:1021F30013D0929C041213D0FB9C041213D0469D5F
:10220300041213D0819D041213D0F69F041213D02D
:1022130010A4041213D030A6041213D03EA7041244
:1022230013D018A8041213D006C9051213D039C944
:10223300051213D072CA051213D018CC051213D08D
:1022430031CC051213D0D4CC051213D037CD0512DF
:1022530013D06ECE051213D084CE061213D0CECE79
:10226300061213D019C5061213D028C5061213D0AF
:1022730069C5061213D046D2061213D040B6041213
:1022830013D0ABB6041213D0A9B7041213D02EB9CE
:10229300041213D0B4B9041213D08DBA041213D09C
:1022A3006DBB041213D08CBC041213D0A5BD041251
:1022B30013D04DC0041213D00080021213D00C802F
:1022C300021213D06E80021213D07880021213D040
:1022D3000B81021213D04781021213D0078202121C
:1022E30013D01482021213D07782021213D00C83FC
:1022F300021213D04283021213D0BF83021213D0EF
:102303005F85021213D03387021213D0148802128E
:1023130013D05E89021213D0C08B021213D0258D05
:10232300021213D0BA8D021213D0ED8E021213D003
:10233300E18F021213D01A91021213D0B095021238
:1023430013D09D96021213D03597021213D05A97C9
:10235300021213D08697021213D01E98021213D0C2
:102363003498021213D05698021213D0BC9802125A
:1023730013D0DB98021213D00499021213D0249ABB
:10238300021213D0FA9A021213D06F9C021213D0C6
:10239300909C021213D0119D021213D0B79D02120A
:1023A30013D0FF9D021213D0709E021213D0FC9E15
:1023B300021213D0609F021213D0C09F021213D0D7
:1023C3006FA0021213D0DBA0021213D00EA10212CF
:1023D30013D08CA1021213D0E8A2021213D058A377
:1023E300021213D0EAA3021213D04DA5021213D086
:1023F300D4A5021213D039A6021213D067A8021271
:1024030013D0F3A9021213D003AA021213D037AACE
:10241300021213D0A5AA021213D0E0AA021213D0FB
:1024230042AB021213D0D7AB021213D0B2AD0212D9
:1024330013D07DAF021213D087B0021213D084B42D
:10244300021213D051B5021213D069B6021213D07F
:1024530013B8021213D04791061213D0B791061284
:1024630013D0C591061213D0D392061213D0B88E8F
:10247300041213D07D8D051213D07690041213D05D
:10248300F490041213D03692041213D0579204120C
:1024930013D00F93041213D0BA93041213D09A9744
:1024A300041213D0B699041213D01D9B041213D037
:1024B300AD7F001213D0519C031213D0A99C0312B9
:1024C30013D02F9D031213D0419E031213D08E9E5F
:1024D300031213D0749F031213D08B9F031213D0D4
:1024E300DD9F031213D01AA0031213D02DA00312E1
:1024F30013D083A0031213D0DCA0031213D0F4A0D3
:10250300031213D089A3031213D0BBD2041213D026
:102513004AA4031213D082A4031213D0B2A6031247
:1025230013D0F8A6031213D042A7031213D016A890
:10253300031213D057A8031213D07AA8031213D08F
:10254300C1A8031213D0E1A8031213D062A9031286
:1025530013D0E6A9031213D040AA031213D088AAFA
:10256300031213D091AB031213D051AE031213D045
:102573007DAF031213D0BAAF031213D081B003128D
:1025830013D0C1B0031213D0C4B0031213D0CEB012
:10259300031213D0E1B0031213D066B1031213D0A8
:1025A3009CB1031213D0C8B1031213D0EFB10312BD
:1025B30013D013B2031213D0AAB2031213D01CB355
:1025C300031213D035B3031213D068B3031213D01D
:1025D30088B3031213D0C5B3031213D0FCB3031291
:1025E30013D0FBB4031213D02EB6031213D069D049
:1025F300061213D075D0061213D0BBD0061213D017
:102603002DF9051213D06BF9051213D0F7F9051242
:1026130013D002FB051213D01EFD051213D0FAC905
:10262300031213D01DCA031213D0F4CA031213D01A
:102633003DCB031213D095CB031213D0EFCB031270
:1026430013D03BCC031213D0B1CC031213D03FCD24
:10265300031213D0B7CD031213D0FACD031213D044
:10266300C8D1031213D00FD4031213D049D40312C9
:1026730013D0D3D4031213D052D5031213D01FD6C1
:10268300031213D04BD7031213D036D8031213D02F
:102693000AD9031213D08EDA031213D024DB0312E8
:1026A30013D06DEE031213D00DEF031213D077EF97
:1026B300031213D01EF0031213D07DF0031213D0B4
:1026C30029F1031213D05CF2031213D082F3031225
:1026D30013D0FBF3031213D0D3F5031213D073F605
:1026E300031213D016F7031213D075F7031213D086
:1026F30030F8031213D0F6F9031213D099FB031227
:1027030013D045FC031213D05AFD031213D03EE637
:10271300021213D0B6E6021213D0FEE6021213D051
:1027230042E7021213D08BE7021213D0D5E702124D
:1027330013D00AE8021213D088E8021213D0E2E899
:10274300021213D03BEA021213D0C4EA021213D0CE
:1027530020EB021213D03AEB021213D061EB0212F8
:1027630013D0B9EB021213D023ED021213D042EDB2
:10277300021213D06AEE021213D0E7EE021213D044
:1027830054EF021213D0B6EF021213D066F0021206
:1027930013D038F2021213D023F3021213D01DF414
:1027A300021213D023F5021213D03FF6021213D0F4
:1027B3004DF6021213D026F7021213D0C6F70212F7
:1027C30013D00AF8021213D01FF8021213D030F9F3
:1027D300021213D0D3F9021213D02BFA021213D020
:1027E300767C001213D01E7E001213D0DB7E001203
:1027F30013D0307F001213D07798061213D092981B
:10280300061213D0D698061213D0FC98061213D0D2
:102813002299061213D03A99061213D09D990612E3
:1028230013D0B299061213D0D49A061213D0DD9A9C
:10283300061213D0E69A061213D0EF9A061213D09B
:10284300F99A061213D0E688061213D0C68C061224
:1028530013D0CB8C061213D0CD8C061213D028B80C
:10286300061213D075D1061213D0D6D1061213D087
:1028730024BD061213D0E2FF051213D0A4D5011212
:1028830013D0FBD5011213D067D6011213D0F3D6A0
:10289300011213D0A9D7011213D0F1D7011213D00B
:1028A3000AD8011213D02DD8011213D04FD8011218
:1028B30013D08DD8011213D0DCD8011213D007D94D
:1028C300011213D065D9011213D00CDA011213D0FF
:1028D300B4DA011213D030DB011213D0FDDB011285
:1028E30013D049DC011213D0D1DC011213D00ADD5D
:1028F300011213D060DD011213D013DE011213D0C5
:10290300F7DE011213D008DF011213D07ADF0112B0
:1029130013D013E0011213D07DE0011213D06DE147
:10292300011213D092E1011213D08FE2011213D0DE
:102933009CE2011213D0A5E2011213D08EE401121E
:1029430013D0AAE5011213D03BE6011213D0ACE673
:10295300011213D086E8011213D051EC011213D0E7
:1029630065EC011213D075EC011213D07FEC011248
:1029730013D088EC011213D091EC011213D09BEC0D
:10298300011213D0CAEC011213D0F8EC011213D0C8
:1029930003ED011213D027ED011213D04BED0112F9
:1029A30013D0BDED011213D006EE011213D022EEA7
:1029B300011213D093EE011213D0DFEE011213D0E4
:1029C30028EF011213D066EF011213D0E7EF0112C3
:1029D30013D0B6F1011213D055F2011213D01DF327
:1029E300011213D0A9F5011213D0FEF5011213D071
:1029F30026F6011213D059F7011213D09EF70112D4
:102A030013D0F3F7011213D0A1F8011213D046F932
:102A1300011213D07BF9011213D01BFA011213D048
:102A230097FA011213D07B84011213D0AD840112E3
:102A330013D0E184011213D09586011213D0698754
:102A4300011213D0C887011213D0DE88011213D0EC
:102A53002A89011213D0C78B011213D03C8E0112A5
:102A630013D0888F011213D02090011213D02C9011
:102A7300011213D07590011213D0A890011213D034
:102A83003491011213D04692011213D0879301128D
:102A930013D08694011213D0B094011213D01B9556
:102AA300011213D07495011213D0E795011213D0BC
:102AB3001D98011213D0A399011213D08E9A0112FB
:102AC30013D0DC9B011213D0149E011213D00BA15F
:102AD300011213D01AA1011213D0AEA1011213D007
:102AE30059A2011213D09CA2011213D0E5A2011224
:102AF30013D035A3011213D0A2A3011213D00EA435
:102B0300011213D02AA4011213D059A4011213D015
:102B130098A4011213D080A5011213D02FA601127D
:102B230013D0A6A8011213D0D8A9011213D0A7AAB3
:102B3300011213D029AB011213D075AF011213D0B8
:102B4300A4AF011213D0FFAF011213D032B00112A0
:102B530013D08DB0011213D0A9B0011213D00AB152
:102B6300011213D05AB1011213D009B2011213D0BA
:102B7300CCB2011213D094B3011213D0E0B50112F9
:102B830013D06CB7011213D0C3B8011213D0DFB93D
:102B9300011213D0E2B9011213D011BA011213D0EA
:102BA30000BC011213D0C9BC011213D00ABD01121B
:102BB30013D060BE011213D0D6BE011213D009BFC9
:102BC300011213D06DBF011213D08EC1011213D0A5
:102BD300EDC1011213D0C3C2011213D0D7C2011227
:102BE30013D0EBC2011213D018C3011213D048C380
:102BF300011213D0ECC4011213D0E9C5011213D092
:102C030037C6011213D05EC6011213D039C70112A1
:102C130013D0DFC7011213D065C9011213D0ACC999
:102C2300011213D019CA011213D06ECB011213D0A3
:102C330017CC011213D04BCC011213D063CC011269
:102C430013D006CD011213D082CF011213D02AD193
:102C5300011213D04ED1011213D06CD1011213D033
:102C630038D2011213D086D5011213D02C3B001297
:102C730013D05E3B001213D0DE3F001213D02D4061
:102C8300001213D07340001213D01641001213D058
:102C93007B41001213D0BF41001213D02643001210
:102CA30013D05244001213D04F48001213D0CE4811
:102CB300001213D0F449001213D0574A001213D054
:102CC300A34B001213D03B4E001213D0C84E001278
:102CD30013D0D24E001213D0FA4E001213D0C24FAB
:102CE300001213D05750001213D08050001213D08B
:102CF300AD50001213D00253001213D0CF53001261
:102D030013D00E54001213D09054001213D03B551D
:102D1300001213D06D55001213D0B855001213D002
:102D2300F155001213D04056001213D09C560012D6
:102D330013D01E57001213D08357001213D0FB5722
:102D4300001213D0A459001213D09C5A001213D0AE
:102D5300DD5B001213D0315F001213D08D610012BE
:102D630013D04662001213D08E62001213D06F6428
:102D7300001213D0AA64001213D0B364001213D04C
:102D8300BC64001213D0C764001213D0E6640012AF
:102D930013D09965001213D0F665001213D00066A4
:102DA300001213D00A66001213D05666001213D015
:102DB3009E66001213D0A267001213D03B68001264
:102DC30013D00269001213D02C6A001213D0576B70
:102DD300001213D04D6C001213D0656C001213D087
:102DE300996C001213D0B76C001213D0FF6C001251
:102DF30013D0386D001213D0EF6D001213D0B06EE4
:102E0300001213D0236F001213D09F6F001213D040
:102E13003B70001213D06171001213D01D720012A7
:102E230013D0BD72001213D0AA73001213D0027410
:102E3300001213D0C874001213D0EB74001213D015
:102E43000076001213D04B76001213D0A77600122F
:102E530013D00F77001213D03377001213D05B77A0
:102E6300001213D0A077001213D0C477001213D02E
:102E73004878001213D03179001213D076790012FA
:102E830013D09F79001213D03D7A001213D0A87A81
:102E9300001213D0D47A001213D0B57B001213D0D2
:102EA300A8E2041213D0E0E2041213D001E30412E7
:102EB30013D043E3041213D0A7E3041213D0B1E3F6
:102EC300041213D0C1E3041213D0F8E3041213D095
:102ED300A1E7041213D069E9041213D04DEB0412D5
:102EE30013D0EFEB041213D079EC041213D056BBBA
:102EF300021213D0BABB021213D018BC021213D0A1
:102F030063BC021213D07EBC021213D0A5BC021202
:102F130013D0C2BC021213D0CEBC021213D05FBEB8
:102F2300021213D078BE021213D0F4BE021213D0D1
:102F330007BF021213D017BF021213D0BBBF021276
:102F430013D027C1021213D03AC2021213D0DAC22D
:102F5300021213D0E4C2021213D063C3021213D0BD
:102F630074C3021213D0B3C3021213D0E1C302120B
:102F730013D0AEC4021213D005C5021213D03EC53E
:102F8300021213D094C5021213D0B2C5021213D089
:102F930000C6021213D0CBC6021213D019C70212F5
:102FA30013D066C7021213D0E9C7021213D013C895
:102FB300021213D049C8021213D058C8021213D0F8
:102FC300B7C8021213D02FC9021213D070C902124C
:102FD30013D0C0C9021213D0EBC9021213D005CA11
:102FE300021213D01FCA021213D0F4CA021213D052
:102FF300FECA021213D039CB021213D049CB0212EC
:1030030013D052CB021213D0A3CB021213D0B7CBDF
:10301300021213D0D9CC021213D0F0CC021213D067
:1030230005CD021213D098CD021213D00CCE02128A
:1030330013D0B1CE021213D0BCCE021213D01CD0C7
:10304300021213D038D0021213D084D0021213D03C
:10305300F2D0021213D024D1021213D03ED10212A5
:1030630013D080D1021213D0D3D3021213D06BD456
:10307300021213D0E2D4021213D03FD7021213D09C
:1030830057D7021213D05AD7021213D066D702129F
:1030930013D07AD7021213D082D7021213D0B9D722
:1030A300021213D0ADD8021213D037D9021213D0A3
:1030B300B9D9021213D039DA021213D010DB02127B
:1030C30013D032DB021213D0CBDB021213D028DC75
:1030D300021213D02BDC021213D058DC021213D0CD
:1030E3006DDC021213D0DCDC021213D028DE0212D4
:1030F30013D03BDF021213D0C6DF021213D0D9E084
:10310300021213D09EE1021213D0CFE1021213D0A8
:10311300F5E1021213D0FEE1021213D02DE20212E6
:1031230013D0DDE2021213D08DE3021213D000E4B8
:10313300021213D0A3E4021213D016E5021213D025
:1031430055E5021213D09EE5021213D0D3E5021205
:1031530013D0608C051213D0158C051213D07F8BFE
:10316300051213D0F089051213D0ED8C041213D07D
:10317300728B041213D0708A041213D03188041294
:1031830013D0DB87041213D01E86041213D0958349
:10319300041213D00F83041213D0D9CF041213D007
:1031A30005CF041213D0CB81041213D087800412ED
:1031B30013D005CE041213D026CD041213D00080F1
:1031C300041213D0A3A2061213D07BA2061213D0AB
:1031D3000EA2061213D0AEA1061213D067B50412C5
:1031E30013D08DB4041213D0C3B3041213D032B26C
:1031F300041213D0FBB1041213D0CDB1041213D0B7
:1032030081B1041213D0EAB0041213D05AB00412DD
:1032130013D034B0041213D0E9AF041213D0B3AFF8
:10322300041213D036AF041213D0D1AE041213D04C
:1032330080AE041213D0A8AD041213D018AD04123B
:1032430013D0CCAC041213D047AC041213D002AC8D
:10325300041213D0E6AB041213D063DA051213D0B1
:103263008EAA041213D0C4D9051213D002D60512A4
:1032730013D027D5051213D0D0FF021213D0B5FFF8
:10328300021213D04492051213D0E690051213D004
:103293007D90051213D060AA041213D02DAA041234
:1032A30013D0B1A9041213D04E82061213D0149076
:1032B300051213D03F81061213D07980061213D062
:1032C3000080061213D05DE2041213D0F48E0512AF
:1032D30013D004E2041213D020A4031213D0CFE1BD
:1032E300041213D09AE1041213D066E1041213D02E
:1032F300F9E0041213D0E1E0041213D0BCE004128D
:1033030013D095DD041213D068DB041213D06FD9E8
:10331300041213D0FBD8041213D0ACD8041213D068
:1033230066D8041213D008D8041213D023860512CA
:1033330013D0368E051213D09F85051213D0B48493
:10334300051213D03C83051213D0EC80051213D061
:103353000080051213D06F8F0400000080FB000073
:103363000000201177840000010020117784000001
:10337300020020117A8400000300201178840000E9
:10338300040042116D800000050042117E800000A0
:1033930006004211A080000007002011AB8000004E
:1033A30000404211A0800000100042118F800000F5
:1033B3001100201105070000120010138C170100E3
:1033C300200020118A170100210020118B1706000D
:1033D30000001011000008000000203300000C0062
:1033E3005500393300000C001C004233000012006A
:1033F30055002001000014000E0042220000050BBE
:10340300000021010000050B010021010000050B54
:10341300000123010000050B010123010000050B3E
:10342300020123010000050B030123010000050B2A
:10343300040121010000050B050121010000050B1A
:10344300060121010000050B070121010000050B06
:10345300080121010000050B090121010000050BF2
:103463000A0121010000050B0B0121010000050BDE
:103473000C0121010000050B0D0121010000050BCA
:103483000E0121010000050B0F0121010000050BB6
:10349300100121010000050B110121010000050BA2
:1034A300120121010000050B130121010000050B8E
:1034B300140121010000050B150121010000050B7A
:1034C300160121010000050B170121010000050B66
:1034D300180121010000050B190121010000050B52
:1034E3001A0121010000050B1B0121010000050B3E
:1034F3001C0120010000050B1D01280100008F00A5
:1035030001008D1587000100FC1735000400C11769
:1035130025000200C51726000200C7172700020076
:10352300C91728000100D31729000100D41784000C
:103533000400D51786000100D9172A000100DA1705
:103543002B000100DB172C000100DF172D00080002
:1035530070152E000100E0172F000100E117300065
:103563000100E21731000100E31732000100781572
:1035730033000100791534000100E417360001001F
:103583007A1538000100E51739000100DE178300C2
:103593000200FA17630001008A1564000100DC17BA
:1035A30065000100DD176D0001008B157100080037
:1035B300681566000100F91743000100EA1744008B
:1035C3000200EB1745000100ED1746000200EE175D
:1035D30047000800821548000100F0174B00010066
:1035E300F11704000100FD17A100010000183700C6
:1035F3000100FF1788000100FE173C0001007B1546
:103603003D000100E61749000200F21767000100C0
:103613008C154D000200F4174E000100F6174F0001
:103623000200F7173E000100811551000100E71762
:1036330052000100E81753000100E917540001008C
:103643007C15000000000000000136360101000176
:103653000201000103010001040106060502000046
:10366300070100340801000F090401010D0100FFE7
:103673000E08000017020000190100FF1A010001E3
:103683001B0100FE1C0100081D0200001F010001B8
:1036930020010001210200002301000F2402000089
:1036A3002601000127010008280200FF2A01000764
:1036B3002B0102402C0100002D0100012E0100010D
:1036C3002F0100FF30010B1D310800003A010008F3
:1036D3003B01000F3C0100013D0100FF3E040000DF
:1036E30042040000460400004A0400004E040000A7
:1036F30052040000560400005A0400000000210197
:10370300000100210200000123660001012367007C
:10371300020123680003012369000401216A0005F3
:1037230001216B000601212C010701212D01080154
:10373300212E010901212F010A012130010B012151
:1037430031010C0121C8000D0121C9000E0121CA5C
:10375300000F0121CB00100121CC00110121CD006C
:10376300120121CE0013012132011401213301156D
:103773000121CF001601213401170121D0001801C6
:1037830021D100190121D2001A0121D300010371B3
:1037930003010301030103010301032203020301E4
:1037A30003100300030003000300030003000300EE
:1037B300034203000324030603000300030403126C
:1037C3000325032303250323030403040300030046
:1037D30003000344030003000323030003650321E1
:1037E3000035038103000305030003000300030006
:1037F30003250323030101710101010101110101EA
:10380300013101010101018001100161013B00143B
:103813000063017301720162014301000113010698
:10382300013D013500040112010001000100010006
:103833000104010401330133013C01440132013627
:10384300000001000165010001350081010001054F
:103853000182018301000103027102300160021140
:103863000270020102020202028002100261023AA5
:1038730000410063027302720262024302000213F8
:1038830002380000020002040212020002000200D9
:1038930002000204020402370037003C0244020023
:1038A30002390000020002650200023502810200B3
:1038B30002050282028302000203007100300160EC
:1038C30000110070003102200350048000100061D9
:1038D30000000014006300730072006200430000E4
:1038E30000130006000000000004001200000000A6
:1038F300000000000004000400370037003C0244CD
:103903000000000000000000006500000035008199
:1039130000000005000000830000003600010006DF
:103923000000000F00000000000000000000000085
:103933000003FFFF00000403FFFF0000FFFF0FF47D
:10394300010005C4040320000100000B0000000077
:103953000000000003010F00000000000000000051
:103963000000000000000000000000000000000054
:10397300000000000000000000CC232624D223D640
:1039830022D8232C24D8233824DE23D622D8232C50
:1039930024E423D622EA23D622F023D622F623D602
:1039A30022FC23D6220224D62208243E240E24D627
:1039B300220000000000000000000000001424505A
:1039C300241A24D622142450241A24D62208243E4E
:1039D300242024D6220A0000000200000004000074
:1039E300000800000010000000200000004000005C
:1039F300008000000000010000000200000004003D
:103A0300000008000000100000002000000040003B
:103A1300000100C02602003C2603004226040048A1
:103A23002605004E2606005A263000722633007EF5
:103A3300263400842611008A261400902615006C73
:103A430026FFFF000007ECFDFDFDECDCDCCCBCAC8D
:103A5300AC9C9C8C7C7C6C6C5C5C5C4C4C3C3C2CD3
:103A63002C1C1C0ADE2C02AE2C05C02C07B42C0C1B
:103A7300962C0DA22CFF000000160F00000B150B57
:103A8300020002220F3300000E5A69674265654146
:103A93006C6C69616E6365303901030507090B0DB1
:103AA3000F00020406080A0C0D140AE5D5C5B5A5D6
:103AB300A5958585756500393D3F373C3C362C44DB
:103AC3002D303016181920231A1C1E300001191628
:103AD3001816161823030000034A49434E181A25E3
:103AE3000502303017181921301B1D1F300C0E0230
:103AF3000B040B0A0708000F02040201010101096C
:103B03000200BE040AE8030000FA06483AE803ACE0
:103B13003A0E00040410030A0C0308280C05081EBF
:103B230015340900FFFF04041E74F7120DBCE9905D
:103B33001658F090160DE4F0121F10901661E4F081
:103B4300A3F0901659F0A3F0122E40121F169015F1
:103B53009DE4F0A3F012282802569774EC120DBCD2
:103B630074D71214E6EAFEEBFF548060689016588F
:103B7300E0F9121F888A088B09EA4509604F7C0027
:103B830080010CEC75F003A4F8A9F0746628F582A3
:103B9300743A39F583E493F4602CE493F88508824E
:103BA3008B83E06870DCAA08EC75F003A4F87467F3
:103BB30028F582743A39F583E493C0E0740193F5F0
:103BC30083D082120F9EAA08AB09121F76EEFAEF7A
:103BD3006480023FC0EF5420601E122D388A088B88
:103BE30009EA4509600A122CA2AA08AB09121F763A
:103BF300EEFAEF6420023FC0EEA2E0501F901612CF
:103C0300E0640F70117900122C78E960099017C1F4
:103C1300121742122C90EE6401023F95EF5440605C
:103C23004F9017B1E064067028740BF09017D9E039
:103C3300F9750801750900750A00750B00901600E7
:103C4300E0780812136AAA08AB09AC0AAD0B122973
:103C53002490157D1211E07A007B40901658E0F90C
:103C63001220D87404121402EEFAEF6440023FC02B
:103C7300EE54207003023F997A207B00901658E09F
:103C8300F91220E4EA4B4C4D701A90165D12176638
:103C9300E8494A4B700E750C01750D00750E0075E1
:103CA3000F008061750C00750D00750E00750F0017
:103CB3001220F68A088B098C0A8D0B90165D121759
:103CC30066E8494A4B602A90165D780812138940CA
:103CD3000E750CFF750DFF750EFF750FFF801285B6
:103CE300080C85090D8C0E8D0F90165D780C12143F
:103CF300A07401780C121487E50C450D450E450F91
:103D03007003023EC67C0079047A007B00122D14F6
:103D13008A088B09023DED85188285198374FFF0AB
:103D2300740112177D74FFF0740212177D74FF1271
:103D33004B86FAA3E0FB74031214C8126C321264AC
:103D4300A3122D56E964016003023DCFE508125A20
:103D53008F1252D64480F8A3E0F9742412177DE839
:103D6300F0A3E912640EA3A3A3E0C0E07426121724
:103D73007DD0E0126A24A3E054086016742412175D
:103D83007DA3E04401123FD8C0E0742812177DD010
:103D9300E0F012781D3509126D30601812781D128B
:103DA30063C4A3E0C8127B34E0F8741212177DE8F1
:103DB300F0A3E4F09083AB1211E074041214C874FE
:103DC300071214C012295474041214028508828540
:103DD3000983A3A3A3A3A3A3A3A3A37406123FD8F6
:103DE300F9122CF6850A08850B09E50845097003C5
:103DF300023EC67C007904AA08AB09122D148A0A74
:103E03008B0B850882850983A3A3A3A3E0F510A3E5
:103E1300E0F511E4F512F513780C79101216B2409F
:103E230029E5082404F8E43509F9850C10850D11FA
:103E330088828983C3E09510F0A3E0951112432192
:103E4300F8A3E0F9E849709C800E85088285098310
:103E5300A3A3A3A3E4F0A3F0850882850983A3A306
:103E6300A3A3A3A3A3A3A3A3E06401850882850955
:103E730083A3A3A3A3A3A3702BE054046003023D75
:103E83001A850882850983A3A3A3A3A3A3A3A3A33A
:103E93007406F07AB785088285098312410D122CC6
:103EA3008A023DE7A3A3A3A3E06003023D1A8508AA
:103EB30082850983A3A3A3A3A3A3A3A3A37401F04C
:103EC300023DE7122CE47C0079017A007B00122D7D
:103ED300148B09EA4509600C7A207B00901658E0A0
:103EE300F9121FB2850C0A850D0B7C0079047A0048
:103EF3007B00122D14EA4B701580538A828B83A3A7
:103F0300A3A3A31275C8E50898E5099940078A8217
:103F13008B831257027C007904122D148B0DA90D8B
:103F2300EA4970D7C3E50A9508E50B95095013C311
:103F3300E508950AF508E509950BF509E50845092E
:103F430070167A207B00901658E0F9121FB2901673
:103F53005D123FD1A3F08037E50825E0F508E509B8
:103F630033F509E4F50AF50B78081214387A207B47
:103F730000901658E0F91220D27404121402122091
:103F8300F6EAF8EBF9ECFAEDFB90165D12174EEE3C
:103F93006420FAEF8027EF5402600A122E3AEEFAF9
:103FA300EF64028018EF540460161268E5790190FB
:103FB300160B1264A5122966EEFAEF6404FB800463
:103FC3007A007B0074291214027F0C0210D8E4F0EB
:103FD300A3F0A3F022126412A3E022C082C0837470
:103FE300EA1214E67C167D007900AA18AB19121F99
:103FF3005E740812177D7402F0901601126C43125E
:104003004021740912177D126B51741312177DE44A
:1040130012683512281C7416121402026485E8F023
:10402300A3E9F090160B125F222274F7120DBC74F1
:10403300DA1214E6EAFEEBFFEE4F602DAC18AD1971
:10404300122D56740612177DE0601E741712177D29
:10405300E0FD740112177DE0FCEEFAEFFB7900122C
:104063002C4EE9600479A4800279007426025694E8
:1040730074F7120DBCEAFEEBFF8E828F83A3A3A31A
:10408300A3A3A3E05440601712758C1264A5122DEC
:10409300E6E960067AFF7BFF801512758C8003903A
:1040A30016011264A574FE6A700374FF6B604712F5
:1040B300758C12715B122DE6E98E828F83600E126E
:1040C3005BCB125A8F38F583E4F0A38003127B5F36
:1040D300F07C7E7D2C8E828F831264A5122822E9C8
:1040E300F5087015EE4F60097901EEFAEFFB122C1B
:1040F300F0A9080256977508CDAA08124109122C97
:104103008AE960E080EB8E828F83125BCF127B178C
:10411300E0F92274F6120DBCE9FEEAFF7A0F7B0088
:10412300121F70EA4B601F8A828B83740CF0EEA31C
:10413300A3F0EF8A828B83125474901658E0F9121D
:104143001F7C7900802FEEF9122D1A8A088B09A89B
:1041530008A909E849601C88828983A3A3A3A3A3B0
:10416300A3A3A3A37406127825E0F91229F6EEF9A6
:10417300122CF679100267F374F4120DBC8A088BC3
:10418300098C0A8D0B901612E0640F702CEA450916
:10419300450A450B602390160DE064086005E06452
:1041A30004701678081214387A017B00901658E0D0
:1041B300F91220D2740412140202444D74F4120D45
:1041C300BC74FC1214E6EAFEEBFF8E828F83A3A37A
:1041D300E0F9122D1A8A088B09EA45097003024295
:1041E300FC8E828F83A3A882A983E0C0E0EA240B1C
:1041F3001263C1D0E012432164F160288E828F8361
:10420300A3E064CD601E8E828F83A3E0641A6014E2
:104213008E828F83A3E064E9600A8E828F83A3E09A
:1042230064E170367900122CF0E9602EE50824046D
:10423300F50AE43509F50B85088285098312430DD8
:10424300A3E0F9850A82850B831264A5121F2285D8
:104253000A82850B8312715B806E8E828F83A3E04B
:10426300C0E0740212177DD0E0124E2F127BA11210
:104273004E21C0E0740312177DD0E0F0E508240C52
:104283001252D3AA18AB19700512294E8003122DAE
:10429300CE740212177DE064E9702D8508828509CA
:1042A30083124B9B750A01780A121444750AE97844
:1042B3000A1214441252C9124E111256D61264A590
:1042C300122D8C7402121402850882850983A3A31C
:1042D300A3A3A3A3A3A3A3E064027012850882850A
:1042E3000983A3A3A3A3A3A3A3A3A37406F08E820A
:1042F3008F83A3A3E0F9122CF6122CE49017C712B4
:10430300483D122C90740402444AA3A3A3A3A3A37D
:1043130012431722E0FCA3E0FD8E828F83221278E2
:1043230035E02274F4120DBCEAFEEBFF7508008E33
:10433300828F83A3A3A3A3A3E060487508088E829A
:104343008F83A3A3A3A3A3A3A3A3A31264A579FF0A
:10435300122AE08B0BEA450B601075082C8E828FB6
:1043630083A3A3A3A3A3E0D2E0F08E828F83A3A3AE
:10437300A3A3A3E05403640160030244464308116A
:10438300024446EE241812598B6038EE241A12594F
:104393008B6003F470131274B27003A3E0696003BB
:1043A300024446750822024446EE241B12739AEE19
:1043B300241A12598BFAEE241912598BF91229E493
:1043C3000244468E828F83A3A3A3A3A3A3A3A3A381
:1043D3001264A5122DE6E9640270037508011274D4
:1043E300B27003A3E0697006E508D2E1F508E508B9
:1043F30060158E828F83A3A3E07006E508D2E58063
:1044030004E508D2E6F5088E828F83A3A3A3A3A3B2
:10441300A3A3A3A31264A5122DE6E964017006E524
:1044230008D2E0F5088E828F83A3A3E06015EE2403
:104433001D1257E9F9122DD4E964016006E508C29B
:10444300E0F508A90880031214027F040210D8744F
:10445300F0120DBC74D71214E6EAFEEBFF8E828FC6
:1044630083A3A3A3A3E060119017C5126D32600963
:104473009017C512483D122C9074031214C88E82F3
:104483008F83A3A3A3A3124E021264A5122D56E990
:1044930070030245EB7801740512177DE0C39402A3
:1044A30040027800740712177DE0C394024002783B
:1044B30000740C12177DE064F87003A3E0F470033A
:1044C3000245EB740C12177DE064F97003A3E0F46A
:1044D30070030245EB740C12177DE064FA7003A3BA
:1044E300E0F470030245EB740C12177DE064FB707B
:1044F30003A3E0F470030245EB740612177DE0F9A1
:104503009015FBE06960030245EBE8A2E04003027B
:1045130045EB742712177DE060030245EBEE24138D
:10452300125F18742212177D126A0C241C125F1872
:10453300741012177D126B51740912177DE0601FFE
:10454300741A12177DE0FD740412177DE0FC8E824D
:104553008F83A3A31264A57901122C4EE9703D74D5
:10456300031214C0122C9CE9F508740912177DE09C
:10457300702E9015F5E0602874225508642260209F
:104583007442550864427014742012177D1248490E
:10459300600E742012177D12482660047ACF804A79
:1045A300E9A2E6504D742012177D1257EF24FD60E7
:1045B3000F14600C24FD600824FD600424FE7028A1
:1045C300742012177D12481F700E742012177D126B
:1045D300679DA3E0640D601A74031214C0122DFECC
:1045E300E96401700D0248127AD37B0012260C0293
:1045F3004812EE242DF582E43FF583124B797003C4
:10460300A3E069702275090078091214447809122D
:104613001444EE242F12598BF912482D12649F1261
:104623002D8C7402121402740912177DE0700302B8
:1046330046CE12482D12649F122E648A0A8B0BEA0F
:10464300450B700302476B740412177DE0F88E82EA
:104653008F83A3A3E028F8A3E03400F9E8240D1224
:104663004817F88A828B83A3A3A3E068600EE88AC5
:10467300828B83A3A3A312546D123FD27904E91250
:10468300177D124DF9E02AF8A3E034008882F58300
:10469300A3AA82AB83121F648A0C8B0D8C0E8D0F21
:1046A300850A82850B83A3A3A3A3780C12138940E5
:1046B3000302481290840F780C1215B3850A828581
:1046C3000B83A3A3A3A3780C1216FF90160DE0642B
:1046D300046008E064096003024812E508A2E540AB
:1046E300030247A5EE242F12598B8518828519835F
:1046F300F0EE243012598BC0E0740112177DD0E024
:10470300F0EE243112598BC0E0740212177DD0E011
:10471300F0741412177DE06401702C740E12177D6F
:104723001252E3241312598B687003A3E0697017C4
:10473300740C12177D1264A5122DE6E9640270074A
:10474300741412177DE4F0EE2425F582E43FF5831B
:104753001211E074041214C874071214C0122954FD
:104763007404121402024812901652E064016003AA
:104773000246CE742012177D1248497009E508A23B
:10478300E650030246CE741012177DE0F47003A3C3
:10479300E0F4607BEEFCEFFD74031214C0122CA84E
:1047A300806DA2E65069742012177D126C19701681
:1047B300741A12177DE06402705574031214C079E1
:1047C30000122DC88049742012177D1248267014D8
:1047D300741A12177DE06404703574031214C01246
:1047E3002DBC802B742012177D12481F700C79008A
:1047F30074031214C0122E0A8015742012177D122E
:10480300679DE0640C700874031214C0122E2274A6
:10481300290252FAF582E439F583E022127596E013
:10482300640322127596E0640722EE242BF582E4DA
:104833003FF5831273A4EE241322E0F508A3E0AA44
:1048430008FBE4FCFD221256F264062274F4120DF6
:10485300BCEAFEEBFF8C088D09901578E0600F121F
:1048630074B27003A3E06970051229D2805A7900EB
:104873008E828F83A3A3A3A3A3A3A3A3A31264A53D
:10488300122A028A828B83E58245836033A3A3A322
:10489300A3A3A3E054186028E508241C1263C112E3
:1048A30011E4E50824131263C11211E4EE24181273
:1048B300598BF912648C122A14740412140280089E
:1048C300790012648C1229D802444D74F7120DBC7E
:1048D30074F71214E6EAFEEBFF90160DE064036032
:1048E3000DE064016008E0640960030249E68E821A
:1048F3008F83A3E060030249AC7C007D007A027BD6
:1049030000121F1C1275D28A828B83125F1E9015B0
:10491300FE126B51795312280A90160DE064096058
:104923000990160B1264A5122E5E851882851983D1
:104933007401126835794212280A90160D7404F036
:1049430074011214C0794A12280474011214C87A2B
:10495300037B161221EC9017B1E0640B700574060B
:10496300F0800B790090160B1264A512296690153E
:10497300FE1273A07A037B00121F1C9016011273A0
:10498300A07A047B00121F1C9015F8E0A2E35004E8
:10499300D2F08002C2F012682B795212280A9017C3
:1049A300C1121742122C908037FC7D007A037B10D2
:1049B300121F1C9017B1E0640B7003740AF0901778
:1049C300E7E4F0FA7B40901658E0F91220DE8E827D
:1049D3008F831249ED1264A512296690160DE4F037
:1049E300122CD27409025694E0F8A3E0F990160B46
:1049F30022C082C08390159D126D32701F90160DD8
:104A0300E014600924FC600A14600C800F9015A761
:104A130080349015A3802F9015A5802AE84960085B
:104A230090159E124E0B700C8A828B83A3E0F912B1
:104A3300295A801D90159D126C1F64027005122E59
:104A43002E800E90167C126D32600612679E120F36
:104A53009E02648574F4120DBC74FE1214E68A0877
:104A63008B097A007B04901658E0F91220DEAA180D
:104A7300AB1979501228047A0F7B00121F708A0A2F
:104A83008B0BAE0AAF0BEE4F60208508828509833E
:104A9300A3E0701690160BE0F47003A3E0F4603B00
:104AA300124B737003A3E069603185088285098323
:104AB300A374EA124E2712280A7A017B16794B1245
:104AC300280A7A0B7B16795012280A7A007B16790A
:104AD300E112280AEE4F7003024B678E828F8374B4
:104AE30002F090160BE0F47003A3E0F4600A124B9B
:104AF300737003A3E069704F851882851983124987
:104B0300EBE8F0A3E9124E271228049015FE125287
:104B1300E8126B517A017B16794B1228047A007BD9
:104B23001679E1122804750A00780A121444780AE7
:104B33001214449017A71249EE1250481264A5129A
:104B43002D8C7402121402850882850983124B6C22
:104B5300A3F090160D7403F0EEFAEFFB901658E0F5
:104B6300F9121F7C740202444AA3E08E828F8322CF
:104B7300851882851983125F2290160BE06822E85C
:104B8300F0A3E9124B8A22F0850882850983E0228B
:104B9300F582E43BF583E022125F22E8FAE9FB2287
:104BA30074F5120DBC74D11214E68A088B098A823B
:104BB3008B831257E1741C1214C88A828B83A3A3BC
:104BC300A3A3A3A3A3A3124E111264A5122CD874FA
:104BD3001C12177DE0702C850882850983A3A3A38B
:104BE300A3A3A3A3A3E0C3940B40188E828F83A334
:104BF300A3A3A3A3A3A3A3E064027007126B3DE0E6
:104C0300F46003024DF490160DE064027003024C4D
:104C1300DBE064067003024CDB90159D126D32607D
:104C230008124E0B7003024D0B90160DE0640860E2
:104C330008E064046003024DF4741E12177D124DE4
:104C4300F9A3A3A3A31257E190159DE0F8496007C8
:104C5300126C256402607790160BE06E7003A3E07C
:104C63006F6003024DF474016A6016742312177D9A
:104C7300AC82AD837A1F7B161221E6E96003024DF5
:104C8300F47A007B02901658E0F91220E4EA4B4CC8
:104C93004D6003024DF490160E1217668518828537
:104CA300198312174E901614E0C0E0740412177D96
:104CB300D0E0F0740512177D7401F0740612177DAD
:104CC3007402126835122918E96003024DF1EEFAF5
:104CD300EFFB122E28024DF490159D126D327028B1
:104CE30075080078081214447808121444EE24104E
:104CF300F582E43FF583124E02A312430D1264A51D
:104D0300122D8C74021214028E828F83125F1E7412
:104D13000712177DE8F0A3E91252EE125F1E740921
:104D230012177D126A0C125EB7C0E0740B12177D66
:104D3300D0E0124E21F508A3E0F509740F780812AC
:104D430016F0740C12177DE508F0742012177DE03D
:104D5300C0E0740D12177DD0E0F0742212177DE0CD
:104D6300C0E0740E12177DD0E0F0741D12177DE0C1
:104D7300C0E0741012177DD0E0F0741E12177DE0AE
:104D8300C0E0740F12177DD0E0F0EE241012598B9F
:104D9300C0E0741112177DD0E0F0742112177DE08A
:104DA300C0E0741212177DD0E0F0742E12177DE06C
:104DB300C0E0741312177DD0E0F0742312177DA99D
:104DC30082AA8389088A09750A00780812143C7C30
:104DD300087D00741712177DAA82AB83121F5274C9
:104DE3000312140274071214C012296080031229DB
:104DF3001E742F0257F3E0FA8E828F83A3A322E05F
:104E0300F98E828F83A3A322126C26640122E0F918
:104E13008A828B83A3A3A3A3A3A3A3A3A322F01296
:104E23006B41E022F07AFE7B15795322124E332236
:104E3300F08518828519832274F2120DBC74F8125E
:104E430014E6EAFEEBFF8C0A8D0B890D90826DACA4
:104E530018AD197408121329750C00EEFCEFFDAAA6
:104E630018AB191221E6E97003750C0190165980ED
:104E73001AEEFCEFFDE508240BFAE43509FB1221D9
:104E8300E6E97023E50824141263C1124EC06024BE
:104E9300E50CA2E040DB850882850983E0650A70A2
:104EA30004A3E0650B70DD850882850983A3A3E075
:104EB300650D70D0AA08AB09740802548812570A0A
:104EC300E508450922C082C08390165902648274A2
:104ED300F7120DBC901659127843800C126F901282
:104EE30057E412200CEEFAEFFBEA4B70EF901659E1
:104EF300E4F0A3F002569774F1120DBCEAFEEBFF47
:104F0300890A8C088D098E828F83E08C828D8312AF
:104F13005EE6AE82AF83E012622B126432C4126289
:104F23002B124FB9E0126232126430A2E2E4338CE6
:104F3300828D8312642F131313541F12622B126476
:104F43002EA2E7E4338C828D83A3A3A3A3124FB9CC
:104F53008E0C8F0D750E00780C12143C7C087D00AE
:104F6300E5082407FAE43509FB121F5274031214EF
:104F730002EE2408FE50010F8E0C8F0D780C1214D4
:104F83003C7C037D00E508240FFAE43509FB121F7E
:104F9300527403121402E50AC3940F40118E828FD8
:104FA30083A3A3A3E0C0E01263BDD0E08004126337
:104FB300BDE4F00275CDA3A3125EEA0EAF832274A3
:104FC300F5120DBC8A088B098A828B83A3AE82AF4C
:104FD30083E0F912297E8E828F83E064EB6024855F
:104FE3000882850983A3E064E16018850882850946
:104FF30083A3E064F1600C850882850983A3E064E0
:105003001A7009850882850983A3E4F09017C112F9
:105013001742122C90750A01780A121444850882EB
:10502300850983A3E0F508780812144479009016E3
:105033000B1250481264A5122D8C74021214021222
:105043002CE40257F61273A490160122EAF0A3EBA4
:10505300F002648574F6120DBC90165CE0701B7C44
:105063000079017A007B00122D14EA4B600C8A82CE
:105073008B83126D326003122C840267F3C082C0EB
:10508300837904122D0EE9F8903B20E493C39840F2
:105093001079FF122D0EE9F8903B1FE493C398504B
:1050A3000479018002790002648574F0120DBC8AD0
:1050B300088B09890B750C008A828B83A3A3A3A396
:1050C300A3A3A3A3E0F9122D1A8A0E8B0FAE0EAF82
:1050D3000F750A01EE4F60030251A7850882850907
:1050E30083A3A3A3A3A3A31273A085088285098323
:1050F300A3A3A3A3A3A3A3A3E0F98508828509839C
:105103001264A5122D028A0C8B0DAE0CAF0DEE4F5F
:1051130070030252C28E828F83A3A3A3A3E4F0A3DE
:10512300F0E508240CFAE43509FB8A828B83E0C09E
:10513300E01252C9D0E0F0E508240D1252DC240D30
:10514300126B4B122DECEE240F127155E50824114E
:105153001252DC2411126B4BE50824131252D3C0F4
:10516300E01269F5D0E0F0750C01EE2406125EAB97
:10517300547FF0A3E054FC12432154046003025211
:105183001C9017D3E0F50875090074077808121608
:10519300258E828F83A3A3A3A3A3A3E04508F0A333
:1051A300E04509F08E828F83A3A312570274077818
:1051B300081216F0E5085407FCE50B606C8E828F2D
:1051C30083A3A3A3A3A3A3A3A3A37402126433126D
:1051D30055AD600B9015F91252E8A3A3126B51EC75
:1051E3007003025290EE2406127B20547FF508A32D
:1051F300E054FCF509EC24FFF50EE434FFF50F74DD
:1052030007780E121625E508450EF8E509450FF94E
:105213008A828B83126B5180748E828F83A3A3A3A4
:10522300A3A3A3E044800251A6EC7005750A008095
:105233005C8E828F83A3A3A3A3A3A3E05420600C5B
:10524300121F6AEA547F7900245F80198E828F834C
:10525300A3A3A3A3A3A3E05410601A121F6AEA54E2
:105263000F7900240A5001098E828F83A3A3A3A37D
:10527300F0A3E9800D8E828F83A3A3A3A37401F00F
:10528300A3E41252EE7404125530121FB2E50CA2BD
:10529300E0502F8E828F83A3A3A3A3126F16E0F98E
:1052A300EEFAEFFB122D08E96018126D296009EE82
:1052B300240F12649F12200CEEFAEFFB12200C75E0
:1052C3000A00A90A8034EE240CF582E43FF5832218
:1052D300F582E43509F583E022F582E43509F583A7
:1052E300125F22EE221275F6A3A3221252F22212A9
:1052F300616EA3A3A3A3221214027F080210D87421
:10530300F4120DBC74F71214E67E00122D1AEA4B48
:1053130070030253C88A828B83A3A3A3A3A3A3A36B
:10532300A3A3E0640660030253C88A828B83A3A30A
:10533300A3A3A3A3A3E0FF8A828B83127B44E0C0D1
:10534300E0740812177DD0E01256E9F8A3E0F9855E
:105353001882851983126B51122D2CEF5408606348
:105363008518828519831273A07A007B00122CFCA6
:105373008B0BEA450B704C127B931228347C007D17
:10538300007A007B0080288E828F831257EFF4709F
:1053930003A3E0F4602D90160B1243131264A512BD
:1053A300282EE9641A601C7C007D00EEFAEFFB12E4
:1053B3002CFC8A0A8B0BAE0AAF0BEE4F70C9790037
:1053C30012283A7E01EEF9740902444AC082C0836E
:1053D300EA4B700590166180068A828B83A3A31221
:1053E30055E560208A828B83A3A3A3A3A3A3A3E091
:1053F300540860E5EC4D60101255EC7003A3E06DAA
:1054030070D780047A007B0002648574F2120DBCAD
:10541300EAFEEBFF890A8C088D097A147B001220BF
:1054230006EA4B603A8A828B83A3A3A3A3A3A3A315
:10543300A3A3E41256DEA3E50A12759DA3127B9F74
:1054430012546D1256FC1254748A828B831275BAED
:10545300EA12781F3BF583E4F0125464F0A3F08062
:1054630027A3F08A828B83A3A3221275B1E4F0A34E
:1054730022A3F012547F3BF583E4F022EA12681A68
:1054830022A90A74031214027F060210D874F412BC
:105493000DBCEAFEEBFF89088C0A8D0BEE4F7003FF
:1054A30002552B7401650870127901122D0EE9F86B
:1054B300903B21E493C398502280167404650870CE
:1054C300147904122D0EE9F8903B20E493C398500D
:1054D3000A7911805574026508704D8E828F83A3FB
:1054E300A3A3A3A3A3A3A3A3E508125EE6A3127138
:1054F300F4E4F0A3F0901661126D32601A8003E0B9
:10550300F8A3E0F988828983A3A31255E5888289E9
:1055130083A3A370EA8003901661EEF0A3EF125504
:1055230030121FB27900800279C102444DF07A2013
:105533007B00901658E0F922C082C083E9F8790015
:10554300901661801D8A828B83A3A3A3A3A3A3A325
:10555300A3A3E068600574FF687001098A828B83E6
:10556300A3A31255E570DE02648574F7120DBCEA3D
:105573004B700590166180068A828B83A3A3125514
:10558300E560208A828B83A3A3A3A3A3A3A3A3A3DE
:10559300E06970E4EC60108A828B83E01255AD7091
:1055A300D780047A007B00025697F8A3E0C8127BE9
:1055B3006BE0540422C082C08390166180068A8205
:1055C3008B83A3A31255E560128A828B83A3A3A3C3
:1055D300A3A3A3A3A3E06970E580047A007B000280
:1055E3006485127843FBEA4B221256EE6C2274F266
:1055F300120DBC8A0A8B0B8C0C8D0D750800750976
:1056030000EA450B603090166180068E828F83A37B
:10561300A31257E4EE4F601EAC0CAD0DEEFAEFFB98
:10562300850A82850B83120F9EE9640170DDEEF813
:10563300EFF988088909AA08AB0902548B74F71299
:105643000DBC901661125F1E7C007D00800DE8FC8E
:10565300E9FD88828983A3A3125F1EE8496030EACB
:10566300687002EB6970E79016611264A5E86A70CE
:1056730002E96B88828983A3A37008125F1E9016C8
:10568300618009125F1E8C828D83A3A3126B5180EC
:10569300031214027F010210D874F7120DBCEAFE44
:1056A300EBFFEE4F602B122D261257121264A3123A
:1056B300200C8E828F831264A512200C126D296038
:1056C30009EE240F12649F12200CEEFAEFFB122056
:1056D3000C80C11273A48A828B83221256E2221297
:1056E30075B5A3A3A322F01256EE228A828B83E020
:1056F300F8A3E0F5838882E0221256E2A3A322A353
:10570300A3A3A312570A22E0F508A3E0F509228E0A
:10571300828F83125BCF125BC53822C082C083EABB
:10572300FCEBFDEC4D6017EC24FBF582ED34FF122E
:105733006D307007125778E0F46007121F76790511
:105743008030901658E0C0E0125778D0E0F0903BDC
:105753001AE493F97A637B16121FACE964017010A3
:105763007A007B20901658E0F9121FB2790080026C
:105773007904026485EC24FFF582ED34FFF583227E
:1057830074F4120DBCA2AFE433F508C2AF901663F4
:105793001257E4EE4F603AEE24FBF582EF34FF122A
:1057A3006D307A007B209016586007E0F9121FB223
:1057B3008005E0F9121FB8E4F50AF50B780A121414
:1057C30040EEFCEFFD7A637B16121FA674021214DF
:1057D30002E508A2E092AFEEFAEFFB02444DA3A369
:1057E300A312720CFF22F582E43FF5831256F222D4
:1057F3001214027F030210D874F2120DBC74FA1251
:1058030014E6EAFEEBFF750AFE750BFF122CEAE9BC
:1058130060057911025983EE241512598B60359076
:1058230017F1E0C43354E0F8E0333354FC48C0E0EC
:10583300126134D0E0127B74FAA3E0FB79FF122AE1
:10584300E08B09EA4509600C750AFF1269F91268D1
:10585300DFD2E0F08E828F83A3A31264A5122DE61C
:10586300E96006EE2412126802EE241312598B70BB
:105873000D903B22E493C0E01269F5D0E0F08E82F4
:105883008F83E0A2E7500454038019EE24141259C5
:105893008B70129015EAE0C0E0125EA1D0E0F090A8
:1058A30015EAE004F0125988640170169017DCE0E1
:1058B300600D9015F5E0700A8E828F83E0700312FD
:1058C30067FF8E828F83E064017011EE240B125701
:1058D300E96402700712599FE04440F0AC18AD1917
:1058E300EEFAEFFB122D508A088B0974FE650A70DD
:1058F3000374FFF4700D8E828F83A3A3E0F50AA3D4
:10590300E0F50BEA450960748E828F83E0C0E07492
:105913000112177DD0E0F0740412177D1275BAEEF0
:10592300241E125F18740212177D126B5174011238
:1059330014B8880C890D780C121440EE24201259E7
:105943009312144412599F1211E4EE240E12599328
:105953001214449015FE1211E4740812177DE0F935
:10596300AC0AAD0B122D4A7408121402E9FE74102E
:105973006E700BAA08AB0912200C80027E10EEF9A0
:105983007406025488EE2411F582E43FF583E02285
:10599300F582E43FF583E0F50C780C22EE126A0100
:1059A30022C082C08374D71214E69081C974031293
:1059B30014C874261213298A828B83A3A3A3A31268
:1059C3005F1E740E12177DE8F0A3E9125465125F8F
:1059D3001E740C12177D125A95125A8F124B96C0D1
:1059E300E0741A12177DD0E0F0126F9A125F1C74E4
:1059F3002012177D125A952415124B93C0E0740898
:105A030012177DD0E0F0EA241CF582E43B125F1C00
:105A1300741212177D125A952411124B93C0E0741D
:105A23000912177DD0E0F0EA2412124B93C0E07400
:105A33000712177DD0E0F0EA241EF582E43B125FE3
:105A43001C742412177D125A952420124B93C0E024
:105A5300742612177DD0E0124E2F74FFF0740112DA
:105A6300177D74FFF0740212177D74FFF09083ABFF
:105A73001211E074041214C874071214C0122954CA
:105A830074041214027900742902401B240DF58258
:105A9300E422E8F0A3E9F0EA2274F4120DBC74ECFA
:105AA3001214E6EAFEEBFF8C0A8D0B8909750810C8
:105AB3007A217B0012200685188285198312715B77
:105AC300851882851983126D327003025BBE7C21B7
:105AD3007D007900851882851983E0FA121F5E9094
:105AE300160B1264A5851882851983125BCB2409D2
:105AF300F582E438127159742012177D125F1E74F7
:105B03001112177DE8F0A3E9125BD5127B2E125B0D
